:020000040800F2
:10000000000001206D1F0008BD1F0008BD1F000873
:10001000BD1F0008BD1F0008BD1F00080000000034
:10002000000000000000000000000000BD1F0008EC
:10003000BD1F000800000000BD1F0008910200085D
:10004000BD1F0008BD1F0008BD1F0008BD1F000820
:10005000BD1F0008BD1F0008BD1F0008BD1F000810
:10006000BD1F0008BD1F0008BD1F0008BD1F000800
:10007000BD1F0008BD1F0008BD1F0008BD1F0008F0
:10008000BD1F0008BD1F0008BD1F0008BD1F0008E0
:10009000BD1F0008BD1F0008BD1F0008BD1F0008D0
:1000A000BD1F0008BD1F0008BD1F0008BD1F0008C0
:1000B000BD1F0008BD1F0008BD1F0008BD1F0008B0
:1000C000BD1F0008BD1F0008BD1F0008BD1F0008A0
:1000D000BD1F0008BD1F0008BD1F0008BD1F000890
:1000E000BD1F0008BD1F0008BD1F0008BD1F000880
:1000F000BD1F0008BD1F0008BD1F0008BD1F000870
:10010000BD1F00080000000000000000BD1F000827
:10011000BD1F0008BD1F0008BD1F0008BD1F00084F
:10012000BD1F0008BD1F0008BD1F0008BD1F00083F
:10013000BD1F0008BD1F00080000000000000000F7
:10014000BD1F0008BD1F0008BD1F00080000000003
:10015000000000000000000000000000000000009F
:10016000BD1F0008BD1F0008BD1F0008BD1F0008FF
:10017000BD1F0008BD1F0008BD1F0008BD1F0008EF
:10018000BD1F0008BD1F00080000000000000000A7
:04019000BD1F000887
:1001A00010B5054C237833B9044B13B10448AFF3B1
:1001B00000800123237010BD7800002000000000A3
:1001C0007828000808B5034B1BB103490348AFF377
:1001D000008008BD000000007C0000207828000896
:1001E000034613F8012B002AFBD1181A0138704777
:1001F00001F0FF01102A2BDB10F0070F08D010F8D8
:10020000013B013A8B422DD010F0070F42B3F6D1DB
:10021000F0B441EA012141EA014122F007047FF0F4
:1002200000070023F0E80256083C85EA010586EA4B
:10023000010685FA47F5A3FA87F586FA47F6A5FA87
:1002400087F68EB9EED1F0BC01F0FF0102F0070293
:1002500032B110F8013B013A83EA010313B1F8D13E
:100260000020704701387047002D06BF354603381F
:10027000073815F0010F07D1013015F4807F02BF58
:10028000013015F4C03F0130F0BC0138704700BFA9
:1002900001F092B80C480D4A08B54FF4E133C0E9BB
:1002A000002300230C22C0E902330361C0E90523C7
:1002B000C0E90733436201F017F818B1BDE8084000
:1002C00000F0BAB808BD00BFA40000200044004000
:1002D00010B5044688B01422002103A801F094FE52
:1002E0002268134B9A4220D103F5E6330321DA69E1
:1002F00042F40032DA61DA6902F400320192019AC2
:100300005A6942F400325A615B6903F40033029384
:10031000029B0C220223CDE903230723CDE9061318
:100320004FF0904003A900F0FDFC08B010BD00BFE5
:100330000044004010B50446FFF752FF214682B248
:1003400064230248BDE8104000F044BFA400002030
:1003500010B5A6B02422002107A801F055FE1422F2
:10036000002101A801F050FE5822002110A801F040
:100370004BFE102301220224CDE909234FF4004152
:100380004FF4E01306A806940C94CDE90D1301F088
:1003900095F800B1FEE70F23CDE901344FF48063F7
:1003A0000390CDE90430214601A801F035FB00B1EE
:1003B000FEE7139010A8109400F070FB00B1FEE768
:1003C00026B010BD07B5164E164D174C00F0E2FFD3
:1003D000FFF7BEFF00F0B8FAFFF75CFF00F02EF861
:1003E00001F074FD0A2000F0F9FF32882978208896
:1003F00001F0C6FC58B13388009322882B780B4952
:100400000B4801F009FE0A48FFF794FFFEE709498F
:10041000074801F021FE0648FFF78CFFF6E700BF12
:1004200002000020040000200000002090280008A6
:100430001C010020C4280008FEE700001048114AF3
:1004400008B54FF48273C0E9002300234FF4E06243
:10045000C0E902324FF400710822C0E906120722F7
:10046000C0E90433C0E908338362C0E90B23436366
:1004700000F0D7F818B1BDE80840FFF7DDBF08BDB0
:10048000B40100200038004010B5044688B01422A2
:10049000002103A801F0B8FD2268134B9A4220D135
:1004A00003F5EC330321DA69104842F48042DA6143
:1004B000DA6902F480420192019A5A6942F4802278
:1004C0005A615B6903F480230293029B4FF46042FC
:1004D0000223CDE903230523CDE9061303A900F088
:1004E00021FC08B010BD00BF0038004000040048E7
:1004F0007FB50A238DF80F0000930DF11702012339
:100500000DF10F01034800F0E1F89DF8170007B066
:100510005DF804FBB401002003685A6822F0E00291
:100520005A604268B2F5827F0AD18268B2F5004F04
:1005300002D0B2F5806F03D11A6822F040021A602F
:10054000826AB2F5005F07D11A6822F400521A607D
:100550001A6842F400521A60012380F85D300023CB
:1005600080F85C300320704770B505460C4616468F
:100570002B68986810F080000DD0621CF9D024B967
:100580002846BDE87040FFF7C7BF00F021FF801B81
:100590008442EDD8F4E770BDF7B506460C46154623
:1005A0001F4631688868204001D103B0F0BDB4F522
:1005B000C06F01BF0A7BD2B28DF807209DF80730CB
:1005C0006B1CEFD02DB9304603B0BDE8F040FFF70B
:1005D000A3BF00F0FDFEC01B8542E2D8F3E770B573
:1005E00013460D4616460A464FF4C0510446FFF71F
:1005F000D3FF28B1236E43F02003236603200FE0CE
:10060000324629462046FFF7AFFF0028F2D1334695
:100610002A464FF4C0612046FFF7BEFF0028E9D10B
:1006200070BD70B5044600284AD00023836290F85C
:100630005D3003F0FF021BB980F85C20FFF724FF58
:100640000223226884F85D301368E56823F04003D4
:10065000B5F5E06F13604FF0000333D84FF48051CD
:1006600000D0A362236B2BB9B5F5E06F8CBF0223DA
:1006700001232363D4E9013633432669A069334358
:1006800066693343E6693343266A3343A66A3343D4
:1006900000F4007633431360636A2B43656B000CF0
:1006A00000F004002B4303430B435360D36923F44E
:1006B0000063D36100200123206684F85D3070BDA3
:1006C0000120FCE71946B5F5706FC9E72DE9F8433D
:1006D0001F4690F85C30DDF82080012B04460D4663
:1006E000164600F01781012380F85C3000F070FEA0
:1006F00094F85D306168DBB2012B81460AD0B1F518
:10070000827F40F00381A268002A40F0FF80042B22
:1007100040F0FC80002D00F0FB80002E00F0F880FF
:10072000002F00F0F58094F85D30E0682664042B1B
:100730001CBF052384F85D300023B0F5E06F23660D
:10074000C4E91333A4F84670A4F84470A563E7879E
:10075000A787236803D8B4F84620012A2ED95A68FF
:1007600022F480525A601A6857065EBF1A6842F037
:1007700040021A60B0F5E06F58D919B1E28F92B219
:10078000012A06D135F8022BDA60E38F013B9BB2D8
:10079000E3870127E38F9BB2A3B9B4F846309BB23D
:1007A00083B94A4641462046FFF719FF002840F02A
:1007B000AA80206E003018BF01202FE05A6842F452
:1007C0008052CFE777B1E38F9BB25BB123689A6821
:1007D000920707D535F8022BDA60E38F013B9BB215
:1007E000E3870027B4F846309BB26BB123689A6860
:1007F000D00709D5DB6826F8023BB4F84630013B48
:100800009BB2A4F846300127B8F1FF3FC2D000F0F8
:10081000DFFDA0EB09004045BCD30320012384F891
:100820005D30002384F85C30BDE8F88319B1E28FB5
:1008300092B2012A10D1E28F012A8BBF35F8022B28
:1008400015F8012BDA601A738BBFE38FE38F023B3D
:1008500003F1FF339BB2E387012740E0C7B1E38F89
:100860009BB2ABB123689A68910711D5E28F012A38
:100870008BBF35F8022B15F8012BDA601A738BBF8A
:10088000E38FE38F023B03F1FF339BB2E387002743
:10089000B4F846309BB2CBB123689A68D20715D51D
:1008A000B4F84620012A24D9DA6826F8022BB4F8D5
:1008B0004620023A92B2A4F84620B4F84620012A13
:1008C00003D85A6842F480525A600127B8F1FF3FBA
:1008D00005D000F07DFDA0EB090040459DD2E38FDF
:1008E0009BB2002BBAD1B4F846309BB2002BB5D1E5
:1008F00057E71B7B06F8013BB4F84630013B9BB23F
:10090000A4F84630E1E72023236652E7022085E77A
:10091000012083E7022087E70A4B9A6942F001022F
:100920009A619A6982B002F001020092009ADA6933
:1009300042F08052DA61DB6903F080530193019B3E
:1009400002B07047001002402DE9F04114228AB035
:100950000DEB0200002101F057FB4B4B4B4E5A6947
:1009600042F400225A615A6902F400220092009A6D
:100970005A6942F480025A615A6902F48002019273
:10098000019A5A6942F400325A615A6902F40032FB
:100990000292029A5A6942F480225A615A6902F418
:1009A00080220392039A5A6942F480125A615B6969
:1009B00003F48013049300224FF484614FF09040BD
:1009C000049B00F07FFA01223046082100F07AFAF9
:1009D000002403254FF6FF7305A92D480794CDE9A0
:1009E000053500F09FF905A92A480794CDE905557A
:1009F00000F098F94FF6D31305A94FF09040012766
:100A0000CDE905354FF00208079400F08BF920235B
:100A100005A94FF09040CDE90537CDE9078400F0F6
:100A200081F941F6F77305A93046CDE905350794FC
:100A300000F078F94FF4007305A94FF09040CDE92C
:100A40000534CDF81C8000F06DF94FF4806305A9E2
:100A50004FF09040CDE90537CDE9074400F062F949
:100A6000042305A90C480794CDE9053500F05AF98F
:100A7000082305A93046CDE90537CDE9074400F044
:100A800051F90AB0BDE8F0810010024000040048AE
:100A90000008004800140048000C004803682DE9D5
:100AA000F347DF03044623D59B4DEB69DE0000F1DD
:100AB000D780EB6943F08053EB61EB6903F080531F
:100AC0000193019B0126954F3B68D80540F1CA80F0
:100AD0002B6A13F4407340F0DA802B6A626823F4C7
:100AE000407313432B621EB1EB6923F08053EB611B
:100AF0002068C30706D5884AA168136B23F0030357
:100B00000B431363870706D5834AE168136B23F40D
:100B100040330B431363460706D57F4A2169136BA5
:100B200023F440230B431363850606D57A4AE16913
:100B3000136B23F010030B431363810306D5764A2E
:100B4000616D536823F480030B435360420606D55E
:100B5000714A216A136B23F020030B431363430391
:100B600006D56D4A616A136B23F040030B43136390
:100B7000070706D5684A6169136B23F440130B43DA
:100B80001363C60606D5644AA169136B23F44003B8
:100B90000B431363850506D55F4A216B536823F425
:100BA00000030B435360010606D55B4AA16AD36A72
:100BB00023F4F8730B43D362C20506D5564AE16AA3
:100BC000D36A23F478530B43D362C30406D5524A45
:100BD000616B136B23F480730B431363870406D597
:100BE0004D4A216C136B23F400730B431363C6024D
:100BF00006D5494AA16B136B23F080730B43136333
:100C0000850206D5444AE16B136B23F000730B4356
:100C10001363410206D5404A616C136B23F4806371
:100C20000B431363020206D53B4AA16C136B23F4FA
:100C300000630B431363C30106D5374AE16C136BA2
:100C400023F400530B43136310F000701CD0324A9E
:100C5000216D136B23F400430B431363002013E057
:100C6000002630E73B6843F480733B6000F0B0FB44
:100C700080463B68D9053FF52BAF00F0A9FBA0EB00
:100C800008006428F5D9032002B0BDE8F087626847
:100C900002F440729A423FF420AF296A4FF4803345
:100CA00021F4407093FAA3F2DFF874C0B2FA82F232
:100CB000624492000127176093FAA3F3B3FA83F317
:100CC00063449B0000221A60CA0728627FF505AFC3
:100CD00000F07EFB4FF002088246C14698FAA8F366
:100CE00098FAA8F3A3B12A6A99FAA9F3B3FA83F39D
:100CF00003F01F0307FA03F313427FF4EEAE00F094
:100D000067FB41F28833A0EB0A009842E6D9BAE7C4
:100D100098FAA8F36A6AE7E7001002400070004002
:100D2000008190102DE9F74FD1F80080DFF8909105
:100D3000614A002338FA03F402D103B0BDE8F08F12
:100D40004FF0010C0CFA03FC1CEA080600F0A68028
:100D50004C6824F01007022F16D14FEAD30A00EB9B
:100D60008A0A03F0070BDAF820504FEA8B0B4FF09A
:100D70000F0E0EFA0BFE25EA0E0E0D6905FA0BF5A5
:100D800045EA0E05CAF820504FEA430A0325D0F879
:100D900000B005FA0AF5ED4304F0030E05EA0B0B6B
:100DA0000EFA0AFE013F4EEA0B0E012FC0F800E0DA
:100DB00011D8876807EA050BCF6807FA0AFE4EEAE2
:100DC0000B078760476827EA0C0CC4F300179F40A5
:100DD00047EA0C074760C7683D408F6807FA0AF783
:100DE0003D43C560E50059D5D9F8185045F00105D7
:100DF000C9F81850D9F8185023F0030707F18047B5
:100E000005F0010507F58037019503F0030E019DFC
:100E1000BD684FEA8E0E4FF00F0C0CFA0EFCB0F1CD
:100E2000904F25EA0C0C3BD0244DA8423AD005F552
:100E30008065A84238D005F58065A84236D005F512
:100E40008065A84234D005F58065A84232D005F50A
:100E50008065A8420CBF0625072505FA0EF545EA70
:100E60000C05BD601568F74314F4803F0CBF3D408E
:100E700035431560556814F4003F0CBF3D403543C1
:100E80005560956814F4801F0CBF3D403543956054
:100E9000D568A40254BF3D403543D560013349E7CE
:100EA0000025DAE70125D8E70225D6E70325D4E7B0
:100EB0000425D2E70525D0E70004014000040048DE
:100EC000001002400AB181617047816270470000E2
:100ED0000268C16938B50446836800691568034330
:100EE0006069034372480B4328400343136053680F
:100EF000E068256A23F44053034353609068A36974
:100F000020F430602B43034393606A4B9A4212D122
:100F100003F5584368481B6B03F00303C35CB1F54A
:100F2000004F7DD1082B78D8DFE803F06274237777
:100F3000B7777777BD00614B9A4223D103F5E6334B
:100F40001B6B03F44033B3F5803F00F0A38006D859
:100F5000002BE4D0B1F5004F5FD0012059E0B3F58C
:100F6000003F00F09D80B3F5403FF3D1B1F5004F55
:100F70007DD16068430803F5740303F51053B3FB98
:100F8000F0F33DE04E4B9A420ED103F5E4331B6B78
:100F900003F44023B3F5802F7CD0D9D9B3F5002FCB
:100FA0007ED0B3F5402FE0E7464B9A420ED103F5D1
:100FB000E2331B6B03F44013B3F5801F6AD0C7D92B
:100FC000B3F5001F6CD0B3F5401FCEE73E4B9A42FD
:100FD000C0D103F5E0331B6B03F44003B3F5800F7E
:100FE00058D0B5D9B3F5000F5AD0B3F5400FBCE7D0
:100FF00000F0BAFD61684A0802EB4003B3FBF1F36D
:101000009BB2002023F00F022168C3F34203134375
:10101000CB6038BD00F0C0FDECE701200023F1E714
:10102000082B9AD801A151F823F000BF51100008F5
:10103000691000086F1000085B0F00088510000899
:101040005B0F00085B0F00085B0F00088B100008A7
:1010500000F08AFDD4E9002300EB5300B0FBF3F06D
:1010600080B2D0600020D4E700F096FDF2E761681E
:101070004B0803F5F40303F59053B3FBF1F39BB274
:10108000D360EFE700F09CFCE4E761684B0803F5F0
:101090000043F2E7B1F5004FF4D100F091FCA9E76D
:1010A000B1F5004FF1D16068430803F5803366E77E
:1010B000F369FFEF00380140DB28000800440040DE
:1010C00000480040004C004000500040436ADA07EE
:1010D00010B506D50168846A4A6822F400322243BA
:1010E0004A609C0706D50168C46A4A6822F48032C7
:1010F00022434A60590706D50168046B4A6822F406
:10110000802222434A601A0706D50168446B4A6868
:1011100022F4004222434A60DC0606D50168846B53
:101120008A6822F4805222438A60990606D50168B3
:10113000C46B8A6822F4005222438A605A060FD593
:101140000168046C4A6822F480122243B4F5801FBF
:101150004A6005D14A68446C22F4C00222434A60C6
:101160001B0606D50268816C536823F400230B43E9
:10117000536010BD2DE9F041069D04460F4616460A
:1011800098462168CA6937EA02030CBF012200228F
:10119000B24201D0002014E06B1CF3D09DB923684B
:1011A0001A6822F4D0721A609A6822F001029A60DA
:1011B000202384F8693084F86A30002384F868308A
:1011C0000320BDE8F08100F003F9A0EB0800A8427D
:1011D000D7D9E4E72DE9F3411F4690F86930202B79
:1011E00004460D4690464BD1002947D0002A45D0F1
:1011F00090F86830012B43D0012380F86830002339
:10120000C366212380F8693000F0E2F8A4F850802A
:101210000646A4F85280B4F8522092B262B9009700
:10122000334640212046FFF7A5FF98B9202384F8D4
:10123000693084F868000EE0B4F852300097013B42
:101240009BB2A4F852300022334680212046FFF79B
:1012500091FF18B1032002B0BDE8F081A3682268B5
:10126000B3F5805F07D123692BB935F8023BC3F38F
:1012700008031385CFE715F8013BFAE70120EAE7F9
:101280000220E8E773B504460026C66600F0A0F821
:1012900023681B681A07054617D423681B685B0779
:1012A0000AD56FF07E43009300222B464FF4800155
:1012B0002046FFF75FFFA0B92023002084F86930A3
:1012C00084F8680084F86A300CE06FF07E43009385
:1012D000324603464FF400112046FFF74BFF00282B
:1012E000DBD0032002B070BD10B5044660B390F8A7
:1012F000693003F0FF021BB980F86820FEF7E8FFB1
:101300002268242384F86930136823F001031360F2
:101310002046FFF7DDFD012816D0636A13B1204691
:10132000FFF7D4FE23685A6822F490425A609A6804
:1013300022F02A029A601A6842F0010220461A60DE
:10134000BDE81040FFF79EBF012010BD38B50E4A22
:101350000E4B054618784FF47A73B3FBF0F3106820
:10136000B0FBF3F000F094F8044658B90F2D09D8FB
:10137000024629464FF0FF3000F056F8044B204655
:101380001D6038BD0120FCE70C0000200500002096
:1013900008000020074A08B5136843F010031360E3
:1013A000032000F02FF80020FFF7D0FFFFF7B4FA7A
:1013B000002008BD00200240034A044B11681B783E
:1013C0000B441360704700BF180200200500002086
:1013D000014B1868704700BF1802002038B504465A
:1013E000FFF7F6FF631C1CBF054B1B78054618BFB3
:1013F000E418FFF7EDFF401BA042FAD338BD00BF51
:1014000005000020074AD36823F4E06300021B04B0
:1014100000F4E0601B0C184340F0BF6040F4003063
:10142000D060704700ED00E0174B70B5DC68C4F386
:101430000224C4F10705042D04F1040328BF042588
:101440004FF0FF36062B06FA05F58CBF033C00244F
:1014500021EA0501A14006FA04F422EA0403002867
:1014600043EA0103A8BF00F160404FEA0313BCBF89
:1014700000F00F00054ADBB2AABF00F5614013542B
:1014800080F8003370BD00BF00ED00E014ED00E017
:101490000138B0F1807F0AD2064B074A5860F0212C
:1014A00082F823100020072298601A6070470120FC
:1014B000704700BF10E000E000ED00E02DE9F347C9
:1014C000054618B9012002B0BDE8F0870368DF07C0
:1014D00011D42B689E0700F188802B681C0700F14F
:1014E000FC802B68580700F14581AA69002A40F06A
:1014F000DC810020E7E7BD4C636803F00C03042B9C
:101500000AD0636803F00C03082B19D1636803F455
:10151000C033B3F5803F13D14FF4003393FAA3F2F5
:10152000216893FAA3F3B3FA83F303F01F030122B4
:1015300002FA03F30B42CCD06B68002BC9D1C1E790
:101540006B68B3F5803F1ED1236843F4803323607A
:10155000FFF73EFF4FF400368046012796FAA6F3C8
:10156000226896FAA6F3B3FA83F303F01F0307FA8F
:1015700003F31342ADD1FFF72BFFA0EB0800642863
:10158000ECD903209FE70BBB236823F4803323604F
:10159000236823F480232360FFF71AFF4FF40036FB
:1015A0008046012796FAA6F3226896FAA6F3B3FAC4
:1015B00083F303F01F0307FA03F3134289D0FFF705
:1015C00007FFA0EB08006428ECD9DAE7B3F5A02FF9
:1015D000236803D143F480232360B5E723F48033E9
:1015E0002360236823F48023B1E7804C636813F001
:1015F0000C0F0AD0636803F00C03082B25D1636835
:1016000003F4C033B3F5004F1FD1022393FAA3F2C2
:10161000216893FAA3F3B3FA83F303F01F030122C3
:1016200002FA03F30B4203D0EB6893427FF44AAF14
:101630002168F82393FAA3F3B3FA83F22B6993405A
:1016400021F0F8021343236047E7EA6801260AB352
:1016500096FAA6F3B3FA83F303F1845303F58413E4
:101660009B0002271E60FFF7B3FE804697FAA7F3A0
:10167000226897FAA7F3B3FA83F303F01F0306FA7D
:1016800003F31342D4D1FFF7A3FEA0EB0800022816
:10169000ECD976E796FAA6F3B3FA83F303F1845311
:1016A00003F584139B0002271A60FFF791FE804622
:1016B00097FAA7F3226897FAA7F3B3FA83F303F034
:1016C0001F0306FA03F313423FF407AFFFF780FE50
:1016D000A0EB08000228EBD953E76A69434E44495E
:1016E00001241AB394FAA4F3B3FA83F30B449B00D6
:1016F00002271C60FFF76CFE804697FAA7F397FA63
:10170000A7F397FAA7F3726A97FAA7F3B3FA83F3EA
:1017100003F01F0304FA03F313427FF4E2AEFFF772
:1017200057FEA0EB08000228E7D92AE794FAA4F3B1
:10173000B3FA83F30B449B0002271A60FFF748FEBD
:10174000804697FAA7F397FAA7F397FAA7F3726A76
:1017500097FAA7F3B3FA83F303F01F0304FA03F332
:1017600013423FF4BEAEFFF733FEA0EB08000228A1
:10177000E7D906E71D4CE369D90034D4E36943F0A7
:101780008053E361E36903F080530193019B0126D9
:10179000184F3B68DA052FD5AB68012B3DD1236A82
:1017A00043F001032362FFF713FE02278246B94686
:1017B0004FF0010897FAA7F397FAA7F3002B6CD024
:1017C000226A99FAA9F3B3FA83F303F01F0308FA24
:1017D00003F3134258D0002E3FF487AEE36923F0A1
:1017E0008053E36181E60026D2E700BF001002408B
:1017F00020819010007000403B6843F480733B6090
:10180000FFF7E6FD80463B68DB05C5D4FFF7E0FD4A
:10181000A0EB08006428F6D9B3E63BBB236A23F0AB
:1018200001032362236A23F004032362FFF7D0FD40
:1018300002278246B9464FF0010897FAA7F397FAB4
:10184000A7F373B3226A99FAA9F3B3FA83F303F007
:101850001F0308FA03F31342BDD0FFF7B9FD41F2AD
:101860008833A0EB0A009842E7D98AE6052B236A61
:1018700003D143F00403236291E723F001032362C1
:10188000236A23F004038DE7FFF7A2FD41F28833BA
:10189000A0EB0A0098428DD973E697FAA7F3626A23
:1018A0008FE797FAA7F3626ACDE7444C636803F0C9
:1018B0000C03082B3FF406AE022A4FF0807358D178
:1018C00093FAA3F3B3FA83F303F1845303F5841378
:1018D0009B0000221A60FFF77BFD4FF000778046E7
:1018E000012697FAA7F3226897FAA7F3B3FA83F3CE
:1018F00003F01F0306FA03F3134233D1E36A6A6A63
:1019000023F00F031343E362D5E9071362680B4327
:1019100022F47612134363604FF0807393FAA3F3BB
:10192000B3FA83F303F1845303F584139B004FF060
:1019300000751E60FFF74CFD0126074695FAA5F3DA
:10194000226895FAA5F3B3FA83F303F01F0306FAAE
:1019500003F313427FF4CDADFFF73AFDC01B02281D
:10196000ECD90EE6FFF734FDA0EB08000228B8D949
:1019700007E693FAA3F3B3FA83F303F1845303F571
:1019800084139B0000221A60FFF722FD4FF00075C0
:101990000746012695FAA5F3226895FAA5F3B3FA4E
:1019A00083F303F01F0306FA03F313423FF4A1ADE0
:1019B000FFF70EFDC01B0228ECD9E2E50010024043
:1019C00011494B6803F00C02082A1AD14FF4701227
:1019D00092FAA2F20F20B2FA82F2C96A90FAA0F04B
:1019E000B0FA80F001F00F0103F47013D340C1404E
:1019F000064A0748415C0748B0FBF1F1D05C484318
:101A000070470448704700BF00100240DF280008FC
:101A1000EF28000800127A002DE9F0410D46044637
:101A200010B90120BDE8F0814B4A136803F00703A9
:101A30008B422DD32268910735D4D2073BD4464A36
:101A4000136803F00703AB4273D82268434D12F0CA
:101A5000040F7AD1130706D56B68226923F460530B
:101A600043EAC2036B60FFF7ABFF6B68F02292FAA8
:101A7000A2F2B2FA82F203F0F003D340384AD35C08
:101A8000D840384B18600020FFF760FC0020C9E701
:101A9000136823F007030B431360136803F0070375
:101AA0008B42BED1C6E72D49A0684B6823F0F003F6
:101AB00003434B60C1E76268284E012A26D14FF4E8
:101AC000003393FAA3F1316893FAA3F3B3FA83F3E3
:101AD00003F01F0302FA03F30B42A2D0736823F052
:101AE00003031A437260FFF773FC41F2883807461C
:101AF0007368626803F00C03B3EB820F9FD0FFF7AB
:101B000067FCC01B4045F3D903208BE7022A0CBFBA
:101B10004FF00073022393FAA3F1306893FAA3F312
:101B2000B3FA83F303F01F03012101FA03F3034225
:101B3000D3E7136823F007032B431360136803F004
:101B40000703AB427FF46DAF7FE76B68E16823F476
:101B5000E0630B436B607DE7002002400010024011
:101B6000FF2800080C000020084B4FF4E0625B687F
:101B700092FAA2F2B2FA82F203F4E063D340044A8A
:101B8000D35C044A1068D840704700BF0010024080
:101B90000F2900080C000020084B4FF460525B68CE
:101BA00092FAA2F2B2FA82F203F46053D340044AEA
:101BB000D35C044A1068D840704700BF0010024050
:101BC0000F2900080C0000201549D1F8883043F493
:101BD0007003C1F88830134B1A6842F001021A6092
:101BE0005868114A02405A601A6822F0847222F43E
:101BF00080321A601A6822F480221A605A6822F42D
:101C0000FE025A60DA6A22F00F02DA62186B074AA3
:101C100002401A6300229A604FF000638B607047A5
:101C200000ED00E0001002400CC07FF8CCFC00FF8B
:101C300008B500F063F90020BDE8084000F06CB979
:101C400008B5012000F068F9BDE8084000F05EB971
:101C500010B50446FFF7ECFF04F07F00FEF748FCE8
:101C60000020FEF745FC0446FFF7EAFF204610BDC2
:101C700038B505460C46FFF7DBFF45F08000FEF760
:101C800037FC2046FEF734FCBDE83840FFF7D8BFEC
:101C900038B51F4C23788342054613D0042811D849
:101CA000DFE800F02921191103000120FFF7D0FF20
:101CB00000F0E30141F00C010120FFF7D9FF237888
:101CC000FBB1257038BD0120FFF7C2FF00F0E30132
:101CD00041F01001F0E70120FFF7BAFF00F0E30147
:101CE00041F00801E8E70120FFF7B2FF00F0E3014F
:101CF00041F00401E0E70120FFF7AAFF00F0E30153
:101D0000DAE72720FFF7A4FF0306D8D5D9E700BFFD
:101D10001000002008B51A211320FFF7A9FF044B7B
:101D20001978112041F08001BDE80840FFF7A0BFFD
:101D30001100002070B504460120FFF7A9FF7CB117
:101D4000FFF776FFBE20FEF7D3FB651E04F10F06FA
:101D500015F8010FFEF7CCFBB542F9D1FFF770FF84
:101D60003D20FFF775FF20F00100002C0CBF01465D
:101D700040F00101C9B23D20BDE87040FFF778BFD7
:101D800070B5484B484D8CB0CDE90053474B02939A
:101D900007238DF80C3040F23B1398420E4666D074
:101DA00040F2B113984264D0B0F5597F0CBFD923EB
:101DB000E4238DF80D3008238DF80E3040F23B13EC
:101DC000984258D040F2B113984256D0B0F5597F9E
:101DD00014BFC023002336498DF80F30354B3648E9
:101DE000364C8DF82120CDE90413354BCDE906039F
:101DF00030238DF8203049F23703ADF82230314BD3
:101E00000120CDE90943FF23ADF82C3000F084F820
:101E10000020FFF78FFF0024E3B20CAA02EB43037C
:101E2000013413F8300CFF2829D10025ECB20CAB9B
:101E300003EB440414F8300CFF2825D10020FFF7F1
:101E400069FF0120FFF724FF322000F085F82720EA
:101E5000FFF7FEFE030603D400F066F80028F6D074
:101E600000F062F8D0B9184B01201E7017E04E2325
:101E70009FE76C239DE7C023ADE74023ABE713F852
:101E80002F1CFFF7F5FEC7E7282801D10135CDE764
:101E9000FFF7DEFE14F82F3C8342F7D000200CB091
:101EA00070BD00BF030204400104020005030633B5
:101EB0000900194225402607281029DC38423C8FAA
:101EC0002E882F2D3D126F301F02002008B50122F1
:101ED0004FF480614FF09040FEF7F4FF0120FFF7D0
:101EE0007DFA4FF0904000224FF48061FEF7EAFF48
:101EF0003220BDE80840FFF771BA0000024B002213
:101F00001A700120704700BF6B020020014B0120B6
:101F1000187070476B020020024608210148FEF746
:101F2000D1BF00BF0004004808B5FFF751FA074BC6
:101F30001B68984208D30649064800F08DF805480A
:101F4000FEF7F8F9012008BD0020FCE7940000200E
:101F5000172900081C01002010B50446FFF738FAC5
:101F6000014B2044186010BD94000020DFF834D0ED
:101F7000002103E00C4B5B58435004310B480C4BE1
:101F800042189A42F6D30B4A02E0002342F8043B7F
:101F9000094B9A42F9D3FFF717FE00F011F8FEF74C
:101FA00011FAFEE70000012060290008000000206F
:101FB000780000207800002080020020FEE700006A
:101FC00070B50D4D0D4C641BA4100026A64209D11E
:101FD0000B4D0C4C00F050FC641BA4100026A642D4
:101FE00005D170BD55F8043B98470136EEE755F82A
:101FF000043B98470136F2E75829000858290008A1
:10200000582900085C29000802440346934200D185
:10201000704703F8011BF9E70EB400B59CB01DAB87
:10202000029006906FF00041094807910491094918
:1020300053F8042B05910068019302A900F070F891
:10204000029B00221A701CB05DF804EB03B07047CD
:10205000140000200802FFFF034611F8012B03F8CB
:10206000012B002AF9D170472DE9F0478E689E4276
:1020700082460C469146984638D8B1F80CC01CF4FC
:10208000906F31D062692568096902EB42026F1ACC
:1020900002EBD272013355103B449D4238BF1D46BE
:1020A0001CF4806F30D0294600F032FB064650B950
:1020B0000C23CAF80030A38943F04003A3814FF0FA
:1020C000FF30BDE8F0873A46216900F0ABFAA389FA
:1020D00023F4906343F08003A381266165613E444D
:1020E000ED1B2660A5604646464500D94646324669
:1020F0004946206800F0A4FAA3689B1BA3602368EC
:102100001E4426600020DCE72A4600F05BFB064602
:102110000028E2D12169504600F0ACFAC8E700007F
:102120002DE9F04F1E468B891B069DB007460D46D4
:1021300014460ED50B6963B9402100F0E9FA286016
:10214000286120B90C233B604FF0FF30C9E04023E9
:102150006B610023099320238DF82930DFF89C91CF
:10216000039630238DF82A304FF0010A23461E468D
:1021700013F8012B0AB1252AF9D1B6EB040B0BD0C9
:102180005B46224629463846FFF76EFF013000F0D5
:10219000A380099B5B4409933378002B00F09C805B
:1021A00000234FF0FF32CDE9052301360493079356
:1021B0008DF853301A933446052214F8011B4F480A
:1021C000FEF716F8049BC0B9D90644BF20228DF84B
:1021D00053201A0744BF2B228DF8532032782A2A25
:1021E00013D0079A344600200A26214611F8013BF5
:1021F000303B092B4BD970B914E0A0EB09000AFA67
:1022000000F0184304902646D5E7039A111D126882
:102210000391002A01DB079204E0524243F00203DB
:102220000792049323782E2B0CD163782A2B33D179
:10223000039B1A1D1B680392002BB8BF4FF0FF339E
:10224000023405932E4E217803223046FDF7D0FF4D
:1022500038B14023801B03FA00F0049B0343013490
:10226000049314F8011B27488DF828100622FDF767
:10227000BFFF002838D0244B13BB039B073323F048
:10228000070308330393099B434409936EE706FB56
:10229000023201200C46A8E70023013405931946B9
:1022A0000A26204610F8012B303A092A03D9002BC0
:1022B000C8D00591C6E706FB012101230446F0E7DB
:1022C00003AB00932A46114B04A93846AFF30080B4
:1022D000B0F1FF3F8046D6D1AB895B063FF534AF06
:1022E00009981DB0BDE8F08F03AB00932A46074B59
:1022F00004A9384600F082F8EAE700BF2329000865
:10230000292900082D290008000000006920000884
:102310002DE9F04791461F468A680B69DDF8208059
:102320009342B8BF1346C9F8003091F843200646DF
:102330000C4612B10133C9F800302368990642BF38
:10234000D9F800300233C9F80030256815F00605C9
:1023500007D104F1190AE368D9F800209B1AAB42AF
:1023600028DC94F843302268003318BF012392061A
:102370002DD404F1430239463046C047013020D005
:102380002368E568D9F8002003F00603042B08BF92
:10239000AD1AA36822690CBF25EAE57500259342B2
:1023A000C4BF9B1AED184FF000091A344D451AD1DD
:1023B000002008E00123524639463046C04701302C
:1023C00003D14FF0FF30BDE8F0870135C3E7E118D6
:1023D0005A1C302081F84300224494F8451082F8BA
:1023E00043100233C5E70123224639463046C04731
:1023F0000130E6D009F10109D8E700002DE9F043EA
:1024000006460C4601F14300097E85B06E299846C8
:1024100017460C9B00F0BA8024D8632939D00AD81B
:10242000002900F0C380582900F0918004F1420592
:1024300084F8421035E0642901D06929F6D1256875
:102440001A6815F0800F02F104012CD0126819608F
:10245000002A03DA2D23524284F84330DFF8BCC14E
:102460000A233FE0732900F0A58008D86F2921D006
:102470007029DBD1226842F02002226003E0752936
:1024800018D07829D2D1782284F84520DFF890C17D
:1024900061E01A68111D1960136884F8423004F174
:1024A0004205012393E01268196015F0400F18BF30
:1024B00012B2CDE7D4F800C01A681CF0800F02F108
:1024C00004051D6001D0126803E01CF0400FFAD033
:1024D0001288DFF848C16F290CBF08230A230021A6
:1024E00084F843106568A560002DA2BF216821F023
:1024F000040121600AB9002D46D00546B2FBF3F174
:1025000003FB112E93421CF80EE005F801ED39D9BA
:10251000082B0BD12368DA0708D5236962689A4231
:10252000DEBF302305F8013C05F1FF35401B20617B
:10253000CDF800803B4603AA21463046FFF7E8FE6F
:10254000013049D14FF0FF3005B0BDE8F083DFF82E
:10255000CCC084F845101D68216855F8042B1D6017
:102560000D060BD5CD0744BF41F0200121601AB9FB
:10257000236823F0200323601023B0E74B0648BFF5
:1025800092B2EFE70A46B9E70546C1E71A68D4F800
:1025900000C06169151D1D601CF0800F136801D01B
:1025A000196003E01CF0400FFAD01980002323616A
:1025B0000546BDE71A68111D19601568626800219B
:1025C0002846FDF715FE08B1401B60606368236173
:1025D000002384F84330ABE723692A463946304666
:1025E000C0470130AED023689B0713D4E068039B3B
:1025F0009842B8BF1846A7E701234A4639463046F5
:10260000C04701309ED00135E368039A9B1AAB4264
:10261000F2DCEBE7002504F11909F5E7342900089D
:10262000452900080A44914200F1FF3300D1704768
:1026300010B511F8014B03F8014F9142F9D110BDCB
:10264000884210B501EB020302D983421C4607D829
:10265000421E994208D011F8014B02F8014FF8E7E9
:1026600083189A1A9A4200D110BD14F8011D03F87C
:10267000011DF7E738B50546002945D051F8043C5F
:102680000C1F002BB8BFE41800F0D2F81F4A1368E3
:10269000104633B9636014602846BDE8384000F046
:1026A000CDB8A3420CD921686218934204BF1A68BE
:1026B0005B68636004BF521822600460ECE7134655
:1026C0005A680AB1A242FAD919685818A0420BD127
:1026D00020680144581882421960DDD110685268A0
:1026E0005A6001441960D7E702D90C232B60D3E765
:1026F000206821188A4204BF11685268626004BFD2
:10270000091821605C60C7E738BD00BF9800002051
:10271000F8B5CD1C25F0030508350C2D38BF0C2568
:10272000002D064601DBA94203D90C2333600020AB
:10273000F8BD00F07DF821490A6814469CB9204F85
:102740003B6823B92146304600F062F838602946DC
:10275000304600F05DF8431C23D10C233360304633
:1027600000F06CF8E3E723685B1B17D40B2B03D94D
:1027700023601C44256004E06368A2420CBF0B6028
:102780005360304600F05AF804F10B00231D20F08E
:102790000700C21ACCD01B1AA350C9E722466468AE
:1027A000CCE7C41C24F00304A042E3D0211A304635
:1027B00000F02EF80130DDD1CFE700BF98000020F7
:1027C0009C000020F8B5074614460E4621B9114674
:1027D000BDE8F840FFF79CBF22B9FFF74BFF254645
:1027E0002846F8BD00F030F8A0420FD22146384606
:1027F000FFF78EFF05460028F2D031462246FFF74C
:1028000011FF31463846FFF735FFE9E73546E7E780
:1028100038B5064C002305460846236000F01EF834
:10282000431C02D1236803B12B6038BD7002002025
:10283000014800F011B800BF78020020014800F004
:102840000CB800BF7802002051F8043C181F002B80
:10285000BCBF0B58C018704770477047044A054901
:102860001368002B08BF0B461844106018467047C9
:10287000A000002080020020F8B500BFF8BC08BC12
:102880009E467047F8B500BFF8BC08BC9E4670472E
:1028900052464D363920496E697469616C697A65B2
:1028A000642E20467265712025644D487A2E204E94
:1028B0006F64652025642E2047726F757020256433
:1028C0002E0D0A0052464D3639206E6F7420636F0C
:1028D0006E6E65637465642E0D0A000104080202C1
:1028E000030405060708090A0B0C0D0E0F10100152
:1028F00002030405060708090A0B0C0D0E0F100051
:10290000000000000000000102030406070809009F
:102910000000000102030454696D654F7574312194
:102920000D0A00232D302B2000686C4C0065666773
:102930004546470030313233343536373839414235
:102940004344454600303132333435363738396107
:0829500062636465660000008B
:04295800C5010008AD
:04295C00A1010008CD
:10296000B101D200010100001000000000127A0045
:10297000011F0000180000200000000000000000FF
:102980000000000000000000000000000000000047
:102990000000000000000000000000000000000037
:1029A0000000000000000000000000000000000027
:1029B0000000000000000000000000000000000017
:1029C0000000000000000000000000000000000007
:0829D0000000000000000000FF
:0400000508001F6D63
:00000001FF
