:020000040800F2
:1000000000000120DD310008991300089B1300084F
:100010009D1300089F130008A113000800000000B2
:10002000000000000000000000000000A313000812
:10003000A513000800000000A7130008A91300087A
:100040002D3200082D3200082D3200082D32000814
:100050002D3200082D3200082D3200082D32000804
:100060002D3200082D3200082D3200082D320008F4
:100070002D3200082D3200082D3200082D320008E4
:100080002D3200082D3200082D3200082D320008D4
:100090002D3200082D3200082D3200082D320008C4
:1000A0002D3200082D3200082D3200082D320008B4
:1000B0002D3200082D3200082D3200082D320008A4
:1000C0002D3200082D3200082D3200082D32000894
:1000D0002D3200082D3200082D3200082D32000884
:1000E0002D3200082D3200082D3200082D32000874
:1000F0002D3200082D3200082D3200082D32000864
:100100002D32000800000000000000002D32000821
:100110002D3200082D3200082D3200082D32000843
:100120002D3200082D3200082D3200082D32000833
:100130002D3200082D3200080000000000000000F1
:100140002D3200082D3200082D320008000000007A
:10015000000000000000000000000000000000009F
:100160002D3200082D3200082D3200082D320008F3
:100170002D3200082D3200082D3200082D320008E3
:100180002D3200082D3200080000000000000000A1
:040190002D32000804
:1001C0000348044B834202D0034B03B118477047E6
:1001D0007000002070000020000000000548064963
:1001E0000B1AD90F01EBA301491002D0034B03B145
:1001F00018477047700000207000002000000000C9
:1002000010B5064C237843B9FFF7DAFF044B13B15E
:100210000448AFF300800123237010BD700000205C
:10022000000000003032000808B5044B1BB104493F
:100230000448AFF30080BDE80840CFE700000000AD
:10024000740000203032000870B50D4E0D4D761B45
:10025000B61006D00024013455F8043B9847A64256
:10026000F9D1094E094D761B02F0E2FFB61006D017
:100270000024013455F8043B9847A642F9D170BDDB
:100280003C3300083C330008403300083C3300088E
:100290000CB470B59CB020AC0B4E54F8042B0291FA
:1002A000234606916FF0004502A901940795CDE918
:1002B000045600F08FF9029B00221A701CB0BDE8B2
:1002C000704002B0704700BF0802FFFF0EB430B5A7
:1002D0009CB01FAB0C4C0D4D53F8042B0193014601
:1002E00002910691206802A96FF000440794CDE9BD
:1002F000044500F06FF9029B00221A701CB0BDE8A3
:10030000304003B0704700BF000000200802FFFF2C
:1003100000000000000000000000000000000000DD
:1003200000000000000000000000000000000000CD
:1003300000000000000000000000000000000000BD
:1003400090F800F06DE9024520F007016FF0000C15
:1003500010F0070491F820F040F049804FF00004BD
:100360006FF00700D1E9002391F840F000F1080098
:1003700082FA4CF2A4FA8CF283FA4CF3A2FA8CF3D0
:100380004BBBD1E9022382FA4CF200F10800A4FA37
:100390008CF283FA4CF3A2FA8CF3E3B9D1E904238B
:1003A00082FA4CF200F10800A4FA8CF283FA4CF3C2
:1003B000A2FA8CF37BB9D1E9062301F1200182FA7C
:1003C0004CF200F10800A4FA8CF283FA4CF3A2FA82
:1003D0008CF3002BC6D0002A04BF04301A4612BA90
:1003E000B2FA82F2FDE8024500EBD2007047D1E993
:1003F000002304F00305C4F100004FEAC50514F022
:10040000040F91F840F00CFA05F562EA05021CBFF2
:1004100063EA050362464FF00004A9E72DE9F047BF
:100420008E681D46AE420C460B68174636D880468D
:10043000888910F4906F0ED1354618462A46394601
:1004400000F0D0FCA2682368961B2B44A6602360B2
:100450000020BDE8F087D1E9041606EB4606A3EBC1
:10046000010906EBD6766B1C76104B44B34232463C
:1004700084BF1E463246430512D51146404600F061
:100480006FFD824600B34A46216900F011FCA38942
:1004900023F4906343F08003A38106E02E46CCE76B
:1004A000404600F0C1FD824650B1A6EB09020AEBBE
:1004B00009036661C4F810A02360A2602E46BCE761
:1004C0002169404600F0F6FC0C23C8F80030A389EF
:1004D00043F04003A3814FF0FF30BAE72DE9F04F1E
:1004E000936883B09046002B6DD017688D68824664
:1004F0000C460868083743E0A38913F4906F2ED0A8
:10050000D4E9041505EB4505A0EB010B05EBD5750A
:100510000BEB06006D100130A8422A4684BF054649
:100520002A465B0536D51146504600F019FD0028D5
:100530003AD05A462169019000F0BAFBA289019B8A
:1005400022F4906242F08002A281A5EB0B0203EB41
:100550000B00656123612060A2603546B3465A46B0
:10056000494600F03FFCD8F80830A2682068551BC7
:1005700058449E1BA5602060C8F808601EB3083769
:1005800057E90296AB46002EF9D0AE42B4D23546BA
:10059000B346E4E7504600F047FD03460028D4D1B7
:1005A0002169504600F086FC0C23CAF80030A3896C
:1005B000002243F040034FF0FF30A381C8E901223D
:1005C00003B0BDE8F08F0020C8F8040003B0BDE818
:1005D000F08F00BF2DE9F04F90468A899FB0140636
:1005E0008B46029003D50A69002A00F00B8105931F
:1005F00030238DF8323098F800308E4E00212022C2
:100600000B918DF831200127002B00F08480252BE1
:1006100000F0F680454603E0252B00F08680254655
:100620006B786C1C002BF7D1B4EB080A73D04246F0
:10063000534659460298FFF7F1FE01306BD00B9BF1
:100640006A7853440B93002A65D000234FF0FF32A1
:1006500001340693CDE908338DF85B301C93079283
:1006600005E0069A07FA03F313432C460693254642
:10067000052215F8011B304600F0CAFAAA46831B72
:100680000028EED1069BD90644BF20228DF85B20BE
:1006900021781A0744BF2B228DF85B202A2948D1E4
:1006A000059A11680432002905927EDB0991617870
:1006B000A51C2E2956D0604C0322204600F0A8FA33
:1006C000002868D0001B069B402404FA00F0034376
:1006D000069305F10108297858488DF83010062254
:1006E00000F096FA002866D0554B002B56D005AB8B
:1006F00000935A46534B029806A9AFF300808146F7
:10070000B9F1FF3F07D00B9B4B440B9398F8003097
:10071000002B7FF47CAFBBF80C305B0654BF0B980A
:100720004FF0FF301FB0BDE8F08FB4EB080A8CD05B
:100730007DE7A1F13002092A88BFA246B9D8099BFA
:1007400001E02C460135297803EB830302EB4303D8
:10075000A1F13002092AAA46F3D92E2904F1020593
:100760000993A8D19AF801102A292ED1059B9AF84D
:1007700002101A6807920433002A05930AF1030550
:100780000AF1020337DB2C4C032220469A4600F084
:100790003FFA002896D1A84655469CE7059B0733AB
:1007A00023F0070308330593ADE7494243F0020302
:1007B000099106937BE705AB00935A46214B0298BB
:1007C00006A900F0D7F881469AE7A1F1300200238C
:1007D000092A079301D923E05546697803EB83037F
:1007E00002EB4303A1F13002092A05F1010AF3D912
:1007F000023507935FE74FF0FF329A4607925AE7B8
:10080000444622E74021039300F0AAFB039BCBF868
:100810000000CBF8100030B14022CBF81420E6E6FF
:10082000AA46013547E7029A0C2313604FF0FF30C8
:1008300078E700BF00330008083300080C330008D5
:10084000000000001D0400082DE9F0470C46914609
:100850000A698968DDF820808A42B8BF0A46C9F86B
:10086000002094F8431006461F4611B10132C9F822
:100870000020236899065CD5D9F800200232C9F817
:100880000020236813F0060F19461DD1E1688A1A6B
:10089000002AD8BF194617DD04F1190A002505E022
:1008A000E368D9F800209B1AAB420CDD01235246C5
:1008B00039463046C047013005F10105F0D14FF00F
:1008C000FF30BDE8F087216894F84330003318BF4B
:1008D00001238A060AD5E1185A1C302081F843000A
:1008E000224494F8451082F84310023304F1430285
:1008F00039463046C0470130E1D02368A2682169FB
:1009000003F00603042B1DD08A4226DD4FF00009B8
:10091000521A91441A34002501E04D451DDA012395
:10092000224639463046C047013005F10105F4D171
:10093000C5E713F0060F13D094F84330003318BF07
:100940000123D3E7D9F80000E3688A42A3EB000350
:1009500023EAE379DCDC002BDCDC0020BDE8F08757
:10096000E168D9F800208A1A002AD8BF194693DC1A
:10097000AAE700BF2DE9F0430C46097E85B06E2939
:10098000064617460C98984604F1430E6DD039D9A7
:10099000732900F0F68044D9752900F00481782984
:1009A00040F0118178232268DFF858C284F845307E
:1009B0000168150651F8043B016040F1A180D107A0
:1009C00044BF42F020022260002B00F093801022EE
:1009D000002184F843106068A0600028C0F2C8803D
:1009E000216821F004012160002B40F0A380002841
:1009F00040F0C0807546082A00F0AC80AEEB0503DD
:100A0000236141E0632900F0E5801AD8002938D03D
:100A1000582940F0D88084F845102268DFF8E8C1F2
:100A2000C6E76F2900F0BF80702940F0CC802268B3
:100A3000DFF8D0C142F020027823226084F84530EC
:100A4000B6E7642902D0692940F0BD8022680368B6
:100A5000110603F1040557D5196805600B460029F6
:100A600059DBDFF8A4C10A22B5E70368226861698F
:100A70001D1D056015061B6802D4500600F1BD80DF
:100A80001960002375462361CDF800803B4603AA18
:100A900021463046FFF7D8FE013020D02A46236990
:100AA00039463046C047013019D022680398E368C0
:100AB000920719D51A1A002A16DD04F11909002522
:100AC00004E0E36803981A1AAA420DDD01234A469E
:100AD00039463046C047013005F10105F1D14FF0EC
:100AE000FF3005B0BDE8F0839842B8BF184605B0A6
:100AF000BDE8F083226822F020022260102267E71E
:100B0000500648BF9BB25AE75106A5D5B3F900304D
:100B100005601946A3E76168A1602D200029C3F193
:100B2000000384F8430002DB22F004022260DFF8B5
:100B3000D8C00A22754600E00B46B3FBF2F102FB77
:100B4000113093421CF8000005F8010DF4D2082A78
:100B50007FF454AF2368DB077FF550AF62682369E9
:100B60009A423FF74BAF302305F8013C013D45E782
:100B7000002BDFD19CF8003084F8423004F14205AC
:100B800039E703686268191D01601D680021284665
:100B900000F03EF8002832D0401B60602061002346
:100BA00084F8433070E72268036812F0800F03F185
:100BB00004051AD01B6805606F290CBF08220A22A1
:100BC000DFF844C004E7012384F84210236104F1F4
:100BD0004205E4E703681A68191D0123016004F166
:100BE000420584F842202361D9E712F0400F0DBF7F
:100BF0001B6805601B880560DEE7198041E76068B7
:100C0000CCE700BF283300081433000800000000C0
:100C100001F0FF01102A2BDB10F0070F08D010F8AD
:100C2000013B013A8B422DD010F0070F42B3F6D1B1
:100C3000F0B441EA012141EA014122F007047FF0CA
:100C400000070023F0E80256083C85EA010586EA21
:100C5000010685FA47F5A3FA87F586FA47F6A5FA5D
:100C600087F68EB9EED1F0BC01F0FF0102F0070269
:100C700032B110F8013B013A83EA010313B1F8D114
:100C80000020704701387047002D06BF35460338F5
:100C9000073815F0010F07D1013015F4807F02BF2E
:100CA000013015F4C03F0130F0BC0138704700BF7F
:100CB000844641EA000313F003036DD1403A41D367
:100CC00051F8043B40F8043B51F8043B40F8043B26
:100CD00051F8043B40F8043B51F8043B40F8043B16
:100CE00051F8043B40F8043B51F8043B40F8043B06
:100CF00051F8043B40F8043B51F8043B40F8043BF6
:100D000051F8043B40F8043B51F8043B40F8043BE5
:100D100051F8043B40F8043B51F8043B40F8043BD5
:100D200051F8043B40F8043B51F8043B40F8043BC5
:100D300051F8043B40F8043B51F8043B40F8043BB5
:100D4000403ABDD2303211D351F8043B40F8043B55
:100D500051F8043B40F8043B51F8043B40F8043B95
:100D600051F8043B40F8043B103AEDD20C3205D365
:100D700051F8043B40F8043B043AF9D2043208D05D
:100D8000D2071CBF11F8013B00F8013B01D30B88CF
:100D900003806046704700BF082A13D38B078DD0AD
:100DA00010F003038AD0C3F10403D21ADB071CBF7F
:100DB00011F8013B00F8013B80D331F8023B20F8E9
:100DC000023B7BE7043AD9D3013A11F8013B00F822
:100DD000013BF9D20B7803704B7843708B788370AA
:100DE000604670478842F0B40DD98B1883420AD907
:100DF000841832B1224613F8014D02F8014D994290
:100E0000F9D1F0BC70470F2A0ED80346541E002AB1
:100E1000F7D001340C44013B11F8012B03F8012FEA
:100E2000A142F9D1F0BC704740EA01039B073BD1D6
:100E3000A2F110073F0901F1200606EB071601F1A8
:100E4000100300F1100453F8105C44F8105C53F8E0
:100E50000C5C44F80C5C53F8085C44F8085C53F8EC
:100E6000045C44F8045C1033B34204F11004EAD18A
:100E70007B1C1B0112F00C0F194402F00F050344F8
:100E800015D0043DAD0803EB850C1C1F0E4656F82B
:100E9000047B44F8047F6445F9D10135AD002B444F
:100EA000294402F00302B1E7541E0346B1E72A4683
:100EB000ACE700BF00293CD038B551F8043C0C1F0A
:100EC000002BB8BFE418054600F0E6F8234B1A687B
:100ED0002AB1A2420DD921686018824223D06260F3
:100EE00028461C60BDE8384000F0D8B8A34203D8BB
:100EF0001A465368002BF9D111685018A04219D036
:100F000024D821686018834206D063605460284664
:100F1000BDE8384000F0C2B8D3E900030144636083
:100F200021605460F3E7D2E900020144626021606D
:100F3000D6E7704720680144501883421160E6D11B
:100F4000D3E90003014453601160E0E70C232B60F8
:100F50002846BDE8384000F0A1B800BF8C00002052
:100F6000F8B5CD1C25F0030508350C2D38BF0C2530
:100F7000002D064633DBA94231D82A4F00F08CF809
:100F80003A6852B113685B1B04D43FE023685B1BD3
:100F900029D522465468002CF8D1796800293BD025
:100FA0002946304600F066F8431C28D0C41C24F0C3
:100FB0000304A04205D0211A304600F05BF801304E
:100FC0001DD02560304600F069F804F10B0020F0D8
:100FD0000700231DC21A01D01B1AA350F8BD0C2212
:100FE00032600020F8BD0B2B05D8A242636811D0F7
:100FF0005360E7E7144623601C442560E2E70C23B6
:101000003046336000F04AF80020F8BD0B2BF1D8D1
:10101000536814463B60D5E7304600F02BF8786003
:10102000BEE700BF8C00002009B3F8B51446CAB172
:1010300006460D4600F034F8A04202D32F4638464B
:10104000F8BD21463046FFF78BFF07460028F6D053
:1010500022462946FFF72CFE30462946FFF72AFF95
:101060003846F8BD2746FFF725FF3846F8BD11463C
:10107000FFF776BF38B5074C0023054608462360C6
:1010800000F016F8431C00D038BD2368002BFBD0BD
:101090002B6038BDCC010020704700BF704700BFF7
:1010A00051F8043C181F002BBCBF0B58C0187047E8
:1010B000044A05491368002B08BF0B46184410600A
:1010C0001846704794000020D0010020FEE7000081
:1010D00000B5A7B002231C9301221F921022209278
:1010E00022934FF4004323934FF4E01324930023FF
:1010F00025931CA800F0F0F948BB0F231793022199
:101100001891002319934FF480621A921B9317A829
:1011100000F01EFDF8B9012301930023039301A8F9
:1011200000F018FED8B900F0E3FD0F4BA3FB003030
:10113000800901F0B3F8042001F0C6F8002211463E
:101140004FF0FF3001F076F827B05DF804FBA621E0
:101150000648FFF7BBFFB4210448FFF7B7FFBB21E8
:101160000248FFF7B3FF00BFD34D621048320008BA
:1011700070B500F08DF9FFF7ABFF00F05FF801F0FC
:10118000EDF801F013FD244801F058FD4FF4D97239
:10119000D221052001F0C0F9204801F04FFD26E0E2
:1011A00001224FF480711E4801F02CF81D4B5A7833
:1011B0001D4D02F03F021D492846FFF787F82846DB
:1011C00001F03CFD0225A54219DB194B1A785208A3
:1011D000154C524217492046FFF778F8204601F097
:1011E0002DFD00224FF480710D4801F00BF84221D3
:1011F0000C4801F0CBF904460128F8DDD0E70A4E8F
:10120000084B5A5D0C493046FFF760F8304601F054
:1012100015FD0135EDB2D6E75432000864320008FE
:1012200000080048A0000020E40000207032000800
:10123000E30000207C320008783200082DE9F043FA
:101240008DB04F4B5A6942F400125A615A6902F448
:1012500000120192019A5A6942F400225A615A69B5
:1012600002F400220292029A5A6942F480025A6100
:101270005A6902F480020392039A5A6942F40032D6
:101280005A615A6902F400320492049A5A6942F48B
:1012900080225A615A6902F480220592059A5A699D
:1012A00042F480125A615B6903F480130693069B33
:1012B000344E00220921304600F0A4FF324F0022B4
:1012C0004FF48071384600F09DFF092307934FF0DB
:1012D0000108CDF82080002409940A9407A930461B
:1012E00000F0B8FE122307930894099407A930462A
:1012F00000F0B0FE4FF6FF630793032508950994AD
:1013000007A9384600F0A6FE40F247630793089508
:10131000099407A91D4800F09DFE4FF6FF1307939F
:101320000895099407A94FF0904000F093FE4FF6FE
:10133000FF79CDF81C900895099407A9144800F08E
:1013400089FE4FF6807307930895099407A93046E4
:1013500000F080FECDF81C900895099407A90D486F
:1013600000F078FE4FF480730793CDF82080099445
:101370000A9407A9384600F06DFE0DB0BDE8F08371
:101380000010024000100048000800480014004807
:1013900000040048000C00487047FEE7FEE7FEE747
:1013A000FEE770477047704708B500F083F800F01B
:1013B0009CFF08BD00B583B0214B9A6942F0010241
:1013C0009A619A6902F001020092009ADA6942F089
:1013D0008052DA61DB6903F080530193019B0320A3
:1013E00000F016FF002211466FF00B0000F022FF04
:1013F000002211466FF00A0000F01CFF0022114687
:101400006FF0090000F016FF002211466FF0040093
:1014100000F010FF002211466FF0030000F00AFFF9
:10142000002211466FF0010000F004FF0022114677
:101430004FF0FF3000F0FEFE03B05DF804FB00BF8C
:101440000010024010B504460E4B18784FF47A7322
:10145000B3FBF0F30C4A1068B0FBF3F000F01EFF92
:1014600068B90F2C01D901200AE0002221464FF073
:10147000FF3000F0DFFE054B1C60002000E0012083
:1014800010BD00BF640000206C0000206800002038
:1014900008B5074A136843F010031360032000F0F7
:1014A000B7FE0020FFF7CEFFFFF784FF002008BD46
:1014B00000200240034A1168034B1B780B44136061
:1014C000704700BFF400002064000020014B186842
:1014D000704700BFF4000020002800F0ED8270B5D6
:1014E00082B00446036813F0010F3DD0C74B5B6820
:1014F00003F00C03042B20D0C44B5B6803F00C03F7
:10150000082B13D06368B3F5803F6AD0002B40F0FE
:101510008D8003F1804303F504331A6822F480328E
:101520001A601A6822F480221A605FE0B74B5B6889
:1015300003F4C033B3F5803FE4D14FF4003393FAA2
:10154000A3F3B24B19684FF4003393FAA3F3B3FA41
:1015500083F303F01F03012202FA03F30B4203D0CB
:101560006368002B00F0AA82236813F0020F00F0DA
:10157000C080A64B5B6813F00C0F00F09780A34B64
:101580005B6803F00C03082B00F08880E368002BF5
:1015900000F0ED80012292FAA2F3B3FA83F303F193
:1015A000845303F584139B001A60FFF78FFF0546F1
:1015B000022393FAA3F3954B1968022393FAA3F33A
:1015C000B3FA83F303F01F03012202FA03F30B4281
:1015D00040F0BE80FFF77AFF401B0228E8D90320C5
:1015E00075E28A4A136843F4803313606368002B02
:1015F00036D0FFF76BFF05464FF4003393FAA3F3A1
:10160000824B19684FF4003393FAA3F3B3FA83F3D0
:1016100003F01F03012202FA03F30B42A4D1FFF7E8
:1016200055FF401B6428E7D9032050E2B3F5A02FF3
:1016300009D0764B1A6822F480321A601A6822F4B4
:1016400080221A60D2E703F18043A3F53C331A6885
:1016500042F480221A601A6842F480321A60C5E7A8
:10166000FFF734FF05464FF4003393FAA3F3674BBB
:1016700019684FF4003393FAA3F3B3FA83F303F03A
:101680001F03012202FA03F30B423FF46DAFFFF791
:101690001DFF401B6428E6D9032018E25B4B5B6802
:1016A00003F4C033B3F5004F7FF470AF022393FA15
:1016B000A3F3564B1968022393FAA3F3B3FA83F307
:1016C00003F01F03012202FA03F30B4203D0E36885
:1016D000934240F0F5814D48036823F0F8032169F7
:1016E000F82292FAA2F2B2FA82F201FA02F213435B
:1016F0000360236813F0080F00F08C806369002BEF
:101700005CD0012191FAA1F2B2FA82F2404B13446B
:101710009B001960FFF7DAFE0546022393FAA3F255
:1017200093FAA3F293FAA3F2384A516A93FAA3F315
:10173000B3FA83F303F01F03012202FA03F30B420F
:1017400068D1FFF7C3FE401B0228E6D90320BEE1A3
:101750002E48036823F0F8032169F82292FAA2F2D6
:10176000B2FA82F201FA02F213430360C1E70123E5
:1017700093FAA3F3B3FA83F303F1845303F58413C9
:101780009B0000221A60FFF7A1FE0546022393FA90
:10179000A3F31E4B1968022393FAA3F3B3FA83F35E
:1017A00003F01F03012202FA03F30B42A1D0FFF75B
:1017B0008DFE401B0228E9D9032088E1012292FA1C
:1017C000A2F2B2FA82F2124B13449B0000221A607A
:1017D000FFF77CFE0546022393FAA3F293FAA3F2E5
:1017E00093FAA3F2094A516A93FAA3F3B3FA83F383
:1017F00003F01F03012202FA03F30B420AD0FFF7A2
:1018000065FE401B0228E6D9032060E1001002407B
:1018100020819010236813F0040F00F0A980AE4BD4
:10182000DB6913F0805F20D1AB4BDA6942F0805264
:10183000DA61DB6903F080530193019B0125A74B1B
:101840001B6813F4807F12D0A368012B23D073BBD5
:1018500003F1804303F504331A6A22F001021A628D
:101860001A6A22F004021A621AE00025E7E79B4A8E
:10187000136843F480731360FFF728FE0646974B06
:101880001B6813F4807FDFD1FFF720FE801B6428E4
:10189000F5D903201BE1904A136A43F00103136258
:1018A000A368002B3CD0FFF711FE06462EE0052B67
:1018B00009D0894B1A6A22F001021A621A6A22F0D0
:1018C00004021A62ECE7844B1A6A42F004021A62BC
:1018D0001A6A42F001021A62E2E7022393FAA3F3C2
:1018E0007D4B596A022393FAA3F3B3FA83F303F00F
:1018F0001F03012202FA03F3194238D1FFF7E6FD74
:10190000801B41F28833984200F2DC80022393FA74
:10191000A3F293FAA3F3002BDFD06F4B196AE1E730
:10192000FFF7D4FD064618E0022393FAA3F36A4BAF
:10193000596A022393FAA3F3B3FA83F303F01F0364
:10194000012202FA03F3194211D0FFF7BFFD801BF9
:1019500041F28833984200F2B780022393FAA3F24F
:1019600093FAA3F3002BDFD05B4B196AE1E7B5BB19
:10197000A369002B00F0AA80574A526802F00C02BB
:10198000082A00F0A680022B2FD04FF0807393FA24
:10199000A3F3B3FA83F303F1845303F584139B0099
:1019A00000221A60FFF792FD04464FF0007393FA8D
:1019B000A3F3494B19684FF0007393FAA3F3B3FAFA
:1019C00083F303F01F03012202FA03F3194271D0DB
:1019D000FFF77CFD001B0228E7D9032077E03E4A91
:1019E000D36923F08053D361C2E74FF0807393FA39
:1019F000A3F3B3FA83F303F1845303F584139B0039
:101A000000221A60FFF762FD05464FF0007393FA5B
:101A1000A3F3314B19684FF0007393FAA3F3B3FAB1
:101A200083F303F01F03012202FA03F3194206D0E5
:101A3000FFF74CFD401B0228E7D9032047E0264A68
:101A4000D36A23F00F03616A0B43D362536823F414
:101A50007613216AE06901430B4353604FF08073B2
:101A600093FAA3F3B3FA83F303F1845303F58413D6
:101A70009B0001221A60FFF729FD04464FF0007316
:101A800093FAA3F3144B19684FF0007393FAA3F37E
:101A9000B3FA83F303F01F03012202FA03F319429E
:101AA00006D1FFF713FD001B0228E7D903200EE043
:101AB00000200CE000200AE001207047012006E031
:101AC000012004E0032002E0032000E0002002B037
:101AD00070BD0120FBE700BF001002400070004015
:101AE000174B5B6803F00C02082A01D015487047B9
:101AF00003F470114FF4701292FAA2F2B2FA82F269
:101B000021FA02F21049885C0D4AD26A02F00F02F3
:101B10000F2191FAA1F1B1FA81F1CA400B498A5C17
:101B200013F4803F05D0074BB3FBF2F300FB03F047
:101B30007047044BB3FBF2F300FB03F0704700BFA8
:101B40000010024000127A0084320008943200082B
:101B5000002800F0BD8070B50D460446604B1B6840
:101B600003F007038B420BD25D4A136823F007038F
:101B70000B431360136803F007038B4240F0AA8005
:101B8000236813F0020F06D0564A536823F0F0037F
:101B9000A1680B435360236813F0010F5AD06368A8
:101BA000012B2DD0022B40D0022292FAA2F24D4AF4
:101BB0001068022292FAA2F2B2FA82F202F01F0236
:101BC000012101FA02F2104200F0868045494A687C
:101BD00022F0030213434B60FFF778FC0646414BAB
:101BE0005B6803F00C036268B3EB820F32D0FFF73F
:101BF0006DFC801B41F288339842F0D9032066E0E7
:101C00004FF4003292FAA2F2364A10684FF40032D2
:101C100092FAA2F2B2FA82F202F01F02012101FA54
:101C200002F20242D2D1012051E04FF0007292FA4A
:101C3000A2F22C4A10684FF0007292FAA2F2B2FAA5
:101C400082F202F01F02012101FA02F21042BDD11C
:101C500001203CE0224B1B6803F00703AB420AD98A
:101C60001F4A136823F007032B431360136803F024
:101C70000703AB4232D1236813F0040F06D0194A90
:101C8000536823F4E063E1680B435360236813F067
:101C9000080F07D0134A536823F46053216943EABD
:101CA000C1035360FFF71CFF0E4B5B6803F0F003AA
:101CB000F02292FAA2F2B2FA82F2D3400A4AD35C3C
:101CC000D8400A4B18600020FFF7BCFB002070BD15
:101CD000012070470120FAE70120F8E70120F6E72C
:101CE0000020024000100240A43200086C000020D6
:101CF000014B1868704700BF6C00002008B5FFF763
:101D0000F7FF074B5B6803F4E0634FF4E06292FA7D
:101D1000A2F2B2FA82F2D340024AD35CD84008BDA4
:101D200000100240B432000808B5FFF7E1FF074B8E
:101D30005B6803F460534FF4605292FAA2F2B2FA75
:101D400082F2D340024AD35CD84008BD0010024062
:101D5000B4320008F0B583B00446036813F4803F42
:101D600048D0A14BDB6913F0805F40F021819E4B8E
:101D7000DA6942F08052DA61DB6903F08053019343
:101D8000019B0125994B1B6813F4807F00F01281A1
:101D9000954B1B6A13F4407322D0626802F44072C0
:101DA0009A421DD09048016A21F440764FF4803366
:101DB00093FAA3F2B2FA82F28D4F3A4492004FF0B6
:101DC000010CC2F800C093FAA3F3B3FA83F33B44C7
:101DD0009B0000221A60066211F0010F40F0FF80A4
:101DE000814A136A23F4407361680B431362002D28
:101DF00040F02381236813F0010F06D07A4A136B59
:101E000023F00303A1680B431363236813F0020F4D
:101E100006D0754A136B23F44033E1680B43136318
:101E2000236813F0040F06D06F4A136B23F440238A
:101E300021690B431363236813F0200F06D06A4A0D
:101E4000136B23F01003E1690B431363236813F44E
:101E5000003F06D0644A536823F48003616D0B434E
:101E60005360236813F0400F06D05F4A136B23F0D2
:101E70002003216A0B431363236813F4802F06D0D9
:101E8000594A136B23F04003616A0B4313632368C1
:101E900013F0080F06D0544A136B23F44013616902
:101EA0000B431363236813F0100F06D04E4A136BD5
:101EB00023F44003A1690B431363236813F4007FE9
:101EC00006D0494A536823F40003216B0B43536047
:101ED000236813F0800F06D0434AD36A23F4F873C3
:101EE000A16A0B43D362236813F4807F06D03E4A75
:101EF000D36A23F47853E16A0B43D362236813F463
:101F0000805F06D0384A136B23F48073616B0B43F8
:101F10001363236813F4005F06D0334A136B23F472
:101F20000073216C0B431363236813F4801F06D0E6
:101F30002D4A136B23F08073A16B0B43136323684B
:101F400013F4001F06D0284A136B23F00073E16BD3
:101F50000B431363236813F4800F06D0224A136BDC
:101F600023F48063616C0B431363236813F4000F45
:101F700006D01D4A136B23F40063A16C0B4313635B
:101F8000236813F0807F06D0174A136B23F40053A5
:101F9000E16C0B431363236813F0007F54D0124AA3
:101FA000136B23F40043216D0B43136300204CE0BB
:101FB0000025E7E60D4A136843F480731360FFF7CA
:101FC00085FA0646094B1B6813F4807F7FF4E0AE68
:101FD000FFF77CFA801B6428F4D9032035E0FFF773
:101FE00075FA06461FE000BF001002400070004076
:101FF00000819010022393FAA3F3154B596A022330
:1020000093FAA3F3B3FA83F303F01F03012202FA56
:1020100003F30B427FF4E4AEFFF758FA801B41F262
:10202000883398420ED8022393FAA3F293FAA3F3CB
:10203000002BDFD0064B196AE1E7D36923F0805308
:10204000D361D7E6032000E0002003B0F0BD00BF5D
:1020500000100240F0B482B0002236E0062400E016
:102060000024B4403C430235624E46F82540624CA1
:102070002568DC4325EA03064F6817F4803F01D04A
:1020800043EA05065C4D2E606D6804EA05064F685C
:1020900017F4003F01D043EA0506574D6E60AD6866
:1020A00004EA05064F6817F4801F01D043EA0506CD
:1020B000514DAE60ED682C404E6816F4001F01D003
:1020C00043EA05044C4BDC6001320B6833FA02F43E
:1020D00000F08C80012494402340F5D04D68022DFF
:1020E00001D0122D10D1D608083650F826C002F0C3
:1020F0000705AF000F25BD402CEA050C0D69BD405A
:1021000045EA0C0540F82650D0F800C056000325DB
:10211000B540EF432CEA050C4D6805F00305B540CA
:1021200045EA0C0505604D6805F1FF3CBCF1010F67
:1021300003D9112D01D0122D10D1856807EA050CA5
:10214000CD68B54045EA0C058560456825EA04047C
:102150004D68C5F30015954025434560C468274088
:102160008C68B4403C43C4604C6814F0805FABD0D2
:10217000224CA56945F00105A561A46904F001049C
:102180000194019C9508AE1C1A4C54F8267002F07C
:102190000304A6000F24B44027EA0407B0F1904FCF
:1021A0003FF45EAF164CA04216D004F58064A04206
:1021B00014D004F58064A04212D004F58064A042DB
:1021C00010D004F58064A0420ED004F58064A042D3
:1021D0003FF444AF072444E7012442E7022440E7E8
:1021E00003243EE704243CE705243AE702B0F0BCB0
:1021F000704700BF00000140000401400010024091
:10220000000400480AB18161704781627047000094
:10221000074AD36823F4E0631B041B0C000200F49C
:10222000E060034343F0BF6343F40033D36070477F
:1022300000ED00E030B4174BDB68C3F30223C3F1B9
:102240000704042C28BF04241D1D062D18D9033BA8
:102250004FF0FF3505FA04F421EA0401994005FA2C
:1022600003F322EA0303194300280BDB0901C9B277
:1022700000F1604000F5614080F8001330BC704709
:102280000023E5E700F00F000901C9B2024B195421
:10229000F4E700BF00ED00E014ED00E00138B0F11C
:1022A000807F0AD2064B5860064AF02182F823103C
:1022B0000020986007221A6070470120704700BF15
:1022C00010E000E000ED00E0042805D0054A1368A6
:1022D00023F0040313607047024A136843F00403B9
:1022E0001360704710E000E0704708B5FFF7FCFF8F
:1022F00008BD00001549D1F8883043F47003C1F8D7
:102300008830134B1A6842F001021A605868114A6B
:1023100002405A601A6822F0847222F480321A60F5
:102320001A6822F480221A605A6822F4FE025A6067
:10233000DA6A22F00F02DA62186B074A02401A6367
:1023400000229A604FF000638B60704700ED00E060
:10235000001002400CC07FF8CCFC00FF08B511480B
:10236000114B03604FF482734360002383604FF48A
:10237000E062C260036143614FF400728261102227
:10238000C2610362436283620722C26203634363E2
:1023900000F04AFA00B908BD47210448FEF796FE4E
:1023A000F9E700BFF8000020003C0140BC32000803
:1023B0000268104B9A4200D0704700B587B003F511
:1023C00054439A6942F400429A619B6903F40043C2
:1023D0000093009B6423019302230293039303233E
:1023E00004930523059301A90348FFF733FE07B0C3
:1023F0005DF804FB003C01400010004800B587B0C8
:102400008DF80F000A23009301230DF117020DF13F
:102410000F01044800F065FA9DF8170007B05DF859
:1024200004FB00BFF800002008B50246082102485E
:10243000FFF7E8FE08BD00BF0010004808B5002007
:10244000FFF7F2FF08BD08B50120FFF7EDFF08BD5B
:1024500010B50446FFF7F2FF04F07F00FFF7CEFF50
:102460000020FFF7CBFF0446FFF7EDFF204610BD2D
:1024700038B505460C46FFF7E1FF45F08000FFF751
:10248000BDFF2046FFF7BAFFFFF7DDFF38BD0000B4
:1024900010B50446094B18700120FFF7D9FF41B26F
:1024A00021F01C012143C9B20120FFF7E1FF2720E1
:1024B000FFF7CEFF10F0800FF9D010BD9E00002076
:1024C00038B50E4B984203D800EB80004000F8E787
:1024D00080000B4CA4FB0034250BC4F3875107206C
:1024E000FFF7C6FFC4F387310820FFF7C1FFA9013A
:1024F00001F0C0010920FFF7BBFF38BDFFE0F50583
:1025000083DE1B4310B50446207820B16178FFF7C5
:10251000AFFF0234F8E710BD70B50C461546184BF6
:10252000187081EA01114BB2C9B283EA810303F04A
:10253000C003144A13700120FFF776FFAA212F2051
:10254000FFF796FF2F20FFF783FFAA28F6D155212A
:102550002F20FFF78DFF2F20FFF77AFF5528F6D1A8
:10256000094E3046FFF7CEFF3046FFF7CBFF284637
:10257000FFF7A6FF21463020FFF77AFF70BD00BFAE
:102580009D0000209C000020C8320008F8B5324BA6
:102590001B78102B20D107460E462720FFF758FF47
:1025A0002E4B1B7800F04000834204D083F04003A0
:1025B0002A4A1370B3B92820FFF74AFF10F0040F1E
:1025C00041D02420FFF744FF254B18700020FFF76F
:1025D0003FFF054600241BE01020FFF759FF4FF096
:1025E000FF302FE01820FFF733FFC0F3C2001D4B70
:1025F00018701F20FFF72CFF1B4C00232370202096
:10260000FFF726FF237818432070D4E70134E4B2A3
:10261000AC4206D20020FFF71BFFB442F6D2385579
:10262000F4E73B78114A117803F0C00291420DD1D2
:1026300003F03F030E4A12789A4202D00BB13F2AB0
:1026400007D168B2F8BD4FF0FF30FBE74FF0FF3025
:10265000F8E74FF0FF30F5E79E00002098000020DB
:10266000E3000020F0000020E20000209C00002099
:102670009D0000202DE9F0410646884617461D467C
:1026800039E02DB1FEF722FF069BC01AA84232D3D3
:102690003268536823F0E00353607368B3F5827FB8
:1026A0000BD0B36AB3F5005F14D0012386F85D3018
:1026B000002386F85C30032025E0B368B3F5004FB3
:1026C00002D0B3F5806FECD13268136823F0400379
:1026D0001360E6E73268136823F40053136032682E
:1026E000136843F400531360DFE70124BC4209D0B0
:1026F000B5F1FF3FC5D13468A46838EA0403F4D0CB
:102700000024F3E70020BDE8F0812DE9F04383B019
:1027100081460E461746984602E0B8F1FF3F11D1B8
:10272000D9F80050AC683440BC4248D0B6F5C06F10
:10273000F3D1002FF1D12B7BDBB28DF807309DF860
:102740000730EAE7B8F1000F05D0FEF7BFFE0A9B9D
:10275000C01A4045E4D3D9F80020536823F0E003C1
:102760005360D9F80430B3F5827F0CD0D9F8283003
:10277000B3F5005F16D0012389F85D30002389F896
:102780005C3003201CE0D9F80830B3F5004F02D0CC
:10279000B3F5806FEAD1D9F80020136823F0400325
:1027A0001360E3E7D9F80020136823F400531360A3
:1027B000D9F80020136843F400531360DBE70020CE
:1027C00003B0BDE8F08370B582B004460D461646EE
:1027D00000920B4600224FF4C051FFF796FFB0B9AC
:1027E00000962B46002280212046FFF743FFA8B920
:1027F00000962B4600224FF4C0612046FFF785FF6C
:1028000050B1236E43F020032366032004E0236EBF
:1028100043F020032366032002B070BD236E43F013
:10282000200323660320F7E7002858D010B504469C
:102830000023836290F85D30002B45D0022384F89A
:102840005D302268136823F040031360E368B3F53A
:10285000E06F3ED90022B3F5706F04D0B3F5E06F9E
:1028600001D00021A162216B21B9B3F5E06F33D90A
:10287000022323636368A1680B4321690B436169E9
:102880000B43A16901F400710B43E1690B43216A19
:102890000B43A06A216803430B60638B03F00403BE
:1028A000616A0B43616B0B43E1680B43216813437F
:1028B0004B602268D36923F40063D3610020206653
:1028C000012384F85D3010BD80F85C30FFF770FDA7
:1028D000B4E74FF48052BEE701232363CAE7012027
:1028E00070472DE9F8439946089E90F85C30012B1B
:1028F00000F05A8104460F461546012380F85C30EB
:10290000FEF7E4FD804694F85D30DBB26268012B8F
:102910000AD0B2F5827F40F03281A268002A40F0EE
:102920003781042B40F03681002F00F03581002DD7
:1029300000F03481B9F1000F00F0328194F85D307D
:10294000DBB2042B02D0052384F85D30002323661C
:102950002564A4F84690A4F84490A763A4F83E9098
:10296000A4F83C90E3642365E368B3F5E06F04D812
:10297000B4F846309BB2012B23D92268536823F464
:102980008053536023681A6812F0400F03D11A680D
:1029900042F040021A60E368B3F5E06F57D963680C
:1029A0001BB1E38F9BB2012B08D1236837F8022BB0
:1029B000DA60E38F9BB2013B9BB2E3874FF00109E2
:1029C0001DE02268536843F480535360DAE7B4F89B
:1029D00046309BB283B123689A6812F0010F0BD086
:1029E000DB6825F8023BB4F846309BB2013B9BB252
:1029F000A4F846304FF00109B6F1FF3F1FD1E38F35
:102A00009BB22BB9B4F846309BB2002B00F0AB80E0
:102A1000B9F1000FDBD0E38F9BB2002BD7D0236836
:102A20009A6812F0020FD2D037F8022BDA60E38FE7
:102A30009BB2013B9BB2E3874FF00009C7E7FEF76B
:102A400045FDA0EB0800B042D9D3032098E06368AD
:102A50001BB1E38F9BB2012B0CD1E38F9BB2012BF7
:102A60000BD9236837F8022BDA60E38F9BB2023B65
:102A70009BB2E3874FF001092BE0236817F8012B85
:102A80001A73E38F9BB2013B9BB2E387F2E717F81F
:102A9000012B1A73E38F9BB2013B9BB2E3874FF08C
:102AA000000937E02268536843F4805353604FF0C5
:102AB00001090BE01B7B05F8013BB4F846309BB2E3
:102AC000013B9BB2A4F846304FF00109B6F1FF3F3D
:102AD00041D1E38F9BB223B9B4F846309BB2002BAF
:102AE00041D0B9F1000F15D0E38F9BB293B12368A9
:102AF0009A6812F0020F0DD0E28F92B2012AC6D965
:102B000037F8022BDA60E38F9BB2023B9BB2E3877C
:102B10004FF00009B4F846309BB2002BD6D02368A2
:102B20009A6812F0010FD1D0B4F8462092B2012A6F
:102B3000C0D9DB6825F8023BB4F846309BB2023BB3
:102B40009BB2A4F84630B4F846309BB2012BA9D909
:102B50004FF00109BAE7FEF7B9FCA0EB0800B0425C
:102B6000B7D303200CE0424631462046FFF72BFE48
:102B700008B120232366236EA3B9002000E00220C1
:102B8000012384F85D30002384F85C30BDE8F883CD
:102B90000220F5E70220F3E70120F1E70120EFE74B
:102BA0000120EDE70120EBE70220EFE708B50C4834
:102BB0000C4B03604FF4E133436000238360C36038
:102BC00003610C2242618361C3610362436200F0CE
:102BD000D2FA00B908BD44210348FEF777FAF9E7B5
:102BE0005C01002000380140F43200080268124BFA
:102BF0009A4200D0704700B587B003F558439A69F0
:102C000042F480429A619B6903F480430093009BE5
:102C10004FF4C06301930223029300230393032321
:102C200004930723059301A94FF09040FFF712FA90
:102C300007B05DF804FB00BF0038014010B5044642
:102C4000FDF77EFB642382B22146024800F0F5F9CD
:102C500010BD00BF5C01002038B5044683680269DE
:102C6000134342691343C269134301680868A04AC9
:102C7000024013430B602268536823F44053E16819
:102C80000B435360A369226A1A4321688B6823F4BB
:102C9000306313438B602368964A93420DD0964A63
:102CA00093421DD0954A934240D0954A934251D0C9
:102CB000944A934262D0102521E002F55842126BEB
:102CC00002F00302032A09D8DFE802F00204066CCE
:102CD000012514E0042512E0082510E010250EE07F
:102CE00002F5E632126B02F44032B2F5003F5BD0DF
:102CF00017D8002A5AD0B2F5803F59D10425E2698D
:102D0000B2F5004F70D0082D00F2EF80DFE815F02B
:102D1000B400BF00CB00ED00D700ED00ED00ED00EA
:102D2000E300B2F5403F45D10225E8E702F5E43281
:102D3000126B02F44022B2F5002F3DD005D8EAB361
:102D4000B2F5802F3CD10425D9E7B2F5402F39D117
:102D50000225D4E702F5E232126B02F44012B2F51A
:102D6000001F31D005D88AB3B2F5801F30D10425B9
:102D7000C5E7B2F5401F2DD10225C0E702F5E032CC
:102D8000126B02F44002B2F5000F25D005D82AB329
:102D9000B2F5800F24D10425B1E7B2F5400F21D15F
:102DA0000225ACE70225AAE70825A8E70025A6E743
:102DB0001025A4E71025A2E70825A0E700259EE737
:102DC00010259CE710259AE7082598E7002596E747
:102DD000102594E7102592E7082590E700258EE757
:102DE00010258CE710258AE7082D42D8DFE805F08A
:102DF000051722412D4141413800FEF77FFF6268EF
:102E0000530803EB4003B3FBF2F39BB223F00F0232
:102E1000C3F3420313432268D360284638BDFEF74C
:102E200083FF6268530803EB4003B3FBF2F39BB2EA
:102E30000025EBE76268530803F5740303F51053AC
:102E4000B3FBF2F39BB20025E0E7FEF749FE6268B0
:102E5000530803EB4003B3FBF2F39BB20025D5E725
:102E60006268530803F58033B3FBF2F39BB200258D
:102E7000CCE701250023C9E7FEF740FF626800EBBD
:102E80005203B3FBF2F322689BB2D360C5E7FEF7AF
:102E90004BFF626800EB5203B3FBF2F322689BB274
:102EA000D3600025B9E761684A0802F5F40202F52B
:102EB0009052B2FBF1F292B2DA600025ADE7FEF774
:102EC0000FFE626800EB5203B3FBF2F322689BB281
:102ED000D3600025A1E761684A0802F50042B2FB11
:102EE000F1F292B2DA60002597E7012595E700BF7D
:102EF000F369FFEF00380140004400400048004003
:102F0000004C004000500040436A13F0010F06D00F
:102F10000268536823F40033816A0B435360436AA9
:102F200013F0020F06D00268536823F48033C16A9D
:102F30000B435360436A13F0040F06D002685368D2
:102F400023F48023016B0B435360436A13F0080F93
:102F500006D00268536823F40043416B0B4353606F
:102F6000436A13F0100F06D00268936823F480536D
:102F7000816B0B439360436A13F0200F06D0026805
:102F8000936823F40053C16B0B439360436A13F0BF
:102F9000400F0AD00268536823F48013016C0B437E
:102FA0005360036CB3F5801F0BD0436A13F0800F9E
:102FB00006D00268536823F40023816C0B435360EE
:102FC00070470268536823F4C003416C0B4353609D
:102FD000EBE72DE9F84305460F4616469946DDF81E
:102FE00020802C68E46937EA04030CBF0124002424
:102FF000B4421FD1B8F1FF3FF3D0B8F1000F05D0B4
:10300000FEF764FAA0EB09004045EAD92A68136884
:1030100023F4D07313602A68936823F0010393604C
:10302000202385F8693085F86A30002385F86830F8
:10303000032000E00020BDE8F8832DE9F04182B0D4
:103040001E4690F86930DBB2202B4ED104460D4667
:10305000904600294DD0002A4DD090F86830012BC1
:103060004BD0012380F868300023C366212380F809
:103070006930FEF72BFA0746A4F85080A4F8528076
:1030800003E0236815F8012B1A85B4F852309BB27F
:10309000E3B1B4F8522092B2013A92B2A4F85220AD
:1030A00000963B46002280212046FFF792FF30BB6E
:1030B000A368B3F5805FE4D12369002BE1D12268D6
:1030C00035F8023BC3F308031385DEE700963B4661
:1030D000002240212046FFF77CFF90B9202384F88E
:1030E0006930002384F8683000E0022002B0BDE8B7
:1030F000F0810120FAE70120F8E70220F6E703203B
:10310000F4E70320F2E730B583B004460023C3663A
:10311000FEF7DCF9054623681B6813F0080F0ED193
:1031200023681B6813F0040F17D1202384F869303B
:1031300084F86A30002084F8680003B030BD6FF076
:103140007E430093034600224FF400112046FFF710
:1031500040FF0028E4D00320EFE76FF07E430093A8
:103160002B4600224FF480012046FFF732FF002853
:10317000DBD00320E1E778B310B5044690F869305E
:103180000BB3242384F869302268136823F0010309
:1031900013602046FFF760FD012813D0636ABBB9B6
:1031A0002268536823F4904353602268936823F0A5
:1031B0002A0393602268136843F0010313602046DA
:1031C000FFF7A1FF10BD80F86830FFF70FFDD8E7CB
:1031D0002046FFF799FEE3E701207047DFF834D07F
:1031E000002103E00C4B5B58435004310B480C4B5F
:1031F00042189A42F6D30B4A02E0002342F8043BFD
:10320000094B9A42F9D3FFF775F8FDF71DF8FDF762
:10321000AFFFFEE70000012044330008000000205B
:103220007000002070000020D0010020FEE70000A8
:10323000F8B500BFF8BC08BC9E467047F8B500BFA3
:08324000F8BC08BC9E46704773
:103248005372632F6D61696E2E63000055415254AD
:103258002054455354210D0A0000000052464D20C9
:10326800494E4954210D0A004F4B202564000000A7
:103278002025640020282564290D0A00020304057E
:10328800060708090A0B0C0D0E0F101001020304A3
:1032980005060708090A0B0C0D0E0F1000000000A8
:1032A80000000000010203040607080900000000EE
:1032B800010203045372632F7370692E63000000C8
:1032C80002000302048A050206E10B201199194A3B
:1032D8001A421E0C260729A02D052E882F2D37D01F
:1032E80038423C8F3D126F20710200005372632FE9
:1032F80075736172742E6300232D302B200000003B
:10330800686C4C00656667454647000030313233CB
:1033180034353637383941424344454600000000C9
:103328003031323334353637383961626364656633
:043338000000000091
:04333C00290200085A
:04334000010200087E
:103344000400002000000000000000000000000055
:103354000000000000000000000000000000000069
:103364000000000000000000000000000000000059
:103374000000000000000000000000000000000049
:103384000000000000000000000000000000000039
:103394000000000000000000000000000000000029
:1033A40000000000010000001000000000127A007C
:04000005080031DDE1
:00000001FF
