:020000040800F2
:100000000000012005300008791600087B16000862
:100010007D1600087F160008811600080000000009
:10002000000000000000000000000000831600082F
:1000300085160008000000008716000889160008D1
:10004000553000085530000855300008553000087C
:10005000553000085530000855300008553000086C
:10006000553000085530000855300008553000085C
:10007000553000085530000855300008553000084C
:10008000553000085530000855300008553000083C
:10009000553000085530000855300008553000082C
:1000A000553000085530000855300008553000081C
:1000B000553000085530000855300008553000080C
:1000C00055300008553000085530000855300008FC
:1000D00055300008553000085530000855300008EC
:1000E00055300008553000085530000855300008DC
:1000F00055300008553000085530000855300008CC
:1001000055300008000000000000000055300008D5
:1001100055300008553000085530000855300008AB
:10012000553000085530000855300008553000089B
:1001300055300008553000080000000000000000A5
:100140005530000855300008553000080000000008
:10015000000000000000000000000000000000009F
:10016000553000085530000855300008553000085B
:10017000553000085530000855300008553000084B
:100180005530000855300008000000000000000055
:0401900055300008DE
:1001A00010B5054C237833B9044B13B10448AFF3B1
:1001B00000800123237010BD7000002000000000AB
:1001C000F038000808B5034B1BB103490348AFF3EF
:1001D000008008BD0000000074000020F038000816
:1001E000034613F8012B002AFBD1181A0138704777
:1001F00001F0FF01102A2BDB10F0070F08D010F8D8
:10020000013B013A8B422DD010F0070F42B3F6D1DB
:10021000F0B441EA012141EA014122F007047FF0F4
:1002200000070023F0E80256083C85EA010586EA4B
:10023000010685FA47F5A3FA87F586FA47F6A5FA87
:1002400087F68EB9EED1F0BC01F0FF0102F0070293
:1002500032B110F8013B013A83EA010313B1F8D13E
:100260000020704701387047002D06BF354603381F
:10027000073815F0010F07D1013015F4807F02BF58
:10028000013015F4C03F0130F0BC0138704700BFA9
:1002900053B94AB9002908BF00281CBF4FF0FF31ED
:1002A0004FF0FF3000F074B9ADF1080C6DE904CEE9
:1002B00000F006F8DDF804E0DDE9022304B0704741
:1002C0002DE9F047089E04468846002B40F08580C3
:1002D0008A42154648D9B2FA82F24AB1C2F12007E1
:1002E00001FA02F320FA07F7954047EA0308944021
:1002F0004FEA154E230CB8FBFEF71FFA85FC0EFBE8
:10030000178843EA084307FB0CF1994209D9EB1817
:1003100007F1FF3080F0E380994240F2E080023F35
:100320002B445B1AA4B2B3FBFEF00EFB103344EA7D
:10033000034400FB0CFCA44509D92C1900F1FF3340
:1003400080F0CB80A44540F2C88002382C4440EABB
:100350000740A4EB0C0400271EB1D4400023C6E9DB
:1003600000433946BDE8F087002A53D0B2FA82F242
:10037000002A40F0B680491B4FEA154E1FFA85F857
:100380000127B1FBFEFC230C0EFB1C1143EA0143C9
:1003900008FB0CF1994207D9EB180CF1FF3002D29F
:1003A000994200F2EC808446591AA3B2B1FBFEF0E8
:1003B0000EFB101443EA044408FB00F8A04507D9DB
:1003C0002C1900F1FF3302D2A04500F2DC80184660
:1003D000A4EB080440EA0C40BEE78B4208D9002E8B
:1003E00078D00027C6E9000138463946BDE8F087D5
:1003F000B3FA83F77FB98B4202D3824200F2BD8009
:10040000841A61EB030301209846002EA9D0C6E9A7
:100410000048A6E7FFDEC7F12005BB4022FA05FC35
:100420004CEA030C01FA07F420FA05F821FA05F367
:100430004FEA1C4E48EA0404B3FBFEF9210C0EFB04
:1004400019331FFA8CF841EA034309FB08FA9A456D
:1004500002FA07F200FA07F10BD91CEB030309F1CA
:10046000FF3080F088809A4540F28580A9F102092A
:100470006344A3EB0A03A4B2B3FBFEF00EFB1033FC
:1004800044EA034400FB08F8A04508D91CEB040427
:1004900000F1FF336BD2A04569D90238644440EAC9
:1004A0000940A4EB0804A0FB02894C45C6464B4614
:1004B00054D351D0002E69D0B1EB0E0264EB03048B
:1004C00004FA05F522FA07F3FC401D43C6E900547F
:1004D000002746E73746304643E7184637E70746E2
:1004E0001FE7C2F1200320FA03F7954001FA02F05A
:1004F00021FA03F34FEA154E3843010CB3FBFEF724
:100500001FFA85F80EFB173341EA034107FB08F396
:100510008B4204FA02F407D9691807F1FF3C28D28C
:100520008B4226D9023F2944CB1A81B2B3FBFEF09D
:100530000EFB103341EA034100FB08F38B4207D95D
:10054000691800F1FF3C10D28B420ED902382944C1
:10055000C91A40EA074714E74145ABD2B8EB020E8F
:1005600069EB0C0201381346A4E76046F0E7184631
:1005700095E76746D8E781467BE7384645E7ACF123
:10058000020C2B4410E702382C4421E73746E8E6FA
:10059000704700BF08B50C480C4B03604FF4E133C3
:1005A000436000238360C36003610C224261836166
:1005B000C3610362436201F0E2FF00B908BD442158
:1005C000034800F06FF8F9E7A40000200044004061
:1005D000083900080268114B9A4200D0704700B5F4
:1005E00087B003F5E633DA6942F40032DA61DB6999
:1005F00003F400330093009B0C2301930223029326
:1006000000230393032304930723059301A94FF0C9
:10061000904001F045FC07B05DF804FB0044004049
:1006200010B50446FFF7DCFD642382B22146024880
:1006300001F006FF10BD00BFA40000201549D1F84D
:10064000883043F47003C1F88830134B1A6842F0C5
:1006500001021A605868114A02405A601A6822F072
:10066000847222F480321A601A6822F480221A609E
:100670005A6822F4FE025A60DA6A22F00F02DA6245
:10068000186B074A02401A6300229A604FF0006319
:100690008B60704700ED00E0001002400CC07FF856
:1006A000CCFC00FFFEE7000000B5A7B002231C93BE
:1006B00001231F9310232093002322931CA802F0F0
:1006C0004BF830BB0F2317930021189119911A9101
:1006D0001B9117A802F078FBF8B9022301930023BD
:1006E000049301A801F05EFAD8B902F059FC0F4B4F
:1006F000A3FB0030800902F003F8042002F016F892
:10070000002211464FF0FF3001F0C6FF27B05DF820
:1007100004FBC0210648FFF7C5FFCE210448FFF7C0
:10072000C1FFD5210248FFF7BDFF00BFD34D6210C6
:100730002C39000800B583B001F06AFFFFF7B4FF61
:1007400000F006FFFFF726FF00F05CFE0A2001F034
:100750007FFF00F051F80A2001F07AFF1F4B1A8842
:100760001F4B19781F4B188800F05CFC88B11E4C99
:100770001A4B1B8800931A4B1B781A4A12881B4984
:10078000204602F08DFC2046FFF74AFF00F0A6F855
:100790001BE01748FFF744FFF8E7012220214FF044
:1007A000904001F05AFC00F033FD12E01148FFF7D1
:1007B00037FF00F00BFE00F0A7FD00F0D5FD002292
:1007C00020214FF0904001F048FC00F043F8002851
:1007D000E3D100F0C9FB0028F7D0E7E706000020CE
:1007E00008000020040000201C0100203839000807
:1007F0006C3900088439000808B501224FF4806183
:100800004FF0904001F029FC0A2001F021FF002266
:100810004FF480614FF0904001F01FFC322001F056
:1008200017FF08BD024B00221A700120704700BF5D
:10083000B20100200120014B18707047B201002066
:1008400008B502460821024801F007FC08BD00BFB8
:100850000004004810B5074B1C7814B9002420464A
:1008600010BD4FF400714FF0904001F0EFFB0128F4
:10087000F4D1F4E7B201002010B501F0E3FE084B1B
:100880001B68984201D2002010BD064C064B07CBD6
:1008900020606160A2602046FFF7C2FE0120F3E7FE
:1008A0008C0000201C0100209839000810B5044677
:1008B00001F0C8FE2044014B186010BD8C000020E0
:1008C00008B5FFF7AFFF0020FFF7BAFF08BD08B576
:1008D0000120FFF7B5FFFFF7ADFF08BD2DE9704719
:1008E000A5B0B848FFF79CFEB748FFF799FE012472
:1008F0004FF00008C14600220023CDE90023C24684
:1009000043E0B248FFF78CFE15F0800F29D1B048C4
:10091000FFF786FEAF48FFF783FE15F0400F24D0A7
:10092000AD48FFF77DFEAD48FFF77AFE15F0200FCA
:100930001FD1AB48FFF774FEC5F3820293B2E3B157
:10094000012B5BD0022B5DD0032B5FD0042B61D039
:10095000A44DA549284602F0A3FB2846FFF760FEF8
:100960000EE0A248FFF75CFED4E7A148FFF758FE6F
:10097000D9E7A048FFF754FEDBE79F48FFF750FE9A
:100980009048FFF74DFE0134E4B24F2C00F2018293
:10099000FFF796FF04F07F0000F086FD002000F0D6
:1009A00083FD0546FFF793FF8E4E2B462246934963
:1009B000304602F075FB3046FFF732FE631E0C2B0B
:1009C000E1D801A252F823F0030900081D0A00082B
:1009D0001F0B00082B0B0008610B0008690B0008B7
:1009E000910B0008970B00089D0B00087D0C000878
:1009F0009F0C0008C10C0008C90C00088048FFF7D4
:100A00000FFEBDE77F48FFF70BFEB9E77E48FFF713
:100A100007FEB5E77D48FFF703FEB1E77C48FFF727
:100A2000FFFDC5F341136BB3012B2FD0022B31D047
:100A3000032B33D07748FFF7F3FDC5F3C1038BB326
:100A4000012B35D0022B37D0032B39D07248FFF75A
:100A5000E7FDBAF1000F37D07048FFF7E1FD7048AD
:100A6000FFF7DEFD05F00305BAF1000F40D07DB3BE
:100A7000012D31D0022D33D0032D35D05148FFF751
:100A8000CFFD80E76748FFF7CBFDD3E76648FFF768
:100A9000C7FDCFE76548FFF7C3FDCBE76448FFF725
:100AA000BFFDC7E76348FFF7BBFD4FF0010ACDE785
:100AB0006148FFF7B5FDC9E76048FFF7B1FDC5E73D
:100AC0005F48FFF7ADFDC1E75E48FFF7A9FDC6E748
:100AD0005D48FFF7A5FDD1E75C48FFF7A1FDCDE735
:100AE0005B48FFF79DFDC9E75A48FFF799FDC5E749
:100AF0004DB1012D0BD0022D0DD0032DBED1564886
:100B0000FFF78EFDBAE75048FFF78AFDB6E7534876
:100B1000FFF786FDB2E75248FFF782FDAEE72D02F0
:100B20002A46EB17CDE900232DE7DDE900120D433E
:100B3000009501924B48FFF773FDDDE900234A4819
:100B40000021FFF7A5FB02460B46484903A802F027
:100B5000A7FA03A8FFF764FD1A48FFF761FD12E743
:100B60002D0205F47C590EE749EA05094048FFF7D4
:100B700057FDC9EB091209EB82023E4903A802F0B6
:100B80008FFA03A8FFF74CFD0E48FFF749FDFAE680
:100B90004FEA0548F7E648EA0528F4E648EA05087A
:100BA0003548FFF73DFDC8EB081208EB82023149DA
:100BB00003A802F075FA03A8FFF732FD0148FFF71A
:100BC0002FFDE0E6143D0008383A0008583A0008C6
:100BD000C43A0008303B0008803B0008AC3B0008EA
:100BE000643C00081C010020343D0008A03A0008C5
:100BF0008C3B0008183C0008903C0008483A00086C
:100C0000AC3C0008CC3C0008F83C0008183D00084B
:100C1000483D0008F83D0008643E0008783E0008A2
:100C2000903E00086C3D0008803D0008943D00089F
:100C3000C43D0008243E0008303E00083C3E000849
:100C4000503E0008843E0008A83E0008BC3E000854
:100C5000E03E0008043F0008783F0008283F0008F5
:100C6000503F0008943F00080048E801DC3F0008BE
:100C7000E43F000804400008084000084B48FFF724
:100C8000CFFC15F0400F06D04948FFF7C9FC494892
:100C9000FFF7C6FC77E64848FFF7C2FCF7E747488E
:100CA000FFF7BEFC15F0200F06D04548FFF7B8FC53
:100CB0004048FFF7B5FC66E64248FFF7B1FCF7E7AE
:100CC0004148FFF7ADFC5EE64048FFF7A9FCC5F3DD
:100CD000871353B3012B2CD0022B2ED0032B30D0F3
:100CE0003B48FFF79DFCC5F3011373B3012B30D0D4
:100CF000022B32D0032B34D03648FFF791FC15F08D
:100D0000080F32D03448FFF78BFC3448FFF788FCDB
:100D1000C5F341056DB3012D2FD0022D31D0032D28
:100D200033D02448FFF77CFC2DE62D48FFF778FCF4
:100D3000D6E72C48FFF774FCD2E72B48FFF770FC8E
:100D4000CEE72A48FFF76CFCCAE72548FFF768FCA6
:100D5000D2E72448FFF764FCCEE72348FFF760FCA6
:100D6000CAE72248FFF75CFCC6E72148FFF758FCBA
:100D7000CBE72048FFF754FCD3E71F48FFF750FCB0
:100D8000CFE71E48FFF74CFCCBE71D48FFF748FCB8
:100D9000C7E7FFF79CFD074C2046FFF741FC2046C4
:100DA000FFF73EFC25B0BDE8708700BF2840000873
:100DB00058400008143D000878400008A040000892
:100DC0001C410008384100085441000860410008F7
:100DD000F44100084042000884420008FC42000838
:100DE000B0410008C4410008D4410008E4410008B3
:100DF000CC42000848430008A043000858440008BB
:100E0000F044000810B50446FFF75AFD04F07F00D7
:100E100000F04AFB002000F047FB0446FFF757FDB7
:100E2000204610BD38B505460C46FFF749FD45F094
:100E3000800000F039FB204600F036FBFFF747FD4D
:100E400038BD00002C4B1B78834254D010B50446AB
:100E500004281CD8DFE800F046382A1C03000120D3
:100E6000FFF7D0FF41B221F01C0141F00C0101F06D
:100E7000EF010120FFF7D6FF1F4B1B782BB927206E
:100E8000FFF7C0FF10F0800FF6D01B4B1C7010BD99
:100E90000120FFF7B7FF41B221F01C0141F0100122
:100EA00001F0F3010120FFF7BDFFE5E70120FFF7A7
:100EB000A9FF41B221F01C0141F0080101F0EB0152
:100EC0000120FFF7AFFFD7E70120FFF79BFF41B2FB
:100ED00021F01C0141F0040101F0E7010120FFF7BE
:100EE000A1FFC9E70120FFF78DFF00F0E30101201A
:100EF000FFF798FFC0E770470900002008B50023FE
:100F0000124A1370124A1370124A1370124A137065
:100F1000124A1370124A1370124A13802820FFF7E6
:100F200071FF10F0040F07D140212520FFF77AFF51
:100F30000320FFF787FF08BD3D20FFF763FF40F068
:100F40000401C9B23D20FFF76DFFEDE7B6010020B7
:100F5000B8010020B4010020FC010020B5010020F0
:100F6000B9010020FA01002008B5FFF75BFC0B4B2C
:100F70001B78032B05D0032B0CD0FFF7BFFF0020FD
:100F800008BD074A1278002AF5D00120FFF75AFF62
:100F90000120F5E7FFF74EFC0020F1E709000020F3
:100FA000FC01002008B538B92420FFF72BFF80B2E0
:100FB000404240F34E0008BD01212320FFF732FFDD
:100FC0002320FFF71FFF10F0020FF9D0ECE708B560
:100FD0001A211320FFF726FF08BD38B5054601206A
:100FE000FFF730FF7DB1FFF76BFCBE2000F05CFA2D
:100FF00000240F2C05D8285D00F056FA0134E4B225
:10100000F7E7FFF764FC3D20FFF7FCFE41B221F05B
:101010000101002D18BF41F00101C9B23D20FFF7C9
:1010200001FF38BD70B58CB00E4601238DF800303D
:1010300004218DF8011002248DF8024000238DF860
:10104000033003238DF804308DF805408DF8061029
:1010500040218DF8071005218DF808108DF8093012
:1010600006238DF80A3033238DF80B3007238DF8D3
:101070000C3040F23B1398420AD040F2B113984230
:1010800019D0B0F5597F01D0E42302E0D92300E064
:101090004E238DF80D3008238DF80E3040F23B13AF
:1010A00098420CD040F2B113984265D0B0F5597F08
:1010B00003D0C02304E06C23EBE7002300E0C0234F
:1010C0008DF80F3009238DF8103000248DF8114071
:1010D00019238DF8123042218DF8131025238DF835
:1010E000143040238DF8153026238DF81630072351
:1010F0008DF8173028238DF8183010238DF819300B
:1011000029238DF81A30DC238DF81B302E238DF81F
:101110001C3088238DF81D302F238DF81E302D2391
:101120008DF81F3030238DF820308DF821203722A4
:101130008DF8222090228DF8232038228DF824204B
:101140008DF825103C228DF826208F228DF827203F
:101150003D228DF8282012228DF829206F228DF84B
:101160002A208DF82B30FF238DF82C308DF82D4060
:101170000120FFF765FB0AE04023A1E70CAB03EB7E
:10118000440313F82F1CFFF74DFE0134E4B20CABFF
:1011900003EB440313F8300CFF28EFD1002401E0E7
:1011A0000134E4B225460CAB03EB440313F8300CD6
:1011B000FF280CD02828F3D0FFF724FE0CAB03EB5C
:1011C000450515F82F3C9842EAD000201AE000208F
:1011D000FFF703FFFFF7FBFE0120FFF733FE32208E
:1011E000FFF764FB2720FFF70DFE10F0800F03D1FF
:1011F000FFF742FB0028F5D0FFF73EFB20B9034B79
:101200001E7001200CB070BD0020FBE7B70100206C
:1012100010B5324B1B78032B05D00020FFF7C2FE20
:101220002F4B188010BD2820FFF7ECFD10F0040FA5
:10123000F3D00120FFF706FEFFF742FB002000F08D
:1012400033F9002000F030F9422828BF4220254B16
:101250001870002000F028F9234B1870234B1B78DE
:101260002BB9234B1B78984201D0FF2803D11D4B8B
:101270001B78022B07D81B4B00221A70FFF727FBA5
:10128000FFF73CFECEE7033B1A4A1370002000F044
:101290000BF9194B1870002000F006F900F08002DD
:1012A000164B1A7000F04000154B18700024114BBB
:1012B0001B78A34207D9002000F0F6F8114B18550F
:1012C0000134E4B2F3E73C2B02D80E4A0021D1549A
:1012D000FFF7FDFA0320FFF7B5FD9EE709000020A8
:1012E000FA010020FC010020B40100209000002041
:1012F000B7010020B6010020B8010020B90100208C
:10130000B5010020BC01002038B5104B1B78082B1C
:1013100003D00F48FFF784F938BD0E4D0E4A2B4617
:101320001068516803C30D4C02460D49204601F078
:10133000B7FE2046FFF774F96A680A49204601F0B3
:10134000AFFE2046FFF76CF9E6E700BFB6010020CC
:10135000E039000814010020BC0100201C0100201D
:10136000183A0008283A000838B512490A784B782C
:1013700002EB032292B2104B1A808B78C87803EBF1
:101380000023087903EB0043497903EB01630B4D1C
:101390002B600B4C0B49204601F082FE2046FFF7E4
:1013A0003FF92A680849204601F07AFE2046FFF7F7
:1013B00037F938BDBC0100209200002094000020C5
:1013C0001C010020A4390008B839000838B50024F1
:1013D000084B1B78A3420CDD074D084B1B5D2246D2
:1013E0000749284601F05CFE2846FFF719F9013449
:1013F000EEE738BDB60100201C010020BC01002032
:10140000CC39000808B51148114B03604FF48273C2
:101410004360002383604FF4E062C2600361436174
:101420004FF4007282610822C261036243628362E8
:101430000721C1620363426300F0FAF900B908BDF5
:1014400047210448FFF72EF9F9E700BF000200200A
:1014500000380040044500080268114B9A4200D051
:10146000704700B587B003F5EC33DA6942F4804287
:10147000DA61DB6903F480430093009B4FF460431F
:101480000193022302930023039303230493052370
:10149000059301A9034800F003FD07B05DF804FBC4
:1014A000003800400004004800B587B08DF80F00F8
:1014B0000A23009301230DF117020DF10F010448D7
:1014C00000F013FA9DF8170007B05DF804FB00BFA9
:1014D0000002002000B583B01C4B9A6942F0010263
:1014E0009A619B6903F001030193019B032001F0C2
:1014F000C1F8002211466FF00B0001F0CDF8002278
:1015000011466FF00A0001F0C7F8002211466FF093
:10151000090001F0C1F8002211466FF0040001F04B
:10152000BBF8002211466FF0030001F0B5F800226D
:1015300011466FF0010001F0AFF8002211464FF0A4
:10154000FF3001F0A9F803B05DF804FB0010024081
:10155000F0B58BB0434B5A6942F400225A615A6984
:1015600002F400220092009A5A6942F480025A6101
:101570005A6902F480020192019A5A6942F40032D7
:101580005A615A6902F400320292029A5A6942F48C
:1015900080225A615A6902F480220392039A5A699E
:1015A00042F480125A615B6903F480130493049B34
:1015B000002220214FF0904000F04FFD2A4E0022E3
:1015C0000821304600F049FD4FF6FF7305930325CF
:1015D00006950024079405A9244800F061FC0595B0
:1015E0000695079405A9224800F05AFC4FF6D353FC
:1015F00005930695079405A94FF0904000F050FC24
:1016000020230593012706970794089405A94FF016
:10161000904000F045FC41F6F7730593069507945A
:1016200005A9304600F03CFC4FF400730593069486
:10163000079405A94FF0904000F032FC0423059375
:101640000695079405A90B4800F02AFC082305938A
:1016500006970794089405A9304600F021FC0BB0CA
:10166000F0BD00BF00100240000400480008004820
:1016700000140048000C00487047FEE7FEE7FEE754
:10168000FEE770477047704708B500F0D3FF01F0E0
:101690005EF808BDF8B505460F4616461C4639E00B
:1016A0002CB100F0CFFF069BC01AA04232D32A68AB
:1016B000536823F0E00353606B68B3F5827F0BD06F
:1016C000AB6AB3F5005F14D0012385F85D300023C9
:1016D00085F85C30032025E0AB68B3F5004F02D0FD
:1016E000B3F5806FECD12A68136823F040031360D0
:1016F000E6E72A68136823F4005313602A68136826
:1017000043F400531360DFE70123B34209D0B4F17F
:10171000FF3FC5D12B689B6837EA0303F4D0002351
:10172000F3E70020F8BDF0B583B007460C46154638
:101730001E4602E0B6F1FF3F10D13A68936823409D
:10174000AB423FD0B4F5C06FF4D1002DF2D1137B82
:10175000DBB28DF807309DF80730EBE72EB100F0D3
:1017600071FF089BC01AB042E7D33A68536823F070
:10177000E00353607B68B3F5827F0BD0BB6AB3F59F
:10178000005F14D0012387F85D30002387F85C30B8
:10179000032018E0BB68B3F5004F02D0B3F5806FAB
:1017A000ECD13A68136823F040031360E6E73A6827
:1017B000136823F4005313603A68136843F400532A
:1017C0001360DFE7002003B0F0BD70B582B00446BF
:1017D0000D46164600920B4600224FF4C051FFF70B
:1017E000A2FFB8B900962B46002280212046FFF7C1
:1017F00051FFB8B900962B4600224FF4C061204635
:10180000FFF791FF034650B1236E43F02003236698
:10181000032304E0236E43F02003236603231846CA
:1018200002B070BD236E43F0200323660323F6E766
:10183000002858D010B504460023836290F85D302C
:10184000002B45D0022384F85D302268136823F012
:1018500040031360E368B3F5E06F3ED90022B3F5AF
:10186000706F04D0B3F5E06F01D00021A162216B4D
:1018700021B9B3F5E06F33D9022323636368A1680C
:101880000B4321690B4361690B43A16901F40071AA
:101890000B43E1690B43216A0B43A06A21680343B0
:1018A0000B60638B03F00403616A0B43616B0B43B2
:1018B000E1680B43216813434B602268D36923F42A
:1018C0000063D36100202066012384F85D3010BDE1
:1018D00080F85C30FFF7C0FDB4E74FF48052BEE7FC
:1018E00001232363CAE7012070472DE9F843994695
:1018F000089D90F85C30012B00F0518104460F46A2
:101900001646012380F85C3000F09CFE804694F877
:101910005D30DBB26268012B0AD0B2F5827F40F005
:101920002981A268002A40F02E81042B40F02D81ED
:10193000002F00F02C81002E00F02B81B9F1000F58
:1019400000F0298194F85D30DBB2042B02D005232E
:1019500084F85D30002323662664A4F84690A4F83A
:101960004490A763A4F83E90A4F83C90E3642365F8
:10197000E368B3F5E06F04D8B4F846309BB2012BAE
:1019800022D92268536823F48053536023681A686D
:1019900012F0400F03D11A6842F040021A60E36867
:1019A000B3F5E06F54D963681BB1E38F9BB2012B91
:1019B00007D1236837F8022BDA60E38F013B9BB233
:1019C000E3874FF001091CE02268536843F4805319
:1019D0005360DBE7B4F846309BB27BB123689A686A
:1019E00012F0010F0AD0DB6826F8023BB4F846304B
:1019F000013B9BB2A4F846304FF00109B5F1FF3F1F
:101A00001ED1E38F9BB22BB9B4F846309BB2002BAA
:101A100000F0A480B9F1000FDCD0E38F9BB2002B63
:101A2000D8D023689A6812F0020FD3D037F8022B6F
:101A3000DA60E38F013B9BB2E3874FF00009C9E70F
:101A400000F000FEA0EB0800A842DAD3032092E0E9
:101A500063681BB1E38F9BB2012B0BD1E38F9BB269
:101A6000012B0AD9236837F8022BDA60E38F023B97
:101A70009BB2E3874FF0010928E0236817F8012B98
:101A80001A73E38F013B9BB2E387F3E717F8012B4F
:101A90001A73E38F013B9BB2E3874FF0000935E0F7
:101AA0002268536843F4805353604FF001090AE001
:101AB0001B7B06F8013BB4F84630013B9BB2A4F80F
:101AC00046304FF00109B5F1FF3F3FD1E38F9BB2A4
:101AD00023B9B4F846309BB2002B3FD0B9F1000FC8
:101AE00014D0E38F9BB28BB123689A6812F0020F77
:101AF0000CD0E28F92B2012AC8D937F8022BDA60F3
:101B0000E38F023B9BB2E3874FF00009B4F8463005
:101B10009BB2002BD7D023689A6812F0010FD2D065
:101B2000B4F8462092B2012AC2D9DB6826F8023BFB
:101B3000B4F84630023B9BB2A4F84630B4F84630C5
:101B40009BB2012BACD94FF00109BCE700F07AFD44
:101B5000A0EB0800A842B9D303200CE04246294676
:101B60002046FFF732FE08B120232366236EA3B977
:101B7000002000E00220012384F85D30002384F877
:101B80005C30BDE8F8830220F5E70220F3E701208E
:101B9000F1E70120EFE70120EDE70120EBE702206C
:101BA000EFE70000F0B583B00446036813F4803F0C
:101BB00048D0A14BDB6913F0805F40F022819E4B3F
:101BC000DA6942F08052DA61DB6903F080530193F5
:101BD000019B0125994B1B6813F4807F00F0138152
:101BE000954B1B6A13F4407322D0626802F4407272
:101BF0009A421DD09048016A21F440764FF4803318
:101C000093FAA3F2B2FA82F28D4F3A4492004FF067
:101C1000010CC2F800C093FAA3F3B3FA83F33B4478
:101C20009B0000221A60066211F0010F40F0008153
:101C3000814A136A23F4407361680B431362002DD9
:101C400040F02381236813F0010F06D07A4A136B0A
:101C500023F00303A1680B431363236813F0020FFF
:101C600006D0754A136B23F44033E1680B431363CA
:101C7000236813F0040F06D06F4A136B23F440233C
:101C800021690B431363236813F0200F06D06A4ABF
:101C9000136B23F01003E1690B431363236813F400
:101CA000003F06D0644A536823F48003616D0B4300
:101CB0005360236813F0400F06D05F4A136B23F084
:101CC0002003216A0B431363236813F4802F06D08B
:101CD000594A136B23F04003616A0B431363236873
:101CE00013F0080F06D0544A136B23F440136169B4
:101CF0000B431363236813F0100F06D04E4A136B87
:101D000023F44003A1690B431363236813F4007F9A
:101D100006D0494A536823F40003216B0B435360F8
:101D2000236813F0800F06D0434AD36A23F4F87374
:101D3000A16A0B43D362236813F4807F06D03E4A26
:101D4000D36A23F47853E16A0B43D362236813F414
:101D5000805F06D0384A136B23F48073616B0B43AA
:101D60001363236813F4005F06D0334A136B23F424
:101D70000073216C0B431363236813F4801F06D098
:101D80002D4A136B23F08073A16B0B4313632368FD
:101D900013F4001F06D0284A136B23F00073E16B85
:101DA0000B431363236813F4800F06D0224A136B8E
:101DB00023F48063616C0B431363236813F4000FF7
:101DC00006D01D4A136B23F40063A16C0B4313630D
:101DD000236813F0807F06D0174A136B23F4005357
:101DE000E16C0B431363236813F0007F54D0124A55
:101DF000136B23F40043216D0B431363002003B0E6
:101E0000F0BD0025E6E60D4A136843F480731360C5
:101E100000F018FC0646094B1B6813F4807F7FF422
:101E2000DFAE00F00FFC801B6428F4D90320E6E746
:101E300000F008FC06461BE0001002400070004065
:101E400000819010154B196A022393FAA3F3B3FA99
:101E500083F303F01F03012202FA03F30B427FF422
:101E6000E7AE00F0EFFB801B41F28833984211D8B7
:101E7000022393FAA3F293FAA3F3002BE2D10223F5
:101E800093FAA3F3054B596ADEE7D36923F0805335
:101E9000D361D7E60320B2E70020B0E7001002408C
:101EA000F0B482B0002336E0062400E00024B44001
:101EB0003C430235614E46F82540614C2568D443C9
:101EC00004EA05064F6817F4803F01D042EA050690
:101ED0005B4D2E606D6804EA05064F6817F4003FFD
:101EE00001D042EA0506564D6E60AD6804EA05066B
:101EF0004F6817F4801F01D042EA0506504DAE60CE
:101F0000ED682C404E6816F4001F01D042EA05042B
:101F10004B4AD46001330A6832FA03F400F08B8034
:101F200001249C402240F5D04D68022D01D0122D95
:101F300010D1DE08083650F826C003F00705AF00C0
:101F40000F25BD402CEA050C0D69BD4045EA0C0586
:101F500040F8265006685F000325BD40ED4305EAC2
:101F6000060C4E6806F00306BE4046EA0C06066004
:101F70004E6806F1FF3CBCF1010F03D9112E01D0D0
:101F8000122E10D1866805EA060CCE68BE4046EADD
:101F90000C068660466826EA04044E68C6F30016FE
:101FA0009E4026434660C46825408C68BC402C4354
:101FB000C4604C6814F0805FACD0224CA56945F039
:101FC0000105A561A46904F001040194019C9D0828
:101FD000AE1C1A4C54F8267003F00304A6000F241C
:101FE000B44027EA0407B0F1904F3FF45FAF164CBE
:101FF000A04216D004F58064A04214D004F5806499
:10200000A04212D004F58064A04210D004F5806490
:10201000A0420ED004F58064A0423FF445AF0724EF
:1020200045E7012443E7022441E703243FE7042472
:102030003DE705243BE702B0F0BC704700000140DB
:1020400000040140001002400004004803691942E6
:1020500001D001207047002070470AB181617047AC
:102060008162704710B50446836802691343426970
:102070001343C269134301680868A04A024013432E
:102080000B602268536823F44053E1680B435360AC
:10209000A369226A1A4321688B6823F430631343CF
:1020A0008B602268964B9A420DD0964B9A421DD077
:1020B000954B9A4243D0954B9A4258D0944B9A42B2
:1020C0006DD0102327E003F558431B6B03F0030387
:1020D000032B09D8DFE803F00204067B01231AE092
:1020E000042318E0082316E0102314E003F5E63378
:1020F0001B6B03F44033B3F5803F6AD007D9B3F5C7
:10210000003F68D0B3F5403F17D1022303E00BB97D
:10211000002300E01023E169B1F5004F69D0082BDE
:1021200000F2E980DFE813F0AD00B900C500E70078
:10213000D100E700E700E700DD001023EBE703F53F
:10214000E4331B6B03F44023B3F5802F45D007D94C
:10215000B3F5002F43D0B3F5402F06D10223DAE7C1
:102160000BB90023D7E71023D5E71023D3E703F5F6
:10217000E2331B6B03F44013B3F5801F31D007D952
:10218000B3F5001F2FD0B3F5401F06D10223C2E7DD
:102190000BB90023BFE71023BDE71023BBE703F50E
:1021A000E0331B6B03F44003B3F5800F1DD007D958
:1021B000B3F5000F1BD0B3F5400F06D10223AAE7F9
:1021C0000BB90023A7E71023A5E71023A3E70223F9
:1021D000A1E704239FE708239DE704239BE7082347
:1021E00099E7042397E7082395E7042393E7082357
:1021F00091E7082B42D8DFE803F0051722412D4173
:102200004141380000F0D2FE6268530803EB4003FE
:10221000B3FBF2F39BB2002023F00F02C3F342039F
:1022200013432268D36010BD00F0D6FE62685308E5
:1022300003EB4003B3FBF2F39BB20020ECE76268D0
:10224000530803F5740303F51053B3FBF2F39BB289
:102250000020E1E700F080FD6268530803EB4003D3
:10226000B3FBF2F39BB20020D6E76268530803F594
:102270008033B3FBF2F39BB20020CDE701200023B3
:10228000CAE700F093FE636800EB5300B0FBF3F085
:10229000236880B2D8600020C5E700F09DFE636827
:1022A00000EB5300B0FBF3F0236880B2D86000204D
:1022B000B9E761684B0803F5F40303F59053B3FBEA
:1022C000F1F39BB2D3600020ADE700F045FD6368F9
:1022D00000EB5300B0FBF3F0236880B2D86000201D
:1022E000A1E761684B0803F50043B3FBF1F39BB230
:1022F000D360002097E7012095E700BFF369FFEF67
:10230000003801400044004000480040004C0040BC
:1023100000500040436A13F0010F06D00268536872
:1023200023F40033816A0B435360436A13F0020FB6
:1023300006D00268536823F48033C16A0B435360AC
:10234000436A13F0040F06D00268536823F4802315
:10235000016B0B435360436A13F0080F06D0026809
:10236000536823F40043416B0B435360436A13F0FB
:10237000100F06D00268936823F48053816B0B43DF
:102380009360436A13F0200F06D00268936823F429
:102390000053C16B0B439360436A13F0400F0AD0A4
:1023A0000268536823F48013016C0B435360036C81
:1023B000B3F5801F0BD0436A13F0800F06D002687C
:1023C000536823F40023816C0B4353607047026809
:1023D000536823F4C003416C0B435360EBE72DE9D2
:1023E000F04105460F4616469846069C2B68DB6969
:1023F00037EA03030CBF01230023B3421DD1B4F11C
:10240000FF3FF3D02CB100F01DF9A0EB0800A04273
:10241000ECD92A68136823F4D07313602A68936890
:1024200023F001039360202385F8693085F86A3032
:10243000002385F86830032000E00020BDE8F0812B
:102440002DE9F04182B01E4690F86930DBB2202BB6
:102450004ED104460D46904600294ED0002A4ED05B
:1024600090F86830012B4CD0012380F868300023AD
:10247000C366212380F8693000F0E4F80746A4F829
:102480005080A4F8528003E0236815F8012B1A85C8
:10249000B4F852309BB2DBB1B4F85230013B9BB27E
:1024A000A4F8523000963B46002280212046FFF7D8
:1024B00096FF40BBA368B3F5805FE5D12369002B8D
:1024C000E2D1226835F8023BC3F308031385DFE746
:1024D00000963B46002240212046FFF780FF03463E
:1024E00098B9202284F86920002284F8682000E04E
:1024F0000223184602B0BDE8F0810123F9E7012369
:10250000F7E70223F5E70323F3E70323F1E730B509
:1025100083B004460023C36600F094F805462368A0
:102520001B6813F0080F0ED123681B6813F0040F0B
:1025300017D1202384F8693084F86A30002084F8A9
:10254000680003B030BD6FF07E4300930346002265
:102550004FF400112046FFF742FF0028E4D003208B
:10256000EFE76FF07E4300932B4600224FF480018B
:102570002046FFF734FF0028DBD00320E1E778B3E3
:1025800010B5044690F869300BB3242384F8693001
:102590002268136823F0010313602046FFF762FDF1
:1025A000012813D0636ABBB92268536823F49043AF
:1025B00053602268936823F02A03936022681368AB
:1025C00043F0010313602046FFF7A1FF10BD80F820
:1025D0006830FDF7FFFFD8E72046FFF79BFEE3E7F3
:1025E0000120704710B50446074B1868074BA3FB42
:1025F0000030800900F084F8002221464FF0FF30BF
:1026000000F04AF8002010BD00000020D34D6210F9
:1026100008B5074A136843F010031360032000F065
:1026200029F80020FFF7DEFFFEF754FF002008BD69
:1026300000200240024A136801331360704700BF54
:1026400064020020014B1868704700BF640200203C
:1026500030B583B00190FFF7F5FF0546019CB4F15A
:10266000FF3F00D00134FFF7EDFF401BA042FAD33B
:1026700003B030BD074AD36823F4E0631B041B0C8E
:10268000000200F4E060184340F0BF6040F4003006
:10269000D060704700ED00E030B4174BDB68C3F347
:1026A0000223C3F10704042C28BF04241D1D062D9A
:1026B00001D9033B00E000234FF0FF3505FA04F495
:1026C00021EA0401994005FA03F322EA03031943BE
:1026D000002809DB0901C9B200F1604000F5614042
:1026E00080F8001330BC704700F00F000901C9B238
:1026F000024B1954F6E700BF00ED00E014ED00E0D6
:102700000138B0F1807F0AD2064B5860064AF021AA
:1027100082F823100020986007221A607047012079
:10272000704700BF10E000E000ED00E0042805D095
:10273000054A136823F0040313607047024A1368C4
:1027400043F004031360704710E000E0704708B5E1
:10275000FFF7FCFF08BD000070B582B004460368B7
:1027600013F0010F3DD0C84B5B6803F00C03042B42
:1027700020D0C54B5B6803F00C03082B13D06368B3
:10278000B3F5803F6AD0002B40F08D8003F1804389
:1027900003F504331A6822F480321A601A6822F4AE
:1027A00080221A605FE0B84B5B6803F4C033B3F576
:1027B000803FE4D14FF4003393FAA3F3B24B19688E
:1027C0004FF4003393FAA3F3B3FA83F303F01F0338
:1027D000012202FA03F30B4203D06368002B00F0DE
:1027E000A982236813F0020F00F0C080A64B5B683B
:1027F00013F00C0F00F09780A34B5B6803F00C0301
:10280000082B00F08880E368002B00F0ED800122A7
:1028100092FAA2F3B3FA83F303F1845303F584131A
:102820009B001A60FFF70EFF0546022393FAA3F3FD
:10283000954B1968022393FAA3F3B3FA83F303F0D9
:102840001F03012202FA03F30B4240F0BE80FFF7A0
:10285000F9FE401B0228E8D9032074E28A4A136873
:1028600043F4803313606368002B36D0FFF7EAFE31
:1028700005464FF4003393FAA3F3834B19684FF4E2
:10288000003393FAA3F3B3FA83F303F01F03012297
:1028900002FA03F31942A4D1FFF7D4FE401B6428C7
:1028A000E7D903204FE2B3F5A02F09D0764B1A6881
:1028B00022F480321A601A6822F480221A60D2E769
:1028C00003F18043A3F53C331A6842F480221A6076
:1028D0001A6842F480321A60C5E7FFF7B3FE054676
:1028E0004FF4003393FAA3F3674B19684FF40033A6
:1028F00093FAA3F3B3FA83F303F01F03012202FA5E
:1029000003F319423FF46DAFFFF79CFE401B6428B0
:10291000E6D9032017E25C4B5B6803F4C033B3F5E0
:10292000004F7FF470AF022393FAA3F3564B19685C
:10293000022393FAA3F3B3FA83F303F01F030122F4
:1029400002FA03F3194203D0E368934240F0F481A2
:102950004D48036823F0F8032169F82292FAA2F2A5
:10296000B2FA82F201FA02F213430360236813F011
:10297000080F00F08D806369002B5CD0012191FA73
:10298000A1F2B2FA82F2414B13449B001960FFF7A7
:1029900059FE0546022393FAA3F293FAA3F293FA9F
:1029A000A3F2394A516A93FAA3F3B3FA83F303F01B
:1029B0001F03012202FA03F30B4269D1FFF742FE23
:1029C000401B0228E6D90320BDE12F48036823F00D
:1029D000F8032169F82292FAA2F2B2FA82F201FA1D
:1029E00002F213430360C1E7012393FAA3F3B3FA9E
:1029F00083F303F1845303F584139B0000221A60D0
:102A0000FFF720FE0546022393FAA3F31E4B196835
:102A1000022393FAA3F3B3FA83F303F01F03012213
:102A200002FA03F31942A1D0FFF70CFE401B022863
:102A3000E9D9032087E1012292FAA2F2B2FA82F2E6
:102A4000124B13449B0000221A60FFF7FBFD054662
:102A5000022393FAA3F293FAA3F293FAA3F20A4A97
:102A6000516A93FAA3F3B3FA83F303F01F0301222D
:102A700002FA03F30B420BD0FFF7E4FD401B0228E0
:102A8000E6D903205FE100BF0010024020819010D2
:102A9000236813F0040F00F0A980AD4BDB6913F03D
:102AA000805F20D1AA4BDA6942F08052DA61DB699B
:102AB00003F080530193019B0125A64B1B6813F47F
:102AC000807F12D0A368012B23D073BB03F1804316
:102AD00003F504331A6A22F001021A621A6A22F01C
:102AE00004021A621AE00025E7E79A4A136843F4E1
:102AF00080731360FFF7A6FD0646964B1B6813F420
:102B0000807FDFD1FFF79EFD801B6428F5D903206D
:102B100019E18F4A136A43F001031362A368002B83
:102B20003CD0FFF78FFD06462EE0052B09D0884BE1
:102B30001A6A22F001021A621A6A22F004021A6268
:102B4000ECE7834B1A6A42F004021A621A6A42F0F6
:102B500001021A62E2E7022393FAA3F37C4B596A5B
:102B6000022393FAA3F3B3FA83F303F01F030122C2
:102B700002FA03F3194238D1FFF764FD801B41F2DA
:102B80008833984200F2DA80022393FAA3F293FA90
:102B9000A3F3002BDFD06E4B196AE1E7FFF752FD7C
:102BA000064618E0022393FAA3F3694B596A0223FD
:102BB00093FAA3F3B3FA83F303F01F03012202FA9B
:102BC00003F3194211D0FFF73DFD801B41F288331A
:102BD000984200F2B580022393FAA3F293FAA3F38A
:102BE000002BDFD05A4B196AE1E7B5BBA369002B74
:102BF00000F0A880564A526802F00C02082A00F041
:102C0000A480022B2FD04FF0807393FAA3F3B3FA72
:102C100083F303F1845303F584139B0000221A60AD
:102C2000FFF710FD04464FF0007393FAA3F3484BEF
:102C300019684FF0007393FAA3F3B3FA83F303F028
:102C40001F03012202FA03F3194271D0FFF7FAFCC5
:102C5000001B0228E7D9032075E03D4AD36923F021
:102C60008053D361C2E74FF0807393FAA3F3B3FAB2
:102C700083F303F1845303F584139B0000221A604D
:102C8000FFF7E0FC05464FF0007393FAA3F3304BD7
:102C900019684FF0007393FAA3F3B3FA83F303F0C8
:102CA0001F03012202FA03F3194206D0FFF7CAFC00
:102CB000401B0228E7D9032045E0254AD36A23F0C8
:102CC0000F03616A0B43D362536823F47613216ABE
:102CD000E06901430B4353604FF0807393FAA3F311
:102CE000B3FA83F303F1845303F584139B000122A9
:102CF0001A60FFF7A7FC04464FF0007393FAA3F3A2
:102D0000134B19684FF0007393FAA3F3B3FA83F3EC
:102D100003F01F03012202FA03F3194206D1FFF761
:102D200091FC001B0228E7D903200CE000200AE0F8
:102D3000002008E0012006E0012004E0032002E07A
:102D4000032000E0002002B070BD0120FBE700BFBF
:102D50000010024000700040174B5B6803F00C024B
:102D6000082A01D01548704703F470114FF470120F
:102D700092FAA2F2B2FA82F221FA02F21049885CC7
:102D80000D4AD26A02F00F020F2191FAA1F1B1FAB5
:102D900081F1CA400B498A5C13F4803F05D0074B90
:102DA000B3FBF2F300FB03F07047044BB3FBF2F309
:102DB00000FB03F0704700BF0010024000127A00D1
:102DC0001045000820450008714B1B6803F00703FD
:102DD0008B420BD26E4A136823F007030B43136038
:102DE000136803F007038B4240F0CB8070B5036893
:102DF00013F0020F06D0674A536823F0F00384688B
:102E0000234353600D460446036813F0010F7AD044
:102E10004368012B2FD0022B42D0022292FAA2F259
:102E20005C4A1068022292FAA2F2B2FA82F202F02E
:102E30001F02012101FA02F2104200F0A48055495C
:102E40004A6822F0030213434B60FFF7FBFB064680
:102E50006368012B39D0022B46D04E4B5B6813F0D0
:102E60000C0F50D0FFF7EEFB801B41F288339842E5
:102E7000F3D9032084E04FF4003292FAA2F2454ADB
:102E800010684FF4003292FAA2F2B2FA82F202F023
:102E90001F02012101FA02F20242D0D101206FE0AB
:102EA0004FF0007292FAA2F23A4A10684FF00072A4
:102EB00092FAA2F2B2FA82F202F01F02012101FAA2
:102EC00002F21042BBD101205AE0324B5B6803F0A2
:102ED0000C03042B17D0FFF7B5FB801B41F288339E
:102EE0009842F2D903204BE02A4B5B6803F00C03B5
:102EF000082B08D0FFF7A6FB801B41F288339842CD
:102F0000F2D903203CE0224B1B6803F00703AB42DD
:102F10000AD91F4A136823F007032B431360136871
:102F200003F00703AB4230D1236813F0040F06D03F
:102F3000184A536823F4E063E1680B435360236845
:102F400013F0080F07D0134A536823F46053216924
:102F500043EAC1035360FFF7FFFE0E4B5B6803F0CB
:102F6000F003F02292FAA2F2B2FA82F2D3400A4AB5
:102F7000D35CD840094B18600020FFF733FB0020DA
:102F800070BD012070470120FAE70120F8E700BF7B
:102F90000020024000100240143900080000002008
:102FA000014B1868704700BF0000002008B5FFF70C
:102FB000F7FF074B5B6803F4E0634FF4E06292FABB
:102FC000A2F2B2FA82F2D340024AD35CD84008BDE2
:102FD000001002402439000808B5FFF7E1FF074B55
:102FE0005B6803F460534FF4605292FAA2F2B2FAB3
:102FF00082F2D340024AD35CD84008BD00100240A0
:1030000024390008DFF834D0002103E00C4B5B5872
:10301000435004310B480C4B42189A42F6D30B4AEA
:1030200002E0002342F8043B094B9A42F9D3FDF732
:1030300005FB00F011F8FDF77DFBFEE70000012025
:10304000744500080000002070000020700000207F
:1030500078020020FEE7000070B50D4D0D4C641B9A
:10306000A4100026A64209D10B4D0C4C00F040FCE8
:10307000641BA4100026A64205D170BD55F8043B80
:1030800098470136EEE755F8043B98470136F2E7DA
:103090006C4500086C4500086C4500087045000848
:1030A0000EB400B59CB01DAB029006906FF00041CD
:1030B000094807910491094953F8042B05910068C8
:1030C000019302A900F068F8029B00221A701CB05C
:1030D0005DF804EB03B070470C0000200802FFFF0E
:1030E0002DE9F0478E689E4282460C4691469846EE
:1030F00038D8B1F80CC01CF4906F31D062692568E3
:10310000096902EB42026F1A02EBD27201335510C9
:103110003B449D4238BF1D461CF4806F30D0294689
:1031200000F032FB064650B90C23CAF80030A389E0
:1031300043F04003A3814FF0FF30BDE8F0873A46EB
:10314000216900F0ABFAA38923F4906343F0800374
:10315000A381266165613E44ED1B2660A56046465D
:10316000464500D9464632464946206800F0A4FA52
:10317000A3689B1BA36023681E4426600020DCE735
:103180002A4600F05BFB06460028E2D12169504642
:1031900000F0ACFAC8E700002DE9F04F1E468B891D
:1031A0001B069DB007460D4614460ED50B6963B944
:1031B000402100F0E9FA2860286120B90C233B6027
:1031C0004FF0FF30C9E040236B61002309932023B7
:1031D0008DF82930DFF89C91039630238DF82A3042
:1031E0004FF0010A23461E4613F8012B0AB1252A87
:1031F000F9D1B6EB040B0BD05B4622462946384684
:10320000FFF76EFF013000F0A380099B5B44099338
:103210003378002B00F09C8000234FF0FF32CDE983
:1032200005230136049307938DF853301A933446DF
:10323000052214F8011B4F48FCF7DAFF049BC0B9C4
:10324000D90644BF20228DF853201A0744BF2B22F1
:103250008DF8532032782A2A13D0079A344600205A
:103260000A26214611F8013B303B092B4BD970B996
:1032700014E0A0EB09000AFA00F018430490264677
:10328000D5E7039A111D12680391002A01DB07920A
:1032900004E0524243F002030792049323782E2B5A
:1032A0000CD163782A2B33D1039B1A1D1B68039220
:1032B000002BB8BF4FF0FF33023405932E4E217818
:1032C00003223046FCF794FF38B14023801B03FAF9
:1032D00000F0049B03430134049314F8011B2748B6
:1032E0008DF828100622FCF783FF002838D0244BE5
:1032F00013BB039B073323F0070308330393099B96
:10330000434409936EE706FB023201200C46A8E70E
:1033100000230134059319460A26204610F8012B94
:10332000303A092A03D9002BC8D00591C6E706FB1D
:10333000012101230446F0E703AB00932A46114B19
:1033400004A93846AFF30080B0F1FF3F8046D6D1E4
:10335000AB895B063FF534AF09981DB0BDE8F08F2F
:1033600003AB00932A46074B04A9384600F082F8C5
:10337000EAE700BF30450008364500083A45000836
:1033800000000000E13000082DE9F04791461F469B
:103390008A680B69DDF820809342B8BF1346C9F8EC
:1033A000003091F8432006460C4612B10133C9F8AB
:1033B00000302368990642BFD9F800300233C9F8BB
:1033C0000030256815F0060507D104F1190AE368F5
:1033D000D9F800209B1AAB4228DC94F843302268CD
:1033E000003318BF012392062DD404F1430239465D
:1033F0003046C047013020D02368E568D9F8002066
:1034000003F00603042B08BFAD1AA36822690CBFA2
:1034100025EAE57500259342C4BF9B1AED184FF0CD
:1034200000091A344D451AD1002008E00123524604
:1034300039463046C047013003D14FF0FF30BDE878
:10344000F0870135C3E7E1185A1C302081F84300AA
:10345000224494F8451082F843100233C5E7012353
:10346000224639463046C0470130E6D009F101090D
:10347000D8E700002DE9F04306460C4601F1430071
:10348000097E85B06E29984617460C9B00F0BA80DD
:1034900024D8632939D00AD8002900F0C3805829DC
:1034A00000F0918004F1420584F8421035E064296F
:1034B00001D06929F6D125681A6815F0800F02F14C
:1034C00004012CD012681960002A03DA2D2352421D
:1034D00084F84330DFF8BCC10A233FE0732900F0D1
:1034E000A58008D86F2921D07029DBD1226842F04D
:1034F0002002226003E0752918D07829D2D17822E1
:1035000084F84520DFF890C161E01A68111D196048
:10351000136884F8423004F14205012393E01268F5
:10352000196015F0400F18BF12B2CDE7D4F800C0F3
:103530001A681CF0800F02F104051D6001D01268AA
:1035400003E01CF0400FFAD01288DFF848C16F2961
:103550000CBF08230A23002184F843106568A56086
:10356000002DA2BF216821F0040121600AB9002DBD
:1035700046D00546B2FBF3F103FB112E93421CF833
:103580000EE005F801ED39D9082B0BD12368DA07D5
:1035900008D5236962689A42DEBF302305F8013CF2
:1035A00005F1FF35401B2061CDF800803B4603AAA2
:1035B00021463046FFF7E8FE013049D14FF0FF3099
:1035C00005B0BDE8F083DFF8CCC084F845101D6875
:1035D000216855F8042B1D600D060BD5CD0744BF9F
:1035E00041F0200121601AB9236823F020032360F1
:1035F0001023B0E74B0648BF92B2EFE70A46B9E79F
:103600000546C1E71A68D4F800C06169151D1D6040
:103610001CF0800F136801D0196003E01CF0400F0C
:10362000FAD01980002323610546BDE71A68111DF1
:1036300019601568626800212846FCF7D9FD08B1B9
:10364000401B606063682361002384F84330ABE76C
:1036500023692A4639463046C0470130AED0236838
:103660009B0713D4E068039B9842B8BF1846A7E7AE
:1036700001234A4639463046C04701309ED00135C5
:10368000E368039A9B1AAB42F2DCEBE7002504F1F6
:103690001909F5E741450008524500080A449142DE
:1036A00000F1FF3300D1704710B511F8014B03F85A
:1036B000014F9142F9D110BD884210B501EB0203D0
:1036C00002D983421C4607D8421E994208D011F8FD
:1036D000014B02F8014FF8E783189A1A9A4200D179
:1036E00010BD14F8011D03F8011DF7E738B50546B4
:1036F000002945D051F8043C0C1F002BB8BFE4183A
:1037000000F0D2F81F4A1368104633B963601460A2
:103710002846BDE8384000F0CDB8A3420CD9216856
:103720006218934204BF1A685B68636004BF521852
:1037300022600460ECE713465A680AB1A242FAD943
:1037400019685818A0420BD12068014458188242C9
:103750001960DDD1106852685A6001441960D7E7DA
:1037600002D90C232B60D3E7206821188A4204BFBA
:1037700011685268626004BF091821605C60C7E785
:1037800038BD00BF98000020F8B5CD1C25F003051A
:1037900008350C2D38BF0C25002D064601DBA9424B
:1037A00003D90C2333600020F8BD00F07DF82149D7
:1037B0000A6814469CB9204F3B6823B9214630461D
:1037C00000F062F838602946304600F05DF8431C8E
:1037D00023D10C233360304600F06CF8E3E7236814
:1037E0005B1B17D40B2B03D923601C44256004E01A
:1037F0006368A2420CBF0B605360304600F05AF879
:1038000004F10B00231D20F00700C21ACCD01B1AB4
:10381000A350C9E722466468CCE7C41C24F0030423
:10382000A042E3D0211A304600F02EF80130DDD15D
:10383000CFE700BF980000209C000020F8B50746A5
:1038400014460E4621B91146BDE8F840FFF79CBF6B
:1038500022B9FFF74BFF25462846F8BD00F030F8A7
:10386000A0420FD221463846FFF78EFF05460028BA
:10387000F2D031462246FFF711FF31463846FFF7B6
:1038800035FFE9E73546E7E738B5064C002305463E
:103890000846236000F01EF8431C02D1236803B1E0
:1038A0002B6038BD68020020014800F011B800BF4D
:1038B00070020020014800F00CB800BF7002002028
:1038C00051F8043C181F002BBCBF0B58C0187047A0
:1038D00070477047044A05491368002B08BF0B4620
:1038E0001844106018467047A0000020780200209D
:1038F000F8B500BFF8BC08BC9E467047F8B500BFDD
:08390000F8BC08BC9E467047AC
:103908005372632F75736172742E63000000000098
:103918000000000001020304060708090000000077
:10392800010203045372632F6D61696E2E630000F8
:1039380052464D363920496E697469616C697A65F9
:10394800642E20467265712025644D487A2E204EDB
:103958006F64652025642E2047726F75702025647A
:103968002E0D0A0052464D3639206E6F7420636F53
:103978006E6E65637465642E0D0A00005061796C83
:103988006F6164205265636569766564210D0A007C
:1039980054696D654F757431210D0A00666972733B
:1039A800745F646174613A2025640D0A00000000A8
:1039B8007365636F6E645F646174613A20256C643B
:1039C8000D0A00004279746525642056616C75659E
:1039D8003A2025640D0A0000496E76616C696420FE
:1039E8007061796C6F61642072656365697665647E
:1039F8002C206E6F74206D61746368696E67206433
:103A080061746120737472756374210D0A0000007B
:103A1800206E6F646549643D256C640D0A000000E2
:103A280020757074696D653D256C640D0A00000091
:103A380041646472657373207C204845580D0A0000
:103A4800253032587C25303258203A2000000000BA
:103A5800436F6E74726F6C7320746865206175743F
:103A68006F6D617469632053657175656E63657206
:103A78002028207365652073656374696F6E203430
:103A88002E3220290D0A53657175656E6365724F74
:103A98006666203A2000000031202D3E204D6F64DC
:103AA8006520697320666F7263656420627920748B
:103AB800686520757365720D0A00000030202D3E80
:103AC800204F7065726174696E67206D6F64652040
:103AD80061732073656C65637465642077697468C5
:103AE800204D6F6465206269747320696E20526589
:103AF800674F704D6F6465206973206175746F6DD1
:103B080061746963616C6C7920726561636865646E
:103B18002077697468207468652053657175656ECF
:103B28006365720D0A0000000D0A456E61626C65DE
:103B380073204C697374656E206D6F64652C2073F7
:103B4800686F756C6420626520656E61626C65647F
:103B5800207768696C737420696E205374616E6491
:103B68006279206D6F64653A0D0A4C697374656EED
:103B78004F6E203A2000000031202D3E204F6E0D60
:103B88000A00000030202D3E204F66662028207352
:103B980065652073656374696F6E20342E33290D53
:103BA8000A0000000D0A41626F727473204C697339
:103BB80074656E206D6F6465207768656E20736527
:103BC8007420746F676574686572207769746820FB
:103BD8004C697374656E4F6E3D3020536565207374
:103BE800656374696F6E20342E332E3420666F72CD
:103BF8002064657461696C732028416C77617973FE
:103C080020726561647320302E290D0A00000000BF
:103C18004552524F52202D204C697374656E416293
:103C28006F72742073686F756C64204E45564552E8
:103C38002072657475726E2031207468697320690A
:103C4800732061207772697465206F6E6C792072B9
:103C5800656769737465720D0A0000000D0A547275
:103C6800616E736365697665722773206F7065721C
:103C78006174696E67206D6F6465733A0D0A4D6FE4
:103C88006465203A20000000303030202D3E20535B
:103C98006C656570206D6F64652028534C454550F0
:103CA800290D0A00303031202D3E205374616E6496
:103CB8006279206D6F646520285354444259290D58
:103CC8000A000000303130202D3E204672657175A3
:103CD800656E63792053796E74686573697A657265
:103CE800206D6F646520284653290D0A00000000E6
:103CF800303131202D3E205472616E736D697474B9
:103D08006572206D6F646520285458290D0A0000DB
:103D1800313030202D3E205265636569766572200A
:103D28004D6F646520285258290D0A0025303258F5
:103D3800202D3E2052455345525645440A00000066
:103D4800446174612050726F63657373696E672094
:103D58006D6F64653A0D0A446174614D6F64652046
:103D68003A2000003030202D3E205061636B65748E
:103D7800206D6F64650D0A003031202D3E2072657C
:103D88007365727665640D0A000000003130202DDD
:103D98003E20436F6E74696E756F7573206D6F6426
:103DA800652077697468206269742073796E636826
:103DB800726F6E697A65720D0A0000003131202D2C
:103DC8003E20436F6E74696E756F7573206D6F64F6
:103DD8006520776974686F757420626974207379D7
:103DE8006E6368726F6E697A65720D0A0000000072
:103DF8000D0A4D6F64756C6174696F6E207363682A
:103E0800656D653A0D0A4D6F64756C6174696F6E06
:103E18002054797065203A20000000003030202DB1
:103E28003E2046534B0D0A003031202D3E204F4F87
:103E38004B0D0A003130202D3E2072657365727675
:103E480065640D0A000000003131202D3E207265A6
:103E58007365727665640D0A000000000D0A4461FE
:103E680074612073686170696E673A200000000011
:103E7800696E2046534B3A0D0A000000696E204FC8
:103E88004F4B3A0D0A0000004D6F64756C61746900
:103E98006F6E53686170696E67203A2000000000F9
:103EA8003030202D3E206E6F2073686170696E6718
:103EB8000D0A00003031202D3E204761757373696B
:103EC800616E2066696C7465722C204254203D2016
:103ED800312E300D0A0000003130202D3E20476180
:103EE80075737369616E2066696C7465722C204203
:103EF80054203D20302E350D0A0000003131202D90
:103F08003E20476175737369616E2066696C7465DC
:103F1800722C204254203D20302E330D0A00000020
:103F28003031202D3E2066696C746572696E672099
:103F3800776974682066286375746F666629203D02
:103F48002042520D0A0000003130202D3E206669C3
:103F58006C746572696E6720776974682066286377
:103F680075746F666629203D20322A42520D0A0078
:103F78004552524F52202D203131206973207265ED
:103F88007365727665640D0A00000000426974204A
:103F980052617465202843686970205261746520F5
:103FA8007768656E204D616E63686573746572200D
:103FB800656E636F64696E6720697320656E616200
:103FC8006C6564290D0A42697452617465203A204F
:103FD80000000000256C6C640000000046726571EA
:103FE80075656E637920646576696174696F6E0DB5
:103FF8000A46646576203A2000000000256C6400BB
:1040080052462043617272696572206672657175E5
:10401800656E63790D0A465246203A20000000007A
:1040280052432063616C6962726174696F6E2063C8
:104038006F6E74726F6C2026207374617475730DC3
:104048000A526343616C446F6E65203A2000000099
:1040580031202D3E2052432063616C696272617485
:10406800696F6E206973206F7665720D0A00000013
:1040780030202D3E2052432063616C696272617466
:10408800696F6E20697320696E2070726F67726540
:1040980073730D0A00000000496D70726F766564D5
:1040A8002041464320726F7574696E6520666F7291
:1040B800207369676E616C732077697468206D6F0F
:1040C80064756C6174696F6E20696E646578206CC4
:1040D8006F776572207468616E20322E20205265D9
:1040E80066657220746F2073656374696F6E203320
:1040F8002E342E313620666F722064657461696CC7
:10410800730D0A4166634C6F77426574614F6E2088
:104118003A20000031202D3E20496D70726F76657F
:10412800642041464320726F7574696E650D0A00FC
:1041380030202D3E205374616E64617264204146C4
:104148004320726F7574696E650D0A005265736558
:10415800727665640D0A00005265736F6C75746938
:104168006F6E206F66204C697374656E206D6F6486
:10417800652049646C652074696D65202863616CED
:1041880069627261746564205243206F7363293ACF
:104198000D0A4C697374656E5265736F6C49646C73
:1041A80065203A20000000003030202D3E20726546
:1041B8007365727665640D0A000000003031202DA9
:1041C8003E2036342075730D0A0000003130202D52
:1041D8003E20342E31206D730D0A00003131202D20
:1041E8003E20323632206D730D0A00000D0A5265EA
:1041F800736F6C7574696F6E206F66204C69737489
:10420800656E206D6F64652052782074696D652035
:104218002863616C69627261746564205243206F1F
:104228007363293A0D0A4C697374656E5265736F2E
:104238006C5278203A2000000D0A43726974657246
:10424800696120666F72207061636B6574206163B9
:1042580063657074616E636520696E204C69737460
:10426800656E206D6F64653A0D0A4C697374656EEE
:104278004372697465726961203A200031202D3ECD
:10428800207369676E616C20737472656E677468F9
:104298002069732061626F76652052737369546870
:1042A800726573686F6C6420616E642053796E6305
:1042B80041646472657373206D6174636865640D2D
:1042C8000A00000030202D3E207369676E616C2063
:1042D800737472656E6774682069732061626F76A3
:1042E8006520527373695468726573686F6C640DE6
:1042F8000A0000000D0A416374696F6E2074616BD7
:10430800656E2061667465722061636365707461AF
:104318006E6365206F662061207061636B65742031
:10432800696E204C697374656E206D6F64653A0D13
:104338000A4C697374656E456E64203A200000006B
:104348003030202D3E206368697020737461797362
:1043580020696E205278206D6F64652E204C697339
:1043680074656E206D6F64652073746F707320615F
:104378006E64206D75737420626520646973616270
:104388006C656420287365652073656374696F6E56
:1043980020342E33290D0A003031202D3E20636849
:1043A800697020737461797320696E205278206D6A
:1043B8006F646520756E74696C205061796C6F61EB
:1043C800645265616479206F722054696D656F75F8
:1043D80074200D0A696E74657272757074206F634B
:1043E800637572732E20204974207468656E206787
:1043F8006F657320746F20746865206D6F64652025
:10440800646566696E6564206279204D6F64652E07
:10441800200D0A4C697374656E206D6F6465207396
:10442800746F707320616E64206D7573742062659B
:104438002064697361626C65642028736565207304
:10444800656374696F6E20342E33290D0A000000ED
:104458003130202D3E206368697020737461797350
:1044680020696E205278206D6F646520756E7469BE
:104478006C205061796C6F61645265616479206F5A
:10448800722054696D656F7574206F6363757273FC
:104498002E20204C697374656E206D6F64652074DE
:1044A80068656E20726573756D657320696E204945
:1044B800646C652073746174652E20204649464FEC
:1044C80020636F6E74656E74206973206C6F7374EB
:1044D800206174206E6578742052782077616B654E
:1044E80075702E0D0A0000003131202D3E205265D6
:1044F8007365727665640D0A000000005372632FBD
:104508007370692E6300000002030405060708099A
:104518000A0B0C0D0E0F1010010203040506070804
:10452800090A0B0C0D0E0F10232D302B2000686C80
:104538004C006566674546470030313233343536BE
:1045480037383941424344454600303132333435F7
:0C45580036373839616263646566000024
:084564005CBDFF7F01000000B7
:04456C00C50100087D
:04457000A10100089D
:1045740000127A00B101D2000101000010000020F5
:104584000000000000000000000000000000000027
:104594000000000000000000000000000000000017
:1045A4000000000000000000000000000000000007
:1045B40000000000000000000000000000000000F7
:1045C40000000000000000000000000000000000E7
:1045D40000000000000000000000000000000000D7
:0400000508003005BA
:00000001FF
