:020000040800F2
:1000000000500020C9140008A5040008A704000837
:10001000A9040008AB040008AD04000800000000BB
:10002000000000000000000000000000AF04000815
:10003000B104000800000000B3040008B504000883
:1000400011150008111500081115000811150008F8
:1000500011150008111500081115000811150008E8
:1000600011150008111500081115000811150008D8
:1000700011150008111500081115000811150008C8
:1000800011150008111500081115000811150008B8
:1000900011150008111500081115000811150008A8
:1000A0001115000811150008111500081115000898
:1000B0001115000811150008111500081115000888
:1000C0001115000811150008111500081115000878
:1000D0001115000811150008111500081115000868
:1000E000BD040008111500081115000800000000EB
:1000F0000000000000000000000000000000000000
:0C01000000000000000000005FF808F1A3
:10010C0010B5054C237833B9044B13B10448AFF345
:10011C0000800123237010BD0C00002000000000A3
:10012C006C15000808B5034B1BB103490348AFF32A
:10013C00008008BD00000000100000206C150008B5
:10014C0030B591B02022002107A801F001FA00245B
:10015C0001940294039404940594022506950123BA
:10016C000A9310230B930D954FF460130F9306A86D
:10017C0000F0FAFC0F230193029503944FF4806373
:10018C0004930594294601A800F016FF11B030BD68
:10019C0010B584B000F09AFCFFF7D2FF00F030F8F5
:1001AC0000F030F900F0C8F80023029305E00A20B3
:1001BC0000F0B0FC029B01330293002203920D4C21
:1001CC004021204601F0D6F84FF0FF330093042372
:1001DC0003AA02A9084800F0F2F9012240212046A6
:1001EC0001F0C8F8029B013B039A9342DFD000BF99
:1001FC00DDE700BF000C0140280000207047000024
:10020C002DE9F04188B000240494059406940794D9
:10021C00424B9A6942F010029A619A6902F01002FC
:10022C000092009A9A6942F020029A619A6902F04F
:10023C0020020192019A9A6942F004029A619A6929
:10024C0002F004020292029A9A6942F008029A6140
:10025C009B6903F008030393039B314F2246202133
:10026C00384601F087F82F4E01224021304601F02C
:10027C0081F84FF4005304932B4B05930694DFF84D
:10028C00B48004A9404600F08BFF4DF6FF73049335
:10029C000325059504A9404600F082FF072304932B
:1002AC00059504A9214800F07BFF49F6D37304930C
:1002BC00059504A9384600F073FF202304934FF0F2
:1002CC000108CDF8148006940223079304A938463C
:1002DC0000F066FF4FF687730493059504A930462A
:1002EC0000F05EFF40230493CDF81480069407952C
:1002FC0004A9304600F054FF0D4A536843F0E06304
:10030C0043F40043536022462146282001F05AF85A
:10031C00282001F08BF808B0BDE8F08100100240F5
:10032C0000080140000C01400000111000140140B5
:10033C00000001400010014008B50E480E4B036050
:10034C004FF48273436000238360C3600361436195
:10035C004FF4007282612822C261802202624362E1
:10036C0083620A23C36200F044FA00B908BDFFF7A8
:10037C0045FFFBE7280000200030014010B586B097
:10038C000023029303930493059302681A4B9A4239
:10039C0001D006B010BD03F560439A6942F4805257
:1003AC009A619A6902F480520092009A9A6942F01A
:1003BC0008029A619B6903F008030193019B2823AF
:1003CC00029302230393032305930C4C02A92046AA
:1003DC0000F0E6FE10230293002303930123049301
:1003EC0002A9204600F0DCFE054A536843F0E063A6
:1003FC0043F001035360CCE700300140000C014096
:10040C000000014008B50A480A4B03604FF4E13381
:10041C00436000238360C36003610C2242618361EB
:10042C00C36100F0FDFA00B908BDFFF7E7FEFBE77A
:10043C00800000200044004000B587B000230293E8
:10044C000393049305930268114B9A4202D007B0B0
:10045C005DF804FB03F5E633DA6942F40032DA6145
:10046C00DA6902F400320092009A9A6942F00402AE
:10047C009A619B6903F004030193019B0C23029383
:10048C0002230393059302A9024800F089FEDEE7DC
:10049C0000440040000801407047FEE7FEE7FEE71D
:1004AC00FEE770477047704708B500F021FB08BDA8
:1004BC0008B54FF4005000F065FF08BD82B00E4B3C
:1004CC009A6942F001029A619A6902F00102009263
:1004DC00009ADA6942F08052DA61DB6903F08053EA
:1004EC000193019B054A536823F0E06343F00073CA
:1004FC00536002B0704700BF001002400000014082
:10050C00F8B505460F4616461C463BE02CB100F0EC
:10051C00FBFA069BC01AA04234D32A68536823F016
:10052C00E00353606B68B3F5827F0BD0AB6AB3F515
:10053C00005F14D0012385F85130002385F850302A
:10054C00032027E0AB68B3F5004F02D0B3F5806F02
:10055C00ECD12A68136823F040031360E6E72A689D
:10056C00136823F400531B041B0C13602A681368D4
:10057C0043F400531360DDE70123B34209D0B4F117
:10058C00FF3FC3D12B689B6837EA0303F4D00023E9
:10059C00F3E70020F8BD10B582B0044600920B467C
:1005AC0000228021FFF7ACFF034610B9184602B0B9
:1005BC0010BD636D43F0200363650323F6E72DE95B
:1005CC00F04385B098460C9D90F85030012B00F00C
:1005DC000E8104460F461646012380F8503000F079
:1005EC0093FA814694F85130DBB26268012B0AD041
:1005FC00B2F5827F40F0E680A268002A40F0ED80E0
:10060C00042B40F0EC80002F00F0EB80002E00F06B
:10061C00EA80B8F1000F00F0E88094F85130DBB2BA
:10062C00012B2BD000236365A663A4F83E80A4F8AD
:10063C003C802763A4F83680A4F834802364636478
:10064C0023681A6812F0400F03D11A6842F0400276
:10065C001A60E368B3F5006F14D063681BB1E38EC6
:10066C009BB2012B07D1236817F8012B1A73E38E69
:10067C00013B9BB2E3864FF001085FE0052384F851
:10068C005130CFE763681BB1E38E9BB2012B07D1CE
:10069C00236837F8022BDA60E38E013B9BB2E386CA
:1006AC004FF0010812E0E38F9BB263B122689368AC
:1006BC0013F0010307D0D26826F8022BE28F013A1F
:1006CC0092B2E2879846B5F1FF3F1CD1E38E9BB204
:1006DC001BB9E38F9BB2002B54D0B8F1000FE2D0C2
:1006EC00E38E9BB2002BDED023689A6812F0020FC7
:1006FC00D9D037F8022BDA60E38E013B9BB2E3864C
:10070C004FF00008CFE700F0FFF9A0EB0900A8427A
:10071C00DCD3032357E0E38F9BB263B12268936869
:10072C0013F0010307D0D26806F8012BE28F013ACF
:10073C0092B2E2879846B5F1FF3F1BD1E38E9BB294
:10074C0013B9E38F9BB2EBB1B8F1000FE3D0E38E9A
:10075C009BB2002BDFD023689A6812F0020FDAD01C
:10076C0017F8012B1A73E38E013B9BB2E3864FF013
:10077C000008D0E700F0C8F9A0EB0900A842DDD3CF
:10078C00032320E0CDF800902B46012202212046C5
:10079C00FFF7B6FE08B1032315E04A46294620466A
:1007AC00FFF7F9FE034648B9A26862B903922268C2
:1007BC00D168039192680392039A04E02023636545
:1007CC00012300E00223012284F85120002284F846
:1007DC005020184605B0BDE8F0830223F3E702234E
:1007EC00F1E70123EFE70123EDE70123EBE7022318
:1007FC00EFE700283CD010B504460023836290F844
:10080C005130002B31D0022384F851302268136808
:10081C0023F0400313606368A2681343E268134338
:10082C002269134362691343A26902F400721343F1
:10083C00E2691343226A1343A16A22680B431360D3
:10084C00638B03F00403616A22680B4353602368D3
:10085C00E26A1A612268D36923F40063D361002031
:10086C006065012384F8513010BDFFF787FDCAE79E
:10087C00012070472DE9F84305460268136923F4FB
:10088C004053C1680B431361836802691343426987
:10089C0013430168CA6822F4B05222F00C021343CD
:1008AC00CB600268536923F4407381690B43536135
:1008BC000268594B9A4257D000F052FC00EB800072
:1008CC0000EB80006C68A400B0FBF4F4534FA7FB62
:1008DC0004346409260100F043FC00EB800000EBBB
:1008EC0080006C68A400B0FBF4F900F039FC00EB5C
:1008FC00800000EB80006C68A400B0FBF4F4A7FB54
:10090C00043464094FF0640808FB14942401323455
:10091C00A7FB0434640904F0F004344400F020FC18
:10092C0000EB800000EB80006E68B600B0FBF6F6C2
:10093C0000F016FC00EB800000EB80006B689B0065
:10094C00B0FBF3F0A7FB0030400908FB10684FEA3E
:10095C00081808F13208A7FB0837C7F343172B68B0
:10096C0027449F60BDE8F88300F00AFC00EB800090
:10097C0000EB80006C68A400B0FBF4F4274FA7FBDD
:10098C0004346409260100F0FBFB00EB800000EB53
:10099C0080006C68A400B0FBF4F900F0F1FB00EBF4
:1009AC00800000EB80006C68A400B0FBF4F4A7FBA3
:1009BC00043464094FF0640808FB149424013234A5
:1009CC00A7FB0434640904F0F004344400F0D8FBB1
:1009DC0000EB800000EB80006E68B600B0FBF6F612
:1009EC0000F0CEFB00EB800000EB80006B689B00FE
:1009FC00B0FBF3F0A7FB0030400908FB10684FEA8E
:100A0C00081808F13208A7FB0837C7F343172B68FF
:100A1C0027449F60A6E700BF003801401F85EB51BB
:100A2C0058B310B5044690F839300BB3242384F82E
:100A3C0039302268D36823F40053D3602046FFF783
:100A4C0019FF2268136923F49043136122685369D8
:100A5C0023F02A0353612268D36843F40053D36014
:100A6C000020E063202384F8393084F83A3010BD3C
:100A7C0080F83830FFF7E0FCD8E701207047000021
:100A8C0010B504460E4B18784FF47A73B3FBF0F3A1
:100A9C000C4A1068B0FBF3F000F0D4FC68B90F2CD2
:100AAC0001D901200AE0002221464FF0FF3000F06E
:100ABC0089FC054B1C60002000E0012010BD00BF2C
:100ACC0000000020080000200400002008B5074AA0
:100ADC00136843F010031360032000F061FC002046
:100AEC00FFF7CEFFFFF7EAFC002008BD0020024014
:100AFC00034A1168034B1B780B441360704700BF0B
:100B0C00C000002000000020014B1868704700BF97
:100B1C00C000002038B50446FFF7F6FF0546B4F1D7
:100B2C00FF3F02D0044B1B781C44FFF7EDFF401B2A
:100B3C00A042FAD338BD00BF0000002082B0084BA1
:100B4C001B68084AA2FB03235B0A00FB03F001901D
:100B5C0000BF019B5A1E0192002BF9D102B07047C5
:100B6C0008000020D34D621070B582B004460368B3
:100B7C0013F0010F2CD0AB4B5B6803F00C03042B70
:100B8C001DD0A84B5B6803F00C03082B12D06368D4
:100B9C00B3F5803F41D0002B55D103F1804303F5D1
:100BAC0004331A6822F480321A601A6822F4802204
:100BBC001A6037E09B4B5B6813F4803FE7D0994B8E
:100BCC001B6813F4003F03D06368002B00F0AE8168
:100BDC00236813F0020F75D0924B5B6813F00C0F67
:100BEC005FD0904B5B6803F00C03082B54D0236947
:100BFC00002B00F089808C4B01221A60FFF784FFD8
:100C0C000546884B1B6813F0020F74D1FFF77CFF6D
:100C1C00401B0228F5D903208DE1824A136843F466
:100C2C0080331360636843B3FFF76EFF05467D4B5B
:100C3C001B6813F4003FCBD1FFF766FF401B642801
:100C4C00F5D9032077E1B3F5A02F09D0754B1A68BD
:100C5C0022F480321A601A6822F480221A60E1E7CA
:100C6C0003F18043A3F53C331A6842F480221A60E6
:100C7C001A6842F480321A60D4E7FFF745FF054644
:100C8C00684B1B6813F4003FA2D0FFF73DFF401BDD
:100C9C006428F5D903204EE1624B5B6813F4803F66
:100CAC00A5D1604B1B6813F0020F03D02369012BF5
:100CBC0040F03E815B4A136823F0F803616943EA14
:100CCC00C1031360236813F0080F32D0A369002B03
:100CDC005BD0564B01221A60FFF716FF0546514BAD
:100CEC005B6A13F0020F21D1FFF70EFF401B0228A5
:100CFC00F5D903201FE14B4A136823F0F80361690F
:100D0C0043EAC1031360DDE7474B00221A60FFF78B
:100D1C00FBFE0546434B1B6813F0020FD2D0FFF7C6
:100D2C00F3FE401B0228F5D9032004E10120FFF754
:100D3C0005FF236813F0040F00F09880394BDB6932
:100D4C0013F0805F33D1374BDA6942F08052DA61AD
:100D5C00DB6903F080530193019B0125344B1B6825
:100D6C0013F4807F25D0E368012B36D0002B4CD1B7
:100D7C0003F1804303F504331A6A22F001021A626C
:100D8C001A6A22F004021A622CE0284B00221A6024
:100D9C00FFF7BAFE0546234B5B6A13F0020FC8D06F
:100DAC00FFF7B2FE401B0228F5D90320C3E0002553
:100DBC00D4E71F4A136843F480731360FFF7A4FE53
:100DCC0006461B4B1B6813F4807FCCD1FFF79CFEAF
:100DDC00801B6428F5D90320ADE0124A136A43F056
:100DEC0001031362E3687BB3FFF78EFE06460D4BDF
:100DFC001B6A13F0020F38D1FFF786FE801B41F2FD
:100E0C0088339842F3D9032095E0052B12D0054B7B
:100E1C001A6A22F001021A621A6A22F004021A6299
:100E2C00E0E700BF00100240000042428004424252
:100E3C0000700040424B1A6A42F004021A621A6AAD
:100E4C0042F001021A62CDE7FFF75EFE06463C4B0C
:100E5C001B6A13F0020F08D0FFF756FE801B41F2FD
:100E6C0088339842F3D9032065E0E5B9E369002B98
:100E7C0060D0334A526802F00C02082A5DD0022B73
:100E8C0017D0304B00221A60FFF73EFE04462C4B65
:100E9C001B6813F0007F47D0FFF736FE001B0228BB
:100EAC00F5D9032047E0264AD36923F08053D36158
:100EBC00DCE7244B00221A60FFF726FE0546204B88
:100ECC001B6813F0007F06D0FFF71EFE401B0228A4
:100EDC00F5D903202FE0236AB3F5803F1AD01849C7
:100EEC004B6823F47413226A606A024313434B6009
:100EFC00144B01221A60FFF707FE0446104B1B68C7
:100F0C0013F0007F0ED1FFF7FFFD001B0228F5D96F
:100F1C00032010E00A4A536823F40033A1680B4302
:100F2C005360DCE7002006E0002004E0012002E032
:100F3C00012000E0002002B070BD0120FBE700BFE3
:100F4C00001002406000424210B487B0164C94E886
:100F5C000F000DF1180C0CE90F00238AADF80430CA
:100F6C00124B5B6803F00C02082A03D0104807B040
:100F7C0010BC7047C3F38342624412F8102C13F474
:100F8C00803F0CD0094B5B68C3F34043634413F8B8
:100F9C00143C074800FB02F0B0FBF3F0E7E7054810
:100FAC0000FB02F0E3E700BF8415000800100240CC
:100FBC0000127A0000093D00624B1B6803F0070326
:100FCC008B420BD25F4A136823F007030B43136069
:100FDC00136803F007038B4240F0AE8070B50368D2
:100FEC0013F0020F17D013F0040F04D0564A5368B5
:100FFC0043F4E0635360036813F0080F04D0524AC3
:10100C00536843F4605353604F4A536823F0F00322
:10101C008468234353600D460446036813F0010FA4
:10102C0052D04368012B23D0022B28D0464A126899
:10103C0012F0020F00F0828043494A6822F003024A
:10104C0013434B60FFF760FD06466368012B1DD010
:10105C00022B2AD03C4B5B6813F00C0F34D0FFF7FB
:10106C0053FD801B41F288339842F3D9032062E090
:10107C00354A126812F4003FDED101205BE0324A9F
:10108C00126812F0007FD7D1012054E02E4B5B6820
:10109C0003F00C03042B17D0FFF736FD801B41F235
:1010AC0088339842F2D9032045E0274B5B6803F064
:1010BC000C03082B08D0FFF727FD801B41F2883367
:1010CC009842F2D9032036E01E4B1B6803F007034D
:1010DC00AB420AD91B4A136823F007032B43136056
:1010EC00136803F00703AB422AD1236813F0040FF3
:1010FC0006D0154A536823F4E063E1680B43536050
:10110C00236813F0080F07D00F4A536823F4605379
:10111C00216943EAC1035360FFF716FF0A4B5B6872
:10112C00C3F30313094AD35CD840094B1860002061
:10113C00FFF7A6FC002070BD012070470120FAE7E4
:10114C000120F8E70020024000100240981500082A
:10115C0008000020014B1868704700BF08000020F1
:10116C0008B5FFF7F7FF044B5B68C3F30223034A90
:10117C00D35CD84008BD00BF00100240A815000881
:10118C0008B5FFF7E7FF044B5B68C3F3C223034AC0
:10119C00D35CD84008BD00BF00100240A815000861
:1011AC00F0B482B000263546A0E0002B58D0012BBD
:1011BC0010D1CE680EE0694FBB4251D048D9684F70
:1011CC00BB424DD007F58037BB4249D0A7F58017FD
:1011DC00BB4245D0FF2A57D88446FF2A57D8AC00CB
:1011EC00DCF800300F27A74023EA070306FA04F4C3
:1011FC002343CCF800304B6813F0805F75D0594B0B
:10120C009C6944F001049C619B6903F00103019308
:10121C00019BAC08A71C544B53F8273005F003076F
:10122C00BF004FF00F0C0CFA07FC23EA0C0C4F4BD1
:10123C00984232D003F58063984270D003F58063F6
:10124C0098426ED003F58063984224D0042325E0A5
:10125C00A7F58017BB4203D007F58037BB42B9D145
:10126C008B687BB1012B08D044610826B2E7CE68AD
:10127C000836AFE7CE680C36ACE704610826A9E760
:10128C000026A7E70426A5E700F1040CA5E7A5F1C5
:10129C000804A400A4E7032300E00023BB4043EAB6
:1012AC000C030234304F47F824304B6813F4803F62
:1012BC0039D02F4C2368134323604B6813F4003F41
:1012CC0037D02B4C6368134363604B6813F4801F57
:1012DC0035D0274CA3681343A3604B6813F4001F4D
:1012EC0033D0234CE3681A43E26001350F2D32D81A
:1012FC000124AC400A6822409442F6D14B68122B70
:10130C00B8D03FF658AF022BB1D07FF64EAF032BBF
:10131C00B6D0112B7FF45EAFCE6804365AE70123AA
:10132C00BCE70223BAE7124C236823EA02032360CA
:10133C00C3E70F4C636823EA02036360C5E70C4CF8
:10134C00A36823EA0203A360C7E7094CE36823EA16
:10135C000202E260C9E702B0F0BC70470000211045
:10136C000000311000100240000001400008014054
:10137C00000401400AB10161704709040161704722
:10138C007047000008B5054B5B69034200D108BDEE
:10139C00024B5861FFF7F4FFF9E700BF000401406E
:1013AC00074AD36823F4E0631B041B0C000200F40F
:1013BC00E060184340F0BF6040F40030D0607047EC
:1013CC0000ED00E030B4174BDB68C3F30223C3F12C
:1013DC000704042C28BF04241D1D062D01D9033B32
:1013EC0000E000234FF0FF3505FA04F421EA040174
:1013FC00994005FA03F322EA03031943002809DB99
:10140C000901C9B200F1604000F5614080F8001399
:10141C0030BC704700F00F000901C9B2024B1954DF
:10142C00F6E700BF00ED00E014ED00E000F01F0255
:10143C00400901239340024A42F82030704700BF14
:10144C0000E100E00138B0F1807F0AD2064B586011
:10145C00064AF02182F823100020986007221A60B7
:10146C0070470120704700BF10E000E000ED00E085
:10147C000F4B1A6842F001021A6059680D4A0A4073
:10148C005A601A6822F0847222F480321A601A6848
:10149C0022F480221A605A6822F4FE025A604FF439
:1014AC001F029A60044B4FF000629A60704700BFB5
:1014BC00001002400000FFF800ED00E0002103E006
:1014CC000B4B5B58435004310A480B4B42189A4261
:1014DC00F6D30A4A02E0002342F8043B084B9A4236
:1014EC00F9D3FFF7C5FF00F00FF8FEF751FE704778
:1014FC00B8150008000000200C0000200C00002093
:10150C00C4000020FEE7000070B500260C4D0D4C09
:10151C00641BA410A64209D100F022F800260A4D43
:10152C000A4C641BA410A64205D170BD55F8043BAF
:10153C0098470136EEE755F8043B98470136F2E739
:10154C00B0150008B0150008B0150008B415000857
:10155C0003460244934200D1704703F8011BF9E79C
:10156C00F8B500BFF8BC08BC9E467047F8B500BF84
:08157C00F8BC08BC9E46704754
:1015840002030405060708090A0B0C0D0E0F1010C0
:10159400010200000000000000000000010203043A
:0C15A40006070809000000000102030413
:0415B00031010008FD
:0415B4000D0100081D
:0C15B800010000001000000000A24A0426
:04000005080014C912
:00000001FF
