:020000040800F2
:1000000000000120912800080105000805050008EE
:10001000090500080D050008110500080000000092
:1000200000000000000000000000000015050008AE
:1000300019050008000000001D0500082105000842
:10004000E1280008E1280008E1280008E12800086C
:10005000E1280008E1280008E1280008E12800085C
:10006000E1280008E1280008E1280008E12800084C
:10007000E1280008E1280008E1280008E12800083C
:10008000E1280008E128000831050008E1280008FF
:10009000E1280008E1280008E1280008E12800081C
:1000A000E1280008E1280008E1280008E12800080C
:1000B000E1280008E1280008E1280008E1280008FC
:1000C000E1280008E1280008E1280008E1280008EC
:1000D000E1280008E1280008E1280008E1280008DC
:1000E000E1280008E1280008E1280008E1280008CC
:1000F000E1280008E1280008E1280008E1280008BC
:10010000E12800080000000000000000E1280008CD
:10011000E1280008E1280008E1280008E12800089B
:10012000E1280008E1280008E1280008E12800088B
:10013000E1280008E128000800000000000000009D
:10014000E1280008E1280008E1280008000000007C
:10015000000000000000000000000000000000009F
:10016000E1280008E1280008E1280008E12800084B
:10017000E1280008E1280008E1280008E12800083B
:10018000E1280008E128000800000000000000004D
:04019000E12800085A
:1001A00010B5054C237833B9044B13B10448AFF3B1
:1001B00000800123237010BD7000002000000000AB
:1001C0007C31000808B5034B1BB103490348AFF36A
:1001D000008008BD00000000740000207C31000891
:1001E000034613F8012B002AFBD1181A0138704777
:1001F00001F0FF01102A2BDB10F0070F08D010F8D8
:10020000013B013A8B422DD010F0070F42B3F6D1DB
:10021000F0B441EA012141EA014122F007047FF0F4
:1002200000070023F0E80256083C85EA010586EA4B
:10023000010685FA47F5A3FA87F586FA47F6A5FA87
:1002400087F68EB9EED1F0BC01F0FF0102F0070293
:1002500032B110F8013B013A83EA010313B1F8D13E
:100260000020704701387047002D06BF354603381F
:10027000073815F0010F07D1013015F4807F02BF58
:10028000013015F4C03F0130F0BC0138704700BFA9
:1002900030B5A7B002250124102102224FF40043FB
:1002A000069509940025002406A80A91CDE90C239F
:1002B000CDE90E4500F05AFA00B1FEE70346CDE95C
:1002C000024501460F24684600250493CDE9004508
:1002D00000F01AFD034600B1FEE782214FF4807260
:1002E00010A8139310911A9200F072FE044600B108
:1002F000FEE700F037FE084BA3FB0030800900F05A
:1003000009FA042000F020FA224621464FF0FF307F
:1003100000F0BEF927B030BDD34D621008B500F033
:100320006FF9FFF7B5FF00F015F800F091F801F054
:1003300031FB064C204601F0A1FD20214FF09040FA
:1003400001F0AEF8C82000F07FF9F3E710010020BB
:10035000FEE700BF394BD0B55A6942F400225A611A
:100360005A698CB002F400220192019A5A6942F44F
:1003700080025A615A6902F480020292029A5A6912
:1003800042F400325A615A6902F400320392039A2D
:100390005A6942F480225A615A6902F48022049216
:1003A000049A5A6942F480125A615B6903F480131B
:1003B0000593002220214FF090400024059B4FF62A
:1003C000FF7601F067F8032706A91D480894CDE9D8
:1003D000066700F051FF06A9032203231948089479
:1003E000CDE9062300F048FF06A94FF6D07203239B
:1003F0004FF09040CDE90623089400F03DFF202205
:100400000123CDE9062306A9002200234FF09040E6
:10041000CDE9082300F030FF06A90B480894CDE988
:10042000066700F029FF0422032306A90748089461
:10043000CDE9062300F020FF0CB0D0BD0010024033
:10044000000800480014004800040048000C004860
:100450000D4B0E4A10B50C211A604FF4E134002206
:1004600018465C605961C3E902221A61C3E9062299
:10047000C3E9082201F058FA00B910BD442104482C
:10048000BDE81040FFF764BF9C000020004400401E
:10049000943100080268114B9A4200D0704703F56E
:1004A000E63370B5DA6942F40032DA61DB6986B0AE
:1004B00003F400330C20009303220723019002254C
:1004C000002401A94FF09040009ECDE90254CDE9EF
:1004D000042300F0D1FE06B070BD00BF0044004010
:1004E00010B50446FFF77CFE214682B24FF47A73C2
:1004F0000248BDE8104000F0D7BF00BF9C000020BC
:10050000704700BFFEE700BFFEE700BFFEE700BF89
:10051000FEE700BF704700BF704700BF704700BFD5
:1005200008B500F07FF8BDE8084000F01BB900BF37
:10053000014801F065BD00BF100100201D4B00B552
:100540009A6942F001029A619B6983B003F001034A
:1005500001930320019B00F089F8002211466FF0FF
:100560000B0000F095F8002211466FF00A0000F031
:100570008FF8002211466FF0090000F089F8002280
:1005800011466FF0040000F083F8002211466FF06E
:10059000030000F07DF8002211466FF0010000F02A
:1005A00077F8002211464FF0FF3003B05DF804EBFE
:1005B00000F06EB80010024038B50E4A0E4B1278AB
:1005C0001B6805464FF47A70B0FBF2F0B3FBF0F015
:1005D00000F0A0F808B90F2D01D9012038BD04465C
:1005E000024629464FF0FF3000F052F8034B2046F8
:1005F0001D6038BD0000002008000020040000201D
:10060000074A08B5136843F010031360032000F095
:100610002DF80020FFF7D0FFFFF790FF002008BD66
:1006200000200240034A044B11681B780B441360FE
:10063000704700BF0C01002000000020014B18682B
:10064000704700BF0C01002038B50446FFF7F6FFE5
:10065000631C054602D0044B1B781C44FFF7EEFFD9
:10066000401BA042FAD338BD00000020074AD368DF
:1006700000024FF6FF0100F4E0600B40184340F029
:10068000BF6040F40030D060704700BF00ED00E074
:10069000184B30B4DC68C4F30224C4F10705042D00
:1006A00004F1040328BF0425062B18D9033C4FF09E
:1006B000FF33A34022EA03024FF0FF33AB4021EAAD
:1006C0000303A34013431B010028DBB20ADB00F144
:1006D000604000F5614080F8003330BC7047002274
:1006E0001446E9E7044A00F00F000244137630BCD8
:1006F000704700BF00ED00E0FCEC00E000F01F01DF
:1007000001234009024A8B4042F82030704700BF65
:1007100000E100E00138B0F1807F0ED2084B10B448
:10072000084C5860F02084F823000022072110466E
:100730009A6019605DF8044B70470120704700BF54
:1007400010E000E000ED00E0044A136804280CBF4C
:1007500043F0040323F004031360704710E000E04B
:10076000704700BF08B5FFF7FBFF08BD2DE9F04358
:100770000368DF0783B004463DD5C1494A6802F0EB
:100780000C02042A00F013814A6802F00C02082AC5
:1007900000F006816368B3F5803F00F08881002B8C
:1007A00000F09F81B3F5A02F00F09F82B44B1A6830
:1007B00022F480321A601A6822F480221A60FFF74D
:1007C0003DFF4FF400380746AD4E012505E0FFF729
:1007D00035FFC01B642800F2808198FAA8F33268C4
:1007E00098FAA8F3B3FA83F303F01F0305FA03F3AF
:1007F0001342ECD023689E0742D5A14A516811F0FC
:100800000C0F00F0F280516801F00C01082900F093
:10081000E580E268002A00F0B481012292FAA2F396
:10082000B3FA83F303F1845303F584139B00164654
:100830001A60FFF703FF4FF002080746904D05E0EE
:10084000FFF7FCFEC01B022800F2478198FAA8F3CC
:100850002A6898FAA8F3B3FA83F303F01F0306FAA1
:1008600003F31342ECD02968F82292FAA2F223692A
:10087000B2FA82F221F0F80193400B432B60236817
:100880001D072CD56269002A00F0C680012292FA69
:10089000A2F17C4B7A4EB1FA81F10B449B001546D4
:1008A0001A60FFF7CBFE4FF00208074605E0FFF79E
:1008B000C5FEC01B022800F2108198FAA8F398FA2E
:1008C000A8F398FAA8F3726A98FAA8F3B3FA83F334
:1008D00003F01F0305FA03F31342E8D02368580717
:1008E00027D5674BDA69D10040F1BD804FF0000891
:1008F000654D2B68DA0540F1E080A368012B00F01C
:100900006681002B00F01081052B5D4B1A6A00F008
:10091000898122F001021A621A6A22F004021A6224
:100920005AE1B8F1000F04D0554AD36923F080533F
:10093000D361A36983B3524D6A6802F00C02082A9E
:1009400066D0022B4FF0807300F0748193FAA3F30A
:10095000B3FA83F303F1845303F584139B0000225D
:100960001A60FFF76BFE2C4607464FF00075012614
:1009700005E0FFF763FEC01B022800F2AE8095FA87
:10098000A5F3226895FAA5F3B3FA83F303F01F03E6
:1009900006FA03F31342ECD1002003B0BDE8F08364
:1009A0004A6802F4C032B2F5803F7FF4F3AE4FF4F0
:1009B000003292FAA2F13249086892FAA2F2B2FA2F
:1009C00082F202F01F02012101FA02F202423FF418
:1009D00012AF6268002A7FF40EAF19E0526802F489
:1009E000C032B2F5004F7FF414AF022292FAA2F1A6
:1009F0002349086892FAA2F2B2FA82F202F01F02C8
:100A0000012101FA02F2024240D0E2688A423DD05E
:100A1000012003B0BDE8F083012595FAA5F1194B3B
:100A2000174EB1FA81F10B449B004FF002081A6097
:100A3000FFF704FE074604E0FFF700FEC01B022894
:100A40004BD898FAA8F398FAA8F398FAA8F3726A20
:100A500098FAA8F3B3FA83F303F01F0305FA03F33C
:100A60001342E9D13AE7DA6942F08052DA61DB6990
:100A700003F080530193019B4FF0010838E700BF5A
:100A80000010024020819010007000409D4DF82120
:100A9000286891FAA1F12269B1FA81F120F0F800F9
:100AA0008A4002432A601D077FF519AFEAE6954A9E
:100AB000136843F48033136081E62B6843F480733A
:100AC0002B60FFF7BBFD06462B68DB053FF515AF36
:100AD000FFF7B4FD801B6428F6D9032003B0BDE8FE
:100AE000F083884D2B6823F480332B602B6823F42C
:100AF00080232B60FFF7A2FD4FF400380746012644
:100B000004E0FFF79BFDC01B6428E6D898FAA8F321
:100B10002A6898FAA8F3B3FA83F303F01F0306FADE
:100B200003F31342EDD165E6764D2B6A23F0010302
:100B30002B622B6A23F004032B62FFF77FFD4FF03B
:100B400002090746012614E099FAA9F36A6A99FA9C
:100B5000A9F3B3FA83F303F01F0306FA03F3134276
:100B60003FF4DFAEFFF76AFD41F28833C01B9842C5
:100B7000B3D899FAA9F399FAA9F3002BE4D02A6A19
:100B8000E5E7012595FAA5F3B3FA83F303F184535E
:100B900003F584139B004FF002081A60FFF74EFD27
:100BA000584E074604E0FFF749FDC01B022894D8C1
:100BB00098FAA8F3326898FAA8F3B3FA83F303F02B
:100BC0001F0305FA03F31342EDD1236858E64D4A9B
:100BD000136A43F001031362FFF730FD4FF002097F
:100BE0000746484E012515E099FAA9F3726A99FA69
:100BF000A9F3B3FA83F303F01F0305FA03F31342D7
:100C00007FF48FAEFFF71AFD41F28833C01B984284
:100C10003FF663AF99FAA9F399FAA9F3002BE3D051
:100C2000326AE4E742F004021A621A6A42F00102F0
:100C30001A62D1E793FAA3F3B3FA83F303F184536F
:100C400003F584139B0000221A60FFF7F7FC4FF0B6
:100C500000780746012605E0FFF7F0FCC01B0228DC
:100C60003FF63BAF98FAA8F32A6898FAA8F3B3FACC
:100C700083F303F01F0306FA03F31342ECD1EB6A8C
:100C8000626A23F00F031343EB62D4E907136A6827
:100C90000B4322F4761213436B604FF0807393FA88
:100CA000A3F3B3FA83F303F1845303F584139B0096
:100CB0004FF000741E60FFF7C1FC124E074601257D
:100CC00005E0FFF7BBFCC01B02283FF606AF94FA15
:100CD000A4F3326894FAA4F3B3FA83F303F01F0386
:100CE00005FA03F31342ECD056E603F18043A3F573
:100CF0003C331A6842F480221A601A6842F4803247
:100D00001A605CE500100240784A136803F007039C
:100D10008B420BD2136823F007030B431360136855
:100D200003F007038B4201D00120704703682DE9CF
:100D3000F0419C0706D56E4C8568626822F0F0028F
:100D40002A4362600C46D907054631D5416801291E
:100D500000F0B780022900F0A180022292FAA2F3EB
:100D6000634B186892FAA2F2B2FA82F202F01F0202
:100D7000012303FA02F202422AD05D4E736823F087
:100D800003030B437360FFF759FC6B68012B0746A5
:100D900041F2883871D0022B06D179E0FFF74EFC82
:100DA000C01B404500F29F80736813F00C0FF5D113
:100DB0004E4A136803F00703A3420CD9136823F0CB
:100DC000070323431360136803F00703A34202D011
:100DD0000120BDE8F0812B685A0706D54449E86830
:100DE0004A6822F4E06202434A601B0707D5404A82
:100DF0002969536823F4605343EAC10353603C4AB2
:100E0000536803F00C01082916D03A49384BF022F8
:100E10005B6892FAA2F2B2FA82F203F0F003D340D6
:100E20003548364AC35C002021FA03F31360FFF70C
:100E3000C3FB0020BDE8F0814FF4701191FAA1F1DD
:100E40000F20B1FA81F1D26A90FAA0F003F4701386
:100E5000CB402B492B4CCB5C2649B0FA80F002F0FA
:100E60000F02C240A25CB1FBF2F103FB01F1CDE73E
:100E7000FFF7E4FBC01B404535D8736803F00C0353
:100E8000042BF5D194E7FFF7D9FBC01B40452AD8C6
:100E9000736803F00C03082BF5D189E74FF000735A
:100EA00093FAA3F2124A106893FAA3F3B3FA83F306
:100EB00003F01F03012202FA03F303427FF45DAF44
:100EC00086E74FF4003292FAA2F3094B1B6892FABC
:100ED000A2F2B2FA82F202F01F0201FA02F21A4200
:100EE0007FF44BAF74E70320BDE8F081002002409F
:100EF0000010024000127A00F831000808000020BB
:100F0000A0310008B0310008124A536803F00C0108
:100F1000082901D01048704730B44FF4701090FA8F
:100F2000A0F00F21B0FA80F0D26A91FAA1F103F497
:100F30007013C34009480A4DC05C074CB1FA81F1F7
:100F400002F00F03CB40EB5CB4FBF3F330BC00FBCF
:100F500003F070470010024000127A00A031000830
:100F6000B0310008014B1868704700BF080000202E
:100F7000084B4FF4E0625B6892FAA2F2B2FA82F296
:100F800003F4E063D3400449044ACB5C1068D840C2
:100F9000704700BF0010024008320008080000201F
:100FA000084B4FF460525B6892FAA2F2B2FA82F2F6
:100FB00003F46053D3400449044ACB5C1068D84022
:100FC000704700BF001002400832000808000020EF
:100FD0002DE9F04304460068C60383B03CD5A34B1B
:100FE000DA69D50040F1F180A14D2B68D8054FF0AA
:100FF000000640F1FA809D4D61682A6A12F4407241
:1010000020D001F4407393421CD0296A4FF48033FE
:1010100021F4407093FAA3F2964FB2FA82F23A4466
:1010200092004FF0010CC2F800C093FAA3F3B3FA98
:1010300083F33B449B0000221A60CA07286200F138
:10104000F0806168894A136A23F440730B4313628A
:101050002068002E40F0DD80C30706D5834AA168D2
:10106000136B23F003030B431363870706D57F4AF3
:10107000E168136B23F440330B431363460706D533
:101080007A4A2169136B23F440230B4313638506CB
:1010900006D5764AE169136B23F010030B43136303
:1010A000810306D5714A616D536823F480030B43B5
:1010B0005360420606D56D4A216A136B23F0200364
:1010C0000B431363430306D5684A616A136B23F02D
:1010D00040030B431363070706D5644A6169136B2A
:1010E00023F440130B431363C60606D55F4AA16978
:1010F000136B23F440030B431363850506D55B4A4A
:10110000216B536823F400030B435360010606D59B
:10111000564AA16AD36A23F4F8730B43D362C2051B
:1011200006D5524AE16AD36A23F478530B43D3625B
:10113000C30406D54D4A616B136B23F480730B43D4
:101140001363870406D5494A216C136B23F400739B
:101150000B431363C60206D5444AA16B136B23F0FD
:1011600080730B431363850206D5404AE16B136B12
:1011700023F000730B431363410206D53B4A616CB5
:10118000136B23F480630B431363020206D5374AC3
:10119000A16C136B23F400630B431363C30106D5E7
:1011A000324AE16C136B23F400530B43136310F0CA
:1011B000007007D02D4A216D136B23F400430B43BD
:1011C0001363002003B0BDE8F083DA69284D42F0D4
:1011D0008052DA61DB6903F080530193019B2B6835
:1011E000D8054FF001063FF506AF2B6843F4807336
:1011F0002B60FFF723FA07462B68D9053FF5FBAEB6
:10120000FFF71CFAC01B6428F6D9032003B0BDE821
:10121000F083D36923F08053D361C3077FF525AFF3
:101220001CE76746FFF70AFA4FF00209804615E00F
:1012300099FAA9F36A6A99FAA9F3B3FA83F303F066
:101240001F0307FA03F313427FF4FBAEFFF7F6F92F
:1012500041F28833A0EB08009842D6D899FAA9F356
:1012600099FAA9F3002BE3D02A6AE4E700100240C0
:1012700000700040008190102DE9F04F0E6883B09F
:10128000002E00F09980DFF808C200234FF001081B
:1012900008FA03F515EA060E00F089804C6824F080
:1012A000100ABAF1020F00F08A804FEA43090322C4
:1012B000D0F800B002FA09F2D24304F0030702EAC0
:1012C0000B0B07FA09F70AF1FF3A47EA0B07BAF1E5
:1012D000010F076040F29980C7688D683A4005FAAF
:1012E00009F51543E700C56061D5624DAA6942F072
:1012F0000102AA61AA6923F0030707F1804702F0FF
:10130000010207F58037019203F00305019AD7F82F
:101310000890AD000F22AA40B0F1904F29EA020ACE
:101320001DD0554A904200F08A80544A904200F005
:101330008B80534A90427BD0524A904200F08B807F
:10134000514A904200F08E80504A90420CBF4FF0BC
:1013500006094FF0070909FA05F54AEA050AC7F830
:1013600008A0DCF80020E5036FEA0E0754BF3A40FE
:101370004EEA0202CCF80020DCF80450A20354BF6D
:101380003D404EEA0505CCF80450DCF80850E20276
:1013900054BF3D404EEA0505CCF80850DCF80C205F
:1013A000A40254BF3A404EEA0202CCF80C200133AA
:1013B00036FA03F27FF46CAF03B0BDE8F08F4FEA6A
:1013C000D30900EB890903F00707D9F82020BF00F3
:1013D0004FF00F0B0BFA07FB22EA0B0A0A69BA401F
:1013E00042EA0A02C9F820204FEA43090322D0F852
:1013F00000A002FA09F2D24304F0030702EA0A0A43
:1014000007FA09F747EA0A070760876802EA070A46
:10141000CF6807FA09F747EA0A078760D0F804A0FF
:10142000C4F300172AEA05059F402F43476053E79E
:101430004FF0030909FA05F54AEA050A8FE708FAA9
:1014400005F54AEA050A8AE74FF0020909FA05F5A7
:101450004AEA050A83E74FF0040909FA05F54AEA62
:10146000050A7CE74FF0050909FA05F54AEA050A7D
:1014700075E700BF00100240000400480008004863
:10148000000C0048001000480014004800180048F4
:10149000000401400AB1816170478162704700BF5A
:1014A00043695940416170472DE9F0410E4690F87B
:1014B0006910202961D1002E42D09046002A3FD0E9
:1014C0001F4690F86830012B044656D00023C366AF
:1014D0000122212380F8682080F86930FFF7AEF8F8
:1014E00005462068A4F85080A4F85280B4F8522031
:1014F00092B2C2B1B4F85220013A92B27B1CA4F865
:10150000522020D1C3691B06FCD5A368B3F5805FC8
:101510002AD0314611F8013B0385B4F8522092B22B
:101520000E46002AE6D17E1C3ED1C3695B06FCD57F
:101530002023002084F8693084F86800BDE8F08139
:101540000120BDE8F081C3691906DED4CFB1FFF7F1
:1015500075F8401B8742206813D3C3691A06F6D575
:10156000A368B3F5805FD4D12369002BD1D136F8BD
:10157000023BC3F308030385B8E70220BDE8F0810E
:101580002068036823F4D07303608368202223F06B
:1015900001030021836084F86920032084F8681027
:1015A00084F86A20BDE8F081C3695A06C0D4002FD0
:1015B000E7D0FFF743F8401B8742E1D32368DB699C
:1015C0005906F6D5B4E700BF03688268834970B551
:1015D0000569466904462A43C0691D6832432940AB
:1015E00002430A431A605968E568A269266A21F431
:1015F0004051294359609968794D21F43061324353
:101600000A43AB429A6043D0764A93420FD0764A5F
:10161000934200F0BE80754A934200F0CC80744A39
:10162000934224D0B0F5004F5BD0012070BD02F58D
:10163000E632126B02F44032B2F5803F00F0868051
:101640001ED9B2F5003F5FD0B2F5403FEAD1B0F508
:10165000004F00F0958061684A0802F5F40202F537
:101660009052B2FBF1F292B2DA60002070BD02F546
:10167000E032126B02F44002B2F5800F66D040D81F
:10168000002ACFD1B0F5004F66D0FFF771FC2EE0F5
:10169000584A5949126B02F00302B0F5004F8A5CB8
:1016A00016D0082AC1D801A151F822F08B160008E3
:1016B000EB160008571600082B16000853170008F1
:1016C0002B1600082B1600082B1600080F17000811
:1016D000082A06D8DFE802F0402554054305050531
:1016E000460000220120DA6070BDFFF759FCD4E902
:1016F000002300EB5300B0FBF3F080B2D060002079
:1017000070BDB2F5000F1DD1B0F5004F2AD0616851
:101710004A0802F50042B2FBF1F292B2DA60002010
:1017200070BDFFF73DFCD4E900314A0802EB4000F0
:10173000B0FBF1F0C0F3420220F00F00024392B27E
:101740000020D0E7B2F5400F81D06BE7B0F5004F35
:1017500005D0FFF7D9FBCAE7FFF70AFCE3E7FFF77D
:10176000D3FBE0E76268510801F58031B1FBF2F18B
:10177000C1F3420221F00F010A4392B20020B2E706
:1017800061684A0802F5740202F51052B2FBF1F1E9
:10179000EEE702F5E432126B02F44022B2F5802F3C
:1017A000D4D07FF66DAFB2F5002FADD0B2F5402F9B
:1017B0003FF44DAF36E702F5E232126B02F440120D
:1017C000B2F5801FC2D07FF65BAFB2F5001F9BD091
:1017D000B2F5401F3FF43BAF24E700BFF369FFEFD2
:1017E000003801400044004000480040004C0040E8
:1017F0000050004000100240C0310008436ADA0780
:1018000010B406D50168846A4A6822F40032224383
:101810004A609C0706D50168C46A4A6822F480328F
:1018200022434A60590706D50168046B4A6822F4CE
:10183000802222434A601A0706D50168446B4A6831
:1018400022F4004222434A60DC0606D50168846B1C
:101850008A6822F4805222438A60990606D501687C
:10186000C46B8A6822F4005222438A605A0609D562
:101870000168046C4A6822F480122243B4F5801F88
:101880004A600BD01B0606D50268816C536823F4AE
:1018900000230B4353605DF8044B70474A68446C67
:1018A00022F4C00222434A60ECE700BF38B50023AF
:1018B0000446C366FEF7C2FE23681A680546100791
:1018C0000BD41A68520724D42023002084F86930EE
:1018D00084F8680084F86A3038BDDA699102F0D47F
:1018E000FEF7ACFE401BB0F1007F2368F5D31A6809
:1018F00022F4D0721A609A68202122F00102002599
:101900009A60032084F8691084F8685084F86A109B
:1019100038BDDB695B02D7D4FEF790FE401BB0F107
:10192000007F2368F5D3E2E790B390F8693010B5F3
:1019300003F0FF02044633B32268242384F869309D
:10194000136823F0010313602046FFF73DFE0128D2
:1019500017D0636A8BB923685A6822F490425A60A0
:101960009A6822F02A029A601A6842F00102204620
:101970001A60BDE81040FFF799BF2046FFF73EFF11
:10198000E9E7012010BD80F86820FEF783FDD3E76A
:101990000120704730B5294B4FF0A04100228BB099
:1019A000022504241960184601211D625C61C3E907
:1019B0000122DA615A621A63DA605A639A619A63A1
:1019C0001961D96200F006F910BB002301A91B4878
:1019D000019300F097FE58BB01220123CDE90423B7
:1019E00007220023CDE9062304A90022002313487F
:1019F000CDE9082300F0DEFCA8B90222022304A9E5
:101A00000E48CDE9042300F0D5FC30B90BB030BD51
:101A10004C210B48FEF79CFCD7E76A210848FEF7EB
:101A200097FC0BB030BD61210548FEF791FCE4E75F
:101A300054210348FEF78CFCCEE700BF10010020C4
:101A4000EC3100080368B3F1A04F00D0704703F1F8
:101A5000704303F5043310B55A6942F080525A615D
:101A60005B6986B003F0805300930024032301A92F
:101A70004FF09040CDE90133009A0394FFF7FCFB4F
:101A8000224621461220FEF703FE1220FEF736FE04
:101A900006B010BD70B5064600F0A6FA0D4C0E4D0E
:101AA0000E490346024620462B6000F03FFF2046C9
:101AB000FEF716FD304600F097FA09490346024644
:101AC00020462B6000F032FF2046BDE87040FEF754
:101AD00007BD00BF640100208C000020C431000855
:101AE000D8310008704700BF704700BF026838B5A2
:101AF000936803F00303012B02D00023184638BD7E
:101B00001168C907F9D5916801F00D01012909D0C3
:101B1000426C42F010024264826C42F00102826424
:101B2000184638BD9368032143F0020393601160A7
:101B30000446FEF783FD054623689B68DB07DCD57A
:101B4000FEF77CFD401B0228F6D9636C43F01003BE
:101B50006364A36C43F00103A3640123CEE700BFD9
:101B6000026838B5936803F00303012B21D0916814
:101B7000174B194209D0436C43F010034364836C44
:101B800043F001038364012038BD936843F00103EF
:101B900093600446FEF752FD054604E0FEF74EFD55
:101BA000401B02280AD823681B68DB07F6D50020F3
:101BB00038BD1368D907DAD50020F9E7636C43F024
:101BC00010036364A36C43F00103A364012038BDD8
:101BD0003F00008070B582B000230193002800F020
:101BE0009B80436C13F01003044618D1456C002D04
:101BF00000F0958002689168CD0040F18180916885
:101C000088007DD4616CC90600D463B1636C23F095
:101C1000120343F010030120636402B070BD436CF3
:101C2000DB06F3D40268906810F00400EED1616C1A
:101C300021F4817141F00201B2F1A04F616400F022
:101C4000E280864B9A4200F0E68085498A4273D052
:101C5000844B9A4271D0936803F00303012B00F088
:101C6000EC80814DAB68616823F440330B43AB607B
:101C7000D4E90231A66BE5690B43616A012E18BFF6
:101C80004FF4805043EA4533012943EA000300F052
:101C90009580E16A01290DD07148824200F09E8052
:101CA00000F58070824200F0998021F48051206B11
:101CB00003430B43916811F00C0F0BD1D068616B9B
:101CC000A56920F48040490020F0020041EA8531F6
:101CD000D0600B43D5686549206929400B43012832
:101CE000D36073D0136B23F00F0313630020A06441
:101CF000636C23F0030343F00103636402B070BD1F
:101D0000636C23F0120343F010036364A36C43F08D
:101D10000103A364636C79E7012002B070BD8564A0
:101D2000C0E9135580F84050FFF78CFE2268936895
:101D3000DE0011D52B465EE74A494B4D936803F010
:101D40000303012B62D08B6803F00303012B89D1BD
:101D50000B68DB078CD485E72046FFF7C7FE626C73
:101D600012F0100F034622687FF445AF00287FF47D
:101D700042AF606C3E493F4D096820F4885020F026
:101D8000020040F002006064906820F040509060D3
:101D9000A5FB0101890C906801EB8101490040F02D
:101DA000805090600191019900293FF424AF01997E
:101DB0000139019101990029F9D11CE77DBBA16A84
:101DC000013943EA414343F4803362E7116B236AEC
:101DD00021F00F01013B0B43136387E7B1F5307F1F
:101DE00028D0B1F5807F2DD0B1F5E07F2DD0B1F5B1
:101DF0008A5F2DD0B1F5845F2DD0B1F5865F08BF25
:101E00004FF4C07153E715491B4D97E71368DE0780
:101E10003FF52EAF97E74FF0A041174D8EE7616C6D
:101E200021F0220141F020016164A16C41F0010127
:101E3000A1642EE74FF4E07139E71368DB073FF543
:101E400017AF0EE74FF4307131E74FF480712EE792
:101E50004FF470712BE74FF4A07128E70001005098
:101E600000040050000500500007005007C0F0FFBC
:101E70000800002083DE1B430003005038B50368D0
:101E80009D6815F004052DD190F84030012B0446D3
:101E900028D0012380F84030FFF762FEF8B9626C69
:101EA000236822F4706222F0010242F48072B3F1DE
:101EB000A04F626418D0494A934270D002F5C062C4
:101EC0009268D10612D046498B420FD0626C42F420
:101ED00080126264CA68C2F34062A2B10DE084F865
:101EE000405038BD022038BD3E4A9268626C22F4F0
:101EF00080126264DA68920105D5626C22F4405265
:101F000042F480526264626C12F480521CBFA26C74
:101F100022F00602A264626900251C2184F8405068
:101F2000082A19605A6827D042F00C025A60A26B46
:101F3000012A03D15A6822F010025A60B3F1A04F6F
:101F400022D0264A93423AD0D2F80816CD0602F59E
:101F5000C0620CD0916801F01F01052907D092687A
:101F600002F01F02092A02D01D4A9342B9D19A6891
:101F700042F004029A6038BD22F004025A605A68A6
:101F800042F008025A60D2E7164A9168CC06EED0B9
:101F9000916801F01F010529E9D09268E7E7114A2D
:101FA0009268D206A2D0626C4FF0A04142F4801237
:101FB0006264CA68C2F34062002AA4D09DE7094A5D
:101FC0009168C906D3D0916801F01F010529CED0D0
:101FD000926802F01F02092AC9D038BD00010050E2
:101FE00000040050000300500368186C704700BFE5
:101FF000704700BF704700BF704700BF704700BF09
:1020000003681A68520710B5044640F187805A6881
:10201000500740F18380626CD00603D4626C42F4B6
:1020200000726264B3F1A04F00F05F81A44A934252
:1020300000F08281D2F80816C90602F5C06240F0AD
:102040002C81D968DA6801F4005102F440620A4335
:1020500015D11A68120712D59A68500700F18B81C2
:102060005A6822F00C025A60636C23F48073636434
:10207000636CD90403D4636C43F0010363642046AA
:10208000FFF708FD23680C221A601A6892064FD5E4
:102090005A6890064CD5626CB3F1A04F42F40052DE
:1020A000626400F01581864A934200F03181D2F8D3
:1020B0000816C80602F5C06240F0DD80DA68D96C07
:1020C00011F0C00F0AD0910100F19C80D96802F490
:1020D000005201F440610A4340F094801A685006AF
:1020E00040F19080B3F1A04F6CD0754A934200F05C
:1020F0004B81D2F80816C90602F5C0626CD091680F
:1021000001F01F01062967D0926802F01F02072A1A
:1021100062D06C4A93425FD0D2685EE01A681107C1
:10212000B3D55A6812073FF576AF1A689206AFD456
:102130001A6851061FD41A68120603D55A68100689
:1021400000F18E801A68D10502D55A68D2056CD488
:102150001A68900502D55A6891055AD41A68D206B1
:1021600002D55A68D0060AD41A68510502D55A68B1
:10217000520566D410BD5A685206DCD58BE7A26BB7
:10218000012A10D0B3F1A04F00F0EA804C484E4A2B
:102190004E49834218BF0A469168C90640F0B28092
:1021A000DA68D0070BD5636C43F480636364A36C77
:1021B00043F00203A3642046FFF796FC2368102235
:1021C0001A60D1E7404A9168C80605D0916801F0CD
:1021D0001F01062900D09268DA68920212D49A6828
:1021E000100700F1BF805A6822F060025A60636CE9
:1021F00023F480536364636CD90503D4636C43F0A8
:10220000010363642046FFF7F3FE236860221A602F
:1022100091E7636C43F4802363642046FFF7EEFE8E
:1022200023684FF400721A6098E7636C43F400333C
:1022300063642046FFF7E0FE23684FF480721A6063
:1022400086E7626C42F480426264A26C4FF4806163
:1022500042F00802A26420461960FFF7CBFE10BDD1
:10226000636C43F4803363642046FFF73BFC2368D0
:1022700080221A6066E7916801F01F0105293FF48A
:102280001DAF926802F01F02092A3FF417AF0D4AF2
:1022900093423FF413AFD26811E7916801F01F0138
:1022A00005293FF4CEAE926802F01F02092A3FF4DE
:1022B000C8AE044A93423FF4C4AED168C2E600BF40
:1022C00000010050000400500003005000070050BF
:1022D000374A9168C8063FF4F1AE916801F01F01DA
:1022E00005293FF4EBAE9268E8E6314A9168C906E9
:1022F0003FF4A7AE916801F01F0105293FF4A1AE9C
:1023000092689EE6926812F4404F3FF458AF4AE755
:10231000274A9168C9063FF4D1AE916801F01F01C8
:1023200005293FF4CBAE926802F01F02092A3FF460
:10233000C5AE4FF0A042AEE71D4A9168C8063FF413
:1023400080AE916801F01F0105293FF47AAE9268D2
:1023500002F01F02092A3FF474AE4FF0A042ACE72E
:10236000134A19E7636C43F010036364A36C43F0F2
:102370000103A36446E7636C43F010036364A36C3A
:1023800043F00103A3647AE6094A9168C9063FF461
:1023900023AF916801F01F0106293FF41DAF926839
:1023A00002F01F02072A3FF417AF4FF0A042B3E636
:1023B00000030050F0B4024682B092F84030002092
:1023C000012B019000F0D58013689C680120640700
:1023D00082F8400035D4D1E9004505EB4500042DD5
:1023E0004FEA40007DD81D6B1F26864025EA060572
:1023F00004FA00F028431863986810F00C0F33D1EA
:10240000092C04EB440588687AD85E690727AF4039
:10241000A84026EA070528435861D1E90456D86840
:10242000C0F3C1004000013D06FA00F04FEA846CA1
:10243000032D00F22E81DFE815F00E00EE00E4001F
:10244000DA00536C43F020035364002382F84030D9
:1024500002B0F0BC70471E6EA24D354045EA0C0537
:10246000284340F000401866986800F003000128F7
:102470007BD0CD680120012D00FA04F07DD0D3F887
:10248000B01021EA0000C3F8B000B3F1A04F4CD067
:1024900095498B4249D0102C944949D0112C40F0D9
:1024A00081808868C50146D4B3F1A04F45D08E48DD
:1024B000834200F0E4808E4DAB4200F0E88000F5EE
:1024C000806083423AD0986800F00300012840D130
:1024D0001868C7073DD5536C43F0200353640120AF
:1024E000B3E7092D16D90E2D76D83C389D6B1F26E3
:1024F000864025EA060504FA00F0284398637BE746
:102500001E3D9E690727AF40A84026EA07052843DD
:10251000986182E71E385D6B1F26864025EA060516
:1025200004FA00F02843586366E7102C7149B5D1CE
:1025300088680602B8D5002087E76B4D986800F0E0
:102540000300012879D0A86800F00300012800F0FA
:102550009980102C76D0112C67D0122CEBD18B687F
:1025600043F480038B6000206FE71868C70780D5AD
:10257000E1E7022002B0F0BC7047D3F8B0508E689B
:102580002843092CC3F8B00012D904EB44011B39CD
:10259000986907258D4020EA050006FA01F10143FC
:1025A000996172E7122CC6D188684002C3D47BE7D8
:1025B000611C01EB4101586907258D4006FA01F1C4
:1025C00020EA05063143B3F1A04F5961B3D0464923
:1025D0008B427FF460AFAEE75A38DD6B1F26864032
:1025E00025EA060504FA00F02843D86304E7DE6E06
:1025F0003C4D354045EA0C05284340F00040D86684
:1026000032E79D6E374E2E4046EA0C06304340F0CE
:102610000040986628E75D6E324F2F4047EA0C076E
:10262000384340F0004058661EE7B3F1A04F82D116
:102630008B6843F080738B607DE71868C6073FF5B1
:102640004AAF80E7B3F1A04F7FF475AF2A4B2B4C14
:102650001B688868A4FB03439B0C03EB83035B00AC
:1026600040F4000088600193019B002B3FF463AFAE
:10267000019B013B0193019B002BF9D15BE74FF0DC
:10268000A0455BE72868C0073FF525AF61E71C4D13
:1026900054E7186E00F0F840604514D0586E00F012
:1026A000F840604514D0986E00F0F840604514D0B2
:1026B000D86E00F0F84060457FF4D6AED86E20F0BA
:1026C0000040D866D0E6186E20F000401866E5E7B6
:1026D000586E20F000405866E5E7986E20F0004004
:1026E0009866E5E700F0FF83000100500007005006
:1026F00000040050000300500800002083DE1B434C
:10270000000500500268B2F1A04FF0B403460E6815
:102710003F480DD0824209D000F54070824247D038
:102720003C4CA24204D00120F0BC70474FF0A040C6
:1027300093F84040012C40D094680125640783F849
:10274000405009D55A6C42F020025A640120002200
:1027500083F84020F0BC704784686707F2D4B2F178
:10276000A04F43D02A4F2C4C2C4DBA4218BF2C46B8
:1027700036B3A7684D6827F4604C5F6B45EA473570
:1027800045EA0C05A560956805F00305012D3BD0D1
:10279000826802F00302012A2ED0A0688A6820F421
:1027A0007161164321F00F010E43A6600020CEE7B1
:1027B00093F840401748012CBED10220F0BC70476E
:1027C000A16821F46041A160916801F00301012931
:1027D00016D0826802F00302012A09D0A26822F40E
:1027E000716222F00F02A2600020B0E70A4CBFE73E
:1027F0000268D207DAD4F1E70268D007D6D4CCE772
:102800001268D107D2D4E4E71268D507C0D5CDE766
:102810000001005000050050000300500007005068
:102820001749184B184A194810B4D1F8884044F495
:102830007004C1F888401C6844F001041C605C68A6
:1028400022405A601A6822F0847222F480321A60A0
:102850001A6822F480221A605A6822F4FE025A6032
:10286000DA6A22F00F02DA621A6B002410404FF08D
:10287000006218639C608A605DF8044B704700BF7B
:1028800000ED00E0001002400CC07FF8CCFC00FF1F
:10289000DFF834D0002103E00C4B5B584350043187
:1028A0000B480C4B42189A42F6D30B4A02E0002325
:1028B00042F8043B094B9A42F9D3FFF7B1FF00F00D
:1028C00011F8FDF72BFDFEE7000001204C32000857
:1028D000000000207000002070000020D8010020BF
:1028E000FEE7000070B50D4D0D4C641BA4100026D2
:1028F000A64209D10B4D0C4C00F040FC641BA41007
:102900000026A64205D170BD55F8043B9847013614
:10291000EEE755F8043B98470136F2E744320008E9
:102920004432000844320008483200080EB400B5B2
:102930009CB01DAB029006906FF0004109480791D2
:102940000491094953F8042B05910068019302A9E9
:1029500000F068F8029B00221A701CB05DF804EBCE
:1029600003B070470C0000200802FFFF2DE9F0477C
:102970008E689E4282460C469146984638D8B1F8F9
:102980000CC01CF4906F31D062692568096902EBB4
:1029900042026F1A02EBD272013355103B449D4242
:1029A00038BF1D461CF4806F30D0294600F032FB42
:1029B000064650B90C23CAF80030A38943F04003FF
:1029C000A3814FF0FF30BDE8F0873A46216900F05F
:1029D000ABFAA38923F4906343F08003A3812661BB
:1029E00065613E44ED1B2660A5604646464500D91C
:1029F000464632464946206800F0A4FAA3689B1B6D
:102A0000A36023681E4426600020DCE72A4600F00D
:102A10005BFB06460028E2D12169504600F0ACFA83
:102A2000C8E700002DE9F04F1E468B891B069DB0BC
:102A300007460D4614460ED50B6963B9402100F0D8
:102A4000E9FA2860286120B90C233B604FF0FF3081
:102A5000C9E040236B610023099320238DF82930BE
:102A6000DFF89C91039630238DF82A304FF0010A4D
:102A700023461E4613F8012B0AB1252AF9D1B6EBDD
:102A8000040B0BD05B46224629463846FFF76EFF03
:102A9000013000F0A380099B5B4409933378002B3D
:102AA00000F09C8000234FF0FF32CDE90523013672
:102AB000049307938DF853301A933446052214F883
:102AC000011B4F48FDF794FB049BC0B9D90644BFD6
:102AD00020228DF853201A0744BF2B228DF8532053
:102AE00032782A2A13D0079A344600200A26214633
:102AF00011F8013B303B092B4BD970B914E0A0EB26
:102B000009000AFA00F0184304902646D5E7039A14
:102B1000111D12680391002A01DB079204E0524262
:102B200043F002030792049323782E2B0CD1637891
:102B30002A2B33D1039B1A1D1B680392002BB8BFAD
:102B40004FF0FF33023405932E4E21780322304696
:102B5000FDF74EFB38B14023801B03FA00F0049BC5
:102B600003430134049314F8011B27488DF82810FF
:102B70000622FDF73DFB002838D0244B13BB039BF6
:102B8000073323F0070308330393099B4344099356
:102B90006EE706FB023201200C46A8E70023013451
:102BA000059319460A26204610F8012B303A092AC7
:102BB00003D9002BC8D00591C6E706FB01210123EC
:102BC0000446F0E703AB00932A46114B04A93846AC
:102BD000AFF30080B0F1FF3F8046D6D1AB895B06F2
:102BE0003FF534AF09981DB0BDE8F08F03AB0093FB
:102BF0002A46074B04A9384600F082F8EAE700BFEE
:102C000010320008163200081A32000800000000D6
:102C10006D2900082DE9F04791461F468A680B6927
:102C2000DDF820809342B8BF1346C9F8003091F810
:102C3000432006460C4612B10133C9F80030236820
:102C4000990642BFD9F800300233C9F80030256830
:102C500015F0060507D104F1190AE368D9F8002038
:102C60009B1AAB4228DC94F843302268003318BF2B
:102C7000012392062DD404F1430239463046C04761
:102C8000013020D02368E568D9F8002003F006035E
:102C9000042B08BFAD1AA36822690CBF25EAE575AD
:102CA00000259342C4BF9B1AED184FF000091A3457
:102CB0004D451AD1002008E00123524639463046DE
:102CC000C047013003D14FF0FF30BDE8F087013538
:102CD000C3E7E1185A1C302081F84300224494F8DD
:102CE000451082F843100233C5E7012322463946D6
:102CF0003046C0470130E6D009F10109D8E70000AD
:102D00002DE9F04306460C4601F14300097E85B0EB
:102D10006E29984617460C9B00F0BA8024D8632988
:102D200039D00AD8002900F0C380582900F09180DA
:102D300004F1420584F8421035E0642901D0692984
:102D4000F6D125681A6815F0800F02F104012CD025
:102D500012681960002A03DA2D23524284F84330A6
:102D6000DFF8BCC10A233FE0732900F0A58008D832
:102D70006F2921D07029DBD1226842F02002226025
:102D800003E0752918D07829D2D1782284F845201B
:102D9000DFF890C161E01A68111D1960136884F8AA
:102DA000423004F14205012393E01268196015F0E6
:102DB000400F18BF12B2CDE7D4F800C01A681CF05B
:102DC000800F02F104051D6001D0126803E01CF0C1
:102DD000400FFAD01288DFF848C16F290CBF0823D2
:102DE0000A23002184F843106568A560002DA2BF66
:102DF000216821F0040121600AB9002D46D0054662
:102E0000B2FBF3F103FB112E93421CF80EE005F820
:102E100001ED39D9082B0BD12368DA0708D52369CE
:102E200062689A42DEBF302305F8013C05F1FF35A8
:102E3000401B2061CDF800803B4603AA2146304666
:102E4000FFF7E8FE013049D14FF0FF3005B0BDE893
:102E5000F083DFF8CCC084F845101D68216855F870
:102E6000042B1D600D060BD5CD0744BF41F020019A
:102E700021601AB9236823F0200323601023B0E7F0
:102E80004B0648BF92B2EFE70A46B9E70546C1E7ED
:102E90001A68D4F800C06169151D1D601CF0800F10
:102EA000136801D0196003E01CF0400FFAD01980BC
:102EB000002323610546BDE71A68111D19601568D6
:102EC000626800212846FDF793F908B1401B606055
:102ED00063682361002384F84330ABE723692A4603
:102EE00039463046C0470130AED023689B0713D423
:102EF000E068039B9842B8BF1846A7E701234A46FB
:102F000039463046C04701309ED00135E368039A08
:102F10009B1AAB42F2DCEBE7002504F11909F5E757
:102F200021320008323200080A44914200F1FF3396
:102F300000D1704710B511F8014B03F8014F9142D1
:102F4000F9D110BD884210B501EB020302D98342CA
:102F50001C4607D8421E994208D011F8014B02F8CE
:102F6000014FF8E783189A1A9A4200D110BD14F85D
:102F7000011D03F8011DF7E738B50546002945D0C6
:102F800051F8043C0C1F002BB8BFE41800F0D2F835
:102F90001F4A1368104633B9636014602846BDE8C1
:102FA000384000F0CDB8A3420CD921686218934292
:102FB00004BF1A685B68636004BF52182260046033
:102FC000ECE713465A680AB1A242FAD919685818B0
:102FD000A0420BD120680144581882421960DDD10B
:102FE000106852685A6001441960D7E702D90C236F
:102FF0002B60D3E7206821188A4204BF1168526809
:10300000626004BF091821605C60C7E738BD00BF7B
:1030100090000020F8B5CD1C25F0030508350C2DD7
:1030200038BF0C25002D064601DBA94203D90C232D
:1030300033600020F8BD00F07DF821490A6814468D
:103040009CB9204F3B6823B92146304600F062F816
:1030500038602946304600F05DF8431C23D10C232C
:103060003360304600F06CF8E3E723685B1B17D44D
:103070000B2B03D923601C44256004E06368A24243
:103080000CBF0B605360304600F05AF804F10B009F
:10309000231D20F00700C21ACCD01B1AA350C9E789
:1030A00022466468CCE7C41C24F00304A042E3D0A9
:1030B000211A304600F02EF80130DDD1CFE700BFF5
:1030C0009000002094000020F8B5074614460E46F4
:1030D00021B91146BDE8F840FFF79CBF22B9FFF7C0
:1030E0004BFF25462846F8BD00F030F8A0420FD22D
:1030F00021463846FFF78EFF05460028F2D03146BC
:103100002246FFF711FF31463846FFF735FFE9E762
:103110003546E7E738B5064C0023054608462360E8
:1031200000F01EF8431C02D1236803B12B6038BDA8
:10313000C8010020014800F011B800BFD0010020F4
:10314000014800F00CB800BFD001002051F8043C49
:10315000181F002BBCBF0B58C01870477047704732
:10316000044A05491368002B08BF0B461844106039
:103170001846704798000020D8010020F8B500BF1D
:10318000F8BC08BC9E467047F8B500BFF8BC08BC48
:043190009E467047A0
:103194005372632F75736172742E63000203040506
:1031A400060708090A0B0C0D0E0F10100102030488
:1031B40005060708090A0B0C0D0E0F10010408027E
:1031C40041444356616C756520313A2025640D0AEB
:1031D4000000000041444356616C756520323A207A
:1031E40025640D0A000000005372632F6164632E8E
:1031F400630000000000000000000000010203045E
:10320400060708090000000001020304232D302BE7
:103214002000686C4C0065666745464700303132D3
:10322400333435363738394142434445460030312A
:103234003233343536373839616263646566000089
:04324400C5010008B8
:04324800A1010008D8
:10324C00010000001000000000127A0010000020A5
:10325C000000000000000000000000000000000062
:10326C000000000000000000000000000000000052
:10327C000000000000000000000000000000000042
:10328C000000000000000000000000000000000032
:10329C000000000000000000000000000000000022
:1032AC000000000000000000000000000000000012
:040000050800289136
:00000001FF
