:020000040800F2
:1000000000000120C9210008250500082705000877
:10001000290500082B0500082D0500080000000038
:100020000000000000000000000000002F05000894
:100030003105000800000000330500083505000800
:1000400019220008192200081922000819220008A4
:100050001922000819220008192200081922000894
:100060001922000819220008192200081922000884
:100070001922000819220008192200081922000874
:100080001922000819220008192200081922000864
:100090001922000819220008192200081922000854
:1000A0001922000819220008192200081922000844
:1000B0001922000819220008192200081922000834
:1000C0001922000819220008192200081922000824
:1000D0001922000819220008192200081922000814
:1000E0001922000819220008192200081922000804
:1000F00019220008192200081922000819220008F4
:100100001922000800000000000000001922000869
:1001100019220008192200081922000819220008D3
:1001200019220008192200081922000819220008C3
:100130001922000819220008000000000000000039
:1001400019220008192200081922000800000000E6
:10015000000000000000000000000000000000009F
:100160001922000819220008192200081922000883
:100170001922000819220008192200081922000873
:1001800019220008192200080000000000000000E9
:040190001922000828
:1001940010B5054C237833B9044B13B10448AFF3BD
:1001A40000800123237010BD0C000020000000001B
:1001B4007422000808B5034B1BB103490348AFF38D
:1001C400008008BD00000000100000207422000818
:1001D40030B5A7B0242200211DA802F041F8002464
:1001E4001794189419941A941B945822214601A820
:1001F40002F036F802251C9501231F931023209347
:1002040022954FF4004323934FF4E01324931CA846
:1002140001F0B0F80F231793189519944FF48063E5
:100224001A931B94294617A801F0E0FB0195049446
:1002340001A801F0DDFC27B030BD000010B582B08C
:1002440001F074F8FFF7C4FF00F024F800F01AF985
:1002540000F0ACF800238DF807308DF806300B4C15
:100264004FF0FF3301220DF10701204600F022FD7B
:100274009DF807308DF806304FF0FF3301220DF161
:100284000601204600F0E5FAE9E700BF2800002057
:100294007047000070B58AB0002405940694079452
:1002A400089409943B4B5A6942F400225A615A69F2
:1002B40002F400220092009A5A6942F480025A61C0
:1002C4005A6902F480020192019A5A6942F4003296
:1002D4005A615A6902F400320292029A5A6942F44B
:1002E40080225A615A6902F480220392039A5A695D
:1002F40042F480125A615B6903F480130493049BF3
:10030400224620214FF0904001F0C6FE4FF40053E6
:100314000593214B06930794204E05A9304601F01E
:10032400E5FD4DF6FF73059303250695079405A98E
:10033400304601F0DBFD05950695079405A918489C
:1003440001F0D4FD41F6D37305930695079405A9EE
:100354004FF0904001F0CAFD20230593012306933A
:100364000794089405A94FF0904001F0BFFD4FF6A3
:10037400C77305930695079405A90A4801F0B6FDCD
:10038400042305930695079405A9074801F0AEFDDB
:100394000AB070BD0010024000002110000800489F
:1003A4000014004800040048000C004808B50E483A
:1003B4000E4B03600023436083604FF4E062C2602D
:1003C400036101224261836180220262436283628B
:1003D4000722C2620363436300F0DEF900B908BD7B
:1003E400FFF756FFFBE700BF280000200030014064
:1003F40070B588B000230393049305930693079381
:1004040002681E4B9A4201D008B070BD03F56043E8
:100414009A6942F480529A619A6902F48052009275
:10042400009A5A6942F400325A615A6902F400325D
:100434000192019A5A6942F480225A615B6903F479
:1004440080230293029B4FF40043039302260496F5
:10045400032506950524079403A94FF0904001F065
:1004640045FD3823039304960023059306950794CA
:1004740003A9034801F03AFDC6E700BF003001407C
:100484000004004808B50B480B4B03604FF4E133FC
:10049400436000238360C36003610C224261836173
:1004A400C3610362436200F0E7FE00B908BDFFF7D1
:1004B400EFFEFBE78C0000200044004000B589B04B
:1004C4000023039304930593069307930268134B45
:1004D4009A4202D009B05DF804FB03F5E633DA6909
:1004E40042F40032DA61DA6902F400320192019ACC
:1004F4005A6942F400325A615B6903F4003302938F
:10050400029B0C230393022304930723079303A959
:100514004FF0904001F0EAFCDCE700BF00440040EB
:100524007047FEE7FEE7FEE7FEE770477047704757
:1005340008B500F00DFF08BD00B583B00C4B9A69F7
:1005440042F001029A619A6902F001020092009A53
:10055400DA6942F08052DA61DB6903F08053019377
:10056400019B072001F09EFD03B05DF804FB00BF72
:1005740000100240F8B505460F4616461C4639E001
:100584002CB100F0F1FE069BC01AA04232D32A68B7
:10059400536823F0E00353606B68B3F5827F0BD09C
:1005A400AB6AB3F5005F14D0012385F85D300023F6
:1005B40085F85C30032025E0AB68B3F5004F02D02A
:1005C400B3F5806FECD12A68136823F040031360FD
:1005D400E6E72A68136823F4005313602A68136853
:1005E40043F400531360DFE70123B34209D0B4F1AD
:1005F400FF3FC5D12B689B6837EA0303F4D000237F
:10060400F3E70020F8BDF0B583B007460C46154665
:100614001E4602E0B6F1FF3F10D13A6893682340CA
:10062400AB423FD0B4F5C06FF4D1002DF2D1137BAF
:10063400DBB28DF807309DF80730EBE72EB100F000
:1006440093FE089BC01AB042E7D33A68536823F07C
:10065400E00353607B68B3F5827F0BD0BB6AB3F5CC
:10066400005F14D0012387F85D30002387F85C30E5
:10067400032018E0BB68B3F5004F02D0B3F5806FD8
:10068400ECD13A68136823F040031360E6E73A6854
:10069400136823F4005313603A68136843F4005357
:1006A4001360DFE7002003B0F0BD70B582B00446EC
:1006B4000D46164600920B4600224FF4C051FFF738
:1006C400A2FFB8B900962B46002280212046FFF7EE
:1006D40051FFB8B900962B4600224FF4C061204662
:1006E400FFF791FF034650B1236E43F020032366C6
:1006F400032304E0236E43F02003236603231846F8
:1007040002B070BD236E43F0200323660323F6E793
:1007140070B582B004460D4616464368B3F5827F31
:100724000FD000962B46002280212046FFF722FF9F
:10073400034698B96268B2F5827F15D0184602B0B4
:1007440070BD8368B3F5004F02D0B3F5806FE8D174
:100754002268136823F040031360E2E7236E43F03A
:10076400200323660323E9E7A268B2F5004F02D011
:10077400B2F5806FE2D100962B4600224FF4C0619F
:100784002046FFF740FF03460028D7D0236E43F0EE
:10079400200323660323D1E7002858D010B504466C
:1007A4000023836290F85D30002B45D0022384F847
:1007B4005D302268136823F040031360E368B3F5E7
:1007C400E06F3ED90022B3F5706F04D0B3F5E06F4B
:1007D40001D00021A162216B21B9B3F5E06F33D9B7
:1007E400022323636368A1680B4321690B43616996
:1007F4000B43A16901F400710B43E1690B43216AC6
:100804000B43A06A216803430B60638B03F004036A
:10081400616A0B43616B0B43E1680B43216813432B
:100824004B602268D36923F40063D36100202066FF
:10083400012384F85D3010BD80F85C30FFF7D8FDEB
:10084400B4E74FF48052BEE701232363CAE70120D3
:1008540070472DE9F04383B01E4690F85C30012BBD
:1008640000F0CE8004460D469146012380F85C30AA
:1008740000F07AFD804694F85D70FFB2012F40F0DD
:10088400B480002D00F0B280B9F1000F00F0AE800A
:10089400032384F85D3000232366A563A4F83C9009
:1008A400A4F83E902364A4F84430A4F846302365A9
:1008B400E364A368B3F5004F1BD023681A6812F0F1
:1008C400400F03D11A6842F040021A60E368B3F59E
:1008D400E06F31D963681BB1E38F9BB2012B12D156
:1008E400236835F8022BDA60E38F013B9BB2E38780
:1008F40009E02268136843F480431360DDE7CEB156
:10090400B6F1FF3F10D1E38F9BB2002B58D0236880
:100914009A6812F0020FF2D035F8022BDA60E38FF6
:10092400013B9BB2E387EEE700F01EFDA0EB08005D
:10093400B042E8D3032759E063681BB1E38F9BB24D
:10094400012B21D1E38F9BB2012B08D9236835F801
:10095400022BDA60E38F023B9BB2E38714E0236847
:1009640015F8012B1A73E38F013B9BB2E3870BE06D
:1009740015F8012B1A73E38F013B9BB2E38703E065
:10098400E6B1B6F1FF3F13D1E38F9BB2C3B1236845
:100994009A6812F0020FF3D0E28F92B2012AE7D9DB
:1009A40035F8022BDA60E38F023B9BB2E387EBE777
:1009B40000F0DAFCA0EB0800B042E5D3032715E011
:1009C400424631462046FFF770FE08B120232366D5
:1009D400A36833B901932368DA6801929B68019391
:1009E400019B236E13B9002700E00227012384F83A
:1009F4005D30002384F85C30384603B0BDE8F083F2
:100A04000227F9E72DE9F8439946089D90F85C30F0
:100A1400012B00F04D8104460F461646012380F851
:100A24005C3000F0A1FC804694F85D30DBB2626873
:100A3400012B0AD0B2F5827F40F02581A268002AFA
:100A440040F02A81042B40F02981002F00F02881F6
:100A5400002E00F02781B9F1000F00F0258194F8F1
:100A64005D30DBB2042B02D0052384F85D30002313
:100A740023662664A4F84690A4F84490A763A4F8D7
:100A84003E90A4F83C90E3642365E368B3F5E06F1B
:100A940004D8B4F846309BB2012B22D9226853689B
:100AA40023F48053536023681A6812F0400F03D173
:100AB4001A6842F040021A60E368B3F5E06F53D954
:100AC40063681BB1E38F9BB2012B07D1236837F80E
:100AD400022BDA60E38F013B9BB2E3874FF00109FD
:100AE4001BE02268536843F480535360DBE7B4F897
:100AF40046309BB273B12268936813F0010309D0A6
:100B0400D26826F8022BB4F84620013A92B2A4F82F
:100B140046209946B5F1FF3F1ED1E38F9BB22BB916
:100B2400B4F846309BB2002B00F0A180B9F1000F5D
:100B3400DDD0E38F9BB2002BD9D023689A6812F0E2
:100B4400020FD4D037F8022BDA60E38F013B9BB25B
:100B5400E3874FF00009CAE700F006FCA0EB0800A9
:100B6400A842DAD303208FE063681BB1E38F9BB202
:100B7400012B0BD1E38F9BB2012B0AD9236837F8E1
:100B8400022BDA60E38F023B9BB2E3874FF001094B
:100B940026E0236817F8012B1A73E38F013B9BB2FD
:100BA400E387F3E717F8012B1A73E38F013B9BB23A
:100BB400E3874FF0000933E021684A6842F4805229
:100BC4004A60994609E0127B06F8012BB4F84620E6
:100BD400013A92B2A4F846209946B5F1FF3F3ED1BE
:100BE400E38F9BB223B9B4F846309BB2002B3ED0BE
:100BF400B9F1000F14D0E38F9BB28BB123689A68CC
:100C040012F0020F0CD0E28F92B2012ACAD937F83F
:100C1400022BDA60E38F023B9BB2E3874FF00009BB
:100C2400B4F846309BB2002BD7D02268936813F0F7
:100C34000103D2D0B4F8461089B20129C3D9D268CD
:100C440026F8022BB4F84620023A92B2A4F84620C1
:100C5400B4F8462092B2012AAED99946BDE700F015
:100C640083FBA0EB0800A842BAD303200CE0424661
:100C740029462046FFF719FD08B120232366236E79
:100C8400A3B9002000E00220012384F85D30002392
:100C940084F85C30BDE8F8830220F5E70220F3E72E
:100CA4000120F1E70120EFE70120EDE70120EBE768
:100CB4000220EFE72DE9F04383B004460E46914647
:100CC4001D464368B3F5827F41D094F85C30012B14
:100CD40000F0AB80012384F85C3000F045FB8046D3
:100CE40094F85D70FFB2012F40F09480002E00F064
:100CF4009280B9F1000F00F08E80042384F85D30F7
:100D0400002323662664A4F84490A4F84690A363C1
:100D1400A387E387E3642365E368B3F5E06F23D92E
:100D24002268536823F480535360A368B3F5004FDB
:100D340020D023681A6812F0400F03D11A6842F0D9
:100D440040021A60E368B3F5E06F1DD93BE08368A5
:100D5400002BBAD1042380F85D30009513460A466F
:100D6400FFF750FE07465CE02268536843F4805363
:100D74005360DAE72268136823F480431360D8E7EA
:100D8400DDB1B5F1FF3F12D1B4F846309BB2ABB33D
:100D940023689A6812F0010FF2D01B7B06F8013B1E
:100DA400B4F84630013B9BB2A4F84630ECE700F0BF
:100DB400DBFAA0EB0800A842E6D303272BE0DDB161
:100DC400B5F1FF3F12D1B4F846309BB2B3B12368FA
:100DD4009A6812F0010FF2D0DB6826F8023BB4F8EF
:100DE4004630013B9BB2A4F84630ECE700F0BCFA75
:100DF400A0EB0800A842E6D303270CE042462946AC
:100E04002046FFF785FC08B120232366236E13B91F
:100E1400002700E00227012384F85D30002384F8D2
:100E24005C30384603B0BDE8F0830227F9E70000E0
:100E340038B5044683680269134342691343C2699F
:100E44001343016808689F4A024013430B602268F9
:100E5400536823F44053E1680B435360A369226A47
:100E64001A4321688B6823F4306313438B6023682F
:100E7400954A93420DD0954A93421DD0944A934289
:100E840043D0944A934258D0934A93426DD010254C
:100E940027E002F55842126B02F00302032A09D834
:100EA400DFE802F00204067B01251AE0042518E0BD
:100EB400082516E0102514E002F5E632126B02F460
:100EC4004032B2F5803F6AD007D9B2F5003F68D00E
:100ED400B2F5403F17D1022503E00AB9002500E02E
:100EE4001025E269B2F5004F69D0082D00F2E880C0
:100EF400DFE815F0AD00B800C400E600D000E6005D
:100F0400E600E600DC001025EBE702F5E432126BA4
:100F140002F44022B2F5802F45D007D9B2F5002F54
:100F240043D0B2F5402F06D10225DAE70AB90025ED
:100F3400D7E71025D5E71025D3E702F5E232126B87
:100F440002F44012B2F5801F31D007D9B2F5001F68
:100F54002FD0B2F5401F06D10225C2E70AB90025F9
:100F6400BFE71025BDE71025BBE702F5E032126BA1
:100F740002F44002B2F5800F1DD007D9B2F5000F7C
:100F84001BD0B2F5400F06D10225AAE70AB9002505
:100F9400A7E71025A5E71025A3E70225A1E7042567
:100FA4009FE708259DE704259BE7082599E7042585
:100FB40097E7082595E7042593E7082591E7082D89
:100FC40042D8DFE805F0051722412D4141413800A0
:100FD40000F0E2FD6268530803EB4003B3FBF2F355
:100FE4009BB223F00F02C3F3420313432268D3607E
:100FF400284638BD00F0E6FD6268530803EB400361
:10100400B3FBF2F39BB20025EBE76268530803F5E8
:10101400740303F51053B3FBF2F39BB20025E0E72E
:1010240000F0ACFC6268530803EB4003B3FBF2F33B
:101034009BB20025D5E76268530803F58033B3FB00
:10104400F2F39BB20025CCE701250023C9E700F0A9
:10105400A3FD636800EB5300B0FBF3F0236880B298
:10106400D860C5E700F0AEFD636800EB5300B0FB49
:10107400F3F0236880B2D8600025B9E761684A08B4
:1010840002F5F40202F59052B2FBF1F292B2DA6088
:101094000025ADE700F072FC636800EB5300B0FB81
:1010A400F3F0236880B2D8600025A1E761684A089C
:1010B40002F50042B2FBF1F292B2DA60002597E742
:1010C400012595E7F369FFEF003801400044004033
:1010D40000480040004C004000500040436A13F0B8
:1010E400010F06D00268536823F40033816A0B436E
:1010F4005360436A13F0020F06D00268536823F466
:101104008033C16A0B435360436A13F0040F06D063
:101114000268536823F48023016B0B435360436AD2
:1011240013F0080F06D00268536823F40043416BA0
:101134000B435360436A13F0100F06D002689368A0
:1011440023F48053816B0B439360436A13F0200FA5
:1011540006D00268936823F40053C16B0B43936079
:10116400436A13F0400F0AD00268536823F48013D3
:10117400016C0B435360036CB3F5801F0BD0436ABF
:1011840013F0800F06D00268536823F40023816CA7
:101194000B43536070470268536823F4C003416CE7
:1011A4000B435360EBE72DE9F04105460F46164625
:1011B4009846069C2B68DB6937EA03030CBF0123BE
:1011C4000023B3421DD1B4F1FF3FF3D02CB100F0A2
:1011D400CBF8A0EB0800A042ECD92A68136823F4EA
:1011E400D07313602A68936823F00103936020236B
:1011F40085F8693085F86A30002385F86830032063
:1012040000E00020BDE8F08130B583B0044600233F
:10121400C36600F0A9F8054623681B6813F0080F9D
:101224000ED123681B6813F0040F17D1202384F810
:10123400693084F86A30002084F8680003B030BD57
:101244006FF07E430093034600224FF400112046C2
:10125400FFF7A9FF0028E4D00320EFE76FF07E43F7
:1012640000932B4600224FF480012046FFF79BFF9A
:101274000028DBD00320E1E778B310B5044690F8EA
:1012840069300BB3242384F869302268136823F08F
:10129400010313602046FFF7CBFD012813D0636AD6
:1012A400BBB92268536823F490435360226893685F
:1012B40023F02A0393602268136843F00103136048
:1012C4002046FFF7A1FF10BD80F86830FFF7F6F85D
:1012D400D8E72046FFF702FFE3E70120704700004C
:1012E40010B504460E4B18784FF47A73B3FBF0F341
:1012F4000C4A1068B0FBF3F000F01AFF68B90F2C29
:1013040001D901200AE0002221464FF0FF3000F00D
:10131400DBFE054B1C60002000E0012010BD00BF77
:1013240000000020080000200400002008B5074A3F
:10133400136843F010031360032000F0B3FE002091
:10134400FFF7CEFFFFF7F8F8002008BD00200240A9
:10135400034A1168034B1B780B441360704700BFAA
:10136400FC00002000000020014B1868704700BFFB
:10137400FC000020002800F0ED8270B582B0044625
:10138400036813F0010F3DD0C74B5B6803F00C03F7
:10139400042B20D0C44B5B6803F00C03082B13D040
:1013A4006368B3F5803F6AD0002B40F08D8003F171
:1013B400804303F504331A6822F480321A601A68F1
:1013C40022F480221A605FE0B74B5B6803F4C033F9
:1013D400B3F5803FE4D14FF4003393FAA3F3B24B57
:1013E40019684FF4003393FAA3F3B3FA83F303F0C9
:1013F4001F03012202FA03F30B4203D06368002B9C
:1014040000F0AA82236813F0020F00F0C080A64BFC
:101414005B6813F00C0F00F09780A34B5B6803F03C
:101424000C03082B00F08880E368002B00F0ED80AB
:10143400012292FAA2F3B3FA83F303F1845303F57E
:1014440084139B001A60FFF78FFF0546022393FA6B
:10145400A3F3954B1968022393FAA3F3B3FA83F326
:1014640003F01F03012202FA03F30B4240F0BE8093
:10147400FFF77AFF401B0228E8D9032075E28A4A65
:10148400136843F4803313606368002B36D0FFF78E
:101494006BFF05464FF4003393FAA3F3824B1968AC
:1014A4004FF4003393FAA3F3B3FA83F303F01F0367
:1014B400012202FA03F31942A4D1FFF755FF401B9E
:1014C4006428E7D9032050E2B3F5A02F09D0764B66
:1014D4001A6822F480321A601A6822F480221A6090
:1014E400D2E703F18043A3F53C331A6842F4802227
:1014F4001A601A6842F480321A60C5E7FFF734FFB5
:1015040005464FF4003393FAA3F3674B19684FF47D
:10151400003393FAA3F3B3FA83F303F01F03012216
:1015240002FA03F319423FF46DAFFFF71DFF401BAE
:101534006428E6D9032018E25B4B5B6803F4C033EC
:10154400B3F5004F7FF470AF022393FAA3F3564B25
:101554001968022393FAA3F3B3FA83F303F01F0386
:10156400012202FA03F3194203D0E368934240F0E4
:10157400F5814D48036823F0F8032169F82292FAB3
:10158400A2F2B2FA82F201FA02F213430360236870
:1015940013F0080F00F08C806369002B5CD00121EC
:1015A40091FAA1F2B2FA82F2404B13449B00196003
:1015B400FFF7DAFE0546022393FAA3F293FAA3F2A5
:1015C40093FAA3F2384A516A93FAA3F3B3FA83F372
:1015D40003F01F03012202FA03F30B4268D1FFF761
:1015E400C3FE401B0228E6D90320BEE12E4803684F
:1015F40023F0F8032169F82292FAA2F2B2FA82F2F5
:1016040001FA02F213430360C1E7012393FAA3F33F
:10161400B3FA83F303F1845303F584139B0000228C
:101624001A60FFF7A1FE0546022393FAA3F31E4BAB
:101634001968022393FAA3F3B3FA83F303F01F03A5
:10164400012202FA03F31942A1D0FFF78DFE401BD9
:101654000228E9D9032088E1012292FAA2F2B2FA1F
:1016640082F2124B13449B0000221A60FFF77CFEA7
:101674000546022393FAA3F293FAA3F293FAA3F290
:10168400094A516A93FAA3F3B3FA83F303F01F03ED
:10169400012202FA03F30B420AD0FFF765FE401B56
:1016A4000228E6D9032060E1001002402081901056
:1016B400236813F0040F00F0A980AE4BDB6913F02C
:1016C400805F0BD1AB4BDA6942F08052DA61DB699F
:1016D40003F080530193019B012500E00025A64BF4
:1016E4001B6813F4807F10D0A368012B21D063BB47
:1016F40003F1804303F504331A6A22F001021A62EB
:101704001A6A22F004021A6218E09B4A136843F42E
:1017140080731360FFF728FE0646974B1B6813F48B
:10172400807FE1D1FFF720FE801B6428F5D90320D8
:101734001BE1904A136A43F001031362A368002B70
:101744003CD0FFF711FE06462EE0052B09D0894B4D
:101754001A6A22F001021A621A6A22F004021A6258
:10176400ECE7844B1A6A42F004021A621A6A42F0E5
:1017740001021A62E2E7022393FAA3F37D4B596A4A
:10178400022393FAA3F3B3FA83F303F01F030122B2
:1017940002FA03F3194238D1FFF7E6FD801B41F248
:1017A4008833984200F2DC80022393FAA3F293FA7E
:1017B400A3F3002BDFD06F4B196AE1E7FFF7D4FDE9
:1017C400064618E0022393FAA3F36A4B596A0223EC
:1017D40093FAA3F3B3FA83F303F01F03012202FA8B
:1017E40003F3194211D0FFF7BFFD801B41F2883388
:1017F400984200F2B780022393FAA3F293FAA3F378
:10180400002BDFD05B4B196AE1E7B5BBA369002B62
:1018140000F0AA80574A526802F00C02082A00F02D
:10182400A680022B2FD04FF0807393FAA3F3B3FA60
:1018340083F303F1845303F584139B0000221A609D
:10184400FFF792FD04464FF0007393FAA3F3494B5C
:1018540019684FF0007393FAA3F3B3FA83F303F018
:101864001F03012202FA03F3194271D0FFF77CFD32
:10187400001B0228E7D9032077E03E4AD36923F00E
:101884008053D361C2E74FF0807393FAA3F3B3FAA2
:1018940083F303F1845303F584139B0000221A603D
:1018A400FFF762FD05464FF0007393FAA3F3314B43
:1018B40019684FF0007393FAA3F3B3FA83F303F0B8
:1018C4001F03012202FA03F3194206D0FFF74CFD6D
:1018D400401B0228E7D9032047E0264AD36A23F0B5
:1018E4000F03616A0B43D362536823F47613216AAE
:1018F400E06901430B4353604FF0807393FAA3F301
:10190400B3FA83F303F1845303F584139B00012298
:101914001A60FFF729FD04464FF0007393FAA3F30E
:10192400144B19684FF0007393FAA3F3B3FA83F3DB
:1019340003F01F03012202FA03F3194206D1FFF751
:1019440013FD001B0228E7D903200EE000200CE061
:1019540000200AE001207047012006E0012004E095
:10196400032002E0032000E0002002B070BD01204B
:10197400FBE700BF0010024000700040174B5B689B
:1019840003F00C02082A01D01548704703F47011C3
:101994004FF4701292FAA2F2B2FA82F221FA02F22F
:1019A4001049885C0D4AD26A02F00F020F2191FAA5
:1019B400A1F1B1FA81F1CA400B498A5C13F4803F6A
:1019C40005D0074BB3FBF2F300FB03F07047044B65
:1019D400B3FBF2F300FB03F0704700BF00100240BA
:1019E40000127A008C2200089C220008002800F0D3
:1019F400BD8070B50446614B1B6803F007038B423E
:101A04000BD25E4A136823F007030B431360136879
:101A140003F007038B4240F0AB80236813F0020FFE
:101A240006D0574A536823F0F003A0680343536079
:101A34000D46236813F0010F5AD06368012B2DD093
:101A4400022B40D0022292FAA2F24D4A10680222DE
:101A540092FAA2F2B2FA82F202F01F02012101FA12
:101A640002F2104200F0868045494A6822F00302DF
:101A740013434B60FFF778FC0646414B5B6803F069
:101A84000C036268B3EB820F32D0FFF76DFC801B4E
:101A940041F288339842F0D9032066E04FF40032D3
:101AA40092FAA2F2364A10684FF4003292FAA2F285
:101AB400B2FA82F202F01F02012101FA02F202429A
:101AC400D2D1012051E04FF0007292FAA2F22C4AD6
:101AD40010684FF0007292FAA2F2B2FA82F202F0A7
:101AE4001F02012101FA02F21042BDD101203CE0A3
:101AF400224B1B6803F00703AB420AD91F4A136841
:101B040023F007032B431360136803F00703AB426E
:101B140032D1236813F0040F06D0194A536823F412
:101B2400E063E1680B435360236813F0080F07D0A8
:101B3400134A536823F46053216943EAC103536091
:101B4400FFF71CFF0E4B5B6803F0F003F02292FAE0
:101B5400A2F2B2FA82F2D3400A4AD35CD8400A4BCA
:101B640018600020FFF7BCFB002070BD0120704707
:101B74000120FAE70120F8E70120F6E700200240FF
:101B840000100240AC22000808000020014B186835
:101B9400704700BF0800002008B5FFF7F7FF074BA8
:101BA4005B6803F4E0634FF4E06292FAA2F2B2FAE3
:101BB40082F2D340024AD35CD84008BD00100240F0
:101BC400BC22000808B5FFF7E1FF074B5B6803F48C
:101BD40060534FF4605292FAA2F2B2FA82F2D34006
:101BE400024AD35CD84008BD00100240BC22000861
:101BF400F0B583B00446036813F4803F48D0A14B8A
:101C0400DB6913F0805F40F022819E4BDA6942F079
:101C14008052DA61DB6903F080530193019B012553
:101C2400994B1B6813F4807F00F01381954B1B6A5A
:101C340013F4407322D0626802F440729A421DD0B9
:101C44009048016A21F440764FF4803393FAA3F26A
:101C5400B2FA82F28D4F3A4492004FF0010CC2F86E
:101C640000C093FAA3F3B3FA83F33B449B0000222E
:101C74001A60066211F0010F40F00081814A136A74
:101C840023F4407361680B431362002D40F02381F9
:101C9400236813F0010F06D07A4A136B23F0030371
:101CA400A1680B431363236813F0020F06D0754A2F
:101CB400136B23F44033E1680B431363236813F07D
:101CC400040F06D06F4A136B23F4402321690B439E
:101CD4001363236813F0200F06D06A4A136B23F0B2
:101CE4001003E1690B431363236813F4003F06D028
:101CF400644A536823F48003616D0B435360236883
:101D040013F0400F06D05F4A136B23F02003216ABF
:101D14000B431363236813F4802F06D0594A136BC3
:101D240023F04003616A0B431363236813F0080F25
:101D340006D0544A136B23F4401361690B431363B5
:101D4400236813F0100F06D04E4A136B23F440039C
:101D5400A1690B431363236813F4007F06D0494A37
:101D6400536823F40003216B0B435360236813F07F
:101D7400800F06D0434AD36A23F4F873A16A0B4355
:101D8400D362236813F4807F06D03E4AD36A23F4D7
:101D94007853E16A0B43D362236813F4805F06D05F
:101DA400384A136B23F48073616B0B43136323680A
:101DB40013F4005F06D0334A136B23F40073216CD1
:101DC4000B431363236813F4801F06D02D4A136B4F
:101DD40023F08073A16B0B431363236813F4001F78
:101DE40006D0284A136B23F00073E16B0B43136393
:101DF400236813F4800F06D0224A136B23F4806304
:101E0400616C0B431363236813F4000F06D01D4A5F
:101E1400136B23F40063A16C0B431363236813F067
:101E2400807F06D0174A136B23F40053E16C0B43F5
:101E34001363236813F0007F54D0124A136B23F406
:101E44000043216D0B431363002003B0F0BD002554
:101E5400E6E60D4A136843F480731360FFF784FACF
:101E64000646094B1B6813F4807F7FF4DFAEFFF74F
:101E74007BFA801B6428F4D90320E6E7FFF774FAA1
:101E840006461BE0001002400070004000819010E4
:101E9400154B196A022393FAA3F3B3FA83F303F0FD
:101EA4001F03012202FA03F30B427FF4E7AEFFF7AC
:101EB4005BFA801B41F28833984211D8022393FACB
:101EC400A3F293FAA3F3002BE2D1022393FAA3F330
:101ED400054B596ADEE7D36923F08053D361D7E613
:101EE4000320B2E70020B0E700100240F0B482B053
:101EF400002336E0062400E00024B4403C430235CD
:101F0400614E46F82540614C2568D44304EA050631
:101F14004F6817F4803F01D042EA05065B4D2E60FE
:101F24006D6804EA05064F6817F4003F01D042EAE1
:101F34000506564D6E60AD6804EA05064F6817F451
:101F4400801F01D042EA0506504DAE60ED682C407A
:101F54004E6816F4001F01D042EA05044B4AD460CF
:101F640001330A6832FA03F400F08B8001249C40A8
:101F74002240F5D04D68022D01D0122D10D1DE087B
:101F8400083650F826C003F00705AF000F25BD4002
:101F94002CEA050C0D69BD4045EA0C0540F82650B5
:101FA40006685F000325BD40ED4305EA060C4E6854
:101FB40006F00306BE4046EA0C0606604E6806F1CB
:101FC400FF3CBCF1010F03D9112E01D0122E10D108
:101FD400866805EA060CCE68BE4046EA0C068660B2
:101FE400466826EA04044E68C6F300169E4026435B
:101FF4004660C46825408C68BC402C43C4604C686F
:1020040014F0805FACD0224CA56945F00105A561B0
:10201400A46904F001040194019C9D08AE1C1A4CAF
:1020240054F8267003F00304A6000F24B44027EAF2
:102034000407B0F1904F3FF45FAF164CA04216D0A6
:1020440004F58064A04214D004F58064A04212D048
:1020540004F58064A04210D004F58064A0420ED040
:1020640004F58064A0423FF445AF072445E701240A
:1020740043E7022441E703243FE704243DE7052422
:102084003BE702B0F0BC704700000140000401408F
:1020940000100240000400480AB181617047816267
:1020A40070470000074AD36823F4E0631B041B0C49
:1020B400000200F4E060184340F0BF6040F40030D8
:1020C400D060704700ED00E030B4174BDB68C3F319
:1020D4000223C3F10704042C28BF04241D1D062D6C
:1020E40001D9033B00E000234FF0FF3505FA04F467
:1020F40021EA0401994005FA03F322EA0303194390
:10210400002809DB0901C9B200F1604000F5614013
:1021140080F8001330BC704700F00F000901C9B209
:10212400024B1954F6E700BF00ED00E014ED00E0A7
:102134000138B0F1807F0AD2064B5860064AF0217C
:1021440082F823100020986007221A60704701204B
:10215400704700BF10E000E000ED00E01549D1F841
:10216400883043F47003C1F88830134B1A6842F086
:1021740001021A605868114A02405A601A6822F033
:10218400847222F480321A601A6822F480221A605F
:102194005A6822F4FE025A60DA6A22F00F02DA6206
:1021A400186B074A02401A6300229A604FF00063DA
:1021B4008B60704700ED00E0001002400CC07FF817
:1021C400CCFC00FFDFF834D0002103E00C4B5B585B
:1021D400435004310B480C4B42189A42F6D30B4A35
:1021E40002E0002342F8043B094B9A42F9D3FFF77B
:1021F400B5FF00F011F8FEF721F8FEE7000001201A
:10220400CC220008000000200C0000200C0000205C
:1022140000010020FEE7000070B50D4D0D4C641B5D
:10222400A4100026A64209D10B4D0C4C00F020F856
:10223400641BA4100026A64205D170BD55F8043BCA
:1022440098470136EEE755F8043B98470136F2E724
:10225400C4220008C4220008C4220008C8220008BE
:1022640002440346934200D1704703F8011BF9E787
:10227400F8B500BFF8BC08BC9E467047F8B500BF6F
:08228400F8BC08BC9E4670473F
:10228C0002030405060708090A0B0C0D0E0F1010AB
:10229C000102030405060708090A0B0C0D0E0F10AA
:1022AC0000000000000000000102030406070809FA
:0822BC00000000000102030410
:0422C400B901000854
:0422C8009501000874
:0C22CC00010000001000000000127A0069
:04000005080021C905
:00000001FF
