:020000040800F2
:1000000000000120015F0008515F0008515F0008F7
:10001000515F0008515F0008515F000800000000B8
:10002000000000000000000000000000515F000818
:10003000515F000800000000515F0008D14A00082D
:10004000515F0008515F0008515F0008515F0008D0
:10005000515F0008515F0008515F0008515F0008C0
:10006000515F0008515F0008515F0008E14A000835
:10007000ED4A0008F94A0008054B0008114B00083A
:10008000515F0008515F0008515F0008515F000890
:10009000515F0008515F0008515F0008515F000880
:1000A000515F0008515F0008515F0008515F000870
:1000B000515F0008515F0008515F0008515F000860
:1000C000515F0008515F0008515F0008515F000850
:1000D000515F00081D4B0008515F0008294B0008C4
:1000E000515F0008515F0008515F0008515F000830
:1000F000515F0008515F0008515F0008515F000820
:10010000515F00080000000000000000515F00087F
:10011000515F0008515F0008515F0008515F0008FF
:10012000354B0008414B0008515F0008515F000843
:100130004D4B0008515F0008000000000000000067
:10014000515F0008515F0008515F00080000000087
:10015000000000000000000000000000000000009F
:10016000515F0008515F0008515F0008515F0008AF
:10017000515F0008515F0008515F0008515F00089F
:10018000515F0008515F00080000000000000000FF
:04019000515F0008B3
:1001A00010B5054C237833B9044B13B10448AFF3B1
:1001B00000800123237010BDE0010020000000003A
:1001C000AC82000808B5034B1BB103490348AFF3E9
:1001D000008008BD00000000E4010020AC8200089F
:1001E000034613F8012B002AFBD1181A0138704777
:1001F00001F0FF01102A2BDB10F0070F08D010F8D8
:10020000013B013A8B422DD010F0070F42B3F6D1DB
:10021000F0B441EA012141EA014122F007047FF0F4
:1002200000070023F0E80256083C85EA010586EA4B
:10023000010685FA47F5A3FA87F586FA47F6A5FA87
:1002400087F68EB9EED1F0BC01F0FF0102F0070293
:1002500032B110F8013B013A83EA010313B1F8D13E
:100260000020704701387047002D06BF354603381F
:10027000073815F0010F07D1013015F4807F02BF58
:10028000013015F4C03F0130F0BC0138704700BFA9
:1002900081F0004102E000BF83F0004330B54FEA37
:1002A00041044FEA430594EA050F08BF90EA020FA4
:1002B0001FBF54EA000C55EA020C7FEA645C7FEA37
:1002C000655C00F0E2804FEA5454D4EB5555B8BF5A
:1002D0006D420CDD2C4480EA020281EA030382EACB
:1002E000000083EA010180EA020281EA0303362D5D
:1002F00088BF30BD11F0004F4FEA01314FF4801C30
:100300004CEA113102D0404261EB410113F0004F41
:100310004FEA03334CEA133302D0524263EB4303F8
:1003200094EA050F00F0A780A4F10104D5F1200E96
:100330000DDB02FA0EFC22FA05F2801841F10001F1
:1003400003FA0EF2801843FA05F359410EE0A5F1C5
:1003500020050EF1200E012A03FA0EFC28BF4CF0F6
:10036000020C43FA05F3C01851EBE37101F00045AC
:1003700007D54FF0000EDCF1000C7EEB00006EEBB9
:100380000101B1F5801F1BD3B1F5001F0CD3490843
:100390005FEA30004FEA3C0C04F101044FEA44529A
:1003A00012F5800F80F09A80BCF1004F08BF5FEA21
:1003B000500C50F1000041EB045141EA050130BD01
:1003C0005FEA4C0C404141EB010111F4801FA4F1A4
:1003D0000104E9D191F0000F04BF01460020B1FAF9
:1003E00081F308BF2033A3F10B03B3F120020CDA31
:1003F0000C3208DD02F1140CC2F10C0201FA0CF00F
:1004000021FA02F10CE002F11402D8BFC2F1200C73
:1004100001FA02F120FA0CFCDCBF41EA0C01904029
:10042000E41AA2BF01EB0451294330BD6FEA040472
:100430001F3C1CDA0C340EDC04F11404C4F120025D
:1004400020FA04F001FA02F340EA030021FA04F36F
:1004500045EA030130BDC4F10C04C4F1200220FAC6
:1004600002F001FA04F340EA0300294630BD21FA04
:1004700004F0294630BD94F0000F83F4801306BFCA
:1004800081F480110134013D4EE77FEA645C18BFBE
:100490007FEA655C29D094EA050F08BF90EA020F55
:1004A00005D054EA000C04BF1946104630BD91EA4D
:1004B000030F1EBF0021002030BD5FEA545C05D150
:1004C0004000494128BF41F0004130BD14F580048F
:1004D0003CBF01F5801130BD01F0004545F0FE4103
:1004E00041F470014FF0000030BD7FEA645C1ABF38
:1004F000194610467FEA655C1CBF0B46024650EA6F
:10050000013406BF52EA033591EA030F41F400219A
:1005100030BD00BF90F0000F04BF0021704730B520
:100520004FF4806404F132044FF000054FF00001F5
:1005300050E700BF90F0000F04BF0021704730B5B6
:100540004FF4806404F1320410F0004548BF40428B
:100550004FF000013EE700BF42004FEAE2014FEAE0
:1005600031014FEA02701FBF12F07F4393F07F4FBB
:1005700081F06051704732F07F4208BF704793F0BE
:100580007F4F04BF41F40021704730B54FF46074D1
:1005900001F0004521F000411CE700BF50EA0102D4
:1005A00008BF704730B54FF000050AE050EA01027D
:1005B00008BF704730B511F0004502D5404261EBED
:1005C00041014FF4806404F132045FEA915C3FF42E
:1005D000D8AE4FF003025FEADC0C18BF03325FEACB
:1005E000DC0C18BF033202EBDC02C2F1200300FA7C
:1005F00003FC20FA02F001FA03FE40EA0E0021FAA1
:1006000002F11444BDE600BF70B54FF0FF0C4CF48E
:10061000E06C1CEA11541DBF1CEA135594EA0C0F40
:1006200095EA0C0F00F0DEF82C4481EA030621EA7B
:100630004C5123EA4C5350EA013518BF52EA0335B6
:1006400041F4801143F4801338D0A0FB02CE4FF068
:100650000005E1FB02E506F00042E0FB03E54FF098
:100660000006E1FB03569CF0000F18BF4EF0010E90
:10067000A4F1FF04B6F5007F64F5407404D25FEA8C
:100680004E0E6D4146EB060642EAC62141EA55513F
:100690004FEAC52040EA5E504FEACE2EB4F1FD0C81
:1006A00088BFBCF5E06F1ED8BEF1004F08BF5FEAFF
:1006B000500E50F1000041EB045170BD06F00046B1
:1006C00046EA010140EA020081EA0301B4EB5C045E
:1006D000C2BFD4EB0C0541EA045170BD41F4801156
:1006E0004FF0000E013C00F3AB8014F1360FDEBF7B
:1006F000002001F0004170BDC4F10004203C35DA57
:100700000C341BDC04F11404C4F1200500FA05F3D9
:1007100020FA04F001FA05F240EA020001F000427A
:1007200021F0004110EBD37021FA04F642EB0601F0
:100730005EEA430E08BF20EAD37070BDC4F10C041A
:10074000C4F1200500FA04F320FA05F001FA04F2DE
:1007500040EA020001F0004110EBD37041F10001CA
:100760005EEA430E08BF20EAD37070BDC4F12005D5
:1007700000FA05F24EEA020E20FA04F301FA05F23D
:1007800043EA020321FA04F001F0004121FA04F2E5
:1007900020EA020000EBD3705EEA430E08BF20EAB5
:1007A000D37070BD94F0000F0FD101F000464000EF
:1007B00041EB010111F4801F08BF013CF7D041EA71
:1007C000060195F0000F18BF704703F00046520075
:1007D00043EB030313F4801F08BF013DF7D043EA46
:1007E0000603704794EA0C0F0CEA135518BF95EAFC
:1007F0000C0F0CD050EA410618BF52EA4306D1D183
:1008000081EA030101F000414FF0000070BD50EAA1
:10081000410606BF1046194652EA430619D094EA2B
:100820000C0F02D150EA013613D195EA0C0F05D115
:1008300052EA03361CBF104619460AD181EA030169
:1008400001F0004141F0FE4141F470014FF0000021
:1008500070BD41F0FE4141F4780170BD70B54FF0BC
:10086000FF0C4CF4E06C1CEA11541DBF1CEA13553C
:1008700094EA0C0F95EA0C0F00F0A7F8A4EB05041E
:1008800081EA030E52EA03354FEA013100F0888015
:100890004FEA03334FF0805545EA131343EA1263DE
:1008A0004FEA022245EA111545EA10654FEA002693
:1008B0000EF000419D4208BF964244F1FD0404F54C
:1008C000407402D25B084FEA3202B61A65EB0305A8
:1008D0005B084FEA32024FF480104FF4002CB6EB65
:1008E000020E75EB030E22BFB61A754640EA0C00E5
:1008F0005B084FEA3202B6EB020E75EB030E22BF25
:10090000B61A754640EA5C005B084FEA3202B6EB65
:10091000020E75EB030E22BFB61A754640EA9C0024
:100920005B084FEA3202B6EB020E75EB030E22BFF4
:10093000B61A754640EADC0055EA060E18D04FEAB2
:10094000051545EA16754FEA06164FEAC30343EA52
:1009500052734FEAC2025FEA1C1CC0D111F4801F1F
:100960000BD141EA00014FF000004FF0004CB6E718
:1009700011F4801F04BF01430020B4F1FD0C88BFB7
:10098000BCF5E06F3FF6AFAEB5EB030C04BFB6EBC2
:10099000020C5FEA500C50F1000041EB045170BDB5
:1009A0000EF0004E4EEA113114EB5C04C2BFD4EBE2
:1009B0000C0541EA045170BD41F480114FF0000E66
:1009C000013C90E645EA060E8DE60CEA135594EAE2
:1009D0000C0F08BF95EA0C0F3FF43BAF94EA0C0FE5
:1009E0000AD150EA01347FF434AF95EA0C0F7FF45A
:1009F00025AF104619462CE795EA0C0F06D152EAAE
:100A000003353FF4FDAE1046194622E750EA410691
:100A100018BF52EA43067FF4C5AE50EA41047FF4A2
:100A20000DAF52EA43057FF4EBAE12E74FF0FF3C07
:100A300006E000BF4FF0010C02E000BF4FF0010CD8
:100A40004DF804CD4FEA410C7FEA6C5C4FEA430C51
:100A500018BF7FEA6C5C1BD001B050EA410C0CBFA0
:100A600052EA430C91EA030F02BF90EA020F002002
:100A7000704710F1000F91EA030F58BF994208BF69
:100A800090422CBFD8176FEAE37040F00100704726
:100A90004FEA410C7FEA6C5C02D150EA013C07D17D
:100AA0004FEA430C7FEA6C5CD6D152EA033CD3D0C8
:100AB0005DF8040B704700BF8446104662468C46C2
:100AC0001946634600E000BF01B5FFF7B7FF0028F5
:100AD00048BF10F1000F01BD4DF808EDFFF7F4FF1E
:100AE0000CBF012000205DF808FB00BF4DF808EDA9
:100AF000FFF7EAFF34BF012000205DF808FB00BFCC
:100B00004DF808EDFFF7E0FF94BF012000205DF8ED
:100B100008FB00BF4DF808EDFFF7CEFF94BF0120A2
:100B200000205DF808FB00BF4DF808EDFFF7C4FF9B
:100B300034BF012000205DF808FB00BF4FEA410CE4
:100B40007FEA6C5C02D150EA013C0AD14FEA430CC7
:100B50007FEA6C5C02D152EA033C02D14FF0000004
:100B600070474FF0010070474FEA410212F5001242
:100B700015D211D56FF47873B3EB625212D94FEAE4
:100B8000C12343F0004343EA505311F0004F23FACE
:100B900002F018BF404270474FF00000704750EA23
:100BA000013005D111F0004008BF6FF000407047E0
:100BB0004FF00000704700BF4FEA4102B2F1E0433E
:100BC00024BFB3F5001CDCF1FE5C0DD901F0004C34
:100BD0004FEAC0024CEA5070B2F1004F40EB830084
:100BE00008BF20F00100704711F0804F21D113F1B0
:100BF0003872BCBF01F00040704741F480114FEAE9
:100C00005252C2F11802C2F1200C10FA0CF320FA71
:100C100002F018BF40F001004FEAC1234FEAD3238E
:100C200003FA0CFC40EA0C0023FA02F34FEA4303F8
:100C3000CCE77FEA625307D150EA01331EBF4FF081
:100C4000FE4040F44000704701F0004040F0FE409C
:100C500040F40000704700BF7BB972B90029BEBFE5
:100C600000204FF0004106E008BF00281CBF6FF0D5
:100C700000414FF0FF3000F0A7B9ADF1080C6DE96D
:100C800004CE002909DB002B1ADB00F035F8DDF873
:100C900004E0DDE9022304B07047404261EB41010A
:100CA000002B1BDB00F028F8DDF804E0DDE902236F
:100CB00004B0404261EB4101524263EB4303704791
:100CC000524263EB430300F017F8DDF804E0DDE97E
:100CD000022304B0404261EB41017047524263EB92
:100CE000430300F009F8DDF804E0DDE9022304B075
:100CF000524263EB430370472DE9F047089E0446D8
:100D00008846002B40F085808A42154648D9B2FAC1
:100D100082F24AB1C2F1200701FA02F320FA07F782
:100D2000954047EA030894404FEA154E230CB8FB60
:100D3000FEF71FFA85FC0EFB178843EA084307FB02
:100D40000CF1994209D9EB1807F1FF3080F0E380EC
:100D5000994240F2E080023F2B445B1AA4B2B3FBFD
:100D6000FEF00EFB103344EA034400FB0CFCA445E8
:100D700009D92C1900F1FF3380F0CB80A44540F253
:100D8000C88002382C4440EA0740A4EB0C0400273A
:100D90001EB1D4400023C6E900433946BDE8F087C0
:100DA000002A53D0B2FA82F2002A40F0B680491BE2
:100DB0004FEA154E1FFA85F80127B1FBFEFC230C04
:100DC0000EFB1C1143EA014308FB0CF1994207D9C1
:100DD000EB180CF1FF3002D2994200F2EC8084460D
:100DE000591AA3B2B1FBFEF00EFB101443EA0444FF
:100DF00008FB00F8A04507D92C1900F1FF3302D2F7
:100E0000A04500F2DC801846A4EB080440EA0C4040
:100E1000BEE78B4208D9002E78D00027C6E9000132
:100E200038463946BDE8F087B3FA83F77FB98B427D
:100E300002D3824200F2BD80841A61EB03030120D9
:100E40009846002EA9D0C6E90048A6E7FFDEC7F104
:100E50002005BB4022FA05FC4CEA030C01FA07F41A
:100E600020FA05F821FA05F34FEA1C4E48EA04047B
:100E7000B3FBFEF9210C0EFB19331FFA8CF841EA83
:100E8000034309FB08FA9A4502FA07F200FA07F150
:100E90000BD91CEB030309F1FF3080F088809A45E1
:100EA00040F28580A9F102096344A3EB0A03A4B2CE
:100EB000B3FBFEF00EFB103344EA034400FB08F8DA
:100EC000A04508D91CEB040400F1FF336BD2A04508
:100ED00069D90238644440EA0940A4EB0804A0FB45
:100EE00002894C45C6464B4654D351D0002E69D09A
:100EF000B1EB0E0264EB030404FA05F522FA07F3E2
:100F0000FC401D43C6E90054002746E737463046FB
:100F100043E7184637E707461FE7C2F1200320FAE8
:100F200003F7954001FA02F021FA03F34FEA154E58
:100F30003843010CB3FBFEF71FFA85F80EFB17339D
:100F400041EA034107FB08F38B4204FA02F407D994
:100F5000691807F1FF3C28D28B4226D9023F294469
:100F6000CB1A81B2B3FBFEF00EFB103341EA034112
:100F700000FB08F38B4207D9691800F1FF3C10D23F
:100F80008B420ED902382944C91A40EA074714E7B0
:100F90004145ABD2B8EB020E69EB0C0201381346A7
:100FA000A4E76046F0E7184695E76746D8E781462C
:100FB0007BE7384645E7ACF1020C2B4410E70238DA
:100FC0002C4421E73746E8E6704700BF30B54F4B69
:100FD0004FF0A0444FF400304FF400624FF4007122
:100FE0008BB007251C60586008241A63D962002260
:100FF000012118461D625C619A605A62DA609A614A
:101000009A631961D961596301F0B6FF00284FD185
:10101000002301A93D48019302F0E6FB002870D1AE
:1010200000230122072404A938480993CDE90422AA
:10103000CDE90733069402F029FA00285CD1022397
:1010400004A93248CDE9043302F020FA00284ED139
:101050000622032304A92D48CDE9042302F016FA41
:1010600000283FD10822042304A92848CDE90423FD
:1010700002F00CFA88BB0922052304A92348CDE914
:10108000042302F003FA18BB0E22062304A91F480A
:10109000CDE9042302F0FAF9A8B91022072304A924
:1010A0001A48CDE9042302F0F1F930B90BB030BD94
:1010B0006521174803F00AFDAAE7B021144803F0A0
:1010C00005FD0BB030BDA721114803F0FFFCE4E79C
:1010D0009E210F4803F0FAFCD6E795210C4803F057
:1010E000F5FCC8E78C210A4803F0F0FCBAE783213D
:1010F000074803F0EBFCABE77A21054803F0E6FC78
:101100009DE76D21024803F0E1FC89E710360020DD
:10111000C882000830B5494B494A1A604FF4003084
:101120004FF400624FF4007187B00725082458601F
:101130001A63D9620022012118461D625C619A601F
:101140005A62DA609A619A631961D961596301F050
:1011500013FF002846D1032000230124072200901A
:10116000694636480194CDE903330593029202F0B3
:101170008DF900285CD10122022369462F48CDE970
:10118000002302F083F900284DD1032369462B4840
:10119000CDE9003302F07AF900283FD1052204237B
:1011A00069462648CDE9002302F070F988BB072282
:1011B000052369462148CDE9002302F067F918BBF1
:1011C0000C22062369461D48CDE9002302F05EF992
:1011D000A0B9072369461948019302F057F930B9BD
:1011E00007B030BDCB21174803F070FCB3E740F2E5
:1011F0000D11144803F06AFC07B030BD40F2051130
:10120000104803F063FCE4E7FC210E4803F05EFCA9
:10121000D6E7F3210B4803F059FCC8E7EA21094857
:1012200003F054FCBAE7E121064803F04FFCACE7B9
:10123000D821044803F04AFC9DE700BF7835002020
:1012400000010050C882000830B5514B514A1A6065
:101250004FF400304FF400624FF400718BB007255B
:10126000082458601A63D9620022012118461D62C1
:101270005C619A605A62DA609A619A631961D96115
:10128000596301F079FE00284AD1002301A94048A2
:10129000019302F0A9FA002873D100230122072448
:1012A00004A93B480993CDE90422CDE9073306940C
:1012B00002F0ECF800285ED10C22022304A9344885
:1012C000CDE9042302F0E2F800284ED105220323E1
:1012D00004A92F48CDE9042302F0D8F800283ED114
:1012E0001222042304A92A48CDE9042302F0CEF8EF
:1012F00078BB052304A92648059302F0C7F810BB64
:10130000062304A92248059302F0C0F8A8B90723D0
:1013100004A91F48059302F0B9F838B90BB030BDE5
:1013200040F229111C4803F0D1FBAEE740F27111E5
:10133000194803F0CBFB0BB030BD40F269111648E1
:1013400003F0C4FBE3E740F26111134803F0BEFB76
:10135000D6E740F25911104803F0B8FBC9E74FF443
:10136000A8710D4803F0B2FBBAE740F247110A48F2
:1013700003F0ACFBAAE74FF49F71074803F0A6FB0C
:101380009AE740F23111044803F0A0FB85E700BF63
:101390006436002000040050C882000830B54D4B70
:1013A0004D4A1A604FF400304FF480624FF40071E0
:1013B00087B00725082458601A63D96200220121EA
:1013C00018461D625C619A605A62DA609A619A639B
:1013D0001961D961596301F0CFFD002849D103207B
:1013E000002301240722009069463A480194CDE980
:1013F00003330593029202F049F8002864D10422D5
:10140000022369463348CDE9002302F03FF8002863
:1014100054D10522032369462E48CDE9002302F06A
:1014200035F8002844D10322042369462948CDE930
:10143000002302F02BF8A8BB0422052369462548A7
:10144000CDE9002302F022F830BB052206236946CD
:101450002048CDE9002302F019F8B8B90322072388
:1014600069461C48CDE9002302F010F838B907B0EE
:1014700030BD4FF4C671194803F028FBAFE740F2C6
:10148000CF11164803F022FB07B030BD4FF4E371D3
:10149000124803F01BFBE1E740F2BD110F4803F0D7
:1014A00015FBD2E74FF4DA710C4803F00FFBC3E7EA
:1014B00040F2AB11094803F009FBB4E74FF4D171D6
:1014C000064803F003FBA4E740F29911034803F038
:1014D000FDFA94E7FC36002000050050C8820008A1
:1014E000F0B50368B3F1A04F8BB0054648D08A4AE7
:1014F000934209D0894A934200F09C80884A9342E3
:1015000000F0D1800BB0F0BD864A13680133012B87
:1015100013607ED00026032712238348059305A974
:10152000CDE9067602F026FC102305A94FF0904085
:101530007E4C0593CDE9067602F01CFC042305A938
:101540007B480593CDE9067602F014FC794B2360C5
:1015500080204FF480774FF4806120224FF40053B5
:10156000E06020466660A660C4E90471C4E9062311
:1015700003F0F2FA002857D1EC6365620BB0F0BDBE
:10158000684A13680133012B136037D000260D23FE
:1015900003276548059305A9CDE9067602F0EAFB25
:1015A00005A94FF09040644C0796CDE9057702F00D
:1015B000E1FB4FF4006305A95D480593CDE906768C
:1015C00002F0D8FB5D4B236080204FF480774FF40E
:1015D000806120224FF40053E06020466660A660E0
:1015E000C4E90471C4E9062303F0B6FA0028C3D0A5
:1015F00040F20921524803F069FABDE7514B5A699C
:1016000042F080525A615B6903F080530193019B61
:10161000BCE74C4B5A6942F080525A615B6903F057
:1016200080530293029B75E740F23E21444803F049
:101630004DFAA1E7444A13680133012B136009D125
:10164000404B5A6942F000525A615B6903F0005303
:101650000393039B3D4C364842F2030203230026CA
:1016600005A90592CDE9063602F084FB384A2260CE
:1016700080234FF480704FF480612022E36020616A
:101680004FF4005320466660A660C4E90512E3618A
:1016900003F062FA00283FF46FAF4FF41A71284844
:1016A00003F014FA68E7284A13680133012B13602A
:1016B00009D1244B5A6942F000525A615B6903F028
:1016C00000530493049B234C19484FF450420323C6
:1016D000002605A90592CDE9063602F04BFB1E4A0D
:1016E000226080234FF480704FF480612022E360F9
:1016F00020614FF4005320466660A660C4E90512DD
:10170000E36103F029FA00283FF436AF40F292215A
:101710000B4803F0DBF92FE70001005000040050F4
:1017200000050050FC010020000800485037002050
:101730000004004808040240B836002008000240B7
:10174000C88200080010024000020020CC350020B2
:1017500058040240343500201C0402402DE9F84FA3
:10176000044604F0FFF942F20F7398420ED92F4B52
:101770009C4259D02E4B9C4254D02E4B9C4214BFBD
:10178000032402242C4B1B68A34201D0BDE8F88F30
:10179000002220214FF0904002F0FAFB274D032752
:1017A0004FF4AF6A41F26809A7F1030B00240BF56F
:1017B000835808F1080800260AFB06B235F818001D
:1017C00035F81210A219013600F0C8FA032EF3D131
:1017D0000334092C0BF1010BE9D13E4606EB090B52
:1017E000224635F81B0035F8161000F0B7FA06F55A
:1017F000AF6335F81B0035F81310621C023400F09B
:10180000ADFA0F2C06F10106E8D1073740F2BF23ED
:101810009F42C9D1012220214FF09040BDE8F84FEE
:1018200002F0B6BB0124ADE70024ABE71036002080
:101830007835002064360020C42D002004020020EA
:101840002DE9F84F044604F08DF942F20F739842E7
:101850000ED9304B9C425AD02F4B9C4255D02F4B27
:101860009C4214BF032402242D4B1B68A34201D0C9
:10187000BDE8F88F002220214FF0904002F088FB55
:10188000284D40F2BF274FF4AF6A41F26809A7F133
:10189000030B00240BF5835808F1080800260AFB07
:1018A00006B235F8180035F812103219013600F07A
:1018B00055FA032EF3D10334092C0BF1010BE9D1B6
:1018C0003E4606EB090B224635F81B0035F816108C
:1018D00000F044FA06F5AF6335F81B0035F8131035
:1018E000621C023400F03AFA0F2C06F10106E8D12E
:1018F000073740F27B539F42C9D1012220214FF08C
:101900009040BDE8F84F02F043BB0124ACE700244F
:10191000AAE700BF1036002078350020643600208A
:10192000C42D00200402002008B50021084801F061
:1019300067FD0021074801F063FD0021064801F022
:101940005FFD00210548BDE8084001F059BD00BF1A
:10195000103600207835002064360020FC36002048
:101960002DE9F0414FF42F53514ADFF86081514F78
:10197000514E524DC8210446514804F05FFF504873
:1019800002F06EFD404601F0F9FC384601F0F6FC2D
:10199000304601F0F3FC284601F0F0FC002CD8F8AA
:1019A00000C043D1DCF80C303C6830682A684549F7
:1019B00023F4406343F48063CCF80C30E36823F4F1
:1019C000406343F48063E360C36823F4406343F4FB
:1019D0008063C360D36823F4406343F480630320CF
:1019E000D36008600124204603F058FC142004F062
:1019F000BFF84FF4AF623449344801F013FC4FF4A0
:101A0000AF6233492B4801F00DFC4FF4AF6231490E
:101A1000294801F007FC4FF4AF622F49274801F035
:101A200001FC2046BDE8F04103F038BCDCF80C3086
:101A30003F6830682A68234923F440631DDB43F480
:101A40000063CCF80C30FB6823F4406343F400637C
:101A5000FB60C36823F4406343F40063C360D3684E
:101A600023F4406343F480630320D360086042F2B0
:101A70000F739C42A8BF1C46B5E743F48063CCF8C3
:101A80000C30FB6823F4406343F48063FB60C3685D
:101A900023F4406343F48063C360D36823F440635A
:101AA00043F400630220D36064420860DFE700BFB4
:101AB000D48200087835002064360020FC360020EF
:101AC000F8390020C42D0020040200201036002028
:101AD000F40C0020E4170020D4220020074A084B11
:101AE00090891A880A33801A1B8800EB80009B1AA1
:101AF000000190FBF3F01E30704700BF040200208D
:101B0000B8F7FF1F064B0749188841F2E65240F626
:101B1000E44303FB00F3885AB3FBF0F0704700BFC7
:101B2000BAF7FF1F040200202DE9F04F864E00EBAC
:101B3000400306EB0316354682460FCDA5B018AC20
:101B40000FC40FCD0FC495E80F0084E80F00DDE946
:101B500018890022209D86F82520DDE91E739DF856
:101B600084B0DDE91C01CDE90E89DDE91A899542D1
:101B7000CDE912894FEAD77240F3D980D619761091
:101B8000354495FBF7F5002BD6BFD4199C19A3EB70
:101B900064043A46FB17CDE9102394FBF7F4FFF7F2
:101BA0005BF805FB05F3B0EB030861EBE379DDE9D6
:101BB0001023DDE91201FFF74FF804FB04FC424655
:101BC000B0EB0C084B4661EBEC79002A73F1000195
:101BD000BCBF0022002310461946FEF7E7FC41EC8B
:101BE000100B06F023FA4046002879F10003B8BF35
:101BF00000204946B8BF00218DED120BFEF7D6FC40
:101C000041EC100B06F012FADDE9120153EC102B37
:101C10008DED160BFEF7F8FCDDE90E23012ACDE968
:101C2000140104FB05F473F100014FEAE4754FEA77
:101C3000E67974DB90190F99DDE9102341EB090176
:101C4000FFF70AF8001B61EB0501FEF7AFFCDDE9C9
:101C50001445CDE90E010022002320462946FEF757
:101C60003BFF002852D09FED367B8DED107B374B2C
:101C70004FEA8A042344BBF1000F186814BF3E26C4
:101C80003A26FEF769FC324B2344804618688946A1
:101C9000FEF762FC9DED107B04460D46DDE90E2348
:101CA000404649468DED0A7B0C97FEF7ADFC224677
:101CB0002B46FEF7A9FCDDE91423CDE908014046D7
:101CC0004946FEF7A1FC22462B46FEF79DFCDDE9C6
:101CD0001623CDE9060120462946FEF795FCDDE9ED
:101CE0001223CDE9040140464946FEF78DFC0096DB
:101CF000CDE902015346174A1748C82104F09EFD5A
:101D0000154825B0BDE8F04F02F0AABB22462B468D
:101D1000DDE90E01FEF7A2FDCDE91001A7E70E9B5C
:101D20000F99981B61EB0901DDE9102388E7D419AD
:101D3000A5EB6405661095FBF7F524E7AFF300808B
:101D40000000000000000000C82D00202C830008C7
:101D5000F082000868830008F839002040F6FF731D
:101D600099422DE9F0475ED0DFF820915400A51884
:101D70002D0109EB050AA0F2FF789AF82630002B16
:101D80004AD0012B17460E463AD0032B58D0E31900
:101D900009EB03133C4A9869904204DD0322C3F81F
:101DA000288083F8262004EB070C09EB0C1CDCE9E7
:101DB0000045A6F2FF710130DCE90223CCF81800DF
:101DC00001FB08F014EB0009DCE9046745EBE07A5D
:101DD00001FB01F0141843EBE07508FB08F0321822
:101DE00047EBE073DCE907600E444044CCE9009A1D
:101DF000CCE90245CCE90423CCE90760BDE8F087D3
:101E0000DAF8283003FB08F3002B16DA0223CAF8AD
:101E100028808AF82630BAE70123CAF828808AF891
:101E20002630BDE8F0875400DFF86090A31809EB76
:101E30000313012583F8245099E7CAF82880DDE7C9
:101E4000DAF8283003FB08F3002B02DBCAF82880FD
:101E50009DE7D646BEE80F00DFF834C06544AC46C7
:101E6000ACE80F00BEE80F00ACE80F009EE80F00E2
:101E70004FF0010E8CE80F0030220021504685F80B
:101E800025E004F08BF8C1E71648010098300020E7
:101E9000C82D002008B50E4B93F8B520B2B193F8C9
:101EA000E5209AB193F8152182B193F865326BB1B0
:101EB0000320FFF739FE0420FFF736FE0520FFF769
:101EC00033FE0C20BDE80840FFF72EBE08BD00BF62
:101ED000C82D002040F20D10FFF742BD2DE9F0475C
:101EE0008AB002F0CDFA002002F072FA3A4D3B4C73
:101EF0002870012002F06CFA332321466870012219
:101F00000020237002F0AEF901222146104602F0B3
:101F1000A9F908223249002002F0E8F908223149E3
:101F2000012002F0E3F908222D49002002F020FAF6
:101F30002C490120082202F01BFA294B2A4803F100
:101F40000804002113F8012B4A40A342815CF9D117
:101F5000264D03F108062970002213F8014B624058
:101F6000B342825CF9D11C4F1D4CDFF88C90DFF836
:101F70008C801F4E6A704FF0000A002914BFCC46B7
:101F8000C446E079A17962792379CDF804C094F848
:101F900003C00990A078089161780792069314F81D
:101FA000083B17F8012B0391CDE9040C0092029332
:101FB000104A5346C821304604F040FC304602F037
:101FC0004FFABAF1000F03D169784FF0010AD4E754
:101FD0000AB0BDE8F08700BF6833002098330020C6
:101FE000743300207C330020B88300086C33002059
:101FF000F8390020C0840008B8840008BC840008B8
:102000002DE9F04F594F85B003F0ACFD3B6842F22B
:102010002832C01A90421ED9554D2C78DCB9204682
:1020200002F0D6F9534F544E3870012002F0D0F927
:1020300044F2CC433380787031462046022202F0CD
:1020400011F931460222012002F00CF901232B7014
:1020500005B0BDE8F08F03F085FD3B6842F21072D9
:10206000C01A9042F4D9002002F0B2F9414D434C1D
:102070002870012002F0ACF9687003CC3E4EDFF806
:1020800018B1C6F801004FF0550CBE23C6F8051074
:102090000A223146002086F800C0737202F0E2F88E
:1020A00003CC0A22C6F80510C6F80100314601200B
:1020B00002F0D8F83249334E092201EB020A00201F
:1020C00002F014F909220AF10101012002F00EF9CF
:1020D000A8464FF00009AAF10905294609224846F9
:1020E00002F046F9002415F8013B5C405545345D8B
:1020F000F9D115F8090C15F8083C0BF8014BC00094
:1021000040EAC32000B2FEF715FA00224FF07E53DA
:10211000FEF77AFAFEF750FD1B4B1C4A18F801AB8C
:10212000002C08BF1A461446FEF716FACDF800A098
:10213000CDE9020101944B46154A1648C82104F026
:102140007DFB144805F10A0A02F08AF9B9F1000F83
:1021500008D0074B00221A7003F004FD386005B068
:10216000BDE8F08F4FF00109B5E700BF70330020E4
:102170006A33002068330020983300207433002035
:1021800084330020B8830008BC840008B8840008A9
:102190000C850008F83900206C3300201D4B00B579
:1021A0009A6942F001029A619B6983B003F00103CE
:1021B00001930620019B02F047FB002211466FF0BD
:1021C0000B0002F053FB002211466FF00A0002F0F0
:1021D0004DFB002211466FF0090002F047FB002280
:1021E00011466FF0040002F041FB002211466FF02F
:1021F000030002F03BFB002211466FF0010002F0E9
:1022000035FB002211464FF0FF3003B05DF804EBC0
:1022100002F02CBB0010024070B590F86940202CF1
:102220002DD151B34AB390F86840012C27D0044611
:102230000126006E84F86860134600252126A4F864
:102240005230E56684F869600E4E2268A4F850307A
:10225000E16486620C4EC6620C4E4563066328320A
:1022600002F0C0FC236840221A629A6884F8685021
:1022700042F0800228469A6070BD012070BD0220A5
:1022800070BD00BF91230008C12300081D24000871
:1022900090F86A30202B35D1002931D0002A2FD078
:1022A00090F86830012B2DD070B504460126406EA1
:1022B00084F8686000252226E566134684F86A6083
:1022C0000A46114E21686265A4F8583086620F4EA6
:1022D000C6620F4E45630663243102F083FC236817
:1022E00084F868501A6842F480721A609A6842F062
:1022F00001029A609A6842F0400228469A6070BDD6
:102300000120704702207047D12300080D240008E7
:102310001D24000890F86930212B10B5044605D023
:1023200094F86A30222B19D0002010BD03689A68F7
:102330001106F5D59A68006E22F080029A6010B1FD
:1023400002F090FC23681A68202122F0C0021A6073
:1023500084F8691094F86A30222BE5D123689A68D2
:102360005206E1D59A68606E22F040029A6010B180
:1023700002F078FC23681A6822F490721A609A6856
:10238000202122F001029A60002084F86A1010BD1A
:1023900008B50368406A1B6813F020030BD102687C
:1023A000A0F85230936823F080039360136843F0E1
:1023B0004003136008BD01F045FF08BD704700BF32
:1023C00008B5406AFFF7FAFF08BD00BF704700BFBD
:1023D00008B50368406A1B6813F0200311D1026836
:1023E000A0F85A30136823F480731360936823F0C5
:1023F000010393609368202123F04003936080F8E9
:102400006A10FFF7E3FF08BD704700BF08B5406AD8
:10241000FFF7FAFF08BD00BF704700BF406A08B56C
:1024200090F86930212B0AD090F86A30222B18D00E
:10243000C36E43F01003C366FFF7EEFF08BD0368E9
:102440009A681106F0D50022A0F852201A682021BF
:1024500022F0C0021A6080F8691090F86A30222BCE
:10246000E6D103689A685206E2D50022A0F85A2005
:102470001A6822F490721A609A68202122F00102F0
:102480009A6080F86A10D3E708B5436A0022A3F87F
:102490005A201846A3F85220FFF7BEFF08BD00BF20
:1024A00003688268834970B50569466904462A4312
:1024B000C0691D683243294002430A431A605968C3
:1024C000E568A269266A21F4405129435960996858
:1024D000794D21F4306132430A43AB429A6043D0D4
:1024E000764A93420FD0764A934200F0BE80754AF6
:1024F000934200F0CC80744A934224D0B0F5004F50
:102500005BD0012070BD02F5E632126B02F440325E
:10251000B2F5803F00F086801ED9B2F5003F5FD053
:10252000B2F5403FEAD1B0F5004F00F09580616808
:102530004A0802F5F40202F59052B2FBF1F292B2AF
:10254000DA60002070BD02F5E032126B02F4400246
:10255000B2F5800F66D040D8002ACFD1B0F5004F39
:1025600066D003F08DFA2EE0584A5949126B02F0FA
:102570000302B0F5004F8A5C16D0082AC1D801A129
:1025800051F822F063250008C32500082F25000814
:10259000032500082B260008032500080325000852
:1025A00003250008E7250008082A06D8DFE802F01E
:1025B0004025540543050505460000220120DA6048
:1025C00070BD03F075FAD4E9002300EB5300B0FBB3
:1025D000F3F080B2D060002070BDB2F5000F1DD1C5
:1025E000B0F5004F2AD061684A0802F50042B2FBFC
:1025F000F1F292B2DA60002070BD03F059FAD4E92A
:1026000000314A0802EB4000B0FBF1F0C0F3420297
:1026100020F00F00024392B20020D0E7B2F5400F45
:1026200081D06BE7B0F5004F05D003F01BF9CAE786
:1026300003F026FAE3E703F015F9E0E762685108D2
:1026400001F58031B1FBF2F1C1F3420221F00F013B
:102650000A4392B20020B2E761684A0802F57402A8
:1026600002F51052B2FBF1F1EEE702F5E432126B23
:1026700002F44022B2F5802FD4D07FF66DAFB2F5D0
:10268000002FADD0B2F5402F3FF44DAF36E702F545
:10269000E232126B02F44012B2F5801FC2D07FF614
:1026A0005BAFB2F5001F9BD0B2F5401F3FF43BAFCC
:1026B00024E700BFF369FFEF003801400044004009
:1026C00000480040004C0040005000400010024014
:1026D00038850008436ADA0710B406D50168846AB1
:1026E0004A6822F4003222434A609C0706D50168FA
:1026F000C46A4A6822F4803222434A60590706D5E8
:102700000168046B4A6822F4802222434A601A0757
:1027100006D50168446B4A6822F4004222434A60AD
:10272000DC0606D50168846B8A6822F48052224355
:102730008A60990606D50168C46B8A6822F4005243
:1027400022438A605A0609D50168046C4A6822F45B
:1027500080122243B4F5801F4A600BD01B0606D5B9
:102760000268816C536823F400230B4353605DF8C7
:10277000044B70474A68446C22F4C00222434A600A
:10278000ECE700BF2DE9F843089D80460F4616464A
:102790009946D8F8004001E06B1C0AD1E06937EA9D
:1027A00000030CBF01200020B042F5D00020BDE89E
:1027B000F8833DB103F0D6F9A0EB0900A842E8D9AF
:1027C000D8F80040236823F4D0732360A368202244
:1027D00023F001030021A360032088F8692088F812
:1027E000681088F86A20E2E72DE9F0410E4690F87B
:1027F0006910202982B041D19EB315468AB31F4685
:1028000090F86830012B044638D00023C3660122BB
:10281000212380F8682080F8693003F0A3F9A4F838
:1028200050508046A4F85250B4F85250ADB24346CE
:102830000022802120464DB3B4F852500097013D4C
:10284000ADB2A4F85250FFF79DFF3346D0B9A2684D
:102850002168B2F5805F08D013F8012B0A851E4667
:10286000E2E7012002B0BDE8F0812269002AF3D13D
:1028700036F8023BC3F308030B85D5E7022002B00C
:10288000BDE8F081032002B0BDE8F08100972A4640
:102890004021FFF777FF0028F4D1202384F8680057
:1028A00084F86930DEE700BF2DE9F0430E4690F86A
:1028B0006A10202983B04AD1002E44D01546002A40
:1028C00041D01F4690F86830012B04463FD00023CA
:1028D000C3660122222380F86A3080F8682003F062
:1028E00041F9A368A4F85850B3F5805F8146A4F875
:1028F0005A5030D0002B50D12369002B33D14FF0E8
:10290000FF08A4F85C80B4F85A50ADB24B460022E0
:1029100020212046002D34D0B4F85A500097013DB4
:10292000ADB2A4F85A50FFF72DFF334688BBA2681A
:102930002168B2F5805F1BD08A8C08EA020203F896
:10294000012B1E46DFE7012003B0BDE8F083022023
:1029500003B0BDE8F0832369002BD0D140F2FF180B
:10296000A4F85C80CFE74FF07F08A4F85C80CAE74A
:102970002269002AE0D18B8C08EA030326F8023B87
:10298000C1E7284684F8685084F86A1003B0BDE8AF
:10299000F083032003B0BDE8F083B3F1805F02D081
:1029A000B4F85C80AFE72369002BDCD04FF03F0820
:1029B000A4F85C80A7E700BF70B50446002582B08C
:1029C000C56603F0CFF823681A68120706460CD4D0
:1029D0001B685B0718D42023002084F8693084F832
:1029E000680084F86A3002B070BD6FF07E430093D7
:1029F0002A4603464FF400112046FFF7C3FE78B97C
:102A000023681B685B07E6D56FF07E420092334671
:102A100000224FF480012046FFF7B4FE0028DAD0F0
:102A2000032002B070BD00BF90B390F8693010B5BC
:102A300003F0FF02044633B32268242384F869308C
:102A4000136823F0010313602046FFF729FD0128D6
:102A500017D0636A8BB923685A6822F490425A608F
:102A60009A6822F02A029A601A6842F0010220460F
:102A70001A60BDE81040FFF79FBF2046FFF72AFE0F
:102A8000E9E7012010BD80F8682001F0EDFAD3E7F6
:102A900001207047002836D090F8693010B503F057
:102AA000FF02044653B32268242384F86930136874
:102AB00023F0010313602046FFF7F2FC01281BD02E
:102AC000636AABB923685A6822F490425A609A68E4
:102AD00022F022029A609A6842F008029A601A680C
:102AE00042F0010220461A60BDE81040FFF764BFC3
:102AF0002046FFF7EFFDE5E7012010BD80F86820D4
:102B000001F0B2FACFE70120704700BF90F86930BA
:102B1000212B1FD1B0F8523002689BB283B181687B
:102B2000C36CB1F5805F17D0591CC1641B78138545
:102B3000B0F85230013B9BB2A0F8523000207047F1
:102B4000116821F080011160116841F040011846C0
:102B5000116070470220704701690029E4D133F801
:102B6000021BC1F308011185C364E1E790F86A20F4
:102B7000222A38B503682DD19B8C8468B0F85C108C
:102B8000426D9BB2B4F5805F03EA01030BD0511C88
:102B900041651370B0F85A40013CA4B2A0F85A4005
:102BA00044B1002038BD0469002CF0D122F8023B6A
:102BB0004265EFE70268116821F490711160916835
:102BC000202521F00101916080F86A50FFF7FEFB9B
:102BD000204638BD9A6942F008029A61022038BD49
:102BE0000268D369116870B51E07044616D19D06A8
:102BF0000ED49568DE0201D568027BD41E0602D58C
:102C00000D0600F18480580601D54B0667D470BDCF
:102C10008E06EED5BDE87040FFF7A8BF956801F4B9
:102C2000907005F001063043E4D0DD0707D5C805F4
:102C300005D501201062E06E40F00100E0669D07BE
:102C400042D53EB102201062E06E40F00400E06622
:102C500058073DD4180709D501F02000304305D0AE
:102C600008201062E06E40F00800E066E06E002888
:102C7000CDD09D0601D5880657D4E36E190703D43D
:102C8000956815F040054BD0136823F490731360DA
:102C90009368202123F00103936084F86A109368FD
:102CA0005B0639D59368606E23F04003936000287B
:102CB00032D0204B436301F0EBFF0028A7D0606EB9
:102CC000BDE87040436B18475D07C3D5002EC1D0E7
:102CD00004201062E06E40F00200E066BAE713687C
:102CE000202123F040031360204684F8691001F08E
:102CF000A9FA70BD20234FF480111162204684F898
:102D0000693084F86A30BDE8704002F0DBBA2046D2
:102D1000BDE87040FFF7FABE2046FFF77DFB70BDAF
:102D20002046FFF779FBE56670BD2046FFF71EFFE2
:102D30002268A2E78924000803689A6812F00C0F41
:102D400001D100207047DA6870B596011AD4602965
:102D50009A684ED0560706D59A68940703D49A68A5
:102D600042F010029A600C2928D09A68120702D506
:102D70009A68960748D5602944D06C290CBF0C2569
:102D800004251CE0C269012AE1D18269012ADED151
:102D90001A68540606D4244A01E0013A39D0196869
:102DA0004906FAD540221A609A68520706D59A68F1
:102DB000940703D49A6842F010029A6004250446EE
:102DC00002F0D0FE064604E002F0CCFE801B0B2889
:102DD00005D823689B682B42F6D1002070BD636C38
:102DE00043F010036364A36C43F00103A364012068
:102DF00070BD110706D59A68920703D49A6842F00D
:102E000020029A600825DAE79A6842F020029A6068
:102E1000B1E7436C43F010034364836C43F0010358
:102E20008364012070BD00BF00940900406A436CB8
:102E300043F040034364836C43F00403836400F075
:102E400061BD00BF406AFEF789BC00BF436A5A6C8F
:102E500012F0500F18D15A6C196842F400725A647B
:102E6000CA6812F4406F0CD1DA6952B95A6C22F474
:102E700080725A645A6CD20403D45A6C42F0010234
:102E80005A641846FEF7DCBCDB6B1B6B184700BFAF
:102E9000026838B5936803F00303012B02D00023C6
:102EA000184638BD1168C907F9D5916801F00D01C0
:102EB000012909D0426C42F010024264826C42F057
:102EC00001028264184638BD9368032143F002036F
:102ED00093601160044602F045FE054623689B6836
:102EE000DB07DCD502F03EFE401B0228F6D9636CFE
:102EF00043F010036364A36C43F00103A364012354
:102F0000CEE700BF026838B5936803F00303012BD6
:102F100021D09168174B194209D0436C43F010033C
:102F20004364836C43F001038364012038BD9368DC
:102F300043F001039360044602F014FE054604E0EA
:102F400002F010FE401B02280AD823681B68DB072A
:102F5000F6D5002038BD1368D907DAD50020F9E787
:102F6000636C43F010036364A36C43F00103A36438
:102F7000012038BD3F00008070B596B0002300935B
:102F8000002800F09980436C13F01003044617D119
:102F9000456C002D00F0938002689168CD007FD5CC
:102FA000916888007CD4616CC90600D463B1636CFD
:102FB00023F0120343F010030120636416B070BDC8
:102FC000436CDB06F3D40268906810F00400EED185
:102FD000616C8C4B21F4817141F00201B2F1A04F80
:102FE00061647BD09A4277D0874B9A4200F09C80F4
:102FF00086498A4200F09980936803F00303012B0D
:1030000000F0EE8082498B68656823F440332B43DF
:103010008B60D4E90231A66BE5690B43616A012E2E
:1030200018BF4FF4805043EA4533012943EA0003B7
:1030300000F0B880E16A01290BD0734882425ED06B
:1030400000F5807082425AD021F48051206B0343F6
:103050000B43916811F00C0F0BD1D068616BA5691F
:1030600020F48040490020F0020041EA8531D06020
:103070000B43D5686749206929400B430128D36079
:1030800000F08880136B23F00F0313630020A0640B
:10309000636C23F0030343F00103636416B070BD57
:1030A000636C23F0120343F010036364A36C43F0DA
:1030B0000103A364636C7AE7012016B070BD8564D8
:1030C000C0E9135580F84050FEF70AFA2268936869
:1030D000DE002DD52B4660E74FF0A0434E4901930B
:1030E000936803F00303012B64D0019DAB6803F0E8
:1030F0000303012B87D12B68DD078AD483E7B1F561
:10310000307F6AD0B1F5807F6FD0B1F5E07F6FD0AE
:10311000B1F58A5F6FD0B1F5845F6FD0B1F5865F8E
:1031200008BF4FF4C07191E7384B01933849D7E796
:103130002046FFF7ADFE626C12F0100F03462268C6
:103140007FF42BAF00287FF428AF606C3349344DF7
:10315000096820F4885020F0020040F0020060640A
:10316000906820F040509060A5FB0101890C9068A8
:1031700001EB8101490040F080509060009100997E
:1031800000293FF40AAF0099013900910099002904
:10319000F9D102E7116B236A21F00F01013B0B43C8
:1031A000136373E775B9A16A013943EA414343F4F4
:1031B00080333FE71368DE073FF52BAF019D002DFD
:1031C00094D120E7616C21F0220141F0200161647B
:1031D000A16C41F00101A1642CE74FF4E07135E7E7
:1031E0001368DB073FF515AF0CE74FF430712DE79F
:1031F0004FF480712AE74FF4707127E74FF4A07104
:1032000024E700BF000100500004005000050050FA
:103210000007005007C0F0FF000300500800002026
:1032200083DE1B43F8B50468A5686D0778D490F871
:103230004050012D74D00123B4F1A04F80F84030EC
:103240000FD0474B9C420CD0464B9B6813F01F0F8E
:103250000CBF012400246CB980F8404001242046B2
:10326000F8BD414B9B6813F01F0F0CBF01240024D5
:10327000002CF1D017460E460546FFF743FE0446E4
:10328000002850D16B6C296823F4706323F001038C
:1032900043F48073B1F1A04F6B6456D0304B994228
:1032A00045D003F5C0639B68D80650D02F4A9142A1
:1032B0004DD06B6C43F480136B64D368C3F34063ED
:1032C0002BB16B6C23F4405343F480536B646B6CF1
:1032D000E86B274A13F480531CBFAB6C23F0060342
:1032E000AB644FF0000C234B85F840C08262C36290
:1032F000214A02631C230B604B6843F010034B60B0
:10330000CB6843F0010C32463B46C1F80CC040315B
:1033100001F068FC2A68936843F0040393609EE719
:1033200002242046F8BD002385F8403097E70E4B75
:103330009B68DB060BD06B6C4FF0A04243F480130C
:103340006B64D368C3F34063BAE7074B9B686B6C4D
:1033500023F480136B64CB689A01B8D5B1E700BF42
:10336000000100500007005000030050000400500E
:103370004D2E0008452E00082D2E000838B590F877
:103380004030012B2BD0012380F840306C210446C3
:10339000FFF7D2FC054620B1002384F840302846D0
:1033A00038BD2268E06BD36823F00103D36001F0DD
:1033B00059FC0546B0B92268536823F010035360E6
:1033C0002046FFF765FD05460028E5D1636C23F430
:1033D000885323F0010343F001036364DCE7022513
:1033E000284638BD636C226843F040036364536829
:1033F00023F0100353602046FFF74AFDCCE700BFDF
:10340000F8B590F84030012B30D0012780F840709B
:1034100004460D46FFF73CFD064610BB2368676473
:103420009A68BD4222F080429A6003D19A6842F0C5
:1034300080429A609A6842F000429A6002F092FBE1
:10344000054604E002F08EFB401B0A2811D82368D1
:103450009B68002BF6DB636C23F0030343F001034E
:103460006364002384F840303046F8BD02263046BD
:10347000F8BD636C23F0120343F010030022012611
:10348000636484F840203046F8BD00BFF0B40246C3
:1034900096B092F840300020012B009000F0D780C9
:1034A00013689C680120670782F8400035D4D1E991
:1034B000004505EB4500042D4FEA40007BD81D6B0D
:1034C0001F26864025EA060504FA00F02843186303
:1034D000986810F00C0F33D1092C04EB4405886870
:1034E00078D85E690727AF40A84026EA0705284339
:1034F0005861D1E90456D868C0F3C1004000013DCD
:1035000006FA00F04FEA846C032D00F23481DFE804
:1035100015F00E00F000E600DC00536C43F02003D1
:103520005364002382F8403016B0F0BC70471E6E22
:10353000A54D354045EA0C05284340F0004018668B
:10354000986800F0030001287CD0CD680120012D8F
:1035500000FA04F07FD0D3F8B01021EA0000C3F8DD
:10356000B000B3F1A04F4AD098498B4247D0102CFD
:10357000974947D0112C40F083808868C00144D41B
:10358000B3F1A04F914844D0834200F0EB809148C2
:1035900083423CD0904DAB423BD0986800F0030092
:1035A000012843D11868C00740D5536C43F020036D
:1035B00053640120B5E7092D16D90E2D7AD83C3871
:1035C0009D6B1F26864025EA060504FA00F0284375
:1035D00098637DE71E3D9E690727AF40A84026EA15
:1035E00007052843986184E71E385D6B1F268640D7
:1035F00025EA060504FA00F02843586368E7102C12
:103600007649B7D188680502BAD5002089E700F568
:1036100080700190986800F0030001287CD0019D23
:10362000A86800F00300012800F0A080102C7CD0D6
:10363000112C68D0122CE8D18B6843F480038B6086
:1036400000206EE71868C6077FF57FAFDDE7022030
:1036500016B0F0BC7047D3F8B0508E682843092CE0
:10366000C3F8B00012D904EB44011B39986907254F
:103670008D4020EA050006FA01F10143996170E7E7
:10368000122CC2D188684702BFD479E7611C01EBD4
:103690004101586907258D4006FA01F120EA050627
:1036A0003143B3F1A04F5961AFD048498B427FF409
:1036B0005EAFAAE75A38DD6B1F26864025EA06056D
:1036C00004FA00F02843D86302E7DE6E3E4D354031
:1036D00045EA0C05284340F00040D86630E79D6E6F
:1036E000394E2E4046EA0C06304340F000409866C2
:1036F00026E75D6E344F2F4047EA0C07384340F011
:10370000004058661CE7B3F1A04F7FF47EAF8B6892
:1037100043F080738B6078E71868C6073FF545AFC4
:10372000019D002D7FF47CAF80E7B3F1A04F7FF4C3
:103730006CAF2B4B2B4C1B688868A4FB03439B0C82
:1037400003EB83035B0040F4000088600093009B60
:10375000002B3FF45AAF009B013B0093009B002BD2
:10376000F9D152E74FF0A040019053E72868C50710
:103770003FF51BAF5AE7186E00F0F840604514D0D3
:10378000586E00F0F840604514D0986E00F0F84094
:10379000604514D0D86E00F0F84060457FF4D0AE9C
:1037A000D86E20F00040D866CAE6186E20F00040BF
:1037B0001866E5E7586E20F000405866E5E7986E19
:1037C00020F000409866E5E700F0FF83000100501C
:1037D0000007005000040050000500500003005096
:1037E0000800002083DE1B430268B2F1A04FF0B452
:1037F00003460E683F480DD0824209D000F5407064
:10380000824247D03C4CA24204D00120F0BC704719
:103810004FF0A04093F84040012C40D0946801251F
:10382000640783F8405009D55A6C42F020025A646C
:103830000120002283F84020F0BC704784686707AD
:10384000F2D4B2F1A04F43D02A4F2C4C2C4DBA42A7
:1038500018BF2C4636B3A7684D6827F4604C5F6BE1
:1038600045EA473545EA0C05A560956805F003056E
:10387000012D3BD0826802F00302012A2ED0A068FD
:103880008A6820F47161164321F00F010E43A6608F
:103890000020CEE793F840401748012CBED102200B
:1038A000F0BC7047A16821F46041A160916801F00B
:1038B0000301012916D0826802F00302012A09D00F
:1038C000A26822F4716222F00F02A2600020B0E729
:1038D0000A4CBFE70268D207DAD4F1E70268D007E2
:1038E000D6D4CCE71268D107D2D4E4E71268D50762
:1038F000C0D5CDE700010050000500500003005086
:1039000000070050704700BF03680122186A02FADE
:1039100001F120EA010010B418621A6A114C114337
:10392000A342196212D0104A93420FD002F54062AE
:1039300093420BD002F58062934207D002F5806279
:10394000934203D002F50062934203D15A6C42F4D1
:1039500000425A641A685DF8044B42F001020020EC
:103960001A607047002C014000340140FFF7CCBFC3
:10397000036830B41A6A204D012404FA01F122EAE6
:1039800001021A621A6A1A62AB4226D01B4A93429B
:1039900023D002F5406293421FD002F58062934229
:1039A0001BD002F58062934217D002F50062934269
:1039B00013D0196A41F21112114208D1196A40F26A
:1039C0004442114203D11A6822F001021A60012315
:1039D00080F83D3030BC00207047196A41F2111266
:1039E0001142E6D1196A40F244421142E1D15A6CC7
:1039F00022F400425A64DCE7002C0140003401400C
:103A0000704700BFF0B42B4E03684D698C680A689C
:103A1000B04235D0B0F1804F20D0A6F59436B042F8
:103A20001CD006F58066B04218D006F59636B04236
:103A300026D006F5E056B04236D01F4EB0420BD02D
:103A400006F58066B04207D006F58066B04203D026
:103A500006F50066B04209D1CE6816E04E68C96826
:103A600023F07003334323F440730B4323F08003AC
:103A70002B4303600123C4628262F0BC4361704740
:103A80004F68CE6823F070033B4323F44073334305
:103A900023F080032B430360C46282620B690363DB
:103AA00001234361F0BC70474E6823F07003334339
:103AB000C3E700BF002C014000400140C0B190F8B6
:103AC0003D3010B503F0FF02044663B121460223E6
:103AD00051F8040B84F83D30FFF794FF012384F87C
:103AE0003D30002010BD80F83C2001F0C1FBEDE727
:103AF0000120704708B390F83D3070B503F0FF0225
:103B000004460D46A3B12146022351F8040B84F864
:103B10003D30FFF777FF23681A6822F008021A6029
:103B20001A6801262A431A60002084F83D6070BD9F
:103B300080F83C20FFF764FFE5E70120704700BFF5
:103B4000F0B4046A8F680E681C4D24F0010404620E
:103B5000036A4468826922F4803223F0020322F06F
:103B60007302A84243EA070342EA060213D005F5AE
:103B70000065A8420FD005F54065A8420BD005F5B9
:103B80008065A84207D005F58065A84203D005F5F9
:103B90000065A8420BD1CD6823F008032B43D1E97F
:103BA000055624F44074354323F004032C4349683C
:103BB00044608261F0BC416303627047002C0140A5
:103BC000F0B4046A8F680E68234D24F01004046278
:103BD000036A4468826922F0807223F0200322F491
:103BE000E642A84243EA071342EA062217D005F547
:103BF0000065A84213D005F5E055A84224D0174D22
:103C0000A84213D005F58065A8420FD005F5806560
:103C1000A8420BD005F50065A8420ED106E0CD689C
:103C200023F0800343EA051323F04003D1E905564E
:103C300024F44064354344EA850449684460826161
:103C4000F0BC816303627047CD6823F0800343EAD0
:103C5000051323F04003D2E7002C0140004001404F
:103C6000F0B4046A8F680E68234D24F480740462F3
:103C7000036A4468C26922F4803223F4007322F09C
:103C80007302A84243EA072342EA060217D005F569
:103C90000065A84213D005F5E055A84224D0174D81
:103CA000A84213D005F58065A8420FD005F58065C0
:103CB000A8420BD005F50065A8420ED106E0CD68FC
:103CC00023F4006343EA052323F48063D1E9055616
:103CD00024F44054354344EA051449684460C26101
:103CE000F0BCC16303627047CD6823F4006343EA0C
:103CF000052323F48063D2E7002C014000400140FB
:103D0000F0B4046A8F680E68194D24F4805404627C
:103D1000026A4468C36923F0807322F4005223F4DA
:103D2000E643A84242EA073243EA062313D005F5E8
:103D30000065A8420FD005F54065A8420BD005F5F7
:103D40008065A84207D005F58065A84203D005F537
:103D50000065A84204D14D6924F4804444EA8514E6
:103D600049684460C361F0BC01640262704700BFEF
:103D7000002C01402DE9F04F0E6883B0002E00F0BA
:103D80009980DFF808C200234FF0010808FA03F514
:103D900015EA060E00F089804C6824F0100ABAF18A
:103DA000020F00F08A804FEA43090322D0F800B0E6
:103DB00002FA09F2D24304F0030702EA0B0B07FAF6
:103DC00009F70AF1FF3A47EA0B07BAF1010F07605A
:103DD00040F29980C7688D683A4005FA09F51543A5
:103DE000E700C56061D5624DAA6942F00102AA618F
:103DF000AA6923F0030707F1804702F0010207F5E3
:103E00008037019203F00305019AD7F80890AD00BE
:103E10000F22AA40B0F1904F29EA020A1DD0554A5C
:103E2000904200F08A80544A904200F08B80534ABE
:103E300090427BD0524A904200F08B80514A90428F
:103E400000F08E80504A90420CBF4FF006094FF0B0
:103E5000070909FA05F54AEA050AC7F808A0DCF8D7
:103E60000020E5036FEA0E0754BF3A404EEA020213
:103E7000CCF80020DCF80450A20354BF3D404EEAC9
:103E80000505CCF80450DCF80850E20254BF3D4070
:103E90004EEA0505CCF80850DCF80C20A40254BF0B
:103EA0003A404EEA0202CCF80C20013336FA03F213
:103EB0007FF46CAF03B0BDE8F08F4FEAD30900EB9D
:103EC000890903F00707D9F82020BF004FF00F0B36
:103ED0000BFA07FB22EA0B0A0A69BA4042EA0A0215
:103EE000C9F820204FEA43090322D0F800A002FAC3
:103EF00009F2D24304F003070AEA020A07FA09F7B3
:103F000047EA0A070760876807EA020ACF6807FAE4
:103F100009F747EA0A078760D0F804A0C4F300173E
:103F20002AEA05059F402F43476053E74FF00309F6
:103F300009FA05F54AEA050A8FE708FA05F54AEA9B
:103F4000050A8AE74FF0020909FA05F54AEA050A67
:103F500083E74FF0040909FA05F54AEA050A7CE708
:103F60004FF0050909FA05F54AEA050A75E700BFA9
:103F7000001002400004004800080048000C0048FF
:103F800000100048001400480018004800040140D8
:103F90000AB1816170478162704700BF0D4B0E4AC4
:103FA00010B50C211A604FF4E134002218465C6011
:103FB0005961C3E902221A61C3E90622C3E9082252
:103FC000FEF768FD00B910BD56210448BDE8104059
:103FD00000F07CBD18390020003801403C85000805
:103FE0000D4B0E4A10B50C211A604FF4E13400223B
:103FF00018465C605961C3E902221A61C3E90622CE
:10400000C3E90822FEF710FD00B910BD6B2104487A
:10401000BDE8104000F05ABD88390020004400403F
:104020003C8500080D4B0E4A10B50C211A604FF468
:10403000E134002218465C605961C3E902221A612A
:10404000C3E90622C3E90822FEF724FD00B910BD2A
:1040500080210448BDE8104000F038BDD83700206A
:10406000004800403C85000870B5684A03689342E8
:1040700088B0044607D0664A93424FD0654A9342BF
:1040800067D008B070BD644B644E9A6942F48042B8
:104090009A619B6903F48043009312214FF40073EB
:1040A00000250322009803930491072303A94FF0EE
:1040B0009040CDE905520793FFF75CFE5849B56083
:1040C000102280233046C6E90455C6E90655C6E9E4
:1040D0000012F36000F040FD002840F08680514D52
:1040E0005149266600238022284674622960EA60CE
:1040F000C5E90133C5E90433C5E9063300F02CFDF9
:1041000000286DD100221146656625206C6200F002
:10411000ADFB252000F0E0FB08B070BD3E4BDA6936
:1041200042F40032DA61DB690C2503F400330193B9
:104130000722002302240DEB05014FF09040019E61
:104140000792CDE90354CDE90533FFF713FE08B01C
:1041500070BD314B354EDA69354842F48022DA6160
:10416000DB6903F4802302934FF48062122300255D
:104170000299039204930322072303A9CDE9055270
:104180000793FFF7F7FD2B4A756080233046B56033
:10419000C6E90455C6E906553260F36000F0DCFC60
:1041A00040BB254D254B2B601021002380226666E5
:1041B000284674626960C5E90232C5E90433C5E97D
:1041C000063300F0C9FCD0B900221146256627202D
:1041D0006C6200F04BFB272000F07EFB08B070BD46
:1041E000B721174800F072FC8CE7A721144800F0B3
:1041F0006DFC74E7F821124800F068FCD1E74FF439
:1042000084710F4800F062FCDEE700BF0038014017
:104210000044004000480040001002409038002058
:1042200044000240D4380020580002409437002057
:104230000004004830000240483800201C000240C2
:104240003C85000810B50446FEF764F8034A044BA9
:10425000A41A18BF012400221A5510BD18390020D5
:104260008C380020F0B4D700C02F2FD81A4D2B5C0B
:1042700003F0FF04002BFAD10123002A2B5427DD81
:1042800000FA03FC154D0CEB00038E1805EB4315EB
:1042900011F8012BA5F1080342F3000403F8014FC4
:1042A000AB424FEA5202F7D1B14203F10805EFD118
:1042B000BAB20B4C0B490C4B844401EB4C11002857
:1042C00014BF20461846F0BCFDF7A6BFF0BC7047EF
:1042D00022464FEA400CECE78C3800206B3400207B
:1042E000D837002064340020183900201B4B2DE9FA
:1042F000F047041E4FEAC208194F08BF1F46B8F125
:10430000600F28DC174D295D01F0FF060029FAD166
:1043100004EB440A144B4FEA4A1A03EB0A0901233F
:104320002B55124C424654444846FF2101F036FEBC
:104330003346214660223846FEF7B6FA214660220F
:104340003846FDF7A5FF1FFA88F249463846BDE812
:10435000F047FDF761BFBDE8F08700BF18390020C6
:10436000D83700208C38002064340020A43300208B
:10437000D300602B27DC70B4134C235C002BFCD1E2
:10438000002A1EDD114D013200EB4000D60001393C
:1043900005EB401508240131A4F10803002200E0D8
:1043A0000A7852080A70E85CFF2808BF62F07F02B2
:1043B00003F1010308BF0A70A342F1D10834B442EB
:1043C000E9D170BC704770478C380020A4330020BE
:1043D0001E4B2DE9F047041E1D4D1E4F08BF1F4602
:1043E0002A5D02F0FF06002AFAD1DFF8709004EB94
:1043F00044084FEA48184FF416537B6009EB080A4B
:104400003846FEF747FB3346514660223846FEF7F2
:104410004BFA114B0126F02003EB080103F80800CA
:10442000324638462E55FDF7F7FE514632460523F3
:104430003846FEF739FA4FF4E1337B603846FEF731
:1044400029FB19F80800BDE8F08700BF18390020E3
:104450008C380020D837002064340020A43300209A
:1044600010B50446FBF7BCFE214682B24FF47A73C6
:104470000248BDE81040FEF7B7B900BF88390020F8
:1044800010B5064C064A20464FF4C073C82102F00E
:10449000D5F92046BDE81040FFF7E2BFF83900200B
:1044A000488500082DE9F04304460068C60383B040
:1044B0003CD5A34BDA69D50040F1F180A14D2B68C2
:1044C000D8054FF0000640F1FA809D4D61682A6AD8
:1044D00012F4407220D001F4407393421CD0296A38
:1044E0004FF4803321F4407093FAA3F2964FB2FA5E
:1044F00082F23A4492004FF0010CC2F800C093FAE5
:10450000A3F3B3FA83F33B449B0000221A60CA076B
:10451000286200F1F0806168894A136A23F44073CD
:104520000B4313622068002E40F0DD80C30706D5E0
:10453000834AA168136B23F003030B4313638707BC
:1045400006D57F4AE168136B23F440330B431363B2
:10455000460706D57A4A2169136B23F440230B439F
:104560001363850606D5764AE169136B23F01003C1
:104570000B431363810306D5714A616D536823F4BD
:1045800080030B435360420606D56D4A216A136BC4
:1045900023F020030B431363430306D5684A616A83
:1045A000136B23F040030B431363070706D5644ADC
:1045B0006169136B23F440130B431363C60606D5DE
:1045C0005F4AA169136B23F440030B431363850512
:1045D00006D55B4A216B536823F400030B435360F9
:1045E000010606D5564AA16AD36A23F4F8730B4331
:1045F000D362C20506D5524AE16AD36A23F47853DE
:104600000B43D362C30406D54D4A616B136B23F48D
:1046100080730B431363870406D5494A216C136BDF
:1046200023F400730B431363C60206D5444AA16BFF
:10463000136B23F080730B431363850206D5404A46
:10464000E16B136B23F000730B431363410206D538
:104650003B4A616C136B23F480630B4313630202C8
:1046600006D5374AA16C136B23F400630B43136325
:10467000C30106D5324AE16C136B23F400530B439C
:10468000136310F0007007D02D4A216D136B23F4D3
:1046900000430B431363002003B0BDE8F083DA69E5
:1046A000284D42F08052DA61DB6903F080530193B8
:1046B000019B2B68D8054FF001063FF506AF2B682C
:1046C00043F480732B6001F04DFA07462B68D9053F
:1046D0003FF5FBAE01F046FAC01B6428F6D9032073
:1046E00003B0BDE8F083D36923F08053D361C307DF
:1046F0007FF525AF1CE7674601F034FA4FF0020959
:10470000804615E099FAA9F36A6A99FAA9F3B3FA0F
:1047100083F303F01F0307FA03F313427FF4FBAEA6
:1047200001F020FA41F28833A0EB08009842D6D875
:1047300099FAA9F399FAA9F3002BE3D02A6AE4E7DE
:10474000001002400070004000819010394B30B5DD
:104750005A69394D42F400225A615A698BB002F409
:1047600000220092009A5A6942F480025A615A6902
:1047700002F480020192019A5A6942F400325A61AD
:104780005A6902F400320292029A5A6942F4802273
:104790005A615A6902F480220392039A5A6942F4D8
:1047A00080125A615B6903F4801304930022202174
:1047B0004FF09040049BFFF7EBFB204B0024284672
:1047C00005A94FF400520592CDE90634FFF7D2FA5D
:1047D000202205A901234FF0904005920693CDE9D0
:1047E0000744FFF7C7FA284605A903254FF4FB53F2
:1047F000CDE905350794FFF7BDFA05A94FF41D4330
:104800004FF090400593CDE90654FFF7B3FA05A9A0
:1048100004230B480593CDE90654FFF7ABFA4FF498
:104820007C7305A907480593CDE90654FFF7A2FA62
:104830000BB030BD001002400008004800002110FD
:10484000000C004800040048074AD36800024FF6F5
:10485000FF0100F4E0600B40184340F0BF6040F4FB
:104860000030D060704700BF00ED00E0184B30B45E
:10487000DC68C4F30224C4F10705042D04F1040329
:1048800028BF0425062B18D9033C4FF0FF33A34063
:1048900022EA03024FF0FF33AB4021EA0303A340B7
:1048A00013431B010028DBB20ADB00F1604000F576
:1048B000614080F8003330BC704700221446E9E7BD
:1048C000044A00F00F000244137630BC704700BF6A
:1048D00000ED00E0FCEC00E000F01F0101234009C6
:1048E000024A8B4042F82030704700BF00E100E0F0
:1048F0000138B0F1807F0ED2084B10B4084C5860DC
:10490000F02084F823000022072110469A601960E5
:104910005DF8044B70470120704700BF10E000E0D5
:1049200000ED00E0044A136804280CBF43F00403C0
:1049300023F004031360704710E000E0704700BFED
:1049400008B5FFF7FBFF08BD30B5A7B00120022472
:1049500010254FF400414FF4E0120023099006A8FF
:1049600006940C940A95CDE90D120F9300F0ACFC5F
:1049700000B1FEE703464FF4806221460F2501A8EF
:10498000CDE9024305930195049200F099FF034697
:1049900000B1FEE742F2070210A8CDE912331493EA
:1049A00020931092FFF77EFD044600B1FEE701F070
:1049B00061F8084BA3FB00308009FFF799FF042042
:1049C000FFF7B0FF224621464FF0FF30FFF74EFFC2
:1049D00027B030BDD34D621080B5374D374C384EBF
:1049E00082B001F0A1F8FFF7AFFFFFF7AFFE00F0D4
:1049F000BBF9FFF7F5FAFCF7E9FAFCF725FCFCF741
:104A0000CDFC00F0B9FBFFF7C9FAFFF70BFB01F093
:104A1000C1F8FCF77FFB012220214FF09040FFF707
:104A2000B7FA0FCD2060616003CD2D782061A260C0
:104A30002046E36025766161FFF712FD06F120074D
:104A400035460FCDBD4220606160A260E3602E4616
:104A500004F11004F4D1286820601848194CDFF8DC
:104A600068800646FFF7FCFC01F0D8F8FDF736FA3F
:104A7000FCF75AFFFDF72EFA42F21075FDF70AFA1D
:104A8000FDF7BEFA01F06EF82368C01AA842F5D906
:104A9000FDF724F80746FDF735F83B464246C821A6
:104AA0000090304601F0CAFE3046FFF7D9FC01F015
:104AB00059F82060E2E700BF64850008F83900205B
:104AC0008085000824350020A4850008FEE700BF8B
:104AD00008B501F03BF8BDE80840FFF731BF00BF63
:104AE000014800F0F7B800BFB8360020014800F0D8
:104AF000F1B800BF48380020014800F0EBB800BF13
:104B000094370020014800F0E5B800BF903800203D
:104B1000014800F0DFB800BFD43800200148FEF79C
:104B20005FB800BF183900200148FEF759B800BF30
:104B3000D8370020014800F0CDB800BF5037002022
:104B4000014800F0C7B800BF34350020014800F02C
:104B5000C1B800BFCC350020002837D030B4D0E930
:104B60000125D0E9034103462A432243D3E9054501
:104B700000680A4322430168DC692A43224321F486
:104B80007F51134C21F030010A43A0424FF0020143
:104B900083F82110026014D90E4A0F490F4CDC63D0
:104BA0000244A1FB0212120992001A644FF48072AF
:104BB00000201A84C3E90A00C3E90C00986330BCE2
:104BC0007047074A0449A4F20744E8E70120704708
:104BD00007040240F8FBFDBFCDCCCCCC0004024062
:104BE000F8FFFDBFF0B590F82040012C38D090F8C8
:104BF00021500124A54280F8204004D0002380F8F1
:104C000020300220F0BD04680026D0E90FC786637B
:104C10002668BD4026F0010647684FF0020E80F876
:104C200021E02660CCF804506360C36A102F0BBFEC
:104C3000A260A160E160E2604BB1236843F00E0323
:104C40002360236843F0010323600020F0BD236844
:104C500043F00A032360236823F004032360F0E792
:104C60000220F0BD026830B40346046C1068DD6BAE
:104C700020F00E00106010680121A14020F001001A
:104C80004FF48074106069601C84002030BC704751
:104C900090F82120022A03D0042282630120704769
:104CA00001680A6822F00E0270B5066CC56B0A60D6
:104CB0000C68426B24F001040C600121B1404FF4F8
:104CC00080746960048412B19047002070BD104662
:104CD00070BD00BF70B4D0E90F5204232968046886
:104CE00093400B4226680ED016F0040F0BD02268BA
:104CF000920603D4226822F004022260C26A6B602A
:104D0000CAB170BC1047022393400B4215D016F075
:104D1000020F12D02268920606D42268012122F0E6
:104D20000A02226080F82110826A6B60002380F8FA
:104D30002030002AE5D170BC7047082393400B4215
:104D4000F9D03307F7D52368016B23F00E032360F6
:104D5000012303FA02F24FF480746A6083630484CF
:104D60000029E8D070BC08472B4B00B55A6942F0C7
:104D700001025A615A6983B002F001020092009A5E
:104D80005A6942F002025A615B6903F0020301931F
:104D9000002201210B20019BFFF768FD0B20FFF78C
:104DA0009BFD002211460C20FFF760FD0C20FFF751
:104DB00093FD002211460D20FFF758FD0D20FFF74F
:104DC0008BFD002211460E20FFF750FD0E20FFF74D
:104DD00083FD002211460F20FFF748FD0F20FFF74B
:104DE0007BFD002201213820FFF740FD3820FFF72E
:104DF00073FD002201213920FFF738FD3920FFF72C
:104E00006BFD002201213C20FFF730FD3C2003B068
:104E10005DF804EBFFF760BD00100240F0B4046AD7
:104E20008F680E68194D24F480340462026A446865
:104E3000436D23F4803322F4003223F07003A84240
:104E400042EA074243EA060313D005F50065A8428B
:104E50000FD005F54065A8420BD005F58065A84246
:104E600007D005F58065A84203D005F50065A84286
:104E700004D14D6924F4803444EA0524496844602F
:104E80004365F0BC81650262704700BF002C0140A1
:104E9000F0B4046A8F680E68194D24F4801404621B
:104EA000026A4468436D23F0807322F4001223F4F5
:104EB000E043A84242EA075243EA062313D005F52D
:104EC0000065A8420FD005F54065A8420BD005F556
:104ED0008065A84207D005F58065A84203D005F596
:104EE0000065A84204D14D6924F4802444EA852455
:104EF000496844604365F0BCC1650262704700BF09
:104F0000002C014038B590F83C30012B00F0AA800D
:104F10000D4602230121044680F83C1080F83D3004
:104F2000142A1DD8DFE802F00B1C1C1C3C1C1C1CA6
:104F3000551C1C1C6D1C1C1C861C1C1C230029469B
:104F40000068FEF7FDFD23682869996941F00801B2
:104F50009961996921F0040199619A6902439A6102
:104F60000123002084F83D3084F83C0038BD2946F8
:104F70000068FFF78DFF23682869596D41F40061CF
:104F80005965596D21F4806159655A6D42EA0022D4
:104F90005A650020012384F83D3084F83C00E5E7A1
:104FA00029460068FEF70CFE23682869996941F4D8
:104FB00000619961996921F4806199619A6942EA75
:104FC00000229A610020012384F83D3084F83C00DF
:104FD000CCE729460068FEF743FE23682869D969B3
:104FE00041F00801D961D96921F00401D961DA6978
:104FF0000243DA610020012384F83D3084F83C004C
:10500000B4E729460068FEF77BFE23682869D96962
:1050100041F40061D961D96921F48061D961DA690B
:1050200042EA0022DA610020012384F83D3084F84E
:105030003C009BE729460068FFF7F0FE23682869DB
:10504000596D41F008015965596D21F00401596508
:105050005A6D02435A650020012384F83D3084F8DC
:105060003C0083E7022038BD90F83C30012B22D071
:10507000026870B4114D53689468AA4207D005F5D0
:105080000065AA4203D005F5E055AA4203D14D6858
:1050900023F470032B430E688D6823F0700324F013
:1050A00080013343002429435360916080F83C40E1
:1050B000204670BC7047022318467047002C014000
:1050C00090F83C30012B3FD030B4D1E90253024676
:1050D00023F44073D1E900042B4323F4806323437A
:1050E00023F40063D1E90454034323F480532B4396
:1050F00023F40053886A8D69234323F44043034318
:10510000124C106823F47023A04243EA054307D0F1
:1051100004F50064A04203D004F5E054A0420CD191
:105120004D6A23F47003D1E9074143EA055323F0A4
:105130008073234323F000730B430021436430BC8E
:10514000084682F83C10704702207047002C01404E
:1051500030B5042287B00023802502240DEB020124
:1051600004480592CDE90154CDE90333FEF702FE70
:1051700007B030BD0008004830B53A4C3A4B2360C8
:1051800097B00023472142F20F7220466160C4E9C4
:105190000232C4E90433A361FEF790FC00283CD13D
:1051A00008213048FEF7A6FC002840D100234FF428
:1051B000A00201A92B480193CDE90223FFF754FF78
:1051C00000284AD100236025042204A925480A9317
:1051D000CDE90453CDE90633CDE90833FFF792FE5C
:1051E000002835D100234FF400554FF000720BA971
:1051F0001C480F93CDE90B33CDE90D33CDE91133C5
:10520000CDE9143310951392FFF75AFFA0B9226825
:10521000154B9A4218D017B030BD43211348FFF701
:1052200055FC08210F48FEF765FC0028BED0482138
:105230000E48FFF74BFCB9E76C210C48FFF746FC22
:105240002268094B9A42E6D1FFF782FF17B030BDC2
:105250005C210648FFF73AFCC4E750210348FFF7FA
:1052600035FCAFE7C03A002000340140C08500089B
:105270000268094B9A4200D0704703F55C4382B044
:105280009A6942F400529A619B6903F400530193B6
:10529000019B02B0704700BF0034014038B5084D93
:1052A000044604212846FEF763FBC4F51C542B6812
:1052B00010349C6328460421BDE83840FEF756BBF5
:1052C000C03A0020704700BF2DE9F0430368DF07B4
:1052D00083B004463DD5C1494A6802F00C02042A55
:1052E00000F013814A6802F00C02082A00F00681DF
:1052F0006368B3F5803F00F08881002B00F09F8148
:10530000B3F5A02F00F09F82B44B1A6822F48032CC
:105310001A601A6822F480221A6000F023FC4FF40D
:1053200000380746AD4E012505E000F01BFCC01B10
:10533000642800F2808198FAA8F3326898FAA8F3FA
:10534000B3FA83F303F01F0305FA03F31342ECD01F
:1053500023689E0742D5A14A516811F00C0F00F056
:10536000F280516801F00C01082900F0E580E26844
:10537000002A00F0B481012292FAA2F3B3FA83F377
:1053800003F1845303F584139B0016461A6000F062
:10539000E9FB4FF002080746904D05E000F0E2FB04
:1053A000C01B022800F2478198FAA8F32A6898FAED
:1053B000A8F3B3FA83F303F01F0306FA03F31342CF
:1053C000ECD02968F82292FAA2F22369B2FA82F2AA
:1053D00021F0F80193400B432B6023681D072CD567
:1053E0006269002A00F0C680012292FAA2F17C4B89
:1053F0007A4EB1FA81F10B449B0015461A6000F019
:10540000B1FB4FF00208074605E000F0ABFBC01B04
:10541000022800F2108198FAA8F398FAA8F398FAF3
:10542000A8F3726A98FAA8F3B3FA83F303F01F03A0
:1054300005FA03F31342E8D02368580727D5674BD2
:10544000DA69D10040F1BD804FF00008654D2B684E
:10545000DA0540F1E080A368012B00F06681002BA3
:1054600000F01081052B5D4B1A6A00F0898122F053
:1054700001021A621A6A22F004021A625AE1B8F1B1
:10548000000F04D0554AD36923F08053D361A36938
:1054900083B3524D6A6802F00C02082A66D0022BD0
:1054A0004FF0807300F0748193FAA3F3B3FA83F39F
:1054B00003F1845303F584139B0000221A6000F06B
:1054C00051FB2C4607464FF00075012605E000F021
:1054D00049FBC01B022800F2AE8095FAA5F32268B2
:1054E00095FAA5F3B3FA83F303F01F0306FA03F367
:1054F0001342ECD1002003B0BDE8F0834A6802F407
:10550000C032B2F5803F7FF4F3AE4FF4003292FA2E
:10551000A2F13249086892FAA2F2B2FA82F202F0DB
:105520001F02012101FA02F202423FF412AF626847
:10553000002A7FF40EAF19E0526802F4C032B2F5CF
:10554000004F7FF414AF022292FAA2F123490868B7
:1055500092FAA2F2B2FA82F202F01F02012101FADB
:1055600002F2024240D0E2688A423DD0012003B0FC
:10557000BDE8F083012595FAA5F1194B174EB1FA54
:1055800081F10B449B004FF002081A6000F0EAFA28
:10559000074604E000F0E6FAC01B02284BD898FA50
:1055A000A8F398FAA8F398FAA8F3726A98FAA8F3FD
:1055B000B3FA83F303F01F0305FA03F31342E9D1AF
:1055C0003AE7DA6942F08052DA61DB6903F080532E
:1055D0000193019B4FF0010838E700BF0010024023
:1055E00020819010007000409D4DF821286891FAAC
:1055F000A1F12269B1FA81F120F0F8008A4002435A
:105600002A601D077FF519AFEAE6954A136843F44F
:105610008033136081E62B6843F480732B6000F0C5
:10562000A1FA06462B68DB053FF515AF00F09AFAA4
:10563000801B6428F6D9032003B0BDE8F083884DB1
:105640002B6823F480332B602B6823F480232B609A
:1056500000F088FA4FF400380746012604E000F015
:1056600081FAC01B6428E6D898FAA8F32A6898FA49
:10567000A8F3B3FA83F303F01F0306FA03F313420C
:10568000EDD165E6764D2B6A23F001032B622B6A80
:1056900023F004032B6200F065FA4FF0020907467D
:1056A000012614E099FAA9F36A6A99FAA9F3B3FA00
:1056B00083F303F01F0306FA03F313423FF4DFAE54
:1056C00000F050FA41F28833C01B9842B3D899FADF
:1056D000A9F399FAA9F3002BE4D02A6AE5E701259A
:1056E00095FAA5F3B3FA83F303F1845303F5841316
:1056F0009B004FF002081A6000F034FA584E07463B
:1057000004E000F02FFAC01B022894D898FAA8F3FE
:10571000326898FAA8F3B3FA83F303F01F0305FA8B
:1057200003F31342EDD1236858E64D4A136A43F060
:105730000103136200F016FA4FF002090746484EC3
:10574000012515E099FAA9F3726A99FAA9F3B3FA57
:1057500083F303F01F0305FA03F313427FF48FAEC4
:1057600000F000FA41F28833C01B98423FF663AF65
:1057700099FAA9F399FAA9F3002BE3D0326AE4E786
:1057800042F004021A621A6A42F001021A62D1E778
:1057900093FAA3F3B3FA83F303F1845303F5841369
:1057A0009B0000221A6000F0DDF94FF000780746F8
:1057B000012605E000F0D6F9C01B02283FF63BAFFA
:1057C00098FAA8F32A6898FAA8F3B3FA83F303F0D7
:1057D0001F0306FA03F31342ECD1EB6A626A23F06B
:1057E0000F031343EB62D4E907136A680B4322F4F7
:1057F000761213436B604FF0807393FAA3F3B3FAFE
:1058000083F303F1845303F584139B004FF000747A
:105810001E6000F0A7F9124E0746012505E000F0D2
:10582000A1F9C01B02283FF606AF94FAA4F3326830
:1058300094FAA4F3B3FA83F303F01F0305FA03F316
:105840001342ECD056E603F18043A3F53C331A68CB
:1058500042F480221A601A6842F480321A605CE5D1
:1058600000100240124A536803F00C01082901D0CD
:105870001048704730B44FF4701090FAA0F00F2128
:10588000B0FA80F0D26A91FAA1F103F47013C34028
:1058900009480A4DC05C074CB1FA81F102F00F03D0
:1058A000CB40EB5CB4FBF3F330BC00FB03F0704780
:1058B0000010024000127A00CC850008DC85000848
:1058C000684A136803F007038B420BD2136823F076
:1058D00007030B431360136803F007038B4201D0E7
:1058E0000120704703682DE9F0419C0706D55E4C06
:1058F0008568626822F0F0022A4362600C46D9078C
:10590000054630D54168012900F09780022900F052
:105910008180022292FAA2F3534B186892FAA2F203
:10592000B2FA82F202F01F02012303FA02F20242EB
:1059300029D04D4E736823F003030B43736000F0CE
:1059400011F96B68012B074641F2883851D0022BC0
:1059500005D159E000F006F9C01B40457FD87368B7
:1059600013F00C0FF6D13F4A136803F00703A3426C
:105970000CD9136823F0070323431360136803F063
:105980000703A34202D00120BDE8F0812B685A072B
:1059900006D53549E8684A6822F4E06202434A6065
:1059A0001B0718D4FFF75EFF2F4B0146F0225B6800
:1059B00092FAA2F2B2FA82F203F0F003D3402B483B
:1059C0002B4AC35C002021FA03F3136000F088F82F
:1059D0000020BDE8F081244A2969536823F460530C
:1059E00043EAC1035360DDE700F0BCF8C01B40454B
:1059F00035D8736803F00C03042BF5D1B3E700F03E
:105A0000B1F8C01B40452AD8736803F00C03082B7B
:105A1000F5D1A8E74FF0007393FAA3F2124A106889
:105A200093FAA3F3B3FA83F303F01F03012202FAFC
:105A300003F303427FF47DAFA5E74FF4003292FAFF
:105A4000A2F3094B1B6892FAA2F2B2FA82F202F0B8
:105A50001F0201FA02F21A427FF46BAF93E70320B0
:105A6000BDE8F0810020024000100240F8850008E7
:105A700008000020014B1868704700BF0800002094
:105A8000084B4FF4E0625B6892FAA2F2B2FA82F23B
:105A900003F4E063D3400449044ACB5C1068D84067
:105AA000704700BF00100240088600080800002070
:105AB000084B4FF460525B6892FAA2F2B2FA82F29B
:105AC00003F46053D3400449044ACB5C1068D840C7
:105AD000704700BF00100240088600080800002040
