:020000040800F2
:1000000000000120214400087144000871440008E8
:1000100071440008714400087144000800000000A9
:100020000000000000000000000000007144000813
:10003000714400080000000071440008D512000857
:1000400071440008714400087144000871440008BC
:1000500071440008714400087144000871440008AC
:10006000714400087144000871440008E11200085E
:10007000714400087144000871440008714400088C
:10008000714400087144000871440008714400087C
:10009000714400087144000871440008714400086C
:1000A000714400087144000871440008714400085C
:1000B000714400087144000871440008714400084C
:1000C000714400087144000871440008714400083C
:1000D000714400087144000871440008714400082C
:1000E000714400087144000871440008714400081C
:1000F000714400087144000871440008714400080C
:100100007144000800000000000000007144000875
:1001100071440008714400087144000871440008EB
:10012000F11200087144000871440008714400088D
:100130007144000871440008000000000000000045
:100140007144000871440008714400080000000078
:10015000000000000000000000000000000000009F
:10016000714400087144000871440008714400089B
:10017000714400087144000871440008714400088B
:1001800071440008714400080000000000000000F5
:0401900071440008AE
:1001A00010B5054C237833B9044B13B10448AFF3B1
:1001B00000800123237010BDF0010020000000002A
:1001C000A467000808B5034B1BB103490348AFF30C
:1001D000008008BD00000000F4010020A4670008B2
:1001E000034613F8012B002AFBD1181A0138704777
:1001F00001F0FF01102A2BDB10F0070F08D010F8D8
:10020000013B013A8B422DD010F0070F42B3F6D1DB
:10021000F0B441EA012141EA014122F007047FF0F4
:1002200000070023F0E80256083C85EA010586EA4B
:10023000010685FA47F5A3FA87F586FA47F6A5FA87
:1002400087F68EB9EED1F0BC01F0FF0102F0070293
:1002500032B110F8013B013A83EA010313B1F8D13E
:100260000020704701387047002D06BF354603381F
:10027000073815F0010F07D1013015F4807F02BF58
:10028000013015F4C03F0130F0BC0138704700BFA9
:1002900081F0004102E000BF83F0004330B54FEA37
:1002A00041044FEA430594EA050F08BF90EA020FA4
:1002B0001FBF54EA000C55EA020C7FEA645C7FEA37
:1002C000655C00F0E2804FEA5454D4EB5555B8BF5A
:1002D0006D420CDD2C4480EA020281EA030382EACB
:1002E000000083EA010180EA020281EA0303362D5D
:1002F00088BF30BD11F0004F4FEA01314FF4801C30
:100300004CEA113102D0404261EB410113F0004F41
:100310004FEA03334CEA133302D0524263EB4303F8
:1003200094EA050F00F0A780A4F10104D5F1200E96
:100330000DDB02FA0EFC22FA05F2801841F10001F1
:1003400003FA0EF2801843FA05F359410EE0A5F1C5
:1003500020050EF1200E012A03FA0EFC28BF4CF0F6
:10036000020C43FA05F3C01851EBE37101F00045AC
:1003700007D54FF0000EDCF1000C7EEB00006EEBB9
:100380000101B1F5801F1BD3B1F5001F0CD3490843
:100390005FEA30004FEA3C0C04F101044FEA44529A
:1003A00012F5800F80F09A80BCF1004F08BF5FEA21
:1003B000500C50F1000041EB045141EA050130BD01
:1003C0005FEA4C0C404141EB010111F4801FA4F1A4
:1003D0000104E9D191F0000F04BF01460020B1FAF9
:1003E00081F308BF2033A3F10B03B3F120020CDA31
:1003F0000C3208DD02F1140CC2F10C0201FA0CF00F
:1004000021FA02F10CE002F11402D8BFC2F1200C73
:1004100001FA02F120FA0CFCDCBF41EA0C01904029
:10042000E41AA2BF01EB0451294330BD6FEA040472
:100430001F3C1CDA0C340EDC04F11404C4F120025D
:1004400020FA04F001FA02F340EA030021FA04F36F
:1004500045EA030130BDC4F10C04C4F1200220FAC6
:1004600002F001FA04F340EA0300294630BD21FA04
:1004700004F0294630BD94F0000F83F4801306BFCA
:1004800081F480110134013D4EE77FEA645C18BFBE
:100490007FEA655C29D094EA050F08BF90EA020F55
:1004A00005D054EA000C04BF1946104630BD91EA4D
:1004B000030F1EBF0021002030BD5FEA545C05D150
:1004C0004000494128BF41F0004130BD14F580048F
:1004D0003CBF01F5801130BD01F0004545F0FE4103
:1004E00041F470014FF0000030BD7FEA645C1ABF38
:1004F000194610467FEA655C1CBF0B46024650EA6F
:10050000013406BF52EA033591EA030F41F400219A
:1005100030BD00BF90F0000F04BF0021704730B520
:100520004FF4806404F132044FF000054FF00001F5
:1005300050E700BF90F0000F04BF0021704730B5B6
:100540004FF4806404F1320410F0004548BF40428B
:100550004FF000013EE700BF42004FEAE2014FEAE0
:1005600031014FEA02701FBF12F07F4393F07F4FBB
:1005700081F06051704732F07F4208BF704793F0BE
:100580007F4F04BF41F40021704730B54FF46074D1
:1005900001F0004521F000411CE700BF50EA0102D4
:1005A00008BF704730B54FF000050AE050EA01027D
:1005B00008BF704730B511F0004502D5404261EBED
:1005C00041014FF4806404F132045FEA915C3FF42E
:1005D000D8AE4FF003025FEADC0C18BF03325FEACB
:1005E000DC0C18BF033202EBDC02C2F1200300FA7C
:1005F00003FC20FA02F001FA03FE40EA0E0021FAA1
:1006000002F11444BDE600BF70B54FF0FF0C4CF48E
:10061000E06C1CEA11541DBF1CEA135594EA0C0F40
:1006200095EA0C0F00F0DEF82C4481EA030621EA7B
:100630004C5123EA4C5350EA013518BF52EA0335B6
:1006400041F4801143F4801338D0A0FB02CE4FF068
:100650000005E1FB02E506F00042E0FB03E54FF098
:100660000006E1FB03569CF0000F18BF4EF0010E90
:10067000A4F1FF04B6F5007F64F5407404D25FEA8C
:100680004E0E6D4146EB060642EAC62141EA55513F
:100690004FEAC52040EA5E504FEACE2EB4F1FD0C81
:1006A00088BFBCF5E06F1ED8BEF1004F08BF5FEAFF
:1006B000500E50F1000041EB045170BD06F00046B1
:1006C00046EA010140EA020081EA0301B4EB5C045E
:1006D000C2BFD4EB0C0541EA045170BD41F4801156
:1006E0004FF0000E013C00F3AB8014F1360FDEBF7B
:1006F000002001F0004170BDC4F10004203C35DA57
:100700000C341BDC04F11404C4F1200500FA05F3D9
:1007100020FA04F001FA05F240EA020001F000427A
:1007200021F0004110EBD37021FA04F642EB0601F0
:100730005EEA430E08BF20EAD37070BDC4F10C041A
:10074000C4F1200500FA04F320FA05F001FA04F2DE
:1007500040EA020001F0004110EBD37041F10001CA
:100760005EEA430E08BF20EAD37070BDC4F12005D5
:1007700000FA05F24EEA020E20FA04F301FA05F23D
:1007800043EA020321FA04F001F0004121FA04F2E5
:1007900020EA020000EBD3705EEA430E08BF20EAB5
:1007A000D37070BD94F0000F0FD101F000464000EF
:1007B00041EB010111F4801F08BF013CF7D041EA71
:1007C000060195F0000F18BF704703F00046520075
:1007D00043EB030313F4801F08BF013DF7D043EA46
:1007E0000603704794EA0C0F0CEA135518BF95EAFC
:1007F0000C0F0CD050EA410618BF52EA4306D1D183
:1008000081EA030101F000414FF0000070BD50EAA1
:10081000410606BF1046194652EA430619D094EA2B
:100820000C0F02D150EA013613D195EA0C0F05D115
:1008300052EA03361CBF104619460AD181EA030169
:1008400001F0004141F0FE4141F470014FF0000021
:1008500070BD41F0FE4141F4780170BD70B54FF0BC
:10086000FF0C4CF4E06C1CEA11541DBF1CEA13553C
:1008700094EA0C0F95EA0C0F00F0A7F8A4EB05041E
:1008800081EA030E52EA03354FEA013100F0888015
:100890004FEA03334FF0805545EA131343EA1263DE
:1008A0004FEA022245EA111545EA10654FEA002693
:1008B0000EF000419D4208BF964244F1FD0404F54C
:1008C000407402D25B084FEA3202B61A65EB0305A8
:1008D0005B084FEA32024FF480104FF4002CB6EB65
:1008E000020E75EB030E22BFB61A754640EA0C00E5
:1008F0005B084FEA3202B6EB020E75EB030E22BF25
:10090000B61A754640EA5C005B084FEA3202B6EB65
:10091000020E75EB030E22BFB61A754640EA9C0024
:100920005B084FEA3202B6EB020E75EB030E22BFF4
:10093000B61A754640EADC0055EA060E18D04FEAB2
:10094000051545EA16754FEA06164FEAC30343EA52
:1009500052734FEAC2025FEA1C1CC0D111F4801F1F
:100960000BD141EA00014FF000004FF0004CB6E718
:1009700011F4801F04BF01430020B4F1FD0C88BFB7
:10098000BCF5E06F3FF6AFAEB5EB030C04BFB6EBC2
:10099000020C5FEA500C50F1000041EB045170BDB5
:1009A0000EF0004E4EEA113114EB5C04C2BFD4EBE2
:1009B0000C0541EA045170BD41F480114FF0000E66
:1009C000013C90E645EA060E8DE60CEA135594EAE2
:1009D0000C0F08BF95EA0C0F3FF43BAF94EA0C0FE5
:1009E0000AD150EA01347FF434AF95EA0C0F7FF45A
:1009F00025AF104619462CE795EA0C0F06D152EAAE
:100A000003353FF4FDAE1046194622E750EA410691
:100A100018BF52EA43067FF4C5AE50EA41047FF4A2
:100A20000DAF52EA43057FF4EBAE12E74FF0FF3C07
:100A300006E000BF4FF0010C02E000BF4FF0010CD8
:100A40004DF804CD4FEA410C7FEA6C5C4FEA430C51
:100A500018BF7FEA6C5C1BD001B050EA410C0CBFA0
:100A600052EA430C91EA030F02BF90EA020F002002
:100A7000704710F1000F91EA030F58BF994208BF69
:100A800090422CBFD8176FEAE37040F00100704726
:100A90004FEA410C7FEA6C5C02D150EA013C07D17D
:100AA0004FEA430C7FEA6C5CD6D152EA033CD3D0C8
:100AB0005DF8040B704700BF8446104662468C46C2
:100AC0001946634600E000BF01B5FFF7B7FF0028F5
:100AD00048BF10F1000F01BD4DF808EDFFF7F4FF1E
:100AE0000CBF012000205DF808FB00BF4DF808EDA9
:100AF000FFF7EAFF34BF012000205DF808FB00BFCC
:100B00004DF808EDFFF7E0FF94BF012000205DF8ED
:100B100008FB00BF4DF808EDFFF7CEFF94BF0120A2
:100B200000205DF808FB00BF4DF808EDFFF7C4FF9B
:100B300034BF012000205DF808FB00BF4FEA410CE4
:100B40007FEA6C5C02D150EA013C0AD14FEA430CC7
:100B50007FEA6C5C02D152EA033C02D14FF0000004
:100B600070474FF0010070474FEA410212F5001242
:100B700015D211D56FF47873B3EB625212D94FEAE4
:100B8000C12343F0004343EA505311F0004F23FACE
:100B900002F018BF404270474FF00000704750EA23
:100BA000013005D111F0004008BF6FF000407047E0
:100BB0004FF00000704700BFD0B500220B4B064637
:100BC0000F46FFF721FD00F015F80446FFF7A2FCE1
:100BD0000022074BFFF718FD02460B463046394608
:100BE000FFF75AFB00F006F82146D0BD0000F03DAB
:100BF0000000F0414A0011D212F5001211D20DD5B9
:100C00006FF47873B3EB62520ED44FEAC12343F012
:100C1000004343EA505323FA02F070474FF00000BC
:100C2000704750EA013002D14FF0FF3070474FF06B
:100C3000000070472DE9F8430646012220215E4856
:100C400002F020F80025A9E0C4EBC402D1005B4A01
:100C50000A44002182F830105BE0C4EBC403DA00E0
:100C6000564B134493F832307C2B68D80134022C55
:100C700000F39380E3001B1BD800504B18447719F6
:100C800027444F4B33F81710A1F50061D0E9062334
:100C900012EB010843EBE179C0E9068901FB01FC95
:100CA000D0E9022312EB0C0843EBEC79C0E902898E
:100CB000444B33F81770A7F50067D0E9082312EB0F
:100CC000070843EBE779C0E9088907FB07FCD0E98F
:100CD000042312EB0C0843EBEC79C0E9048907FB11
:100CE00001F7D0E9002312EB070843EBE779C0E9ED
:100CF0000089836AC26A013342F100028362C262E0
:100D000090F8303080F8313000299DDD012180F8E5
:100D10003010002BA1D1C4EBC403DA00274B1344DD
:100D200093F83030002B98D0E200121BD100234BF7
:100D30000B4493F83220013283F832208DE7E30030
:100D40001A1BD1001D4A0A44002182F832101B1BD5
:100D5000D90003461C4A0A4400F13008D3F800E0E9
:100D6000D3F804C09F68D968C2F800E0C2F804C094
:100D70009760D160103310324345EFD119685B683A
:100D8000116053603822002103F098FB022C7FF49D
:100D90006DAF0E4B01221A7068E7033540F6B7338A
:100DA0009D4201DC002462E700222021024801F07C
:100DB00069FFBDE8F88300BF00040048100200206E
:100DC0005432002074030020B80200206003002089
:100DD000FEE7000000B5A7B002231C9301221F927A
:100DE0001022209222934FF4004323934FF4E013F8
:100DF0002493002325931CA800F05AFD58BB0F2311
:100E0000179302211891002319934FF480621A92CC
:100E10001B9317A801F084F810BB42F20203019360
:100E200000230493119301A801F0D8FCE8B901F064
:100E300063F9104BA3FB0030800900F00DFD042086
:100E400000F020FD002211464FF0FF3000F0C4FCFE
:100E500027B05DF804FB40F20D110748FFF7B8FF1B
:100E600040F21B110448FFF7B3FF40F22311024880
:100E7000FFF7AEFFD34D6210C0670008000000000E
:100E80002DE9F04F2DED048B95B000F05BFC9EA397
:100E9000D3E900239E49D1E90001FFF7B5FBCDE975
:100EA0000E0199A3D3E900239A49D1E90001FFF784
:100EB000ABFBCDE91001FFF78DFF00F03DF903F02A
:100EC0001FF900F0B3F902F0A3F902F0EBF903F017
:100ED00073F903F0E9F9904803F086FA8F4D904CCE
:100EE0000FCC28606960AA60EB6007CC286169615B
:100EF000AA612388AB83284600F0DEF902F0E0FA0D
:100F0000F7E0EB005B1BDA00864C1444D4E90601E1
:100F1000FFF74CFB80468946D4E90A01FFF73EFB08
:100F200002460B4600208049FFF798FC06460F4614
:100F300002460B4640464946FFF766FBCDE90C01E9
:100F4000D4E90801FFF732FB02460B46304639462A
:100F5000FFF75AFB82468B46D4E90201FFF71EFBDE
:100F600032463B46FFF750FBFFF726FE8046894698
:100F7000DDE90C0102460B46FFF746FB06460F462D
:100F800040464946FFF70AFB32463B46FFF784F9E5
:100F9000FFF712FEC4E90201FFF700FB41EC100B62
:100FA00005F0C0FADDE90E2351EC100BFFF72CFB26
:100FB00041EC180BD4E90A01FFF7F0FA02460B46A0
:100FC00000205949FFF74AFC06460F46D4E90401C0
:100FD000FFF7E4FA32463B46FFF716FBFFF7ECFD5E
:100FE00006460F4652465B46CDE912AB504659467F
:100FF000FFF70AFB8046894630463946FFF7CEFAAE
:1010000042464B46FFF748F9FFF7D6FDC4E9040115
:10101000FFF7C4FA41EC100B05F084FADDE9102368
:1010200051EC100BFFF7F0FA41EC190BD4E9006713
:10103000D4E90AAB50465946FFF7B0FA02460B46D0
:1010400000203949FFF70AFC804689463046394678
:10105000FFF7ACFA42464B46FFF7D6FA06460F4674
:10106000DDE91223DDE90C01FFF7CEFA02460B465B
:1010700030463946FFF710F906460F46DDE91023E2
:10108000DDE90E01FFF7C0FA32463B46FFF7BCFA36
:1010900006460F4653EC192B51EC180BFFF7B4FA28
:1010A0008046894602460B4630463946FFF7D6FB56
:1010B0001A4CCDE90AABCDE90801CDE90689CDE9A5
:1010C00004678DED029B8DED008B2A461749204663
:1010D00003F044FE204600F0EFF80135022D7FF7C3
:1010E00010AF0E48124B1A889B780280837000F074
:1010F000E3F8104B93F90030002BFAD000230D4A8F
:1011000013701D46EAE700BF6666666666664A3F7C
:1011100008000020000000207C63002034610020D3
:10112000CC670008B80200200000F03FEC67000820
:10113000106800086003002070B58AB0364B5A6909
:1011400042F400225A615A6902F400220092009A85
:101150005A6942F480025A615A6902F4800201928B
:10116000019A5A6942F400325A615A6902F4003213
:101170000292029A5A6942F480225A615A6902F430
:1011800080220392039A5A6942F480125A615B6981
:1011900003F480130493049B204E00222021304648
:1011A00001F070FD4FF67C7305930325069500242E
:1011B000079405A91A4801F08FFC05950695079438
:1011C00005A9184801F088FC4FF62273059306958F
:1011D000079405A94FF0904001F07EFC4FF6DF73B5
:1011E00005930695079405A9304601F075FC042384
:1011F00005930695079405A90B4801F06DFC202383
:101200000593012306930794089405A9304601F03D
:1012100063FC0AB070BD00BF00100240000400482B
:101220000008004800140048000C004808B50C48AD
:101230000C4B03604FF4E133436000238360C360D1
:1012400003610C2242618361C3610362436201F066
:10125000ACFF00B908BD44210348FFF7B9FDF9E729
:101260009861002000440040146800080268114B97
:101270009A4200D0704700B587B003F5E633DA69CB
:1012800042F40032DA61DB6903F400330093009B1F
:101290000C2301930223029300230393032304935B
:1012A0000723059301A94FF0904001F015FC07B00A
:1012B0005DF804FB0044004010B50446FEF790FFC3
:1012C0004FF47A7382B22146014801F0CFFE10BD7F
:1012D0009861002008B500F047FA00F0E4FA08BD74
:1012E00008B5024800F0F3FF08BD00BFB46200205B
:1012F00008B5024800F0EBFF08BD00BFF86200200F
:101300001549D1F8883043F47003C1F88830134B85
:101310001A6842F001021A605868114A02405A6085
:101320001A6822F0847222F480321A601A6822F459
:1013300080221A605A6822F4FE025A60DA6A22F0A9
:101340000F02DA62186B074A02401A6300229A60A1
:101350004FF000638B60704700ED00E0001002402A
:101360000CC07FF8CCFC00FF00B583B01C4B9A6921
:1013700042F001029A619B6903F001030193019B12
:10138000032000F017FA002211466FF00B0000F066
:1013900023FA002211466FF00A0000F01DFA002225
:1013A00011466FF0090000F017FA002211466FF0A5
:1013B000040000F011FA002211466FF0030000F063
:1013C0000BFA002211466FF0010000F005FA00222E
:1013D00011464FF0FF3000F0FFF903B05DF804FB59
:1013E0000010024030B4036A23F480330362036ABE
:1013F0004468426D22F4803222F070020D682A4364
:1014000023F400338D6843EA0543114DA84213D0FD
:1014100005F50065A8420FD005F54065A8420BD040
:1014200005F58065A84207D005F58065A84203D080
:1014300005F50065A84204D124F480344D6944EADE
:101440000524446042654A688265036230BC704787
:10145000002C014030B4036A23F480130362036A52
:101460004468426D22F0807222F4E0420D6842EA44
:10147000052223F400138D6843EA0553114DA84259
:1014800013D005F50065A8420FD005F54065A842C8
:101490000BD005F58065A84207D005F58065A84208
:1014A00003D005F50065A84204D124F480244D69D9
:1014B00044EA8524446042654A68C265036230BCE0
:1014C000704700BF002C014038B590F83C30012B2C
:1014D00000F092800D460446012380F83C30022340
:1014E00080F83D30142A1ED8DFE802F00B1D1D1DC8
:1014F000241D1D1D381D1D1D4B1D1D1D5F1D1D1D8A
:101500007200006800F0C0FF2268936943F008038E
:1015100093612268936923F00403936122689369BD
:1015200029690B439361012384F83D30002084F83E
:101530003C0038BD006800F0FDFF2268936943F469
:10154000006393612268936923F480639361226846
:101550009369296943EA01239361E4E7006801F094
:1015600037F82268D36943F00803D3612268D3694E
:1015700023F00403D3612268D36929690B43D36143
:10158000D1E7006801F072F82268D36943F4006380
:10159000D3612268D36923F48063D3612268D3695D
:1015A000296943EA0123D361BDE70068FFF71AFF09
:1015B0002268536D43F0080353652268536D23F08E
:1015C000040353652268536D29690B435365AAE7E9
:1015D0000068FFF73FFF2268536D43F400635365D3
:1015E0002268536D23F4806353652268536D296923
:1015F00043EA0123536596E702209AE790F83C30CE
:10160000012B26D030B4012380F83C3002685368A7
:101610009568114CA24207D004F50064A24203D0A1
:1016200004F5E054A24203D123F470034C68234331
:1016300023F070030C68234325F08004896821435C
:10164000536003689960002380F83C30184630BC32
:1016500070470220704700BF002C014090F83C30DA
:10166000012B45D010B4012380F83C30CB6823F423
:1016700040738A68134323F480634A68134323F456
:1016800000630A68134323F480530A69134323F465
:1016900000534A69134323F480438A6A134323F4B3
:1016A0000043134323F470238A6943EA0243026828
:1016B000104CA24207D004F50064A24203D004F506
:1016C000E054A2420CD123F470034C6A43EA045361
:1016D00023F08073CC69234323F00073096A0B4322
:1016E0005364002380F83C3018465DF8044B704783
:1016F00002207047002C014010B504460E4B1878AC
:101700004FF47A73B3FBF0F30C4A1068B0FBF3F0BC
:1017100000F0A2F868B90F2C01D901200AE00022DC
:1017200021464FF0FF3000F057F8054B1C600020B9
:1017300000E0012010BD00BF1400002010000020B8
:101740001800002008B5074A136843F0100313601F
:10175000032000F02FF80020FFF7CEFFFFF704FE74
:10176000002008BD00200240034A1168034B1B788B
:101770000B441360704700BF086200201400002073
:10178000014B1868704700BF0862002038B5044656
:10179000FFF7F6FF0546B4F1FF3F02D0044B1B787C
:1017A0001C44FFF7EDFF401BA042FAD338BD00BF39
:1017B00014000020074AD36823F4E0631B041B0CC9
:1017C000000200F4E060184340F0BF6040F40030D5
:1017D000D060704700ED00E030B4174BDB68C3F316
:1017E0000223C3F10704042C28BF04241D1D062D69
:1017F00001D9033B00E000234FF0FF3505FA04F464
:1018000021EA0401994005FA03F322EA030319438C
:10181000002809DB0901C9B200F1604000F5614010
:1018200080F8001330BC704700F00F000901C9B206
:10183000024B1954F6E700BF00ED00E014ED00E0A4
:1018400000F01F02400901239340024A42F8203071
:10185000704700BF00E100E00138B0F1807F0AD29C
:10186000064B5860064AF02182F823100020986049
:1018700007221A6070470120704700BF10E000E0A7
:1018800000ED00E0042805D0054A136823F00403A6
:1018900013607047024A136843F0040313607047F3
:1018A00010E000E0704708B5FFF7FCFF08BD00003E
:1018B00070B582B00446036813F0010F3DD0C84BE9
:1018C0005B6803F00C03042B20D0C54B5B6803F06E
:1018D0000C03082B13D06368B3F5803F6AD0002B4C
:1018E00040F08D8003F1804303F504331A6822F43D
:1018F00080321A601A6822F480221A605FE0B84BC6
:101900005B6803F4C033B3F5803FE4D14FF4003398
:1019100093FAA3F3B24B19684FF4003393FAA3F38D
:10192000B3FA83F303F01F03012202FA03F30B421D
:1019300003D06368002B00F0A982236813F0020F24
:1019400000F0C080A64B5B6813F00C0F00F097808E
:10195000A34B5B6803F00C03082B00F08880E3685E
:10196000002B00F0ED80012292FAA2F3B3FA83F388
:1019700003F1845303F584139B001A60FFF700FF03
:101980000546022393FAA3F3954B1968022393FAB1
:10199000A3F3B3FA83F303F01F03012202FA03F364
:1019A0000B4240F0BE80FFF7EBFE401B0228E8D957
:1019B000032074E28A4A136843F480331360636837
:1019C000002B36D0FFF7DCFE05464FF4003393FAC8
:1019D000A3F3834B19684FF4003393FAA3F3B3FADC
:1019E00083F303F01F03012202FA03F31942A4D187
:1019F000FFF7C6FE401B6428E7D903204FE2B3F58A
:101A0000A02F09D0764B1A6822F480321A601A6827
:101A100022F480221A60D2E703F18043A3F53C331D
:101A20001A6842F480221A601A6842F480321A60FE
:101A3000C5E7FFF7A5FE05464FF4003393FAA3F37D
:101A4000674B19684FF4003393FAA3F3B3FA83F3A7
:101A500003F01F03012202FA03F319423FF46DAFB2
:101A6000FFF78EFE401B6428E6D9032017E25C4B8B
:101A70005B6803F4C033B3F5004F7FF470AF02230B
:101A800093FAA3F3564B1968022393FAA3F3B3FA1C
:101A900083F303F01F03012202FA03F3194203D078
:101AA000E368934240F0F4814D48036823F0F80363
:101AB0002169F82292FAA2F2B2FA82F201FA02F253
:101AC00013430360236813F0080F00F08D806369EF
:101AD000002B5CD0012191FAA1F2B2FA82F2414BC3
:101AE00013449B001960FFF74BFE0546022393FA4F
:101AF000A3F293FAA3F293FAA3F2394A516A93FA42
:101B0000A3F3B3FA83F303F01F03012202FA03F3F2
:101B10000B4269D1FFF734FE401B0228E6D90320AF
:101B2000BDE12F48036823F0F8032169F82292FAF7
:101B3000A2F2B2FA82F201FA02F213430360C1E7A1
:101B4000012393FAA3F3B3FA83F303F1845303F568
:101B500084139B0000221A60FFF712FE0546022341
:101B600093FAA3F31E4B1968022393FAA3F3B3FA73
:101B700083F303F01F03012202FA03F31942A1D0F9
:101B8000FFF7FEFD401B0228E9D9032087E101226F
:101B900092FAA2F2B2FA82F2124B13449B00002294
:101BA0001A60FFF7EDFD0546022393FAA3F293FABC
:101BB000A3F293FAA3F20A4A516A93FAA3F3B3FA8F
:101BC00083F303F01F03012202FA03F30B420BD04D
:101BD000FFF7D6FD401B0228E6D903205FE100BFD6
:101BE0000010024020819010236813F0040F00F0D1
:101BF000A980AD4BDB6913F0805F20D1AA4BDA6975
:101C000042F08052DA61DB6903F080530193019B5B
:101C10000125A64B1B6813F4807F12D0A368012B0B
:101C200023D073BB03F1804303F504331A6A22F017
:101C300001021A621A6A22F004021A621AE00025EE
:101C4000E7E79A4A136843F480731360FFF798FD3F
:101C50000646964B1B6813F4807FDFD1FFF790FD9B
:101C6000801B6428F5D9032019E18F4A136A43F0D9
:101C700001031362A368002B3CD0FFF781FD0646E9
:101C80002EE0052B09D0884B1A6A22F001021A6255
:101C90001A6A22F004021A62ECE7834B1A6A42F0D5
:101CA00004021A621A6A42F001021A62E2E702238F
:101CB00093FAA3F37C4B596A022393FAA3F3B3FA82
:101CC00083F303F01F03012202FA03F3194238D110
:101CD000FFF756FD801B41F28833984200F2DA800C
:101CE000022393FAA3F293FAA3F3002BDFD06E4BF7
:101CF000196AE1E7FFF744FD064618E0022393FA6C
:101D0000A3F3694B596A022393FAA3F3B3FA83F35B
:101D100003F01F03012202FA03F3194211D0FFF767
:101D20002FFD801B41F28833984200F2B5800223D8
:101D300093FAA3F293FAA3F3002BDFD05A4B196A5C
:101D4000E1E7B5BBA369002B00F0A880564A5268B2
:101D500002F00C02082A00F0A480022B2FD04FF0D2
:101D6000807393FAA3F3B3FA83F303F1845303F577
:101D700084139B0000221A60FFF702FD04464FF017
:101D8000007393FAA3F3484B19684FF0007393FA6A
:101D9000A3F3B3FA83F303F01F03012202FA03F360
:101DA000194271D0FFF7ECFC001B0228E7D9032091
:101DB00075E03D4AD36923F08053D361C2E74FF009
:101DC000807393FAA3F3B3FA83F303F1845303F517
:101DD00084139B0000221A60FFF7D2FC05464FF0E7
:101DE000007393FAA3F3304B19684FF0007393FA22
:101DF000A3F3B3FA83F303F01F03012202FA03F300
:101E0000194206D0FFF7BCFC401B0228E7D903208B
:101E100045E0254AD36A23F00F03616A0B43D3627E
:101E2000536823F47613216AE06901430B4353603E
:101E30004FF0807393FAA3F3B3FA83F303F184535F
:101E400003F584139B0001221A60FFF799FC0446F6
:101E50004FF0007393FAA3F3134B19684FF000731C
:101E600093FAA3F3B3FA83F303F01F03012202FAF8
:101E700003F3194206D1FFF783FC001B0228E7D9C0
:101E800003200CE000200AE0002008E0012006E02A
:101E9000012004E0032002E0032000E0002002B063
:101EA00070BD0120FBE700BF001002400070004041
:101EB000174B5B6803F00C02082A01D015487047E5
:101EC00003F470114FF4701292FAA2F2B2FA82F295
:101ED00021FA02F21049885C0D4AD26A02F00F0220
:101EE0000F2191FAA1F1B1FA81F1CA400B498A5C44
:101EF00013F4803F05D0074BB3FBF2F300FB03F074
:101F00007047044BB3FBF2F300FB03F0704700BFD4
:101F10000010024000127A00386800084868000883
:101F2000714B1B6803F007038B420BD26E4A136898
:101F300023F007030B431360136803F007038B427E
:101F400040F0CB8070B5036813F0020F06D0674AEB
:101F5000536823F0F0038468234353600D4604461E
:101F6000036813F0010F7AD04368012B2FD0022BA6
:101F700042D0022292FAA2F25C4A1068022292FA3D
:101F8000A2F2B2FA82F202F01F02012101FA02F279
:101F9000104200F0A48055494A6822F0030213431E
:101FA0004B60FFF7EDFB06466368012B39D0022B2F
:101FB00046D04E4B5B6813F00C0F50D0FFF7E0FBA0
:101FC000801B41F288339842F3D9032084E04FF418
:101FD000003292FAA2F2454A10684FF4003292FAA7
:101FE000A2F2B2FA82F202F01F02012101FA02F219
:101FF0000242D0D101206FE04FF0007292FAA2F2BB
:102000003A4A10684FF0007292FAA2F2B2FA82F2E3
:1020100002F01F02012101FA02F21042BBD101209D
:102020005AE0324B5B6803F00C03042B17D0FFF728
:10203000A7FB801B41F288339842F2D903204BE082
:102040002A4B5B6803F00C03082B08D0FFF798FBC2
:10205000801B41F288339842F2D903203CE0224BA6
:102060001B6803F00703AB420AD91F4A136823F029
:1020700007032B431360136803F00703AB4230D10F
:10208000236813F0040F06D0184A536823F4E06362
:10209000E1680B435360236813F0080F07D0134A1D
:1020A000536823F46053216943EAC1035360FFF787
:1020B000FFFE0E4B5B6803F0F003F02292FAA2F2EF
:1020C000B2FA82F2D3400A4AD35CD840094B186076
:1020D0000020FFF711FB002070BD01207047012098
:1020E000FAE70120F8E700BF00200240001002409C
:1020F0002068000810000020014B1868704700BFDE
:102100001000002008B5FFF7F7FF074B5B6803F4EA
:10211000E0634FF4E06292FAA2F2B2FA82F2D340A4
:10212000024AD35CD84008BD001002403068000865
:1021300008B5FFF7E1FF074B5B6803F460534FF40A
:10214000605292FAA2F2B2FA82F2D340024AD35C0F
:10215000D84008BD001002403068000870B4066C1A
:10216000C56B0124B4406C60046863604368102B45
:1021700005D0036899600368DA6070BC7047036833
:102180009A600368D960F8E702680C4B9A420AD853
:102190000B4B13440B4AA2FB03231B099B00036454
:1021A000094BC3637047094B1344064AA2FB032340
:1021B0001B099B000364064BC3637047070402407E
:1021C000F8FFFDBFCDCCCCCC00000240F8FBFDBF3A
:1021D0000004024040B310B50446022380F82130C9
:1021E00001680A6822F47F5222F030024368806856
:1021F0000343E06803432069034360690343A06924
:102200000343E069034313430B602046FFF7BCFF21
:102210000020A062E06220636063A063012384F871
:10222000213084F8200010BD0120704738B590F8A7
:102230002040012C32D0012480F8204090F8214029
:10224000012C04D0002380F82030022038BD044641
:10225000022084F821000020A0632568286820F06F
:10226000010028602046FFF779FFE36A5BB122682E
:10227000136843F00E0313602268136843F00103F0
:1022800013600020E2E72268136843F00A0313603A
:102290002268136823F004031360EDE70220D5E7FA
:1022A000034601680A6822F00E020A6001680A68A3
:1022B00022F001020A60026CC06B012101FA02F2F5
:1022C000426083F82110002083F82000704738B561
:1022D000C36B1A6804682568016C04238B401342A1
:1022E00013D015F0040F10D0236813F0200F03D182
:1022F000236823F004032360016CC26B04238B402A
:102300005360C36A03B1984738BD02238B40134220
:102310001AD015F0020F17D0236813F0200F06D142
:10232000236823F00A032360012380F82130016C25
:10233000C26B02238B405360002380F82030836AF5
:10234000002BE1D09847DFE7082303FA01F111429F
:10235000DAD015F0080FD7D0236823F00E032360DE
:10236000026CC16B012303FA02F24A60836380F8B6
:102370002130002380F82030036B002BC4D0984715
:10238000C2E700000368324A904212D0B0F1804F99
:102390000FD0A2F5943290420BD002F580629042A9
:1023A00007D002F59632904203D002F5E0529042F7
:1023B00003D123F070034A681343254A90421ED08C
:1023C000B0F1804F1BD0A2F59432904217D002F5A5
:1023D0008062904213D002F5963290420FD002F5FF
:1023E000406290420BD002F58062904207D002F525
:1023F0008062904203D002F50062904203D123F440
:102400004073CA68134323F080034A69134303608F
:102410008B68C3620B6883620D4B984213D003F53F
:10242000006398420FD003F5406398420BD003F548
:102430008063984207D003F58063984203D003F588
:102440000063984201D10B69036301234361704724
:10245000002C0140B0B110B5044690F83D3063B196
:10246000022384F83D30214651F8040BFFF78AFF20
:10247000012384F83D30002010BD80F83C3001F08D
:1024800069FEEDE70120704730B4036A23F00103D1
:102490000362036A4468826922F4803222F0730284
:1024A0000D682A4323F002038D682B43204DA84278
:1024B00013D005F50065A8420FD005F54065A84288
:1024C0000BD005F58065A84207D005F58065A842C8
:1024D00003D005F50065A84205D123F00803CD68B7
:1024E0002B4323F00403124DA84213D005F50065D9
:1024F000A8420FD005F54065A8420BD005F58065D0
:10250000A84207D005F58065A84203D005F500650F
:10251000A84205D124F440754C692C438D692C43A5
:10252000446082614A684263036230BC704700BF06
:10253000002C014030B4036A23F010030362036AE5
:102540004468826922F0807222F4E6420D6842EA11
:10255000052223F020038D6843EA05131B4DA84292
:1025600007D005F50065A84203D005F5E055A8425F
:1025700006D123F08003CD6843EA051323F040031E
:10258000124DA84213D005F50065A8420FD005F5FD
:102590004065A8420BD005F58065A84207D005F537
:1025A0008065A84203D005F50065A84207D124F450
:1025B00040644D6944EA85048D6944EA85044460B9
:1025C00082614A688263036230BC7047002C01401C
:1025D00030B4036A23F480730362036A4468C269F7
:1025E00022F4803222F073020D682A4323F4007330
:1025F0008D6843EA05231C4DA84207D005F5006508
:10260000A84203D005F5E055A84206D123F40063A3
:10261000CD6843EA052323F48063134DA84213D009
:1026200005F50065A8420FD005F54065A8420BD01E
:1026300005F58065A84207D005F58065A84203D05E
:1026400005F50065A84207D124F440544D6944EAD9
:1026500005148D6944EA05144460C2614A68C26386
:10266000036230BC704700BF002C014030B4036AE5
:1026700023F480530362036A4468C26922F08072C3
:1026800022F4E6420D6842EA052223F400538D68E5
:1026900043EA0533114DA84213D005F50065A84261
:1026A0000FD005F54065A8420BD005F58065A8421E
:1026B00007D005F58065A84203D005F50065A8425E
:1026C00004D124F480444D6944EA85144460C26115
:1026D0004A680264036230BC704700BF002C0140AE
:1026E00010B4012303FA01F4036A23EA040303622A
:1026F000036A8A40134303625DF8044B704700008D
:1027000010B5044601220068FFF7EAFF2368114A6A
:10271000934213D002F5006293420FD002F540625B
:1027200093420BD002F58062934207D002F580629B
:10273000934203D002F50062934203D15A6C42F4F3
:1027400000425A642268136843F0010313600020BA
:1027500010BD00BF002C014010B5044600220068E7
:10276000FFF7BEFF23681C4A934213D002F50062B4
:1027700093420FD002F5406293420BD002F5806283
:10278000934207D002F58062934203D002F50062C3
:1027900093420DD1196A41F21112114208D1196AFE
:1027A00040F24442114203D15A6C22F400425A646E
:1027B0002368196A41F21112114208D1196A40F2D4
:1027C0004442114203D11A6822F001021A60012327
:1027D00084F83D30002010BD002C0140F0B583B0DE
:1027E0000446036813F4803F48D0A14BDB6913F023
:1027F000805F40F022819E4BDA6942F08052DA61BC
:10280000DB6903F080530193019B0125994B1B6801
:1028100013F4807F00F01381954B1B6A13F440730F
:1028200022D0626802F440729A421DD09048016A38
:1028300021F440764FF4803393FAA3F2B2FA82F295
:102840008D4F3A4492004FF0010CC2F800C093FA49
:10285000A3F3B3FA83F33B449B0000221A600662A1
:1028600011F0010F40F00081814A136A23F4407394
:1028700061680B431362002D40F02381236813F03D
:10288000010F06D07A4A136B23F00303A1680B43B0
:102890001363236813F0020F06D0754A136B23F4F9
:1028A0004033E1680B431363236813F0040F06D031
:1028B0006F4A136B23F4402321690B43136323688E
:1028C00013F0200F06D06A4A136B23F01003E1695E
:1028D0000B431363236813F4003F06D0644A536824
:1028E00023F48003616D0B435360236813F0400FA2
:1028F00006D05F4A136B23F02003216A0B43136356
:10290000236813F4802F06D0594A136B23F0400339
:10291000616A0B431363236813F0080F06D0544A0F
:10292000136B23F4401361690B431363236813F0A3
:10293000100F06D04E4A136B23F44003A1690B43DA
:102940001363236813F4007F06D0494A536823F4C5
:102950000003216B0B435360236813F0800F06D0F4
:10296000434AD36A23F4F873A16A0B43D362236802
:1029700013F4807F06D03E4AD36A23F47853E16A89
:102980000B43D362236813F4805F06D0384A136B7D
:1029900023F48073616B0B431363236813F4005FAC
:1029A00006D0334A136B23F40073216C0B4313637B
:1029B000236813F4801F06D02D4A136B23F0807315
:1029C000A16B0B431363236813F4001F06D0284A3E
:1029D000136B23F00073E16B0B431363236813F451
:1029E000800F06D0224A136B23F48063616C0B4383
:1029F0001363236813F4000F06D01D4A136B23F4EE
:102A00000063A16C0B431363236813F0807F06D02F
:102A1000174A136B23F40053E16C0B4313632368D1
:102A200013F0007F54D0124A136B23F40043216D3E
:102A30000B431363002003B0F0BD0025E6E60D4A0A
:102A4000136843F480731360FEF79AFE0646094B41
:102A50001B6813F4807F7FF4DFAEFEF791FE801BCE
:102A60006428F4D90320E6E7FEF78AFE06461BE059
:102A7000001002400070004000819010154B196A50
:102A8000022393FAA3F3B3FA83F303F01F030122A3
:102A900002FA03F30B427FF4E7AEFEF771FE801BF0
:102AA00041F28833984211D8022393FAA3F293FAA1
:102AB000A3F3002BE2D1022393FAA3F3054B596A47
:102AC000DEE7D36923F08053D361D7E60320B2E772
:102AD0000020B0E700100240F0B482B0002336E0DE
:102AE000062400E00024B4403C430235614E46F821
:102AF0002540614C2568D44304EA05064F6817F465
:102B0000803F01D042EA05065B4D2E606D6804EA05
:102B100005064F6817F4003F01D042EA0506564DFE
:102B20006E60AD6804EA05064F6817F4801F01D097
:102B300042EA0506504DAE60ED682C404E6816F432
:102B4000001F01D042EA05044B4AD46001330A68F1
:102B500032FA03F400F08B8001249C402240F5D02F
:102B60004D68022D01D0122D10D1DE08083650F824
:102B700026C003F00705AF000F25BD402CEA050C69
:102B80000D69BD4045EA0C0540F8265006685F0017
:102B90000325BD40ED4305EA060C4E6806F003062A
:102BA000BE4046EA0C0606604E6806F1FF3CBCF1EA
:102BB000010F03D9112E01D0122E10D1866805EA1B
:102BC000060CCE68BE4046EA0C068660466826EAD9
:102BD00004044E68C6F300169E4026434660C4684F
:102BE00025408C68BC402C43C4604C6814F0805F66
:102BF000ACD0224CA56945F00105A561A46904F09B
:102C000001040194019C9D08AE1C1A4C54F82670D6
:102C100003F00304A6000F24B44027EA0407B0F130
:102C2000904F3FF45FAF164CA04216D004F580647D
:102C3000A04214D004F58064A04212D004F5806450
:102C4000A04210D004F58064A0420ED004F5806448
:102C5000A0423FF445AF072445E7012443E702249F
:102C600041E703243FE704243DE705243BE702B0A6
:102C7000F0BC704700000140000401400010024019
:102C8000000400480AB1816170478162704700000A
:102C900010B5044683680269134342691343C2694D
:102CA000134301680868A04A024013430B6022687E
:102CB000536823F44053E1680B435360A369226ACD
:102CC0001A4321688B6823F4306313438B602268B6
:102CD000964B9A420DD0964B9A421DD0954B9A42F4
:102CE00043D0954B9A4258D0944B9A426DD01023C2
:102CF00027E003F558431B6B03F00303032B09D8AC
:102D0000DFE803F00204067B01231AE0042318E045
:102D1000082316E0102314E003F5E6331B6B03F4DD
:102D20004033B3F5803F6AD007D9B3F5003F68D090
:102D3000B3F5403F17D1022303E00BB9002300E0B5
:102D40001023E169B1F5004F69D0082B00F2E9804A
:102D5000DFE813F0AD00B900C500E700D100E700DF
:102D6000E700E700DD001023EBE703F5E4331B6B1E
:102D700003F44023B3F5802F45D007D9B3F5002FD6
:102D800043D0B3F5402F06D10223DAE70BB9002375
:102D9000D7E71023D5E71023D3E703F5E2331B6B06
:102DA00003F44013B3F5801F31D007D9B3F5001FEA
:102DB0002FD0B3F5401F06D10223C2E70BB9002381
:102DC000BFE71023BDE71023BBE703F5E0331B6B20
:102DD00003F44003B3F5800F1DD007D9B3F5000FFE
:102DE0001BD0B3F5400F06D10223AAE70BB900238D
:102DF000A7E71023A5E71023A3E70223A1E70423F5
:102E00009FE708239DE704239BE7082399E7042312
:102E100097E7082395E7042393E7082391E7082B16
:102E200042D8DFE803F0051722412D414141380027
:102E3000FFF768F96268530803EB4003B3FBF2F352
:102E40009BB2002023F00F02C3F342031343226816
:102E5000D36010BDFFF76CF96268530803EB4003C1
:102E6000B3FBF2F39BB20020ECE76268530803F572
:102E7000740303F51053B3FBF2F39BB20020E1E7B8
:102E8000FFF716F86268530803EB4003B3FBF2F355
:102E90009BB20020D6E76268530803F58033B3FB8A
:102EA000F2F39BB20020CDE701200023CAE7FFF731
:102EB00029F9636800EB5300B0FBF3F0236880B29C
:102EC000D8600020C5E7FFF733F9636800EB5300D3
:102ED000B0FBF3F0236880B2D8600020B9E76168E6
:102EE0004B0803F5F40303F59053B3FBF1F39BB2E6
:102EF000D3600020ADE7FEF7DBFF636800EB530013
:102F0000B0FBF3F0236880B2D8600020A1E76168CD
:102F10004B0803F50043B3FBF1F39BB2D3600020F1
:102F200097E7012095E700BFF369FFEF0038014004
:102F30000044004000480040004C00400050004069
:102F4000436A13F0010F06D00268536823F400337C
:102F5000816A0B435360436A13F0020F06D0026884
:102F6000536823F48033C16A0B435360436A13F000
:102F7000040F06D00268536823F48023016B0B43CF
:102F80005360436A13F0080F06D00268536823F4B5
:102F90000043416B0B435360436A13F0100F06D09C
:102FA0000268936823F48053816B0B439360436AF8
:102FB00013F0200F06D00268936823F40053C16B0E
:102FC0000B439360436A13F0400F0AD002685368C2
:102FD00023F48013016C0B435360036CB3F5801F23
:102FE0000BD0436A13F0800F06D00268536823F4B5
:102FF0000023816C0B43536070470268536823F4CD
:10300000C003416C0B435360EBE72DE9F0410546EB
:103010000F4616469846069C2B68DB6937EA030381
:103020000CBF01230023B3421DD1B4F1FF3FF3D005
:103030002CB1FEF7A5FBA0EB0800A042ECD92A6852
:10304000136823F4D07313602A68936823F0010394
:103050009360202385F8693085F86A30002385F86D
:103060006830032000E00020BDE8F0812DE9F04148
:1030700082B01E4690F86930DBB2202B4ED1044658
:103080000D46904600294ED0002A4ED090F8683068
:10309000012B4CD0012380F868300023C366212324
:1030A00080F86930FEF76CFB0746A4F85080A4F85E
:1030B000528003E0236815F8012B1A85B4F85230CA
:1030C0009BB2DBB1B4F85230013B9BB2A4F8523052
:1030D00000963B46002280212046FFF796FF40BB2A
:1030E000A368B3F5805FE5D12369002BE2D12268A4
:1030F00035F8023BC3F308031385DFE700963B4630
:10310000002240212046FFF780FF034698B9202285
:1031100084F86920002284F8682000E00223184621
:1031200002B0BDE8F0810123F9E70123F7E70223AC
:10313000F5E70323F3E70323F1E730B583B0044653
:103140000023C366FEF71CFB054623681B6813F0CB
:10315000080F0ED123681B6813F0040F17D120232A
:1031600084F8693084F86A30002084F8680003B07D
:1031700030BD6FF07E430093034600224FF40011F0
:103180002046FFF742FF0028E4D00320EFE76FF06E
:103190007E4300932B4600224FF480012046FFF728
:1031A00034FF0028DBD00320E1E778B310B50446F4
:1031B00090F869300BB3242384F8693022681368CF
:1031C00023F0010313602046FFF762FD012813D0AE
:1031D000636ABBB92268536823F490435360226842
:1031E000936823F02A0393602268136843F0010375
:1031F00013602046FFF7A1FF10BD80F86830FEF78E
:1032000035F8D8E72046FFF79BFEE3E7012070473B
:1032100000B58BB021484FF0A04303604FF400335A
:1032200043600023836003610122C26143624FF463
:10323000806101634FF40071C162C3600262426346
:10324000082242618361836300F082FAB8B90023E7
:10325000079307A9114800F0A7FEA8B9012301931D
:10326000029300230493072203920593069301A976
:103270000A4800F0C5FC60B90BB05DF804FB5321AF
:103280000748FDF7A5FDE2E75B210548FDF7A0FD36
:10329000E4E768210248FDF79BFDEDE7606200204E
:1032A0005868000800B587B029482A4B03604FF4DE
:1032B000003343600023836001220261C2614362E4
:1032C0004FF4806101634FF40071C162C360032158
:1032D00001624263082242618361836300F038FA2D
:1032E00010BB012300930193002303930722029252
:1032F000049305936946164800F082FCC8B906237A
:103300000093022301936946114800F079FCA8B9A3
:10331000072300930323019369460D4800F070FCD6
:1033200088B907B05DF804FB83210B48FDF750FD19
:10333000D7E790210848FDF74BFDE0E799210648C3
:10334000FDF746FDE4E7A2210348FDF741FDE8E76C
:103350000C620020000100505868000870B588B069
:1033600004460368B3F1A04F04D0404A93423BD0D7
:1033700008B070BD3E4A136801331360012B23D09F
:1033800001230393032304930025059503A94FF01C
:103390009040FFF7A1FB3748374B036045608560DD
:1033A0008023C3604FF4807303614FF480634361F3
:1033B000202383614FF40053C361FEF70BFF70B904
:1033C0002C4BE3635C62D3E72C4B5A6942F080528A
:1033D0005A615B6903F080530193019BD0E7CC21D4
:1033E0002748FDF7F5FCEBE7214A1368013313602A
:1033F000012B2AD00326039604960025059503A9E0
:103400002048FFF769FB102303930496059503A951
:103410004FF09040FFF760FB1B481C4B036045607A
:1034200085608023C3604FF4807303614FF4806331
:103430004361202383614FF40053C361FEF7CAFE4A
:1034400070B9114BE3635C6292E70C4B5A6942F02E
:1034500080525A615B6903F080530293029BC9E773
:10346000FB210748FDF7B4FCEBE700BF000100506B
:1034700064030020B46200200800024000100240F3
:103480005868000800080048F8620020080402405C
:1034900008B5044B834200D008BD0020FDF7CAFBED
:1034A000FAE700BF0C62002008B5044B834200D04D
:1034B00008BD40F6B830FDF7BDFBF9E70C6200200F
:1034C00038B50F4D284600F05FFB0E4C204600F04B
:1034D0005BFB012000F0D4FE1420FEF757F941F207
:1034E00070720949284600F08DFA41F2707207495E
:1034F000204600F087FA012000F0C2FE38BD00BF70
:10350000606200200C62002054320020740300200E
:10351000704738B50268936803F00303012B01D0AC
:10352000002038BD136813F0010F2FD0936803F00B
:103530000D03012B09D0436C43F010034364836CEB
:1035400043F0010383640120EBE70446936843F0F2
:1035500002039360036803221A60FEF711F905461F
:1035600023689B6813F0010F0ED0FEF709F9401B8A
:103570000228F5D9636C43F010036364A36C43F035
:103580000103A3640120CCE70020CAE70020C8E7BC
:1035900003689A6812F00C0F62D070B50446DA68BE
:1035A00012F0007F02D0C269012A38D060290CD005
:1035B00023689A6812F0040F07D09A6812F0020F7D
:1035C00003D19A6842F010029A600C290CD023684B
:1035D0009A6812F0080F07D09A6812F0020F03D110
:1035E0009A6842F020029A60602933D06C2933D067
:1035F0000425FEF7C5F8064623689B682B422DD0AC
:10360000FEF7BEF8801B0B28F6D9636C43F010035D
:103610006364A36C43F00103A36401201FE082698B
:10362000012AC3D10022196811F0400F0ED10D49B3
:103630008A4201D80132F6E7636C43F010036364F9
:10364000A36C43F00103A364012008E040221A6048
:103650000C21ADE70825CCE70C25CAE7002070BD9A
:1036600000207047FF93090038B50268936803F0A3
:103670000303012B0DD09168184B19420FD0436CF6
:1036800043F010034364836C43F00103836401201F
:1036900038BD136813F0010FEDD00020F8E70446A1
:1036A000936843F001039360FEF76AF805462368C8
:1036B0001B6813F0010F0ED1FEF762F8401B0228C1
:1036C000F5D9636C43F010036364A36C43F001030A
:1036D000A3640120DCE70020DAE700BF3F000080A0
:1036E00008B5406A436C43F040034364836C43F085
:1036F00004038364FFF70CFF08BD08B5406AFFF7B9
:10370000C7FE08BD08B5436A5A6C12F0500F1AD1B3
:103710005A6C42F400725A641A68D26812F4406F0C
:103720000DD1DA695AB95A6C22F480725A645A6C13
:1037300012F4805F03D15A6C42F001025A641846B9
:10374000FFF7B2FE08BDDB6B1B6B9847FAE7000082
:1037500030B597B000230093002800F04181044663
:10376000436C13F0100F52D1436CABB100202368AF
:103770009A6812F0805F03D09B6813F0005F47D017
:10378000636C23F0120343F010036364A36C43F0F3
:103790000103A36401203BE083640365C36480F8F4
:1037A0004030FFF7DBFD23689B6813F0805F01D09A
:1037B0000020DCE72046FFF7ACFE636C13F0100F2F
:1037C000D5D10028D3D1636C23F4885323F00203AE
:1037D00043F0020363642268936823F040539360CC
:1037E0002268936843F0805393607E4B1B687E4A47
:1037F000A2FB03239B0C03EB83035A00009202E01D
:10380000009B013B0093009B002BF9D1AFE7002008
:10381000636C13F0100F40F0DA80002840F0D7807E
:103820002368996811F0040140F0D180626C22F4A1
:10383000817242F002026264B3F1A04F14D06B4A6D
:1038400093420FD06A4DB3F1A04F0FD0674A934215
:1038500067D0684A934268D0674A934269D0002291
:10386000019205E0654DEEE7644DECE75F4A019299
:103870009A6802F00302012A5FD0019B23B19A6883
:1038800002F00302012A5DD0AB6823F44033626882
:103890001343AB60E2695303A56B012D01D04FF4D4
:1038A00080510B43E1680B43A1680B43616A012916
:1038B0004DD0E26A012A0CD021684E4DA94259D060
:1038C00005F58075A94255D022F48052216B0A4338
:1038D00013432268916811F00C0F0BD1D16821F4C9
:1038E000804121F00201D160A169626B520042EA7D
:1038F000813213432168CD68414A2A401343CB608B
:103900002369012B5AD02268136B23F00F03136332
:103910000023A364636C23F0030343F00103636497
:103920005CE04FF0A0420192A2E702F580720192A2
:103930009EE7A2F5807201929AE71B6813F0010FCF
:10394000A8D19AE71B6813F0010FA3D19CE732B905
:10395000A26A013A43EA424343F48033A9E7626C26
:1039600022F0220242F020026264A26C42F00102C4
:10397000A2649EE7B2F5307F11D0B2F5807F11D0FE
:10398000B2F5E07F11D0B2F58A5F11D0B2F5845F55
:1039900011D0B2F5865F99D14FF4C07296E74FF41B
:1039A000E07293E74FF4307290E74FF480728DE746
:1039B0004FF470728AE74FF4A07287E721680B6BAF
:1039C00023F00F03226A013A13430B63A0E7636CF1
:1039D00023F0120343F010036364012017B030BDDD
:1039E0000120FBE71000002083DE1B430001005094
:1039F0000007005000040050000500500003005074
:103A000007C0F0FFF8B50468A56815F0040F40F092
:103A1000A88090F84050012D00F0A580012380F887
:103A20004030B4F1A04F0AD0504B9C4207D0504BCD
:103A30009B6813F01F0F0CBF0123002306E04D4BC2
:103A40009B6813F01F0F0CBF012300232BB9002329
:103A500080F8403001252846F8BD16460F4604463A
:103A6000FFF702FE0546002877D1636C23F47063EC
:103A700023F0010343F4807363642368B3F1A04F20
:103A800043D03A4A934240D0394A926812F01F0F0D
:103A900040D1626C22F480126264DB6813F0007F14
:103AA00005D0636C23F4405343F480536364636C28
:103AB00013F4805F4ED0A36C23F00603A3640023AD
:103AC00084F84030E36B2C4A9A62E36B2B4ADA624B
:103AD000E36B2B4A1A6323681C221A60226853681E
:103AE00043F0100353602268D36843F00103D360AE
:103AF000216833463A464031E06BFEF797FB226877
:103B0000936843F004039360A5E71A4A926812F0A1
:103B10001F0FBED0B3F1A04FBBD01A4A9342B8D00A
:103B2000626C42F480126264104A93420CD0154BCE
:103B3000DB68C3F34063002BB9D0636C23F44053BC
:103B400043F480536364B2E74FF0A043DB68C3F3F0
:103B50004063F0E70023A364B1E7002384F840301A
:103B600079E7022577E7022575E700BF00010050DD
:103B7000000700500003005005370008FB3600081E
:103B8000E13600080004005038B590F84030012BB1
:103B900034D00446012380F840306C21FFF7F8FC54
:103BA000054620B1002384F84030284638BD2268FD
:103BB000D36823F00103D360E06BFEF771FB054689
:103BC00018B1636C43F0400363642268536823F0C8
:103BD0001003536075B92046FFF79BFC0546002D86
:103BE000E0D1636C23F4885323F0010343F0010315
:103BF0006364D7E72046FFF78CFCF0E70225D4E7A3
:103C000030B496B00022009290F84020012A00F0D3
:103C1000B8810346012280F840200068826812F0D3
:103C2000040F40F0A3814A68042A31D8046B02EBE8
:103C3000420255001F22AA4024EA02020C68AC404E
:103C4000224302631868826812F00C0F68D10A6878
:103C5000092A4ED9846902EB42021E3A0725954093
:103C600024EA05048D6805FA02F22243826148695C
:103C70001C68E268C2F3C102520000FA02F208694D
:103C80000138032800F29580DFE800F040727D885B
:103C9000092A0ED8446B02EB420255001E3D1F223A
:103CA000AA4024EA02020C6804FA05F52A4342639A
:103CB000C8E70E2A0ED8846B02EB420255003C3D49
:103CC0001F22AA4024EA02020C6804FA05F52A43DE
:103CD0008263B7E7C46B02EB420255005A3D1F22D4
:103CE000AA4024EA02020C6804FA05F52A43C263DA
:103CF000A8E7446902EB42020725954024EA05043F
:103D00008D6805FA02F222434261B0E7206E9E4DB3
:103D10000540086842EA8062154345F00045256683
:103D20001868826802F00302012A72D0CA68012A68
:103D300075D0D0F8B0200D680124AC4022EA04020E
:103D4000C0F8B0201A68B2F1A04F00F093808F48FD
:103D5000824200F08D808E4C0868102800F08C8024
:103D6000112800F09D80122800F09F80002002E1C1
:103D7000606E854D0540086842EA8062154345F053
:103D800000456566CCE7A06E7F4D0540086842EAB5
:103D90008062154345F00045A566C1E7E56E7A48A7
:103DA00028400D6842EA8562024342F00042E26622
:103DB000B6E7226E02F0F8420868B2EB806F03D1DA
:103DC000226E22F0004222661A68506E00F0F8401F
:103DD0000C68B0EB846F03D1506E20F00040506649
:103DE0001A68906E00F0F8400C68B0EB846F03D155
:103DF000906E20F0004090661A68D06E00F0F84097
:103E00000C68B0EB846F8BD1D06E20F00040D06690
:103E100086E7026812F0010F88D00020ABE0D0F8EE
:103E2000B0200D680124AC402243C0F8B0200A68DD
:103E3000092A0ED91D68A86902EB42021B3A072421
:103E4000944020EA04008C6804FA02F20243AA615A
:103E500078E71D686869013202EB4202072494404A
:103E600020EA04008C6804FA02F202436A6169E7FE
:103E7000484C71E7474C6FE7A56815F4000F7FF4D5
:103E80006FAFB2F1A04F16D0404882422CD04248CA
:103E900082422DD0414882422DD0002201920DE075
:103EA000A56815F0807FECD05DE7A06810F4800F66
:103EB000E7D000205FE002F5807201921868826806
:103EC00002F00302012A19D0019A22B1956805F087
:103ED0000305012D1CD00A68102A1ED0112A36D0E5
:103EE000122A3DD0002046E04FF0A0420192E5E7C3
:103EF0002A4A0192E2E7284A0192DFE7026812F0BB
:103F0000010FE1D05A6C42F020025A64012032E0E5
:103F1000126812F0010FF5D1DDE7B0F1A04FDDD14D
:103F2000A26842F40002A2601D4A12681D49A1FB6A
:103F30000212920C02EB82025100009102E0009A00
:103F4000013A0092009A002AF9D1002013E0B0F162
:103F5000A04FC5D1A26842F08072A26000200AE0A2
:103F6000A26842F48002A260002004E05A6C42F091
:103F700020025A640120002283F8402016B030BC91
:103F800070470220FAE700BF00F0FF8300010050F5
:103F900000070050000300500004005000050050CE
:103FA0001000002083DE1B4370B497B00346026804
:103FB000B2F1A04F0BD04D48824248D04C488242CB
:103FC00049D04C4882424AD00020019001E0474845
:103FD00001900198002800F0848093F84040012C63
:103FE00000F08180012483F84040946814F0040FAD
:103FF0006CD1846814F0040F68D1B2F1A04F34D0B2
:104000003A4CA2422FD03C4A0C68002C3BD094681A
:1040100024F460444D685E6B45EA46352C43946059
:104020001D68AC6804F00304012C20D0846804F0FF
:104030000304012C21D0906820F4716020F00F005F
:104040000C6889680C4320439060002043E04FF0E7
:10405000A0400190BDE700F580700190B9E7A0F5A0
:1040600080700190B5E7254ACEE7244ACCE72C685A
:1040700014F0010FDAD000202DE0006810F0010FDD
:10408000D9D0002027E0916821F4604191601C683C
:10409000A16801F0030101290CD0816801F003013E
:1040A00001290DD0916821F4716121F00F01916017
:1040B000002010E0216811F0010FEED000200AE08E
:1040C000016811F0010FEDD0002004E05A6C42F0BD
:1040D00020025A640120002283F8402017B070BCEF
:1040E00070470120FAE70220F8E700BF0001005006
:1040F000000400500005005000070050000300506D
:1041000000B583B0124B5A6942F001025A615A69F4
:1041100002F001020092009A5A6942F002025A61CA
:104120005B6903F002030193019B002201210B2034
:10413000FDF752FB0B20FDF783FB00220121382005
:10414000FDF74AFB3820FDF77BFB03B05DF804FB6D
:10415000001002400268094B9A4200D0704782B0BA
:1041600003F55C439A6942F400529A619B6903F437
:1041700000530193019B02B0704700BF003401401F
:1041800002680B4B9A4200D0704700B587B080237D
:1041900001930223029300230393049304230593C2
:1041A0000DEB03010348FEF797FC07B05DF804FB35
:1041B000003401400008004800B597B02D482E4B50
:1041C0000360472343600023836042F20F72C260A2
:1041D000036143618361FEF73DF9002835D1002377
:1041E00013934FF4A0021492159313A92148FDF7DD
:1041F00005FA00282ED160230C9300230D930E9313
:104200000F9310931193129304220CA91948FDF7F0
:104210005BF920BB0023019302930393049305935E
:104220004FF400520692079308934FF000720992E0
:104230000A930B9301A90F48FDF710FAA0B90D4896
:10424000FFF79EFF17B05DF804FB43210B48FCF716
:10425000BFFDC4E74B210948FCF7BAFDCBE7572166
:104260000648FCF7B5FDD5E767210448FCF7B0FD2B
:10427000E5E700BF3C6300200034014064680008AB
:1042800038B50446074D04212846FEF765FA2B6829
:10429000C4F51C5410349C6304212846FEF730FA00
:1042A00038BD00BF3C63002008B50948094B0360D6
:1042B000602343600C23C36000230361436200F06A
:1042C00025F800B908BD3E210348FCF781FDF9E758
:1042D0007C6300203C0001407068000802680A4BC3
:1042E0009A4200D0704700B587B0C02301930323E2
:1042F00002930023039301A94FF09040FEF7ECFBDB
:1043000007B05DF804FB00BF3C000140002861D00D
:1043100010B582B0044690F83230DBB2052B5BD08A
:1043200090F83230DBB2022B58D02D4B9A6942F014
:1043300001029A619B6903F001030193019B90F8CC
:1043400032300BB980F831302046FFF7C7FF636881
:10435000402B1ED0602B1CD021680868214A0240E7
:10436000A0680343E0680343206903436069034393
:10437000A0690343E0690343206A0343606A03437F
:10438000A06A43EAC043E06A43EA006313430B6058
:1043900017E021680868134A0240E0680343206977
:1043A0000343A0690343E0690343206A0343606A4F
:1043B0000343A06A43EAC043E06A43EA006313434D
:1043C0000B6094F8323013B9012384F832300020A6
:1043D00002B010BD012070470120F9E70120F7E786
:1043E00000100240113800E0A8B190F83230DBB282
:1043F000052B12D090F83230DBB2012B01D0012016
:10440000704701680B6843F001030B60042380F8D8
:1044100032300020704701207047012070470000B3
:10442000DFF834D0002103E00C4B5B5843500431DB
:104430000B480C4B42189A42F6D30B4A02E0002379
:1044400042F8043B094B9A42F9D3FCF759FF00F0BC
:1044500011F8FCF715FDFEE700000120E86A0008EE
:1044600000000020F0010020F0010020C0630020C7
:10447000FEE7000070B50D4D0D4C641BA410002626
:10448000A64209D10B4D0C4C02F08CF9641BA41010
:104490000026A64205D170BD55F8043B9847013669
:1044A000EEE755F8043B98470136F2E7E06A00086A
:1044B000E06A0008E06A0008E46A00080244034673
:1044C000934200D1704703F8011BF9E72DE9FF473C
:1044D00055EC104B002D0E4691461946DDF830A0E4
:1044E0004FF0000203DA05F100431D462D220D9F17
:1044F0000A7027F02007462F04D0452F00D101363F
:10450000022100E0032103AB019302AB009332468A
:10451000534645EC104B00F0CBFC472F804602D1B0
:1045200019F0010F22D0462F08EB060911D198F897
:104530000030302B0AD10022002320462946FCF708
:10454000CBFA18B9C6F10106CAF80060DAF80030F3
:1045500099440022002320462946FCF7BDFA08B101
:10456000CDF80C903022039B4B4508D3039B0E9A49
:10457000A3EB08034046136004B0BDE8F087591C64
:1045800003911A70EFE7F7B50029BABF49422D230E
:104590002B2309290270437021DD0DF107031F460B
:1045A0000A2691FBF6F206FB12143034632903F15C
:1045B000FF3503F8014C0ADC303205F8012C023BD0
:1045C000821CBB42144605D3201A03B0F0BD2B4613
:1045D0001146E6E713F8011B02F8011BF1E730234F
:1045E00019448370041DC170EEE700002DE9F04FFF
:1045F0008DB00C46DDF8588016461F46054601F082
:1046000011FA036806931846FBF7EAFD00230A93A4
:10461000D8F800300790073323F0070303F10802AE
:1046200094F818A0D4F800B0C8F80020D3E900230B
:10463000C4E9122394ED127B8DED047BDDE9048344
:1046400023F000494FF0FF32A84B40464946FCF7A3
:1046500075FA70BB4FF0FF32A44B40464946FCF759
:104660004FFA30BB00220023DDE90401FCF73EFADB
:1046700010B12D2384F843309D4A9E4BBAF1470F69
:1046800094BF9046984603232BF0040223612260D6
:104690004FF00009009733460BAA2146284600F048
:1046A000D3F9013040F090804FF0FF300DB0BDE8FD
:1046B000F08FDDE9042310461946FCF73FFA60B19C
:1046C00000220023DDE90401FCF710FA10B12D23CC
:1046D00084F84330884A894BD0E763685A1C0AF053
:1046E000DF093ED106236360002303930AAB4BF43A
:1046F0008062CDE901A309AB0093616822600DF1EE
:1047000023039DED040B2846FFF7E0FEB9F1470FA8
:104710008046099908D1C81C02DB6368994241DDD3
:10472000AAF1020A5FFA8AFABAF1650F20D80139B4
:10473000524604F150000991FFF725FF0A9A131819
:10474000012A8146236102DC2268D20701D50133A8
:1047500023619DF82330002B9CD02D2384F8433017
:1047600098E7B9F1470FBFD1002BBDD10123BAE7BC
:10477000BAF1660F18D1002963680BDD216113B906
:104780002268D00702D501330B442361A1654FF0A5
:104790000009DEE713B92268D20701D50233F4E736
:1047A0000123F2E74FF0670A0A9B994205DB236871
:1047B0002161D807EAD54B1CE7E70029D4BFC1F136
:1047C000020201221344E0E723685A0507D4236953
:1047D000424631462846B84701302BD164E7BAF14A
:1047E000650F40F2DC8000220023D4E91201FCF7BF
:1047F00073F9002833D00123414A31462846B8478F
:1048000001303FF451AFDDE909239A4202DB23680E
:10481000D8070FD5DDE9062331462846B8470130D1
:104820003FF442AF4FF0000804F11A090A9B013B24
:10483000434509DC23689B0700F10181E0680B9B7D
:104840009842B8BF184631E701234A463146284608
:10485000B84701303FF428AF08F10108E6E7099BAB
:10486000002B2BDC0123264A31462846B84701306D
:104870003FF41AAFDDE90923134302D12368D907B6
:10488000D8D5DDE9062331462846B84701303FF444
:104890000BAF4FF0000904F11A0A099B5B424B452C
:1048A00001DC0A9B94E70123524631462846B8476B
:1048B00001303FF4F9AE09F10109EEE70A9AA36D60
:1048C0009A42A8BF1A46002A914607DD1346314690
:1048D00042462846B84701303FF4E6AE04F11A03D9
:1048E0004FF0000B29EAE979049315E0FFFFEF7F11
:1048F0007C680008806800088468000888680008F0
:104900008C6800080123049A31462846B8470130D4
:104910003FF4CAAE0BF1010BD4F858A0AAEB09037F
:104920005B45EFDCDDE909239A421BDB2368DA07EC
:1049300018D4DDE9092392451CDBA3EB0A09B9F180
:10494000000F08DD4B4608EB0A0231462846B847FF
:1049500001303FF4A9AE4FF0000829EAE97904F1EB
:104960001A0A14E0DDE9062331462846B84701302B
:10497000DFD199E6A3EB0209E1E701235246314674
:104980002846B84701303FF48FAE08F10108DDE951
:1049900009239B1AA3EB09034345EEDC4AE70A9A75
:1049A000012A01DCDB0737D5012342463146284680
:1049B000B84701303FF478AEDDE90623314628469A
:1049C000B84701303FF470AE00220023D4E9120151
:1049D000FCF782F8D8B90A9B08F10102013B314685
:1049E0002846B84701300ED15EE6012352463146D3
:1049F0002846B84701303FF457AE08F101080A9B3A
:104A0000013B4345F1DC4B4604F15002E1E64FF037
:104A1000000804F11A0AF2E701234246DFE7012306
:104A20004A4631462846B84701303FF43DAE08F1CA
:104A30000108E3680B9A9B1A4345F0DCFEE64FF051
:104A4000000804F11909F4E72DE9F04791461F46E3
:104A50008A680B69DDF820809342B8BF1346C9F815
:104A6000003091F8432006460C4612B10133C9F8D4
:104A700000302368990642BFD9F800300233C9F8E4
:104A80000030256815F0060507D104F1190AE3681E
:104A9000D9F800209B1AAB4228DC94F843302268F6
:104AA000003318BF012392062DD404F14302394686
:104AB0003046C047013020D02368E568D9F800208F
:104AC00003F00603042B08BFAD1AA36822690CBFCC
:104AD00025EAE57500259342C4BF9B1AED184FF0F7
:104AE00000091A344D451AD1002008E0012352462E
:104AF00039463046C047013003D14FF0FF30BDE8A2
:104B0000F0870135C3E7E1185A1C302081F84300D3
:104B1000224494F8451082F843100233C5E701237C
:104B2000224639463046C0470130E6D009F1010936
:104B3000D8E700002DE9F04306460C4601F143009A
:104B4000097E85B06E29984617460C9B00F0BA8006
:104B500024D8632939D00AD8002900F0C380582905
:104B600000F0918004F1420584F8421035E0642998
:104B700001D06929F6D125681A6815F0800F02F175
:104B800004012CD012681960002A03DA2D23524246
:104B900084F84330DFF8BCC10A233FE0732900F0FA
:104BA000A58008D86F2921D07029DBD1226842F076
:104BB0002002226003E0752918D07829D2D178220A
:104BC00084F84520DFF890C161E01A68111D196072
:104BD000136884F8423004F14205012393E012681F
:104BE000196015F0400F18BF12B2CDE7D4F800C01D
:104BF0001A681CF0800F02F104051D6001D01268D4
:104C000003E01CF0400FFAD01288DFF848C16F298A
:104C10000CBF08230A23002184F843106568A560AF
:104C2000002DA2BF216821F0040121600AB9002DE6
:104C300046D00546B2FBF3F103FB112E93421CF85C
:104C40000EE005F801ED39D9082B0BD12368DA07FE
:104C500008D5236962689A42DEBF302305F8013C1B
:104C600005F1FF35401B2061CDF800803B4603AACB
:104C700021463046FFF7E8FE013049D14FF0FF30C2
:104C800005B0BDE8F083DFF8CCC084F845101D689E
:104C9000216855F8042B1D600D060BD5CD0744BFC8
:104CA00041F0200121601AB9236823F0200323601A
:104CB0001023B0E74B0648BF92B2EFE70A46B9E7C8
:104CC0000546C1E71A68D4F800C06169151D1D606A
:104CD0001CF0800F136801D0196003E01CF0400F36
:104CE000FAD01980002323610546BDE71A68111D1B
:104CF00019601568626800212846FBF779FA08B147
:104D0000401B606063682361002384F84330ABE795
:104D100023692A4639463046C0470130AED0236861
:104D20009B0713D4E068039B9842B8BF1846A7E7D7
:104D300001234A4639463046C04701309ED00135EE
:104D4000E368039A9B1AAB42F2DCEBE7002504F11F
:104D50001909F5E78E6800089F6800080EB400B5D1
:104D60009CB01DAB029006906FF00041094807917E
:104D70000491094953F8042B05910068019302A995
:104D800001F052FA029B00221A701CB05DF804EB8D
:104D900003B070471C0000200802FFFF2DE9F74F09
:104DA00003690C69A34280467FDB013C01F11407D3
:104DB000A00008F114052B18019357F8243055F87A
:104DC000242001339A4207EB0009B2FBF3F631D3FA
:104DD0004FF0000ABC46AE46D3465CF8042B93B2B3
:104DE00006FB03A34FEA134A9BB2ABEB0303120C7F
:104DF000DEF800B006FB02A213FA8BF34FEA124A68
:104E00001FFA82FBDEF80020CBEB124202EB2342BA
:104E10009BB243EA0243E1454FEA224B4EF8043B82
:104E2000DBD22B5833B9019B043B9D421A4630D349
:104E3000C8F81040404601F020F8002825DB013674
:104E400028464FF0000C57F8042BD0F800E093B23E
:104E5000ACEB0303120C13FA8EF3C2EB1E4202EB0F
:104E600023429BB243EA0243B9454FEA224C40F841
:104E7000043BE8D255F8242005EB84032AB9043B0F
:104E80009D421A460BD3C8F81040304603B0BDE827
:104E9000F08F1268043B002ACAD1013CC5E71268B2
:104EA000043B002AEFD1013CEAE70020EEE70000D6
:104EB0002DE9F04F55EC104B99B0476A08918346A5
:104EC0000D921493229ECDE9004547B9102000F0C1
:104ED000ADFDC0E90177CBF824000760C760DBF8BF
:104EE0002430196859B15A684A60012393408B6095
:104EF000584600F0E5FDDBF8243000221A602B1E36
:104F0000B9BF23F00043019300233360019CB24BEF
:104F1000BCBF01223260A3431AD1149A42F20F732C
:104F20001360009AC4F31303134300F05285239BCC
:104F300053B9AA4B23E0AA4B03930833239A136077
:104F4000039819B0BDE8F08FA44B03930333F5E742
:104F50009DED007B0022002351EC170B8DED0E7BA5
:104F6000FBF7BAFD074660B1149A01231360239B37
:104F7000002B00F02B859B4B239A1360013B03937E
:104F8000DEE716AA17A99DED0E0B584600F0ECFFC0
:104F9000C4F30A568046002E7FD00F9B1597C3F3AB
:104FA0001303DDE90E4543F07F5545F44015A6F2A5
:104FB000FF3600228C4B20462946FBF76DF980A373
:104FC000D3E90023FBF720FB7FA3D3E90023FBF702
:104FD00065F9044630460D46FBF7ACFA7CA3D3E9ED
:104FE0000023FBF711FB02460B4620462946FBF740
:104FF00055F904460D46FBF7B7FD00228246002313
:1050000020462946FBF772FD48B15046FBF792FA5D
:1050100022462B46FBF760FD08B90AF1FF3ABAF1C8
:10502000160F59D8714B03EBCA03D3E90023DDE90E
:105030000E01FBF75BFD002850D00AF1FF3A002378
:105040001193169B9E1B731E079345BFC6F1010368
:105050000693002300234CBF07930693BAF1000F79
:105060003EDB079BCDF840A05344079300230993F0
:10507000089B092B00F28F80052BC4BF043B0893CB
:10508000089BA3F10203CCBF00240124032B00F2F0
:105090008D80DFE803F02F3C3A7EDDE916631E4485
:1050A00006F23240202811DDC0F14000009B844010
:1050B00006F2124023FA00F02043FBF72BFA0123FB
:1050C0000446A1F1F875013E159372E7009BC0F10B
:1050D000200003FA00F0F0E70123B1E71190B0E7F8
:1050E000069BA3EB0A030693CAF10003099300236E
:1050F0001093BDE700230C930D9B002B59DC01237B
:10510000049399461A460D920CE00123F3E700231D
:105110000C930D9B534403F1010904934B46012B5F
:10512000B8BF0123DBF8245000226A60042202F198
:105130001400984269685DD9584600F08DFCDBF890
:10514000243028601B680393B9F10E0F00F2D7805A
:10515000002C00F0D480BAF1000F69DD234A0AF078
:105160000F0302EBC30393ED007B4FEA2A14E20620
:105170008DED0A7B5AD51E4BDDE90E01D3E90823DC
:10518000FBF76CFBCDE9000104F00F040326184D7A
:1051900041E00123BCE70124002308930C944FF065
:1051A000FF330493994600221223ACE701230C93AA
:1051B000F5E70D9B04939946B4E700BFAFF3008079
:1051C00061436F63A787D23FB3C8608B288AC63F0D
:1051D000FB799F501344D33F0000F07FB96800086B
:1051E000B06800088D6800080000F83FE868000813
:1051F000C068000801316960520098E7E30708D5EC
:10520000DDE90A01D5E90023FBF7FEF9CDE90A0142
:10521000013664100835002CF0D1DDE90A23DDE900
:105220000001FBF71BFBCDE900011AE00226AEE707
:1052300000F09F80CAF100049F4BA04D04F00F02C4
:1052400003EBC203D3E90023DDE90E01FBF7DCF930
:10525000CDE90001241100230226002C7ED1002B71
:10526000E1D1119B002B00F08680DDE90045002292
:10527000934B20462946FBF739FC00287BD0B9F137
:10528000000F78D0049B002B35DD0AF1FF330A9321
:10529000204600228B4B2946FBF7B6F9CDE90001E9
:1052A000049C01363046FBF745F9DDE90023FBF7A6
:1052B000ABF90022844BFAF7F1FF0646A1F15077D3
:1052C000002C5CD10022814BDDE90001FAF7E4FFFC
:1052D00032463B46CDE90001FBF726FC002840F0B2
:1052E0008C82324607F10043DDE90001FBF7FEFB4B
:1052F000002840F08082DDE90E34CDE90034179BB0
:10530000002BC0F24F81BAF10E0F00F34B816A4BB4
:1053100003EBCA0393ED007B0D9B002B8DED047B0B
:1053200080F2D880B9F1000F00F3D48040F062829F
:105330000022664B51EC170BFBF766F9DDE9002301
:10534000FBF7E8FB4C464E46002840F03B82039DAD
:10535000312305F8013B0AF1010A37E2E70705D5D9
:10536000D5E90023FBF750F9013601236410083515
:1053700073E7022675E7CDF828A04C4692E74E4B1E
:1053800003EBC40353E90201039B1C440C9B002B59
:1053900046D002460B4600204D49FBF75FFA3246E5
:1053A0003B46FAF779FF039D06460F46DDE900010B
:1053B000FBF7DAFB1290FBF7BDF802460B46DDE97E
:1053C0000001FAF769FF129B303305F8013B3246C2
:1053D0003B46CDE90001FBF789FB002860D1DDE900
:1053E000002300203649FAF757FF32463B46FBF7C9
:1053F0007DFB002840F0B480A5423FF47CAF002242
:10540000304B30463946FBF7FFF8002206460F4680
:105410002C4BDDE90001FBF7F7F8CDE90001C5E70A
:1054200032463B46FBF7F0F8CDE91201039E2546D4
:10543000DDE90001FBF798FB0746FBF77BF8303707
:1054400002460B46DDE90001FAF726FF06F8017B6C
:10545000A642CDE900014FF0000226D11C4BDDE948
:105460001201FAF71BFF02460B46DDE90001FBF7CC
:105470005BFB002874D1DDE9122300201449FAF700
:105480000BFF02460B46DDE90001FBF72FFB00286E
:105490003FF431AF15F8013C302B05F1FF3202D05B
:1054A000DDF828A04AE01546F4E7064BFBF7ACF818
:1054B000CDE90001BCE700BFE8680008C06800084B
:1054C0000000F03F0000244000001C400000144099
:1054D0000000E03FDDE90067039DDDE9042330467D
:1054E0003946FBF7BBF9FBF73FFB0446FBF722F815
:1054F000DDE90423FBF788F802460B4630463946BF
:1055000004F13006FAF7C8FE05F8016B039EAE1BE6
:10551000B14502460B4638D1FAF7C0FEDDE9042357
:1055200006460F46FBF700FBC0B9DDE90423304611
:105530003946FBF7D1FA08B1E1070FD44146584686
:1055400000F0BEFA0023149A2B700AF101031360D5
:10555000239B002B3FF4F4AC1D60F1E4CDF828A0B0
:1055600015F8012C392A05F1FF3308D1039A9A4224
:1055700009D10A9A039901320A9230220A701A78E4
:1055800001321A708CE71D46EAE700229D4BFBF7BB
:105590003BF80022002306460F46FBF79DFA002841
:1055A0009BD0CBE70C9A002A00F0CB80089A012A06
:1055B00000F3AE80159A002A00F0A68003F2334370
:1055C000099C069D069A1A440692079A01211A44DC
:1055D0005846079200F016FB0646002D0CDD079B8F
:1055E000002B09DDAB42069AA8BF2B46D21A0692C1
:1055F000079AED1AD31A0793099BF3B10C9B002B62
:1056000000F0A380002C10DD31462246584600F001
:1056100093FB424601460646584600F0FCFA4146D6
:105620000746584600F04CFAB846099B1A1B04D0AE
:105630004146584600F080FB80460121584600F064
:10564000E1FA109B002B044640F381801A46014684
:10565000584600F071FB089B012B04467ADD0027B9
:10566000236904EB8303186900F07CFAC0F1200081
:10567000079B184410F01F0000F08B80C0F120033E
:10568000042B40F38480C0F11C00069B0344069366
:10569000079B034405440793069B002B05DD414609
:1056A0001A46584600F096FB8046079B002B05DD06
:1056B00021461A46584600F08DFB0446119B002BEC
:1056C00069D02146404600F0D8FB002863DA002369
:1056D00041460A22584600F00AFA0C9B0AF1FF3AAA
:1056E0008046002B00F07C81002331460A22584678
:1056F00000F0FDF9049B002B064600F38B80089B0D
:10570000022B40F387804EE0169BC3F1360357E728
:10571000099B09F1FF34A342BFBF099B0994E21A18
:10572000109BBBBF9B1810931C1B0024B9F1000FEA
:10573000B5BF069B069DA3EB09054B46B8BF0023EA
:1057400040E7099C069D0C9E47E7099A70E7089B75
:10575000012B18DC009BB3B9019BC3F31303A3B95E
:10576000019B23F000473F0D3F0537B1069B0133F6
:105770000693079B013307930127109B002B7FF4AF
:105780006FAF012074E70027F7E7009FF5E783D0AC
:1057900018461C3079E7B9F1000F35DC089B022B65
:1057A00032DDCDF81090049B63B92146052258469E
:1057B00000F09DF901460446404600F05EFB0028DB
:1057C0003FF7C5AD0D9B039D6FEA030A00272146F5
:1057D000584600F075F9002E3FF4B0AE2FB1B74235
:1057E00003D03946584600F06BF93146584600F070
:1057F00067F9A3E600242646E4E7DDF828A026465C
:10580000A5E500BF000024400C9BCDF81090002BB4
:1058100000F0ED80002D05DD31462A46584600F0A7
:10582000D9FA0646002F56D07168584600F014F990
:10583000326902320546920006F10C010C3000F08C
:10584000FDF801222946584600F0C4FA039B03F1F3
:105850000109DDE9032313440993009B03F00103CD
:1058600037460793064609F1FF3321464046009329
:10587000FFF794FA034630330490394640460A93C2
:1058800000F0FBFA324606902146584600F00FFB26
:10589000C2680A9B054602BB0146404600F0EDFA8D
:1058A0000A9B0246294658460C920A9300F008F9D2
:1058B000089B0C9A43EA0201079B0B434D460A9B47
:1058C0000DD1392B27D0069A002A01DD049B3133F4
:1058D000009A13707BE73046B8E70122E2E70699A9
:1058E000002904DB08980143079801431ED1002AD0
:1058F000EEDD414601225846069300F06BFA214640
:10590000804600F0BAFA0028069B02DCE0D1DA07F4
:10591000DED5392BDAD1009A3923137015F8013C02
:10592000392B05F1FF3247D00133D2E7002A03DDDE
:10593000392BF0D00133CBE7099A09F8013C9145A6
:1059400021D0414600230A22584600F0D0F8B74241
:1059500080464FF000034FF00A023946584606D100
:1059600000F0C5F80746064609F101097BE700F09B
:10597000BEF83146074600230A22584600F0B7F821
:105980000646F1E70027414601225846009300F001
:1059900021FA2146804600F070FA0028BEDC02D1D0
:1059A000009BDB07BAD415F8013C302B05F1FF3220
:1059B0007FF40DAF1546F6E7039B934204D10AF13D
:1059C000010A3123039A84E71546A7E7134BFFF733
:1059D000D6BA239B002B7FF4AEAA114BFFF7CFBAA8
:1059E000049B002B03DC089B022B3FF7DCAE039DDE
:1059F00021464046FFF7D2F900F1300305F8013B9C
:105A0000039A0499AA1A9142BCDD414600230A2256
:105A1000584600F06CF88046EAE700BF8C68000842
:105A2000B06800080048704770010020024B014632
:105A3000186800F043BB00BF1C0000200A449142DC
:105A400000F1FF3300D1704710B511F8014B03F896
:105A5000014F9142F9D110BD70B5456A04460E461A
:105A60003DB91020FFF7E2FFC0E901556062056013
:105A7000C560656AEB6883B1636ADB6853F826002A
:105A8000B8B9012101FA06F56A1D9200204600F01E
:105A9000B9FA60B1C0E901650EE021220421204677
:105AA00000F0B0FA636AE860DB68002BE4D1002004
:105AB00070BD026843F826200023C0E90333F7E7EE
:105AC00070B5446A06460D463CB91020FFF7AEFF9C
:105AD000C0E9014470620460C4603DB1736A6A68E1
