:020000040800F2
:10000000000001203D5700088D5700088D5700085B
:100010008D5700088D5700088D570008000000001C
:100020000000000000000000000000008D570008E4
:100030008D570008000000008D570008111D0008B2
:100040008D5700088D5700088D5700088D57000800
:100050008D5700088D5700088D5700088D570008F0
:100060008D5700088D5700088D5700081D1D00088A
:100070008D5700088D5700082D1D00083D1D0008F4
:100080008D5700088D5700084D1D00088D5700083A
:100090008D5700088D5700088D5700088D570008B0
:1000A0008D5700088D5700088D5700088D570008A0
:1000B0008D5700088D5700088D5700088D57000890
:1000C0008D5700088D5700088D5700088D57000880
:1000D0008D5700085D1D00088D5700088D570008DA
:1000E0008D5700088D5700088D5700088D57000860
:1000F0008D5700088D5700088D5700086D1D0008AA
:100100008D57000800000000000000008D57000817
:100110008D5700088D5700088D5700088D5700082F
:100120008D5700088D5700088D5700088D5700081F
:100130007D1D00088D570008000000000000000031
:100140008D5700088D5700088D57000800000000EB
:10015000000000000000000000000000000000009F
:100160008D5700088D5700088D5700088D570008DF
:100170008D5700088D5700088D5700088D570008CF
:100180008D5700088D570008000000000000000097
:040190008D5700087F
:1001C00010B5054C237833B9044B13B10448AFF391
:1001D00000800123237010BDD00900200000000022
:1001E000B098000808B5034B1BB103490348AFF3AF
:1001F000008008BD00000000D4090020B09800086D
:1002000090F800F06DE9024520F007016FF0000C56
:1002100010F0070491F820F040F049804FF00004FE
:100220006FF00700D1E9002391F840F000F10800D9
:1002300082FA4CF2A4FA8CF283FA4CF3A2FA8CF311
:100240004BBBD1E9022382FA4CF200F10800A4FA78
:100250008CF283FA4CF3A2FA8CF3E3B9D1E90423CC
:1002600082FA4CF200F10800A4FA8CF283FA4CF303
:10027000A2FA8CF37BB9D1E9062301F1200182FABD
:100280004CF200F10800A4FA8CF283FA4CF3A2FAC3
:100290008CF3002BC6D0002A04BF04301A4612BAD1
:1002A000B2FA82F2FDE8024500EBD2007047D1E9D4
:1002B000002304F00305C4F100004FEAC50514F063
:1002C000040F91F840F00CFA05F562EA05021CBF34
:1002D00063EA050362464FF00004A9E7000000004E
:1002E00001F0FF01102A2BDB10F0070F08D010F8E7
:1002F000013B013A8B422DD010F0070F42B3F6D1EB
:10030000F0B441EA012141EA014122F007047FF003
:1003100000070023F0E80256083C85EA010586EA5A
:10032000010685FA47F5A3FA87F586FA47F6A5FA96
:1003300087F68EB9EED1F0BC01F0FF0102F00702A2
:1003400032B110F8013B013A83EA010313B1F8D14D
:100350000020704701387047002D06BF354603382E
:10036000073815F0010F07D1013015F4807F02BF67
:10037000013015F4C03F0130F0BC0138704700BFB8
:10038000844641EA000313F003036DD1403A41D3A0
:1003900051F8043B40F8043B51F8043B40F8043B5F
:1003A00051F8043B40F8043B51F8043B40F8043B4F
:1003B00051F8043B40F8043B51F8043B40F8043B3F
:1003C00051F8043B40F8043B51F8043B40F8043B2F
:1003D00051F8043B40F8043B51F8043B40F8043B1F
:1003E00051F8043B40F8043B51F8043B40F8043B0F
:1003F00051F8043B40F8043B51F8043B40F8043BFF
:1004000051F8043B40F8043B51F8043B40F8043BEE
:10041000403ABDD2303211D351F8043B40F8043B8E
:1004200051F8043B40F8043B51F8043B40F8043BCE
:1004300051F8043B40F8043B103AEDD20C3205D39E
:1004400051F8043B40F8043B043AF9D2043208D096
:10045000D2071CBF11F8013B00F8013B01D30B8808
:1004600003806046704700BF082A13D38B078DD0E6
:1004700010F003038AD0C3F10403D21ADB071CBFB8
:1004800011F8013B00F8013B80D331F8023B20F822
:10049000023B7BE7043AD9D3013A11F8013B00F85B
:1004A000013BF9D20B7803704B7843708B788370E3
:1004B0006046704781F0004102E000BF83F00043D6
:1004C00030B54FEA41044FEA430594EA050F08BFEF
:1004D00090EA020F1FBF54EA000C55EA020C7FEAB3
:1004E000645C7FEA655C00F0E2804FEA5454D4EB30
:1004F0005555B8BF6D420CDD2C4480EA020281EAFA
:10050000030382EA000083EA010180EA020281EA31
:100510000303362D88BF30BD11F0004F4FEA013183
:100520004FF4801C4CEA113102D0404261EB410192
:1005300013F0004F4FEA03334CEA133302D0524218
:1005400063EB430394EA050F00F0A780A4F10104D4
:10055000D5F1200E0DDB02FA0EFC22FA05F280180E
:1005600041F1000103FA0EF2801843FA05F35941F4
:100570000EE0A5F120050EF1200E012A03FA0EFC73
:1005800028BF4CF0020C43FA05F3C01851EBE3719D
:1005900001F0004507D54FF0000EDCF1000C7EEBBA
:1005A00000006EEB0101B1F5801F1BD3B1F5001FF8
:1005B0000CD349085FEA30004FEA3C0C04F1010417
:1005C0004FEA445212F5800F80F09A80BCF1004F40
:1005D00008BF5FEA500C50F1000041EB045141EAC2
:1005E000050130BD5FEA4C0C404141EB010111F4C3
:1005F000801FA4F10104E9D191F0000F04BF01466E
:100600000020B1FA81F308BF2033A3F10B03B3F14B
:1006100020020CDA0C3208DD02F1140CC2F10C02DB
:1006200001FA0CF021FA02F10CE002F11402D8BF39
:10063000C2F1200C01FA02F120FA0CFCDCBF41EA05
:100640000C019040E41AA2BF01EB0451294330BDD4
:100650006FEA04041F3C1CDA0C340EDC04F11404B1
:10066000C4F1200220FA04F001FA02F340EA030088
:1006700021FA04F345EA030130BDC4F10C04C4F1CE
:10068000200220FA02F001FA04F340EA03002946AE
:1006900030BD21FA04F0294630BD94F0000F83F4F8
:1006A000801306BF81F480110134013D4EE77FEADB
:1006B000645C18BF7FEA655C29D094EA050F08BF27
:1006C00090EA020F05D054EA000C04BF1946104608
:1006D00030BD91EA030F1EBF0021002030BD5FEA4C
:1006E000545C05D14000494128BF41F0004130BD74
:1006F00014F580043CBF01F5801130BD01F00045C8
:1007000045F0FE4141F470014FF0000030BD7FEA3A
:10071000645C1ABF194610467FEA655C1CBF0B4635
:10072000024650EA013406BF52EA033591EA030F4C
:1007300041F4002130BD00BF90F0000F04BF002144
:10074000704730B54FF4806404F132044FF0000577
:100750004FF0000150E700BF90F0000F04BF0021F0
:10076000704730B54FF4806404F1320410F0004556
:1007700048BF40424FF000013EE700BF42004FEA51
:10078000E2014FEA31014FEA02701FBF12F07F43CE
:1007900093F07F4F81F06051704732F07F4208BF85
:1007A000704793F07F4F04BF41F40021704730B58C
:1007B0004FF4607401F0004521F000411CE700BFD8
:1007C00050EA010208BF704730B54FF000050AE05B
:1007D00050EA010208BF704730B511F0004502D55C
:1007E000404261EB41014FF4806404F132045FEA5E
:1007F000915C3FF4D8AE4FF003025FEADC0C18BF07
:1008000003325FEADC0C18BF033202EBDC02C2F1F8
:10081000200300FA03FC20FA02F001FA03FE40EA8A
:100820000E0021FA02F11444BDE600BF70B54FF08E
:10083000FF0C4CF4E06C1CEA11541DBF1CEA13556C
:1008400094EA0C0F95EA0C0F00F0DEF82C4481EAD4
:10085000030621EA4C5123EA4C5350EA013518BFF4
:1008600052EA033541F4801143F4801338D0A0FBE1
:1008700002CE4FF00005E1FB02E506F00042E0FB8E
:1008800003E54FF00006E1FB03569CF0000F18BF94
:100890004EF0010EA4F1FF04B6F5007F64F540743C
:1008A00004D25FEA4E0E6D4146EB060642EAC621CF
:1008B00041EA55514FEAC52040EA5E504FEACE2E3C
:1008C000B4F1FD0C88BFBCF5E06F1ED8BEF1004F3F
:1008D00008BF5FEA500E50F1000041EB045170BDBB
:1008E00006F0004646EA010140EA020081EA0301FF
:1008F000B4EB5C04C2BFD4EB0C0541EA045170BDFB
:1009000041F480114FF0000E013C00F3AB8014F174
:10091000360FDEBF002001F0004170BDC4F10004BD
:10092000203C35DA0C341BDC04F11404C4F120053E
:1009300000FA05F320FA04F001FA05F240EA020099
:1009400001F0004221F0004110EBD37021FA04F6CF
:1009500042EB06015EEA430E08BF20EAD37070BD89
:10096000C4F10C04C4F1200500FA04F320FA05F0E8
:1009700001FA04F240EA020001F0004110EBD370EA
:1009800041F100015EEA430E08BF20EAD37070BD5A
:10099000C4F1200500FA05F24EEA020E20FA04F333
:1009A00001FA05F243EA020321FA04F001F00041E2
:1009B00021FA04F220EA020000EBD3705EEA430E53
:1009C00008BF20EAD37070BD94F0000F0FD101F082
:1009D0000046400041EB010111F4801F08BF013CBB
:1009E000F7D041EA060195F0000F18BF704703F0F9
:1009F0000046520043EB030313F4801F08BF013D80
:100A0000F7D043EA0603704794EA0C0F0CEA13553B
:100A100018BF95EA0C0F0CD050EA410618BF52EAF5
:100A20004306D1D181EA030101F000414FF00000FB
:100A300070BD50EA410606BF1046194652EA430609
:100A400019D094EA0C0F02D150EA013613D195EA7D
:100A50000C0F05D152EA03361CBF104619460AD1C5
:100A600081EA030101F0004141F0FE4141F47001CF
:100A70004FF0000070BD41F0FE4141F4780170BDBF
:100A800070B54FF0FF0C4CF4E06C1CEA11541DBF24
:100A90001CEA135594EA0C0F95EA0C0F00F0A7F826
:100AA000A4EB050481EA030E52EA03354FEA013153
:100AB00000F088804FEA03334FF0805545EA131366
:100AC00043EA12634FEA022245EA111545EA10652E
:100AD0004FEA00260EF000419D4208BF964244F1C5
:100AE000FD0404F5407402D25B084FEA3202B61AE4
:100AF00065EB03055B084FEA32024FF480104FF4B8
:100B0000002CB6EB020E75EB030E22BFB61A75462B
:100B100040EA0C005B084FEA3202B6EB020E75EBBE
:100B2000030E22BFB61A754640EA5C005B084FEA26
:100B30003202B6EB020E75EB030E22BFB61A7546F3
:100B400040EA9C005B084FEA3202B6EB020E75EBFE
:100B5000030E22BFB61A754640EADC0055EA060EBF
:100B600018D04FEA051545EA16754FEA06164FEA02
:100B7000C30343EA52734FEAC2025FEA1C1CC0D1AE
:100B800011F4801F0BD141EA00014FF000004FF03B
:100B9000004CB6E711F4801F04BF01430020B4F1FC
:100BA000FD0C88BFBCF5E06F3FF6AFAEB5EB030CB4
:100BB00004BFB6EB020C5FEA500C50F1000041EBB1
:100BC000045170BD0EF0004E4EEA113114EB5C047E
:100BD000C2BFD4EB0C0541EA045170BD41F4801151
:100BE0004FF0000E013C90E645EA060E8DE60CEA59
:100BF000135594EA0C0F08BF95EA0C0F3FF43BAF76
:100C000094EA0C0F0AD150EA01347FF434AF95EA2C
:100C10000C0F7FF425AF104619462CE795EA0C0F10
:100C200006D152EA03353FF4FDAE1046194622E7DD
:100C300050EA410618BF52EA43067FF4C5AE50EAB7
:100C400041047FF40DAF52EA43057FF4EBAE12E7A7
:100C50004FF0FF3C06E000BF4FF0010C02E000BF88
:100C60004FF0010C4DF804CD4FEA410C7FEA6C5C6B
:100C70004FEA430C18BF7FEA6C5C1BD001B050EA0E
:100C8000410C0CBF52EA430C91EA030F02BF90EAF9
:100C9000020F0020704710F1000F91EA030F58BFB8
:100CA000994208BF90422CBFD8176FEAE37040F01A
:100CB000010070474FEA410C7FEA6C5C02D150EAB8
:100CC000013C07D14FEA430C7FEA6C5CD6D152EA73
:100CD000033CD3D05DF8040B704700BF8446104638
:100CE00062468C461946634600E000BF01B5FFF737
:100CF000B7FF002848BF10F1000F01BD4DF808ED07
:100D0000FFF7F4FF0CBF012000205DF808FB00BFD7
:100D10004DF808EDFFF7EAFF34BF012000205DF831
:100D200008FB00BF4DF808EDFFF7E0FF94BF01207E
:100D300000205DF808FB00BF4DF808EDFFF7CEFF7F
:100D400094BF012000205DF808FB00BF4DF808EDBE
:100D5000FFF7C4FF34BF012000205DF808FB00BF8F
:100D60004FEA410C7FEA6C5C02D150EA013C0AD1A7
:100D70004FEA430C7FEA6C5C02D152EA033C02D199
:100D80004FF0000070474FF0010070474FEA4102FA
:100D900012F5001215D211D56FF47873B3EB6252CD
:100DA00012D94FEAC12343F0004343EA505311F0F4
:100DB000004F23FA02F018BF404270474FF0000086
:100DC000704750EA013005D111F0004008BF6FF0C4
:100DD000004070474FF00000704700BF80F00040B7
:100DE00002E000BF81F0004142001FBF5FEA410303
:100DF00092EA030F7FEA226C7FEA236C6AD04FEA03
:100E00001262D2EB1363C1BFD21841404840414047
:100E1000B8BF5B42192B88BF704710F0004F40F4F9
:100E2000000020F07F4018BF404211F0004F41F415
:100E3000000121F07F4118BF494292EA030F3FD0E1
:100E4000A2F1010241FA03FC10EB0C00C3F12003F4
:100E500001FA03F100F0004302D5494260EB400083
:100E6000B0F5000F13D3B0F1807F06D340084FEAEE
:100E7000310102F10102FE2A51D2B1F1004F40EBE3
:100E8000C25008BF20F0010040EA0300704749004B
:100E900040EB000010F4000FA2F10102EDD1B0FA16
:100EA00080FCACF1080CB2EB0C0200FA0CF0AABF0B
:100EB00000EBC25052421843BCBFD04018437047A9
:100EC00092F0000F81F4000106BF80F400000132AF
:100ED000013BB5E74FEA41037FEA226C18BF7FEA86
:100EE000236C21D092EA030F04D092F0000F08BFC8
:100EF0000846704790EA010F1CBF0020704712F0AF
:100F00007F4F04D1400028BF40F00040704712F1ED
:100F100000723CBF00F50000704700F0004343F052
:100F2000FE4040F4000070477FEA226216BF084688
:100F30007FEA23630146420206BF5FEA412390EA4B
:100F4000010F40F4800070474FF0000304E000BF41
:100F500010F0004348BF40425FEA000C08BF7047F2
:100F600043F0964301464FF000001CE050EA0102B6
:100F700008BF70474FF000030AE000BF50EA0102CB
:100F800008BF704711F0004302D5404261EB4101B8
:100F90005FEA010C02BF84460146002043F0B643DD
:100FA00008BFA3F18053A3F50003BCFA8CF2083A02
:100FB000A3EBC25310DB01FA02FC634400FA02FC0B
:100FC000C2F12002BCF1004F20FA02F243EB020012
:100FD00008BF20F00100704702F1200201FA02FC74
:100FE000C2F1200250EA4C0021FA02F243EB020067
:100FF00008BF20EADC70704753B94AB9002908BF1E
:1010000000281CBF4FF0FF314FF0FF3000F074B9E3
:10101000ADF1080C6DE904CE00F006F8DDF804E04F
:10102000DDE9022304B070472DE9F047089E04462D
:101030008846002B40F085808A42154648D9B2FA8E
:1010400082F24AB1C2F1200701FA02F320FA07F74F
:10105000954047EA030894404FEA154E230CB8FB2D
:10106000FEF71FFA85FC0EFB178843EA084307FBCF
:101070000CF1994209D9EB1807F1FF3080F0E380B9
:10108000994240F2E080023F2B445B1AA4B2B3FBCA
:10109000FEF00EFB103344EA034400FB0CFCA445B5
:1010A00009D92C1900F1FF3380F0CB80A44540F220
:1010B000C88002382C4440EA0740A4EB0C04002707
:1010C0001EB1D4400023C6E900433946BDE8F0878D
:1010D000002A53D0B2FA82F2002A40F0B680491BAF
:1010E0004FEA154E1FFA85F80127B1FBFEFC230CD1
:1010F0000EFB1C1143EA014308FB0CF1994207D98E
:10110000EB180CF1FF3002D2994200F2EC808446D9
:10111000591AA3B2B1FBFEF00EFB101443EA0444CB
:1011200008FB00F8A04507D92C1900F1FF3302D2C3
:10113000A04500F2DC801846A4EB080440EA0C400D
:10114000BEE78B4208D9002E78D00027C6E90001FF
:1011500038463946BDE8F087B3FA83F77FB98B424A
:1011600002D3824200F2BD80841A61EB03030120A6
:101170009846002EA9D0C6E90048A6E7FFDEC7F1D1
:101180002005BB4022FA05FC4CEA030C01FA07F4E7
:1011900020FA05F821FA05F34FEA1C4E48EA040448
:1011A000B3FBFEF9210C0EFB19331FFA8CF841EA50
:1011B000034309FB08FA9A4502FA07F200FA07F11D
:1011C0000BD91CEB030309F1FF3080F088809A45AE
:1011D00040F28580A9F102096344A3EB0A03A4B29B
:1011E000B3FBFEF00EFB103344EA034400FB08F8A7
:1011F000A04508D91CEB040400F1FF336BD2A045D5
:1012000069D90238644440EA0940A4EB0804A0FB11
:1012100002894C45C6464B4654D351D0002E69D066
:10122000B1EB0E0264EB030404FA05F522FA07F3AE
:10123000FC401D43C6E90054002746E737463046C8
:1012400043E7184637E707461FE7C2F1200320FAB5
:1012500003F7954001FA02F021FA03F34FEA154E25
:101260003843010CB3FBFEF71FFA85F80EFB17336A
:1012700041EA034107FB08F38B4204FA02F407D961
:10128000691807F1FF3C28D28B4226D9023F294436
:10129000CB1A81B2B3FBFEF00EFB103341EA0341DF
:1012A00000FB08F38B4207D9691800F1FF3C10D20C
:1012B0008B420ED902382944C91A40EA074714E77D
:1012C0004145ABD2B8EB020E69EB0C020138134674
:1012D000A4E76046F0E7184695E76746D8E78146F9
:1012E0007BE7384645E7ACF1020C2B4410E70238A7
:1012F0002C4421E73746E8E6704700BF2DE9F84364
:10130000064601224FF48061624802F03BFC002552
:10131000614B1D708AE0614A1380614A1388013372
:1013200013809DE05E4B00221A805E4B01221A70F2
:101330009EE000275B4B1F7026E0BB00DA19D0004F
:10134000594A10443B44D9000346584A0A4400F124
:101350002009D3F80080D3F804E0D3F808C0D96896
:10136000C2F80080C2F804E0C2F808C0D1601033AF
:1013700010324B45EDD119685B681160536028222B
:10138000002104F029FA0137082FD6DD484B01224D
:101390001A7072E004EB000C464B33F81C70BFB2BD
:1013A000454B1F80A7F500673FB2444B1F80830069
:1013B0000344DA003C4911448B693B448B6107FBD1
:1013C00007FED1E9022312EB0E0843EBEE79C1E9E7
:1013D00002893B4B33F81CC01FFA8CFC394BA3F835
:1013E00000C0ACF5006C0FFA8CFC374BA3F800C0C2
:1013F000CB696344CB610CFB0CFED1E9042312EBF7
:101400000E0843EBEE79C1E904890CFB07F7D1E93B
:10141000002312EB070843EBE779C1E900890B6A67
:1014200001330B6201300828B4DD0935274B1B88D6
:10143000AB4224DD74191F4B33F814309BB2244A9D
:101440001380A3F500631BB2224A1380002B05DD35
:10145000124AB2F90020002AFFF65DAF0F4A13804E
:101460000F4BB3F900201C4B1B689A423FF45AAF54
:101470000C4B1B78002B7FF45CAF0020D3E7064BAE
:1014800001221A7000224FF48061024802F07AFBB8
:10149000BDE8F883000C004800000020BE53002087
:1014A000640D0020200D0020500A0020B80B002001
:1014B000280D0020D0530020680D0020C8530020C4
:1014C0006C0D0020CC530020660D0020CE99000842
:1014D000BC5300206A0D00200C00002008B5064611
:1014E0000D46054C2B4632460449204604F0C4F90B
:1014F000204600F0F1FBF4E7209A0020D498000881
:1015000000B5A7B002231C9301221F921022209243
:1015100022934FF4004323934FF4E01324930023CA
:1015200025931CA801F09CFC78BB0F231793022184
:101530001891002319934FF480621A921B9317A8F5
:1015400001F0CAFF30BB42F203030193012303936E
:101550004FF4803304930023119301A802F0BEF8E6
:10156000E8B902F089F8104BA3FB0030800902F0C3
:1015700095FC042002F0A8FC002211464FF0FF3039
:1015800002F04CFC27B05DF804FB40F281110748E3
:10159000FFF7A4FF40F28F110448FFF79FFF40F2CE
:1015A00099110248FFF79AFFD34D6210C8980008BE
:1015B00070B52DED088B94B0B84BD3ED00AADFEDDC
:1015C000B87A6AEEA7AAB74B93ED00AA2AEE27AA2B
:1015D00001F00EFCFFF794FF00F09CF902F0B0FE62
:1015E00000F0CEFA02F0E6FE02F002FD04F02EF862
:1015F00002F0B4FC00F0A0FAAB4800F06DFBAB4B7E
:101600001E883246AA49AB4804F036F90021AA48A0
:1016100003F088FA0021A94803F084FAA84803F0EF
:10162000C7FF022001F008FC02F062FE19E1002071
:10163000A44B1870FFF762FE18E1A34B00221A704A
:101640003046FFF75BFE16E19FEDA09A73E09FED39
:101650009F8A75E0DFED9D7A0134964D13931294C5
:1016600017EE900AFFF78AF8CDE910010E9418EEF4
:10167000100AFFF783F8CDE90C010A9418EE900ADE
:10168000FFF77CF8CDE9080106941BEE100AFFF77E
:1016900075F8CDE90401029419EE100AFFF76EF80F
:1016A000CDE9000122468A49284604F0E5F828469B
:1016B00000F020FB284600F00FFB01F0B7FB0246CC
:1016C0008449284604F0D8F8284600F005FB082C89
:1016D00067DCA3002344DA007F4D1544D5ED067A7C
:1016E000F8EEE77A95ED087AB8EE478AC7EE888A71
:1016F000D5ED077AF8EEE77AC7EE889AD5E90201C8
:10170000FFF734FC07EE900A87EE889A68EEA87A15
:1017100039EE679AD5E90401FFF728FC07EE900A35
:10172000C7EE887A29EEA98A37EEC88AB5EEC09A44
:10173000F1EE10FA88D4B5EEC08AF1EE10FA86D434
:10174000B0EE490A08F074F820EE2A9AB0EE480A82
:1017500008F06EF820EE0ABAA3002344DA005E4DCA
:101760001544D5E90001FFF709FC2B6A07EE903A12
:10177000B8EE677A07EE900AC7EE877A68EEA98A14
:1017800077EEE87A6AEE8A8A68EEA78A29EE0B8AF3
:10179000B5EE408AF1EE10FA3FF45CAFC8EE887AFD
:1017A0005AE701F043FB434C02464C49204604F003
:1017B00063F8204600F09EFA494B1A6849492046D2
:1017C00004F05AF8204600F095FA01F02FFB464944
:1017D0000B68C21A454C2368454D45F82320013358
:1017E00023600860132B04DD424B01221A70002293
:1017F0002260002307E03E4A52F823003E490A686F
:1018000002440A600133132BF5DD3B4CD4ED007A22
:10181000B8EE677A394B1B6803EB83039A0007EE37
:10182000902AF8EEE77AC7EE276ADFED357AC7EE41
:10183000A67A17EE900AFEF7A1FF1E4D2D4B1B78DE
:10184000009302460B462F49284604F015F8284617
:1018500000F050FA002222604FF400712A4802F092
:1018600091F9184B1B78002B7FF4E1AE164B1B78D7
:10187000002B7FF4E2AE254B1B78002BF1D0244BDC
:101880001B78002BEDD001224FF400711E4802F0AE
:1018900079F900241D4B1C7019E700BF08000020D7
:1018A0003333533A04000020EC980008CE99000826
:1018B00000990008209A0020B8E200200CE30020E4
:1018C000A4E30020C7530020C653002000000000FE
:1018D0000899000844990008B80B002054990008A2
:1018E000240D002060990008440A00203C0A0020D2
:1018F000EC090020480A0020400A00200C000020CB
:1019000000007A4468990008000C0048280D002067
:10191000000000202DE9F04F8DB0814B5A6942F450
:1019200000125A615A6902F400120192019A5A692E
:1019300042F400225A615A6902F400220292029A89
:101940005A6942F480025A615A6902F48002039291
:10195000039A5A6942F400325A615A6902F4003219
:101960000492049A5A6942F480225A615A6902F434
:1019700080220592059A5A6942F480125A615B6985
:1019800003F480130693069BDFF8A48100224FF432
:10199000E061404602F0F6F8624E00224FF400711A
:1019A000304602F0EFF84CF27E0BCDF81CB0032568
:1019B000089500240994DFF87CA107A9504602F09D
:1019C0000BF843F23F0307930895099407A93046A3
:1019D00002F002F840F2446307930895099407A9BE
:1019E000514801F0F9FF43F6F20307930895099473
:1019F00007A94FF0904001F0EFFF4AF60443079328
:101A000008950994494F07A9384601F0E5FF44F2CB
:101A1000C80307930894099407A9384601F0DCFF2E
:101A20004FF4E06307934FF00109CDF8209009943B
:101A30000A9407A9404601F0CFFF43F281030793C0
:101A40000894099407A9404601F0C6FFCDF81CB0E0
:101A50000895099407A9404601F0BEFF4FF4E073D2
:101A600007930894099407A9304601F0B5FF4FF495
:101A700000730793CDF8209009940A9407A9304683
:101A800001F0AAFF4FF4807307930894099407A903
:101A90004FF0904001F0A0FF4FF4004307934FF048
:101AA0000208CDF8208009940A954FF0050BCDF877
:101AB0002CB007A94FF0904001F08EFF4FF4406327
:101AC0000793CDF8208009940A95CDF82CB007A98A
:101AD000304601F081FF30230793CDF82080099430
:101AE0000A95CDF82CB007A9384601F075FF4FF4E0
:101AF00040730793CDF8208009940A9507230B9330
:101B000007A9384601F068FFCDF81C9008940994A5
:101B100007A9504601F060FF0DB0BDE8F08F00BF8F
:101B2000001002400008004800140048000400486B
:101B3000000C00480010004808B50E480E4B03602A
:101B40004FF4E123436000238360C36003610C22F0
:101B500042618361C3610362202343624FF40053F7
:101B6000C36300F0B8FF00B908BD4A210348FFF77E
:101B7000B5FCF9E7409B002000380140809900083F
:101B800008B50E480E4B03604FF4E1234360002379
:101B90008360C36003610C2242618361C36103629D
:101BA000202343624FF40053C36300F094FF00B955
:101BB00008BD60210348FFF791FCF9E7B09B0020C6
:101BC000004400408099000830B589B003683A4A63
:101BD000934204D0394A934253D009B030BD0446F1
:101BE000374B9A6942F480429A619B6903F48043BF
:101BF0000193019B4FF4C0630393022304930025D8
:101C00000595032306930723079303A94FF09040FC
:101C100001F0E2FE2B482C4B036045608560802379
:101C2000C360056145618561C56101F0EDFFF0B9F3
:101C3000244B63665C622548254B03601023436098
:101C4000002383608022C260036143618361C361BA
:101C500001F0DAFF80B91D4B23665C620022114659
:101C6000252002F0DBF8252002F00CF9B5E78821E9
:101C70001848FFF733FCDBE798211648FFF72EFCE6
:101C8000E9E70F4BDA6942F40032DA61DB6903F409
:101C900000330293029B0C2303930223049300233B
:101CA0000593032306930723079303A94FF090405E
:101CB00001F092FE91E700BF00380140004400406F
:101CC00000100240FC9A002058000240B89A002000
:101CD000440002408099000810B50446FEF790FACF
:101CE0004FF47A7382B22146014800F055FE10BDD0
:101CF000B09B002010B50446FEF782FA4FF47A73C9
:101D000082B22146014800F047FE10BD409B0020F2
:101D100008B501F07FF802F0E8F808BD08B5024800
:101D200002F010F808BD00BF60E3002008B50248CB
:101D300002F008F808BD00BFB89A002008B50248B4
:101D400002F000F808BD00BFFC9A002008B5024868
:101D500002F034FF08BD00BFB8E2002008B5024819
:101D600000F070FF08BD00BF409B002008B502488E
:101D700002F024FF08BD00BF0CE3002008B50248B4
:101D800001F0E0FF08BD00BF74E2002000B583B0A1
:101D9000214B9A6942F001029A619A6902F00102AC
:101DA0000092009ADA6942F08052DA61DB6903F04E
:101DB00080530193019B032002F01EF8002211467C
:101DC0006FF00B0002F02AF8002211466FF00A00B3
:101DD00002F024F8002211466FF0090002F01EF80C
:101DE000002211466FF0040002F018F8002211469C
:101DF0006FF0030002F012F8002211466FF00100AC
:101E000002F00CF8002211464FF0FF3002F006F805
:101E100003B05DF804FB00BF001002400368324AC3
:101E2000904212D0B0F1804F0FD0A2F59432904280
:101E30000BD002F58062904207D002F596329042B4
:101E400003D002F5E052904203D123F070034A68B8
:101E50001343254A90421ED0B0F1804F1BD0A2F50B
:101E60009432904217D002F58062904213D002F56E
:101E7000963290420FD002F5406290420BD002F5AC
:101E80008062904207D002F58062904203D002F552
:101E90000062904203D123F44073CA68134323F0D5
:101EA00080034A69134303608B68C3620B688362D3
:101EB0000D4B984213D003F5006398420FD003F501
:101EC000406398420BD003F58063984207D003F536
:101ED0008063984203D003F50063984201D10B69F7
:101EE0000363012343617047002C0140B0B110B57A
:101EF000044690F83D3063B1022384F83D3021461A
:101F000051F8040BFFF78AFF012384F83D300020CD
:101F100010BD80F83C3003F067FBEDE7012070470F
:101F200030B4036A23F001030362036A44688269E0
:101F300022F4803222F073020D682A4323F0020358
:101F40008D682B43204DA84213D005F50065A842AB
:101F50000FD005F54065A8420BD005F58065A84275
:101F600007D005F58065A84203D005F50065A842B5
:101F700005D123F00803CD682B4323F00403124D51
:101F8000A84213D005F50065A8420FD005F54065BD
:101F9000A8420BD005F58065A84207D005F58065FD
:101FA000A84203D005F50065A84205D124F4407588
:101FB0004C692C438D692C43446082614A684263BA
:101FC000036230BC704700BF002C014030B4036A8C
:101FD00023F010030362036A4468826922F080726E
:101FE00022F4E6420D6842EA052223F020038D68C0
:101FF00043EA05131B4DA84207D005F50065A8422A
:1020000003D005F5E055A84206D123F08003CD6842
:1020100043EA051323F04003124DA84213D005F5FF
:102020000065A8420FD005F54065A8420BD005F524
:102030008065A84207D005F58065A84203D005F564
:102040000065A84207D124F440644D6944EA850440
:102050008D6944EA8504446082614A688263036250
:1020600030BC7047002C014030B4036A23F4807305
:102070000362036A4468C26922F4803222F0730268
:102080000D682A4323F400738D6843EA05231C4D31
:10209000A84207D005F50065A84203D005F5E05534
:1020A000A84206D123F40063CD6843EA052323F454
:1020B0008063134DA84213D005F50065A8420FD0E8
:1020C00005F54065A8420BD005F58065A84207D00C
:1020D00005F58065A84203D005F50065A84207D143
:1020E00024F440544D6944EA05148D6944EA05140A
:1020F0004460C2614A68C263036230BC704700BF7B
:10210000002C014030B4036A23F480530362036A55
:102110004468C26922F0807222F4E6420D6842EA05
:10212000052223F400538D6843EA0533114DA8427C
:1021300013D005F50065A8420FD005F54065A8420B
:102140000BD005F58065A84207D005F58065A8424B
:1021500003D005F50065A84204D124F480444D69FC
:1021600044EA85144460C2614A680264036230BC78
:10217000704700BF002C014010B4012303FA01F4A2
:10218000036A23EA04030362036A8A401343036277
:102190005DF8044B7047000010B50446012200684A
:1021A000FFF7EAFF2368114A934213D002F5006259
:1021B00093420FD002F5406293420BD002F5806249
:1021C000934207D002F58062934203D002F5006289
:1021D000934203D15A6C42F400425A642268136855
:1021E00043F001031360002010BD00BF002C01402C
:1021F00010B5044600220068FFF7BEFF23681C4AA2
:10220000934213D002F5006293420FD002F5406270
:1022100093420BD002F58062934207D002F58062B0
:10222000934203D002F5006293420DD1196A41F244
:102230001112114208D1196A40F24442114203D1ED
:102240005A6C22F400425A642368196A41F211124E
:10225000114208D1196A40F24442114203D11A686E
:1022600022F001021A60012384F83D30002010BDE5
:10227000002C014030B4036A23F480330362036A04
:102280004468426D22F4803222F070020D682A43C5
:1022900023F400338D6843EA0543114DA84213D05F
:1022A00005F50065A8420FD005F54065A8420BD0A2
:1022B00005F58065A84207D005F58065A84203D0E2
:1022C00005F50065A84204D124F480344D6944EA40
:1022D0000524446042654A688265036230BC7047E9
:1022E000002C014030B4036A23F480130362036AB4
:1022F0004468426D22F0807222F4E0420D6842EAA6
:10230000052223F400138D6843EA0553114DA842BA
:1023100013D005F50065A8420FD005F54065A84229
:102320000BD005F58065A84207D005F58065A84269
:1023300003D005F50065A84204D124F480244D693A
:1023400044EA8524446042654A68C265036230BC41
:10235000704700BF002C014038B590F83C30012B8D
:1023600000F092800D460446012380F83C300223A1
:1023700080F83D30142A1ED8DFE802F00B1D1D1D29
:10238000241D1D1D381D1D1D4B1D1D1D5F1D1D1DEB
:1023900072000068FFF7C4FD2268936943F00803E8
:1023A00093612268936923F004039361226893691F
:1023B00029690B439361012384F83D30002084F8A0
:1023C0003C0038BD0068FFF701FE2268936943F4C2
:1023D000006393612268936923F4806393612268A8
:1023E0009369296943EA01239361E4E70068FFF7F1
:1023F0003BFE2268D36943F00803D3612268D369A6
:1024000023F00403D3612268D36929690B43D361A4
:10241000D1E70068FFF776FE2268D36943F40063D2
:10242000D3612268D36923F48063D3612268D369BE
:10243000296943EA0123D361BDE70068FFF71AFF6A
:102440002268536D43F0080353652268536D23F0EF
:10245000040353652268536D29690B435365AAE74A
:102460000068FFF73FFF2268536D43F40063536534
:102470002268536D23F4806353652268536D296984
:1024800043EA0123536596E702209AE790F83C302F
:10249000012B26D030B4012380F83C300268536809
:1024A0009568114CA24207D004F50064A24203D003
:1024B00004F5E054A24203D123F470034C68234393
:1024C00023F070030C68234325F0800489682143BE
:1024D000536003689960002380F83C30184630BC94
:1024E00070470220704700BF002C014090F83C303C
:1024F000012B45D010B4012380F83C30CB6823F485
:1025000040738A68134323F480634A68134323F4B7
:1025100000630A68134323F480530A69134323F4C6
:1025200000534A69134323F480438A6A134323F414
:102530000043134323F470238A6943EA0243026889
:10254000104CA24207D004F50064A24203D004F567
:10255000E054A2420CD123F470034C6A43EA0453C2
:1025600023F08073CC69234323F00073096A0B4383
:102570005364002380F83C3018465DF8044B7047E4
:1025800002207047002C01400268136823F4907306
:1025900013600268936823F001039360202380F89E
:1025A0006A30704770477047704708B5406A00232B
:1025B000A0F85A30A0F85230FFF7F6FF08BD00002F
:1025C00038B5044683680269134342691343C269FC
:1025D0001343016808689F4A024013430B60226856
:1025E000536823F44053E1680B435360A369226AA4
:1025F0001A4321688B6823F4306313438B6023688C
:10260000954A93420DD0954A93421DD0944A9342E5
:1026100043D0944A934258D0934A93426DD01025A8
:1026200027E002F55842126B02F00302032A09D890
:10263000DFE802F00204067B01251AE0042518E019
:10264000082516E0102514E002F5E632126B02F4BC
:102650004032B2F5803F6AD007D9B2F5003F68D06A
:10266000B2F5403F17D1022503E00AB9002500E08A
:102670001025E269B2F5004F69D0082D00F2E8801C
:10268000DFE815F0AD00B800C400E600D000E600B9
:10269000E600E600DC001025EBE702F5E432126B01
:1026A00002F44022B2F5802F45D007D9B2F5002FB1
:1026B00043D0B2F5402F06D10225DAE70AB900254A
:1026C000D7E71025D5E71025D3E702F5E232126BE4
:1026D00002F44012B2F5801F31D007D9B2F5001FC5
:1026E0002FD0B2F5401F06D10225C2E70AB9002556
:1026F000BFE71025BDE71025BBE702F5E032126BFE
:1027000002F44002B2F5800F1DD007D9B2F5000FD8
:102710001BD0B2F5400F06D10225AAE70AB9002561
:10272000A7E71025A5E71025A3E70225A1E70425C3
:102730009FE708259DE704259BE7082599E70425E1
:1027400097E7082595E7042593E7082591E7082DE5
:1027500042D8DFE805F0051722412D4141413800FC
:1027600000F090FF6268530803EB4003B3FBF2F301
:102770009BB223F00F02C3F3420313432268D360DA
:10278000284638BD00F094FF6268530803EB40030D
:10279000B3FBF2F39BB20025EBE76268530803F545
:1027A000740303F51053B3FBF2F39BB20025E0E78B
:1027B00000F05AFE6268530803EB4003B3FBF2F3E8
:1027C0009BB20025D5E76268530803F58033B3FB5D
:1027D000F2F39BB20025CCE701250023C9E700F006
:1027E00051FF636800EB5300B0FBF3F0236880B245
:1027F000D860C5E700F05CFF636800EB5300B0FBF6
:10280000F3F0236880B2D8600025B9E761684A0810
:1028100002F5F40202F59052B2FBF1F292B2DA60E4
:102820000025ADE700F020FE636800EB5300B0FB2D
:10283000F3F0236880B2D8600025A1E761684A08F8
:1028400002F50042B2FBF1F292B2DA60002597E79E
:10285000012595E7F369FFEF00380140004400408F
:1028600000480040004C004000500040436A13F014
:10287000010F06D00268536823F40033816A0B43CA
:102880005360436A13F0020F06D00268536823F4C2
:102890008033C16A0B435360436A13F0040F06D0C0
:1028A0000268536823F48023016B0B435360436A2F
:1028B00013F0080F06D00268536823F40043416BFD
:1028C0000B435360436A13F0100F06D002689368FD
:1028D00023F48053816B0B439360436A13F0200F02
:1028E00006D00268936823F40053C16B0B439360D6
:1028F000436A13F0400F0AD00268536823F4801330
:10290000016C0B435360036CB3F5801F0BD0436A1B
:1029100013F0800F06D00268536823F40023816C03
:102920000B43536070470268536823F4C003416C43
:102930000B435360EBE72DE9F04105460F46164681
:102940009846069C2B68DB6937EA03030CBF01231A
:102950000023B3421DD1B4F1FF3FF3D02CB100F0FE
:1029600065FAA0EB0800A042ECD92A68136823F4AA
:10297000D07313602A68936823F0010393602023C7
:1029800085F8693085F86A30002385F868300320BF
:1029900000E00020BDE8F0812DE9F04182B01E4644
:1029A00090F86930DBB2202B4ED104460D4690469C
:1029B00000294ED0002A4ED090F86830012B4CD020
:1029C000012380F868300023C366212380F8693032
:1029D00000F02CFA0746A4F85080A4F8528003E0D7
:1029E000236815F8012B1A85B4F852309BB2DBB17D
:1029F000B4F85230013B9BB2A4F8523000963B46EB
:102A0000002280212046FFF796FF40BBA368B3F564
:102A1000805FE5D12369002BE2D1226835F8023BC3
:102A2000C3F308031385DFE700963B4600224021ED
:102A30002046FFF780FF034698B9202284F86920DA
:102A4000002284F8682000E00223184602B0BDE8A6
:102A5000F0810123F9E70123F7E70223F5E70323D8
:102A6000F3E70323F1E730B583B004460023C366E0
:102A700000F0DCF9054623681B6813F0080F0ED13F
:102A800023681B6813F0040F17D1202384F86930E2
:102A900084F86A30002084F8680003B030BD6FF01D
:102AA0007E430093034600224FF400112046FFF7B7
:102AB00042FF0028E4D00320EFE76FF07E4300934D
:102AC0002B4600224FF480012046FFF734FF0028F8
:102AD000DBD00320E1E778B310B5044690F8693005
:102AE0000BB3242384F869302268136823F00103B0
:102AF00013602046FFF764FD012813D0636ABBB959
:102B00002268536823F4904353602268936823F04B
:102B10002A0393602268136843F001031360204680
:102B2000FFF7A1FF10BD80F86830FFF74DF8D8E738
:102B30002046FFF79BFEE3E70120704790F86930DD
:102B4000DBB2212B2ED1B0F852309BB25BB90268B8
:102B5000136823F0800313600268136843F0400396
:102B60001360002070478368B3F5805F0DD0C36C9D
:102B70005A1CC26402681B781385B0F85230013BBE
:102B80009BB2A0F85230002070470369002BEED1B1
:102B9000C36C02681B88C3F308031385C36C02333C
:102BA000C364EAE70220704708B501680B6823F0A8
:102BB00040030B60202380F86930FFF7F3FC00200E
:102BC00008BDB0F85C3090F86A20D2B2222A31D128
:102BD00010B50268928C92B28168B1F5805F0ED018
:102BE000DBB2416D4C1C446513400B70B0F85A3099
:102BF000013B9BB2A0F85A305BB1002010BD0169C7
:102C00000029EDD1416D13400B80436D02334365C4
:102C1000ECE70268136823F490731360026893680A
:102C200023F001039360202380F86A30FFF7BBFC98
:102C30000020E3E70268936943F0080393610220F0
:102C40007047000038B504460268D369116813F074
:102C50000F0505D113F0200F02D011F0200F1BD16A
:102C600090682DB110F0010519D111F4907F16D1A3
:102C700013F4801F02D010F4800F7BD113F0800F6B
:102C800003D011F0800F40F0818013F0400F02D08C
:102C900011F0400F7ED138BDFFF793FFFBE713F033
:102CA000010F07D011F4807F04D001201062E26E82
:102CB0000243E26613F0020F07D035B1226802200A
:102CC0001062E26E42F00402E26613F0040F07D0D5
:102CD00035B1226804201062E26E42F00202E26620
:102CE00013F0080F09D011F0200F00D12DB1226888
:102CF00008201062E26E0243E266E26E002ACAD049
:102D000013F0200F02D011F0200F21D1E36E13F049
:102D1000080F04D123689B6813F0400F24D020468D
:102D2000FFF732FC23689A6812F0400F18D09A68B7
:102D300022F040029A60636E73B1184A5A63606E63
:102D400000F0DBFF0028A6D0606E436B9847A2E737
:102D50002046FFF736FFD9E72046FFF725FC9AE724
:102D60002046FFF721FC96E72046FFF71DFC0023D5
:102D7000E36690E74FF480131362202384F86930F0
:102D800084F86A30204600F00BF884E72046FFF70D
:102D9000D5FE80E72046FFF707FF7CE7AB2500085C
:102DA0007047000010B504460E4B18784FF47A7344
:102DB000B3FBF0F30C4A1068B0FBF3F001F06EF8CF
:102DC00068B90F2C01D901200AE0002221464FF0FA
:102DD000FF3001F023F8054B1C60002000E00120CB
:102DE00010BD00BF100000201800002014000020BB
:102DF00008B5074A136843F010031360032000F07E
:102E0000FBFF0020FFF7CEFFFEF7C0FF002008BD4C
:102E100000200240034A1168034B1B780B441360E7
:102E2000704700BF209C002010000020014B186854
:102E3000704700BF209C002038B50446FFF7F6FF1E
:102E40000546B4F1FF3F02D0044B1B781C44FFF74A
:102E5000EDFF401BA042FAD338BD00BF1000002098
:102E6000002800F0ED8270B582B00446036813F0CC
:102E7000010F3DD0C74B5B6803F00C03042B20D03F
:102E8000C44B5B6803F00C03082B13D06368B3F5E5
:102E9000803F6AD0002B40F08D8003F1804303F522
:102EA00004331A6822F480321A601A6822F48022ED
:102EB0001A605FE0B74B5B6803F4C033B3F5803F43
:102EC000E4D14FF4003393FAA3F3B24B19684FF4F3
:102ED000003393FAA3F3B3FA83F303F01F03012241
:102EE00002FA03F30B4203D06368002B00F0AA82BE
:102EF000236813F0020F00F0C080A64B5B6813F04C
:102F00000C0F00F09780A34B5B6803F00C03082BB9
:102F100000F08880E368002B00F0ED80012292FA37
:102F2000A2F3B3FA83F303F1845303F584139B00F4
:102F30001A60FFF77BFF0546022393FAA3F3954B34
:102F40001968022393FAA3F3B3FA83F303F01F0380
:102F5000012202FA03F30B4240F0BE80FFF766FF46
:102F6000401B0228E8D9032075E28A4A136843F41B
:102F7000803313606368002B36D0FFF757FF054698
:102F80004FF4003393FAA3F3824B19684FF40033E4
:102F900093FAA3F3B3FA83F303F01F03012202FAB7
:102FA00003F31942A4D1FFF741FF401B6428E7D97E
:102FB000032050E2B3F5A02F09D0764B1A6822F413
:102FC00080321A601A6822F480221A60D2E703F174
:102FD0008043A3F53C331A6842F480221A601A68D1
:102FE00042F480321A60C5E7FFF720FF05464FF430
:102FF000003393FAA3F3674B19684FF4003393FA45
:10300000A3F3B3FA83F303F01F03012202FA03F3DD
:1030100019423FF46DAFFFF709FF401B6428E6D962
:10302000032018E25B4B5B6803F4C033B3F5004F39
:103030007FF470AF022393FAA3F3564B196802236F
:1030400093FAA3F3B3FA83F303F01F03012202FA06
:1030500003F3194203D0E368934240F0F5814D48F1
:10306000036823F0F8032169F82292FAA2F2B2FA77
:1030700082F201FA02F213430360236813F0080F8F
:1030800000F08C806369002B5CD0012191FAA1F2E1
:10309000B2FA82F2404B13449B001960FFF7C6FE60
:1030A0000546022393FAA3F293FAA3F293FAA3F24A
:1030B000384A516A93FAA3F3B3FA83F303F01F0378
:1030C000012202FA03F30B4268D1FFF7AFFE401B67
:1030D0000228E6D90320BEE12E48036823F0F80356
:1030E0002169F82292FAA2F2B2FA82F201FA02F20D
:1030F00013430360C1E7012393FAA3F3B3FA83F305
:1031000003F1845303F584139B0000221A60FFF738
:103110008DFE0546022393FAA3F31E4B1968022382
:1031200093FAA3F3B3FA83F303F01F03012202FA25
:1031300003F31942A1D0FFF779FE401B0228E9D919
:10314000032088E1012292FAA2F2B2FA82F2124B33
:1031500013449B0000221A60FFF768FE0546022315
:1031600093FAA3F293FAA3F293FAA3F2094A516AEB
:1031700093FAA3F3B3FA83F303F01F03012202FAD5
:1031800003F30B420AD0FFF751FE401B0228E6D999
:10319000032060E10010024020819010236813F0AA
:1031A000040F00F0A980AE4BDB6913F0805F0BD1F8
:1031B000AB4BDA6942F08052DA61DB6903F080538D
:1031C0000193019B012500E00025A64B1B6813F429
:1031D000807F10D0A368012B21D063BB03F1804313
:1031E00003F504331A6A22F001021A621A6A22F005
:1031F00004021A6218E09B4A136843F48073136058
:10320000FFF714FE0646974B1B6813F4807FE1D14D
:10321000FFF70CFE801B6428F5D903201BE1904AC0
:10322000136A43F001031362A368002B3CD0FFF73D
:10323000FDFD06462EE0052B09D0894B1A6A22F0C7
:1032400001021A621A6A22F004021A62ECE7844B45
:103250001A6A42F004021A621A6A42F001021A6201
:10326000E2E7022393FAA3F37D4B596A022393FA10
:10327000A3F3B3FA83F303F01F03012202FA03F36B
:10328000194238D1FFF7D2FD801B41F288339842B2
:1032900000F2DC80022393FAA3F293FAA3F3002B4B
:1032A000DFD06F4B196AE1E7FFF7C0FD064618E073
:1032B000022393FAA3F36A4B596A022393FAA3F306
:1032C000B3FA83F303F01F03012202FA03F3194256
:1032D00011D0FFF7ABFD801B41F28833984200F21A
:1032E000B780022393FAA3F293FAA3F3002BDFD063
:1032F0005B4B196AE1E7B5BBA369002B00F0AA801C
:10330000574A526802F00C02082A00F0A680022BED
:103310002FD04FF0807393FAA3F3B3FA83F303F142
:10332000845303F584139B0000221A60FFF77EFD8F
:1033300004464FF0007393FAA3F3494B19684FF01A
:10334000007393FAA3F3B3FA83F303F01F0301228C
:1033500002FA03F3194271D0FFF768FD001B02283F
:10336000E7D9032077E03E4AD36923F08053D36145
:10337000C2E74FF0807393FAA3F3B3FA83F303F138
:10338000845303F584139B0000221A60FFF74EFD5F
:1033900005464FF0007393FAA3F3314B19684FF0D1
:1033A000007393FAA3F3B3FA83F303F01F0301222C
:1033B00002FA03F3194206D0FFF738FD401B02283A
:1033C000E7D9032047E0264AD36A23F00F03616A56
:1033D0000B43D362536823F47613216AE0690143F7
:1033E0000B4353604FF0807393FAA3F3B3FA83F364
:1033F00003F1845303F584139B0001221A60FFF745
:1034000015FD04464FF0007393FAA3F3144B1968AB
:103410004FF0007393FAA3F3B3FA83F303F01F039F
:10342000012202FA03F3194206D1FFF7FFFC001B49
:103430000228E7D903200EE000200CE000200AE07B
:1034400001207047012006E0012004E0032002E093
:10345000032000E0002002B070BD0120FBE700BFA8
:103460000010024000700040174B5B6803F00C0234
:10347000082A01D01548704703F470114FF47012F8
:1034800092FAA2F2B2FA82F221FA02F21049885CB0
:103490000D4AD26A02F00F020F2191FAA1F1B1FA9E
:1034A00081F1CA400B498A5C13F4803F05D0074B79
:1034B000B3FBF2F300FB03F07047044BB3FBF2F3F2
:1034C00000FB03F0704700BF0010024000127A00BA
:1034D0008C9900089C990008002800F0BD8070B508
:1034E0000446614B1B6803F007038B420BD25E4A14
:1034F000136823F007030B431360136803F00703FB
:103500008B4240F0AB80236813F0020F06D0574A7D
:10351000536823F0F003A068034353600D4623680B
:1035200013F0010F5AD06368012B2DD0022B40D02D
:10353000022292FAA2F24D4A1068022292FAA2F2F4
:10354000B2FA82F202F01F02012101FA02F21042E5
:1035500000F0868045494A6822F0030213434B601D
:10356000FFF764FC0646414B5B6803F00C0362689E
:10357000B3EB820F32D0FFF759FC801B41F2883346
:103580009842F0D9032066E04FF4003292FAA2F29A
:10359000364A10684FF4003292FAA2F2B2FA82F27E
:1035A00002F01F02012101FA02F20242D2D10120EF
:1035B00051E04FF0007292FAA2F22C4A10684FF0DC
:1035C000007292FAA2F2B2FA82F202F01F02012114
:1035D00001FA02F21042BDD101203CE0224B1B68EF
:1035E00003F00703AB420AD91F4A136823F007030D
:1035F0002B431360136803F00703AB4232D12368F7
:1036000013F0040F06D0194A536823F4E063E1680D
:103610000B435360236813F0080F07D0134A536815
:1036200023F46053216943EAC1035360FFF71CFF91
:103630000E4B5B6803F0F003F02292FAA2F2B2FAAA
:1036400082F2D3400A4AD35CD8400A4B186000206B
:10365000FFF7A8FB002070BD012070470120FAE7AA
:103660000120F8E70120F6E70020024000100240A8
:10367000AC99000818000020014B1868704700BF83
:103680001800002008B5FFF7F7FF074B5B6803F44D
:10369000E0634FF4E06292FAA2F2B2FA82F2D3400F
:1036A000024AD35CD84008BD00100240BC99000813
:1036B00008B5FFF7E1FF074B5B6803F460534FF475
:1036C000605292FAA2F2B2FA82F2D340024AD35C7A
:1036D000D84008BD00100240BC990008F0B583B086
:1036E0000446036813F4803F48D0A14BDB6913F014
:1036F000805F40F022819E4BDA6942F08052DA61AD
:10370000DB6903F080530193019B0125994B1B68F2
:1037100013F4807F00F01381954B1B6A13F4407300
:1037200022D0626802F440729A421DD09048016A29
:1037300021F440764FF4803393FAA3F2B2FA82F286
:103740008D4F3A4492004FF0010CC2F800C093FA3A
:10375000A3F3B3FA83F33B449B0000221A60066292
:1037600011F0010F40F00081814A136A23F4407385
:1037700061680B431362002D40F02381236813F02E
:10378000010F06D07A4A136B23F00303A1680B43A1
:103790001363236813F0020F06D0754A136B23F4EA
:1037A0004033E1680B431363236813F0040F06D022
:1037B0006F4A136B23F4402321690B43136323687F
:1037C00013F0200F06D06A4A136B23F01003E1694F
:1037D0000B431363236813F4003F06D0644A536815
:1037E00023F48003616D0B435360236813F0400F93
:1037F00006D05F4A136B23F02003216A0B43136347
:10380000236813F4802F06D0594A136B23F040032A
:10381000616A0B431363236813F0080F06D0544A00
:10382000136B23F4401361690B431363236813F094
:10383000100F06D04E4A136B23F44003A1690B43CB
:103840001363236813F4007F06D0494A536823F4B6
:103850000003216B0B435360236813F0800F06D0E5
:10386000434AD36A23F4F873A16A0B43D3622368F3
:1038700013F4807F06D03E4AD36A23F47853E16A7A
:103880000B43D362236813F4805F06D0384A136B6E
:1038900023F48073616B0B431363236813F4005F9D
:1038A00006D0334A136B23F40073216C0B4313636C
:1038B000236813F4801F06D02D4A136B23F0807306
:1038C000A16B0B431363236813F4001F06D0284A2F
:1038D000136B23F00073E16B0B431363236813F442
:1038E000800F06D0224A136B23F48063616C0B4374
:1038F0001363236813F4000F06D01D4A136B23F4DF
:103900000063A16C0B431363236813F0807F06D020
:10391000174A136B23F40053E16C0B4313632368C2
:1039200013F0007F54D0124A136B23F40043216D2F
:103930000B431363002003B0F0BD0025E6E60D4AFB
:10394000136843F480731360FFF770FA0646094B5F
:103950001B6813F4807F7FF4DFAEFFF767FA801BEC
:103960006428F4D90320E6E7FFF760FA06461BE077
:10397000001002400070004000819010154B196A41
:10398000022393FAA3F3B3FA83F303F01F03012294
:1039900002FA03F30B427FF4E7AEFFF747FA801B0E
:1039A00041F28833984211D8022393FAA3F293FA92
:1039B000A3F3002BE2D1022393FAA3F3054B596A38
:1039C000DEE7D36923F08053D361D7E60320B2E763
:1039D0000020B0E700100240F0B482B0002336E0CF
:1039E000062400E00024B4403C430235614E46F812
:1039F0002540614C2568D44304EA05064F6817F456
:103A0000803F01D042EA05065B4D2E606D6804EAF6
:103A100005064F6817F4003F01D042EA0506564DEF
:103A20006E60AD6804EA05064F6817F4801F01D088
:103A300042EA0506504DAE60ED682C404E6816F423
:103A4000001F01D042EA05044B4AD46001330A68E2
:103A500032FA03F400F08B8001249C402240F5D020
:103A60004D68022D01D0122D10D1DE08083650F815
:103A700026C003F00705AF000F25BD402CEA050C5A
:103A80000D69BD4045EA0C0540F8265006685F0008
:103A90000325BD40ED4305EA060C4E6806F003061B
:103AA000BE4046EA0C0606604E6806F1FF3CBCF1DB
:103AB000010F03D9112E01D0122E10D1866805EA0C
:103AC000060CCE68BE4046EA0C068660466826EACA
:103AD00004044E68C6F300169E4026434660C46840
:103AE00025408C68BC402C43C4604C6814F0805F57
:103AF000ACD0224CA56945F00105A561A46904F08C
:103B000001040194019C9D08AE1C1A4C54F82670C7
:103B100003F00304A6000F24B44027EA0407B0F121
:103B2000904F3FF45FAF164CA04216D004F580646E
:103B3000A04214D004F58064A04212D004F5806441
:103B4000A04210D004F58064A0420ED004F5806439
:103B5000A0423FF445AF072445E7012443E7022490
:103B600041E703243FE704243DE705243BE702B097
:103B7000F0BC70470000014000040140001002400A
:103B8000000400480AB1816170478162704770B4D7
:103B9000066CC56B0124B4406C60046863604368C4
:103BA000102B05D0036899600368DA6070BC704719
:103BB00003689A600368D960F8E7000002680C4B5C
:103BC0009A420AD80B4B13440B4AA2FB03231B094E
:103BD0009B000364094BC3637047094B1344064AB7
:103BE000A2FB03231B099B000364064BC3637047BE
:103BF00007040240F8FFFDBFCDCCCCCC0000024052
:103C0000F8FBFDBF0004024020B310B504460223B8
:103C100080F8213001680A6822F47F5222F03002D5
:103C2000436880680343E068034320690343606995
:103C30000343A0690343E069034313430B60204639
:103C4000FFF7BCFF0020A063012384F8213084F833
:103C5000200010BD0120704738B590F82040012C9D
:103C600032D0012480F8204090F82140012C04D06B
:103C7000002380F82030022038BD0446022084F85A
:103C800021000020A0632568286820F0010028603A
:103C90002046FFF77CFFE36A5BB12268136843F0BC
:103CA0000E0313602268136843F0010313600020C1
:103CB000E2E72268136843F00A031360226813687E
:103CC00023F004031360EDE70220D5E70346016803
:103CD0000A6822F00E020A6001680A6822F00102F6
:103CE0000A60026CC06B012101FA02F2426083F8A3
:103CF0002110002083F82000704708B590F821308B
:103D0000022B03D004238363012008BD02681368DB
:103D100023F00E0313600268136823F0010313609D
:103D2000036CC16B012202FA03F34B6080F821207F
:103D3000002380F82030436B13B198470020E4E75C
:103D40000020E2E738B5C36B1A6804682568016C87
:103D500004238B40134213D015F0040F10D02368B6
:103D600013F0200F03D1236823F004032360016CB8
:103D7000C26B04238B405360C36A03B1984738BDBC
:103D800002238B4013421AD015F0020F17D023687C
:103D900013F0200F06D1236823F00A0323600123C8
:103DA00080F82130016CC26B02238B4053600023EA
:103DB00080F82030836A002BE1D09847DFE70823A2
:103DC00003FA01F11142DAD015F0080FD7D02368B9
:103DD00023F00E032360026CC16B012303FA02F28D
:103DE0004A60836380F82130002380F82030036B21
:103DF000002BC4D09847C2E7074AD36823F4E06396
:103E00001B041B0C000200F4E060184340F0BF608C
:103E100040F40030D060704700ED00E030B4174B44
:103E2000DB68C3F30223C3F10704042C28BF042476
:103E30001D1D062D01D9033B00E000234FF0FF3587
:103E400005FA04F421EA0401994005FA03F322EA91
:103E500003031943002809DB0901C9B200F16040DE
:103E600000F5614080F8001330BC704700F00F008F
:103E70000901C9B2024B1954F6E700BF00ED00E09A
:103E800014ED00E000F01F02400901239340024AB4
:103E900042F82030704700BF00E100E00138B0F187
:103EA000807F0AD2064B5860064AF02182F8231020
:103EB0000020986007221A6070470120704700BFF9
:103EC00010E000E000ED00E0042805D0054A13688A
:103ED00023F0040313607047024A136843F004039D
:103EE0001360704710E000E0704708B5FFF7FCFF73
:103EF00008BD00001549D1F8883043F47003C1F8BB
:103F00008830134B1A6842F001021A605868114A4F
:103F100002405A601A6822F0847222F480321A60D9
:103F20001A6822F480221A605A6822F4FE025A604B
:103F3000DA6A22F00F02DA62186B074A02401A634B
:103F400000229A604FF000638B60704700ED00E044
:103F5000001002400CC07FF8CCFC00FF00B58BB015
:103F600021484FF0A04303604FF4403343600023E7
:103F7000836003610122C26143624FF40061016307
:103F80004FF40071C162C360026242630822426161
:103F90008361836300F06EFBB8B90023079307A920
:103FA000114801F0EBF9A8B9012301930293002312
:103FB0000493072203920593069301A90A4801F08E
:103FC00009F860B90BB05DF804FB58210748FDF70C
:103FD00085FAE2E760210548FDF780FAE4E76D2104
:103FE0000248FDF77BFAEDE7B8E20020C49900082B
:103FF00000B58BB05F48604B03604FF440334360C3
:104000000023836001220261C26143624FF40061B8
:1040100001634FF40071C162C36009210162426310
:10402000082242618361836300F024FB00286AD187
:104030000023079307A94F4801F0A0F9002867D192
:104040000C2301930123029300230493072203927C
:104050000593069301A9474800F0BCFF00285CD1F6
:10406000012301930223029301A9424800F0B2FF09
:10407000002857D10D2301930323029301A93D4842
:1040800000F0A8FF002852D10623019304230293D5
:104090000DEB0301374800F09DFF00284CD10223AF
:1040A00001930523029301A9324800F093FF0028F1
:1040B00047D10E2301930623029301A92D4800F056
:1040C00089FF002842D10F2301930723029301A9FE
:1040D000284800F07FFF00283DD1102301930823DA
:1040E000029301A9234800F075FF002838D103236B
:1040F00001930923029301A91E4800F06BFFA0BBA6
:104100000BB05DF804FB89211C48FDF7E7F98FE748
:1041100091211A48FDF7E2F992E79E211748FDF731
:10412000DDF99DE7A7211548FDF7D8F9A2E7B021F1
:104130001248FDF7D3F9A7E7B9211048FDF7CEF9EA
:10414000ADE7C2210D48FDF7C9F9B2E7CB210B4815
:10415000FDF7C4F9B7E7D4210848FDF7BFF9BCE77C
:10416000DD210648FDF7BAF9C1E7E6210348FDF76E
:10417000B5F9C5E70CE3002000040050C49900081D
:1041800070B588B004460368B3F1A04F04D0434A29
:10419000934240D008B070BD03F1704303F504337F
:1041A0005A6942F080525A615B6903F0805301936F
:1041B000019B01230393032304930025059503A981
:1041C0004FF09040FFF708FC3548364B03604560E0
:1041D00085608023C3604FF4807303614FF4806374
:1041E0004361202383614FF40053C361FFF70CFD4B
:1041F00058B92B4BE3635C62002211461220FFF793
:104200000DFE1220FFF73EFEC4E740F20B112648D8
:10421000FDF764F9EDE7254B5A6942F000525A6107
:104220005B6903F000530293029B032603960496F6
:104230000025059503A91E48FFF7CEFB4FF47E53DA
:1042400003930496059503A91A48FFF7C5FB1A487E
:104250001A4B0360456085608023C3604FF4807310
:1042600003614FF480634361202383614FF4005363
:10427000C361FFF7C9FC58B90F4BE3635C620022CE
:1042800011462F20FFF7CAFD2F20FFF7FBFD81E726
:1042900040F241110448FDF721F9EDE70004005018
:1042A00060E3002008000240C499000800100240AA
:1042B000000400480010004874E200205804024046
:1042C000034B834200D07047024B01221A70FAE779
:1042D000B8E20020C7530020034B834200D0704750
:1042E000024B01221A70FAE7B8E20020C653002000
:1042F00038B50F4D284600F0D9FB0E4C204600F093
:10430000D5FB0A20FEF798FD42F228320A492846DA
:1043100000F00AFB42F228320849204600F004FB74
:104320000A20FEF789FD012001F0F4F938BD00BF35
:10433000B8E200200CE30020D05300206C0D0020D8
:1043400000B583B01A4B5A6942F001025A615A69AA
:1043500002F001020092009A5A6942F002025A6188
:104360005B6903F002030193019B002211460B20BD
:10437000FFF754FD0B20FFF785FD002211460E20AC
:10438000FFF74CFD0E20FFF77DFD002211460F20A8
:10439000FFF744FD0F20FFF775FD002211463C207A
:1043A000FFF73CFD3C20FFF76DFD03B05DF804FB1B
:1043B0000010024008B50948094B036060234360C0
:1043C0000023C3600361436201F084F800B908BDB3
:1043D0003E210448FDF782F8F9E700BFA4E300207E
:1043E00044000140D099000802680E4B9A4200D068
:1043F000704730B587B04FF4805301930325029581
:104400000024039401A90848FFF7E6FA4FF400637B
:1044100001930295039401A90448FFF7DDFA07B060
:1044200030BD00BF4400014000040048000C0048BB
:104430007047704738B50268936803F00303012B97
:1044400001D0002038BD136813F0010F2FD09368FE
:1044500003F00D03012B09D0436C43F010034364B8
:10446000836C43F0010383640120EBE70446936807
:1044700043F002039360036803221A60FEF7D6FC40
:10448000054623689B6813F0010F0ED0FEF7CEFCA3
:10449000401B0228F5D9636C43F010036364A36CDE
:1044A00043F00103A3640120CCE70020CAE7002009
:1044B000C8E7000003689A6812F00C0F62D070B56C
:1044C0000446DA6812F0007F02D0C269012A38D0AF
:1044D00060290CD023689A6812F0040F07D09A68FC
:1044E00012F0020F03D19A6842F010029A600C2970
:1044F0000CD023689A6812F0080F07D09A6812F05F
:10450000020F03D19A6842F020029A60602933D0EA
:104510006C2933D00425FEF789FC064623689B6886
:104520002B422DD0FEF782FC801B0B28F6D9636C42
:1045300043F010036364A36C43F00103A364012000
:104540001FE08269012AC3D10022196811F0400FCF
:104550000ED10D498A4201D80132F6E7636C43F06F
:1045600010036364A36C43F00103A364012008E01B
:1045700040221A600C21ADE70825CCE70C25CAE7DC
:10458000002070BD00207047FF93090038B5026815
:10459000936803F00303012B0DD09168184B194267
:1045A0000FD0436C43F010034364836C43F001036A
:1045B0008364012038BD136813F0010FEDD0002093
:1045C000F8E70446936843F001039360FEF72EFC7E
:1045D000054623681B6813F0010F0ED1FEF726FC79
:1045E000401B0228F5D9636C43F010036364A36C8D
:1045F00043F00103A3640120DCE70020DAE700BFF9
:104600003F00008008B5406A436C43F040034364B8
:10461000836C43F004038364FFF70BFF08BD08B508
:10462000406AFFF74DFE08BD08B5436A5A6C12F0A8
:10463000500F1AD15A6C42F400725A641A68D26848
:1046400012F4406F0DD1DA695AB95A6C22F48072B3
:104650005A645A6C12F4805F03D15A6C42F0010222
:104660005A641846FFF738FE08BDDB6B1B6B984792
:10467000FAE7000030B597B000230093002800F05F
:1046800041810446436C13F0100F52D1436CABB11F
:10469000002023689A6812F0805F03D09B6813F0B3
:1046A000005F47D0636C23F0120343F01003636490
:1046B000A36C43F00103A36401203BE08364036522
:1046C000C36480F84030FFF75BFD23689B6813F0FC
:1046D000805F01D00020DCE72046FFF7ABFE636C73
:1046E00013F0100FD5D10028D3D1636C23F4885375
:1046F00023F0020343F0020363642268936823F00B
:10470000405393602268936843F0805393607E4BDC
:104710001B687E4AA2FB03239B0C03EB83035A0016
:10472000009202E0009B013B0093009B002BF9D11B
:10473000AFE70020636C13F0100F40F0DA80002820
:1047400040F0D7802368996811F0040140F0D180CF
:10475000626C22F4817242F002026264B3F1A04FF3
:1047600014D06B4A93420FD06A4DB3F1A04F0FD0D3
:10477000674A934267D0684A934268D0674A934237
:1047800069D00022019205E0654DEEE7644DECE74B
:104790005F4A01929A6802F00302012A5FD0019BEE
:1047A00023B19A6802F00302012A5DD0AB6823F4BA
:1047B000403362681343AB60E2695303A56B012D7C
:1047C00001D04FF480510B43E1680B43A1680B43C8
:1047D000616A01294DD0E26A012A0CD021684E4D50
:1047E000A94259D005F58075A94255D022F48052CE
:1047F000216B0A4313432268916811F00C0F0BD10F
:10480000D16821F4804121F00201D160A169626B7D
:10481000520042EA813213432168CD68414A2A405E
:104820001343CB602369012B5AD02268136B23F00A
:104830000F0313630023A364636C23F0030343F0AB
:10484000010363645CE04FF0A0420192A2E702F52D
:10485000807201929EE7A2F5807201929AE71B682E
:1048600013F0010FA8D19AE71B6813F0010FA3D131
:104870009CE732B9A26A013A43EA424343F48033E7
:10488000A9E7626C22F0220242F020026264A26C6C
:1048900042F00102A2649EE7B2F5307F11D0B2F57A
:1048A000807F11D0B2F5E07F11D0B2F58A5F11D0D0
:1048B000B2F5845F11D0B2F5865F99D14FF4C07222
:1048C00096E74FF4E07293E74FF4307290E74FF4BD
:1048D00080728DE74FF470728AE74FF4A07287E719
:1048E00021680B6B23F00F03226A013A13430B6319
:1048F000A0E7636C23F0120343F01003636401200C
:1049000017B030BD0120FBE71800002083DE1B43F9
:104910000001005000070050000400500005005046
:104920000003005007C0F0FFF8B50468A56815F053
:10493000040F40F0A88090F84050012D00F0A580B1
:10494000012380F84030B4F1A04F0AD0504B9C4274
:1049500007D0504B9B6813F01F0F0CBF012300239F
:1049600006E04D4B9B6813F01F0F0CBF0123002383
:104970002BB9002380F8403001252846F8BD1646A3
:104980000F460446FFF702FE0546002877D1636C08
:1049900023F4706323F0010343F48073636423689A
:1049A000B3F1A04F43D03A4A934240D0394A92687B
:1049B00012F01F0F40D1626C22F480126264DB6837
:1049C00013F0007F05D0636C23F4405343F480530D
:1049D0006364636C13F4805F4ED0A36C23F0060312
:1049E000A364002384F84030E36B2C4A9A62E36BA3
:1049F0002B4ADA62E36B2B4A1A6323681C221A6083
:104A00002268536843F0100353602268D36843F070
:104A10000103D360216833463A464031E06BFFF72B
:104A20001BF92268936843F004039360A5E71A4AD0
:104A3000926812F01F0FBED0B3F1A04FBBD01A4A3C
:104A40009342B8D0626C42F480126264104A93427E
:104A50000CD0154BDB68C3F34063002BB9D0636CFB
:104A600023F4405343F480536364B2E74FF0A04310
:104A7000DB68C3F34063F0E70023A364B1E70023DE
:104A800084F8403079E7022577E7022575E700BF13
:104A900000010050000700500003005029460008A4
:104AA0001F460008054600080004005038B590F87D
:104AB0004030012B34D00446012380F840306C2173
:104AC000FFF7F8FC054620B1002384F84030284663
:104AD00038BD2268D36823F00103D360E06BFFF791
:104AE000F5F8054618B1636C43F04003636422682F
:104AF000536823F01003536075B92046FFF79AFC02
:104B00000546002DE0D1636C23F4885323F00103A4
:104B100043F001036364D7E72046FFF78BFCF0E71F
:104B20000225D4E770B590F84030012B3FD00D46F8
:104B30000446012380F84030FFF77CFC064600283D
:104B400030D1012363642268936823F0804393602B
:104B5000012D1BD02268936843F000439360FEF759
:104B600065F9054623689B68002B15DAFEF75EF9A8
:104B7000401B0A28F6D9636C23F0120343F010039C
:104B80006364002384F8403001260EE022689368B5
:104B900043F080439360DDE7636C23F0030343F04D
:104BA00001036364002384F84030304670BD022660
:104BB000FBE77047704770477047000010B5044628
:104BC00003681A6812F0040F03D05A6812F0040F39
:104BD00007D11A6812F0080F7FD05A6812F0080F38
:104BE0007BD0626C12F0100F03D1626C42F4007241
:104BF0006264B3F1A04F28D0A34A934225D0A34AC0
:104C0000926812F01F0F25D1D968DA6812F4406F4C
:104C10005DD111F4005F5AD11A6812F0080F56D016
:104C20009A6812F0040F4AD15A6822F00C025A60B6
:104C3000636C23F480736364636C13F4805F46D108
:104C4000636C43F00103636441E0914A926812F09F
:104C50001F0FD9D0B3F1A04F09D08B4A934206D091
:104C60008A4A926802F01F02052A06D1CCE7884AD8
:104C7000926802F01F02052AC6D0B3F1A04F09D0F6
:104C8000814A934206D0814A926802F01F02092AA3
:104C900006D1B9E77E4A926802F01F02092AB3D012
:104CA000B3F1A04FB0D07B4A9342ADD0764A934245
:104CB00002D0784AD168A8E74FF0A042FAE7636CC7
:104CC00043F010036364A36C43F00103A364204624
:104CD000FFF702FB23680C221A6023681A6812F09F
:104CE000200F03D05A6812F0200F09D11A6812F071
:104CF000400F00F0DF805A6812F0400F00F0DA80B9
:104D0000626C42F400526264B3F1A04F45D05E4A37
:104D1000934242D05D4A926812F01F0F42D1D96887
:104D2000DA6C12F0C00F0CD011F0007F40F0BC80A4
:104D3000DA6812F4406F40F0B78011F4005F40F081
:104D4000B3801A6812F0400F00F0AE80B3F1A04FAC
:104D50005DD04D4A93425AD04C4A926812F01F0FD0
:104D60005AD1DA6812F4001F40F09E809A6812F05F
:104D7000080F40F091805A6822F060025A60636C1C
:104D800023F480536364636C13F4807F40F08C8061
:104D9000636C43F00103636486E03D4A926812F05D
:104DA0001F0FBCD0B3F1A04F09D0374A934206D0B1
:104DB000364A926802F01F02052A06D1AFE7344A4C
:104DC000926802F01F02052AA9D0B3F1A04F09D0C2
:104DD0002D4A934206D02D4A926802F01F02092AFA
:104DE00006D19CE72A4A926802F01F02092A96D04F
:104DF000B3F1A04F93D0274A934290D0224A9342D6
:104E000002D0244AD1688BE74FF0A042FAE7204A4B
:104E1000926812F01F0FA4D0B3F1A04F09D01A4A24
:104E2000934206D0194A926802F01F02062A06D160
:104E300097E7174A926802F01F02062A91D0B3F151
:104E4000A04F09D0104A934206D0104A926802F04F
:104E50001F02072A07D184E70D4A926802F01F0259
:104E6000072A3FF47EAFB3F1A04F3FF47AAF094A6F
:104E700093423FF476AF044A934202D0054AD26887
:104E800070E74FF0A042FAE7000100500007005021
:104E90000003005000040050636C43F0100363648F
:104EA000A36C43F00103A3642046FFF782FE23684E
:104EB00060221A6023681A6812F0800F03D05B68C2
:104EC00013F0800F44D123681A6812F4807F03D056
:104ED0005B6813F4807F46D123681A6812F4007F60
:104EE00003D05B6813F4007F49D123681A6812F07D
:104EF000100F23D05A6812F0100F1FD0A26B012A96
:104F00000ED0B3F1A04F49D02F4A934243D02F4A3D
:104F1000916811F01F0F43D1DB6813F0010F0AD025
:104F2000636C43F480636364A36C43F00203A36483
:104F30002046FFF77EFA236810221A6023681A6859
:104F400012F4806F03D05A6812F4806F2DD110BD17
:104F5000636C43F4803363642046FFF769FA236887
:104F600080221A60AFE7636C43F400336364204629
:104F7000FFF721FE23684FF480721A60ACE7636C80
:104F800043F4802363642046FFF716FE23684FF442
:104F900000721A60A9E702F50072B9E70C4AB7E798
:104FA000936813F4404FC6D0BAE7626C42F4804273
:104FB0006264A26C42F00802A2644FF480621A603C
:104FC0002046FFF7F7FDC2E7000100500007005040
:104FD0000003005030B496B00022009290F84020B8
:104FE000012A00F0B8810346012280F840200068C1
:104FF000826812F0040F40F0A3814A68042A31D875
:10500000046B02EB420255001F22AA4024EA02026E
:105010000C68AC40224302631868826812F00C0FDF
:1050200068D10A68092A4ED9846902EB42021E3A05
:105030000725954024EA05048D6805FA02F222430B
:10504000826148691C68E268C2F3C102520000FA3A
:1050500002F208690138032800F29580DFE800F0C9
:1050600040727D88092A0ED8446B02EB420255003B
:105070001E3D1F22AA4024EA02020C6804FA05F52C
:105080002A434263C8E70E2A0ED8846B02EB420221
:1050900055003C3D1F22AA4024EA02020C6804FA93
:1050A00005F52A438263B7E7C46B02EB4202550061
:1050B0005A3D1F22AA4024EA02020C6804FA05F5B0
:1050C0002A43C263A8E7446902EB420207259540E0
:1050D00024EA05048D6805FA02F222434261B0E732
:1050E000206E9E4D0540086842EA8062154345F0F7
:1050F000004525661868826802F00302012A72D012
:10510000CA68012A75D0D0F8B0200D680124AC40DF
:1051100022EA0402C0F8B0201A68B2F1A04F00F0F1
:1051200093808F48824200F08D808E4C0868102852
:1051300000F08C80112800F09D80122800F09F80E4
:10514000002002E1606E854D0540086842EA8062F9
:10515000154345F000456566CCE7A06E7F4D0540E0
:10516000086842EA8062154345F00045A566C1E73C
:10517000E56E7A4828400D6842EA8562024342F0B3
:105180000042E266B6E7226E02F0F8420868B2EB2F
:10519000806F03D1226E22F0004222661A68506EA0
:1051A00000F0F8400C68B0EB846F03D1506E20F033
:1051B000004050661A68906E00F0F8400C68B0EB42
:1051C000846F03D1906E20F0004090661A68D06E14
:1051D00000F0F8400C68B0EB846F8BD1D06E20F0FB
:1051E0000040D06686E7026812F0010F88D00020E8
:1051F000ABE0D0F8B0200D680124AC402243C0F8E9
:10520000B0200A68092A0ED91D68A86902EB42027B
:105210001B3A0724944020EA04008C6804FA02F246
:105220000243AA6178E71D686869013202EB420215
:105230000724944020EA04008C6804FA02F2024336
:105240006A6169E7484C71E7474C6FE7A56815F458
:10525000000F7FF46FAFB2F1A04F16D040488242EA
:105260002CD0424882422DD0414882422DD000228B
:1052700001920DE0A56815F0807FECD05DE7A06895
:1052800010F4800FE7D000205FE002F580720192F9
:105290001868826802F00302012A19D0019A22B12B
:1052A000956805F00305012D1CD00A68102A1ED050
:1052B000112A36D0122A3DD0002046E04FF0A042FD
:1052C0000192E5E72A4A0192E2E7284A0192DFE7E4
:1052D000026812F0010FE1D05A6C42F020025A64C9
:1052E000012032E0126812F0010FF5D1DDE7B0F1D4
:1052F000A04FDDD1A26842F40002A2601D4A1268EC
:105300001D49A1FB0212920C02EB82025100009196
:1053100002E0009A013A0092009A002AF9D1002096
:1053200013E0B0F1A04FC5D1A26842F08072A26034
:1053300000200AE0A26842F48002A260002004E09B
:105340005A6C42F020025A640120002283F8402067
:1053500016B030BC70470220FAE700BF00F0FF83B0
:1053600000010050000700500003005000040050EE
:10537000000500501800002083DE1B4370B497B076
:1053800003460268B2F1A04F0BD04D48824248D08C
:105390004C48824249D04C4882424AD00020019079
:1053A00001E0474801900198002800F0848093F8BC
:1053B0004040012C00F08180012483F84040946833
:1053C00014F0040F6CD1846814F0040F68D1B2F1AA
:1053D000A04F34D03A4CA2422FD03C4A0C68002C4B
:1053E0003BD0946824F460444D685E6B45EA4635D2
:1053F0002C4394601D68AC6804F00304012C20D099
:10540000846804F00304012C21D0906820F47160BA
:1054100020F00F000C6889680C4320439060002046
:1054200043E04FF0A0400190BDE700F5807001908F
:10543000B9E7A0F580700190B5E7254ACEE7244A88
:10544000CCE72C6814F0010FDAD000202DE00068C2
:1054500010F0010FD9D0002027E0916821F46041BD
:1054600091601C68A16801F0030101290CD08168DA
:1054700001F0030101290DD0916821F4716121F03F
:105480000F019160002010E0216811F0010FEED0B3
:1054900000200AE0016811F0010FEDD0002004E0C7
:1054A0005A6C42F020025A640120002283F8402006
:1054B00017B070BC70470120FAE70220F8E700BF80
:1054C000000100500004005000050050000700508B
:1054D00000030050002861D010B582B0044690F857
:1054E0003230DBB2052B5BD090F83230DBB2022BCE
:1054F00058D02D4B9A6942F001029A619B6903F0E2
:1055000001030193019B90F832300BB980F83130E0
:105510002046FEF769FF6368402B1ED0602B1CD02D
:1055200021680868214A0240A0680343E0680343F9
:105530002069034360690343A0690343E0690343AF
:10554000206A0343606A0343A06A43EAC043E06AF7
:1055500043EA006313430B6017E021680868134AAD
:105560000240E068034320690343A0690343E06904
:105570000343206A0343606A0343A06A43EAC043CB
:10558000E06A43EA006313430B6094F8323013B9C6
:10559000012384F83230002002B010BD0120704792
:1055A0000120F9E70120F7E700100240113800E080
:1055B000A8B190F83230DBB2052B12D090F832301F
:1055C000DBB2012B01D00120704701680B6843F06A
:1055D00001030B60042380F8323000207047012063
:1055E00070470120704700000268094B9A4200D0C2
:1055F000704782B003F55C439A6942F400529A61A5
:105600009B6903F400530193019B02B0704700BFF4
:105610000034014002680C4B9A4200D0704700B53C
:1056200087B04FF480430193022302930023039336
:1056300004930523059301A94FF09040FEF7CCF9A0
:1056400007B05DF804FB00BF0034014000B597B01F
:105650002D482E4B0360472343600023836042F2B2
:105660000F72C260036143618361FCF73FFC002855
:1056700035D1002313934FF4A0021492159313A96C
:105680002148FCF703FF00282ED160230C93002350
:105690000D930E930F9310931193129304220CA960
:1056A0001948FCF759FE20BB002301930293039392
:1056B000049305934FF400520692079308934FF01A
:1056C000007209920A930B9301A90F48FCF70EFF91
:1056D000A0B90D48FFF79EFF17B05DF804FB41210C
:1056E0000B48FBF7FBFEC4E749210948FBF7F6FE30
:1056F000CBE755210648FBF7F1FED5E765210448C5
:10570000FBF7ECFEE5E700BFD8E3002000340140E2
:10571000DC99000838B50446074D04212846FCF7FB
:1057200067FD2B68C4F51C5410349C630421284683
:10573000FCF732FD38BD00BFD8E30020DFF834D0DD
:10574000002103E00C4B5B58435004310B480C4BD9
:1057500042189A42F6D30B4A02E0002342F8043B77
:10576000094B9A42F9D3FEF7C5FB00F011F8FBF79D
:105770001FFFFEE700000120849C000800000020BD
:10578000CC090020D009002040E40020FEE7000002
:1057900070B50D4E0D4D761BB61006D000240134A9
:1057A00055F8043B9847A642F9D1094E094D761B9E
:1057B00004F07EF8B61006D00024013455F8043BFE
:1057C0009847A642F9D170BD789C0008789C0008E3
:1057D000809C0008789C0008F0B4860746D0541ED0
:1057E000002A3CD0CAB2034602E014F1FF3436D39B
:1057F00003F8012B9D07F8D1032C29D9CDB245EA36
:1058000005250F2C45EA054533D9A4F110063609C4
:1058100003F1200707EB061703F1100242E90455D4
:1058200042E902551032BA42F8D1721C14F00C0F42
:1058300003EB021204F00F0613D0331F23F003030F
:105840000433134442F8045B9342FBD106F0030493
:105850002CB1C9B21C4403F8011B9C42FBD1F0BC23
:10586000704734461346002CF3D1F8E7144603463C
:10587000C2E71A462646E0E70EB430B59CB01FAB2F
:105880000C4C0D4D53F8042B0193014602910691E7
:10589000206802A96FF000440794CDE9044500F0A8
:1058A0000FF8029B00221A701CB0BDE8304003B014
:1058B000704700BF1C0000200802FFFF000000002E
:1058C0002DE9F04FD5B00C46079193460993069009
:1058D00002F024FE036815931846FAF791FCA38999
:1058E0001390180603D52369002B01F00E800023C6
:1058F0005E469FED957B1293CDE929331493169361
:10590000CDE91833179304932BAB2893994633783A
:105910008DED107B002B00F03382252B00F0B68636
:10592000354603E0252B00F0E78025466B786C1C9C
:10593000002BF7D1A71B00F02382DDE929320133C8
:105940003A44072BC9F80060C9F80470CDE9293240
:1059500000F3D68009F10809049A6B783A4404925E
:10596000002B00F00D82002394F8018005938DF840
:105970008330029304F1010B4FF0FF3A2B272021D3
:105980000BF1010BA8F120035A2B00F26A83DFE828
:1059900013F06301680368035C016803680368032C
:1059A0003901680368032E012901680322011A03E3
:1059B00068033F02FE00FE00FE00FE00FE00FE0047
:1059C000FE00FE00FE0068036803680368036803C6
:1059D00068036803A102680374017600A102A102B2
:1059E000A10268036803680368036D016803680324
:1059F0006200680368036803E9026803A2006803A1
:105A000068030D016803680368036803680368039B
:105A100068036803A102680374017A00A102A1026D
:105A2000A1020F037A005B006803650268034D0260
:105A3000660070025B006803E9025F00A60068036D
:105A40006803DF0068035F00029B43F020030293BA
:105A50009BF8008094E7029B43F010030293029BA3
:105A6000980640F1EE82099C073424F00703F3E81E
:105A700002450993029B23F4806700230BE2029BFB
:105A800043F010030293029B990640F1C782099CE0
:105A9000073424F007031946F1E80223099114465C
:105AA0001D46002A73F10003C0F2E785BAF1FF3FFB
:105AB00000F00285029B23F0800754EA050340F0C2
:105AC000FC84BAF1000F40F0FD8402974FF0000A09
:105AD000574654AE3AE3029B43F010030293029FF1
:105AE000BE0640F18A82099C073424F00703F3E8DC
:105AF000024509930123CEE1A71B3FF434AF1CE715
