:020000040800F2
:1000000000000120E50F0008190C00081B0C000877
:100010001D0C00081F0C0008210C00080000000047
:10002000000000000000000000000000230C000899
:10003000250C000800000000270C0008290C00080F
:10004000351000083510000835100008351000087C
:10005000351000083510000835100008351000086C
:10006000351000083510000835100008351000085C
:10007000351000083510000835100008351000084C
:10008000351000083510000835100008351000083C
:10009000351000083510000835100008351000082C
:1000A000351000083510000835100008351000081C
:1000B000351000083510000835100008351000080C
:1000C00035100008351000083510000835100008FC
:1000D00035100008351000083510000835100008EC
:1000E00035100008351000083510000835100008DC
:1000F00035100008351000083510000835100008CC
:100100003510000800000000000000003510000855
:1001100035100008351000083510000835100008AB
:10012000351000083510000835100008351000089B
:100130003510000835100008000000000000000025
:1001400035100008351000083510000800000000C8
:10015000000000000000000000000000000000009F
:10016000351000083510000835100008351000085B
:10017000351000083510000835100008351000084B
:1001800035100008351000080000000000000000D5
:04019000351000081E
:1001940010B5054C237833B9044B13B10448AFF3BD
:1001A40000800123237010BD040000200000000023
:1001B4008010000808B5034B1BB103490348AFF393
:1001C400008008BD00000000080000208010000826
:1001D40010B50446074B1868074BA3FB0030800991
:1001E40000F084F8002221464FF0FF3000F04AF876
:1001F400002010BD00000020D34D621008B5074A4E
:10020400136843F010031360032000F029F8002062
:10021400FFF7DEFF00F096F8002008BD0020024042
:10022400024A136801331360704700BF20000020A6
:10023400014B1868704700BF2000002030B583B020
:100244000190FFF7F5FF0546019CB4F1FF3F00D094
:100254000134FFF7EDFF401BA042FAD303B030BDD9
:10026400074AD36823F4E0631B041B0C000200F468
:10027400E060184340F0BF6040F40030D060704745
:1002840000ED00E030B4174BDB68C3F30223C3F185
:100294000704042C28BF04241D1D062D01D9033B8B
:1002A40000E000234FF0FF3505FA04F421EA0401CD
:1002B400994005FA03F322EA03031943002809DBF2
:1002C4000901C9B200F1604000F5614080F80013F3
:1002D40030BC704700F00F000901C9B2024B195439
:1002E400F6E700BF00ED00E014ED00E00138B0F1E6
:1002F400807F0AD2064B5860064AF02182F8231008
:100304000020986007221A6070470120704700BFE0
:1003140010E000E000ED00E0042805D0054A136871
:1003240023F0040313607047024A136843F0040384
:100334001360704710E000E0704708B5FFF7FCFF5A
:1003440008BD000000B583B01C4B9A6942F001025D
:100354009A619B6903F001030193019B0320FFF75A
:100364007FFF002211466FF00B00FFF78BFF002286
:1003740011466FF00A00FFF785FF002211466FF067
:100384000900FFF77FFF002211466FF00400FFF71A
:1003940079FF002211466FF00300FFF773FF00227C
:1003A40011466FF00100FFF76DFF002211464FF078
:1003B400FF30FFF767FF03B05DF804FB0010024055
:1003C40070B582B00446036813F0010F3DD0C84BEA
:1003D4005B6803F00C03042B20D0C54B5B6803F06F
:1003E4000C03082B13D06368B3F5803F6AD0002B4D
:1003F40040F08D8003F1804303F504331A6822F43E
:1004040080321A601A6822F480221A605FE0B84BC6
:100414005B6803F4C033B3F5803FE4D14FF4003399
:1004240093FAA3F3B24B19684FF4003393FAA3F38E
:10043400B3FA83F303F01F03012202FA03F30B421E
:1004440003D06368002B00F0A982236813F0020F25
:1004540000F0C080A64B5B6813F00C0F00F097808F
:10046400A34B5B6803F00C03082B00F08880E3685F
:10047400002B00F0ED80012292FAA2F3B3FA83F389
:1004840003F1845303F584139B001A60FFF7D0FE35
:100494000546022393FAA3F3954B1968022393FAB2
:1004A400A3F3B3FA83F303F01F03012202FA03F365
:1004B4000B4240F0BE80FFF7BBFE401B0228E8D988
:1004C400032074E28A4A136843F480331360636838
:1004D400002B36D0FFF7ACFE05464FF4003393FAF9
:1004E400A3F3834B19684FF4003393FAA3F3B3FADD
:1004F40083F303F01F03012202FA03F31942A4D188
:10050400FFF796FE401B6428E7D903204FE2B3F5BA
:10051400A02F09D0764B1A6822F480321A601A6828
:1005240022F480221A60D2E703F18043A3F53C331E
:100534001A6842F480221A601A6842F480321A60FF
:10054400C5E7FFF775FE05464FF4003393FAA3F3AE
:10055400674B19684FF4003393FAA3F3B3FA83F3A8
:1005640003F01F03012202FA03F319423FF46DAFB3
:10057400FFF75EFE401B6428E6D9032017E25C4BBC
:100584005B6803F4C033B3F5004F7FF470AF02230C
:1005940093FAA3F3564B1968022393FAA3F3B3FA1D
:1005A40083F303F01F03012202FA03F3194203D079
:1005B400E368934240F0F4814D48036823F0F80364
:1005C4002169F82292FAA2F2B2FA82F201FA02F254
:1005D40013430360236813F0080F00F08D806369F0
:1005E400002B5CD0012191FAA1F2B2FA82F2414BC4
:1005F40013449B001960FFF71BFE0546022393FA80
:10060400A3F293FAA3F293FAA3F2394A516A93FA42
:10061400A3F3B3FA83F303F01F03012202FA03F3F3
:100624000B4269D1FFF704FE401B0228E6D90320E0
:10063400BDE12F48036823F0F8032169F82292FAF8
:10064400A2F2B2FA82F201FA02F213430360C1E7A2
:10065400012393FAA3F3B3FA83F303F1845303F569
:1006640084139B0000221A60FFF7E2FD0546022373
:1006740093FAA3F31E4B1968022393FAA3F3B3FA74
:1006840083F303F01F03012202FA03F31942A1D0FA
:10069400FFF7CEFD401B0228E9D9032087E10122A0
:1006A40092FAA2F2B2FA82F2124B13449B00002295
:1006B4001A60FFF7BDFD0546022393FAA3F293FAED
:1006C400A3F293FAA3F20A4A516A93FAA3F3B3FA90
:1006D40083F303F01F03012202FA03F30B420BD04E
:1006E400FFF7A6FD401B0228E6D903205FE100BF07
:1006F4000010024020819010236813F0040F00F0D2
:10070400A980AD4BDB6913F0805F20D1AA4BDA6975
:1007140042F08052DA61DB6903F080530193019B5C
:100724000125A64B1B6813F4807F12D0A368012B0C
:1007340023D073BB03F1804303F504331A6A22F018
:1007440001021A621A6A22F004021A621AE00025EF
:10075400E7E79A4A136843F480731360FFF768FD70
:100764000646964B1B6813F4807FDFD1FFF760FDCC
:10077400801B6428F5D9032019E18F4A136A43F0DA
:1007840001031362A368002B3CD0FFF751FD06461A
:100794002EE0052B09D0884B1A6A22F001021A6256
:1007A4001A6A22F004021A62ECE7834B1A6A42F0D6
:1007B40004021A621A6A42F001021A62E2E7022390
:1007C40093FAA3F37C4B596A022393FAA3F3B3FA83
:1007D40083F303F01F03012202FA03F3194238D111
:1007E400FFF726FD801B41F28833984200F2DA803D
:1007F400022393FAA3F293FAA3F3002BDFD06E4BF8
:10080400196AE1E7FFF714FD064618E0022393FA9C
:10081400A3F3694B596A022393FAA3F3B3FA83F35C
:1008240003F01F03012202FA03F3194211D0FFF768
:10083400FFFC801B41F28833984200F2B58002230A
:1008440093FAA3F293FAA3F3002BDFD05A4B196A5D
:10085400E1E7B5BBA369002B00F0A880564A5268B3
:1008640002F00C02082A00F0A480022B2FD04FF0D3
:10087400807393FAA3F3B3FA83F303F1845303F578
:1008840084139B0000221A60FFF7D2FC04464FF049
:10089400007393FAA3F3484B19684FF0007393FA6B
:1008A400A3F3B3FA83F303F01F03012202FA03F361
:1008B400194271D0FFF7BCFC001B0228E7D90320C2
:1008C40075E03D4AD36923F08053D361C2E74FF00A
:1008D400807393FAA3F3B3FA83F303F1845303F518
:1008E40084139B0000221A60FFF7A2FC05464FF018
:1008F400007393FAA3F3304B19684FF0007393FA23
:10090400A3F3B3FA83F303F01F03012202FA03F300
:10091400194206D0FFF78CFC401B0228E7D90320BC
:1009240045E0254AD36A23F00F03616A0B43D3627F
:10093400536823F47613216AE06901430B4353603F
:100944004FF0807393FAA3F3B3FA83F303F1845360
:1009540003F584139B0001221A60FFF769FC044627
:100964004FF0007393FAA3F3134B19684FF000731D
:1009740093FAA3F3B3FA83F303F01F03012202FAF9
:1009840003F3194206D1FFF753FC001B0228E7D9F1
:1009940003200CE000200AE0002008E0012006E02B
:1009A400012004E0032002E0032000E0002002B064
:1009B40070BD0120FBE700BF001002400070004042
:1009C400174B5B6803F00C02082A01D015487047E6
:1009D40003F470114FF4701292FAA2F2B2FA82F296
:1009E40021FA02F21049885C0D4AD26A02F00F0221
:1009F4000F2191FAA1F1B1FA81F1CA400B498A5C45
:100A040013F4803F05D0074BB3FBF2F300FB03F074
:100A14007047044BB3FBF2F300FB03F0704700BFD5
:100A24000010024000127A0098100008A810000874
:100A3400714B1B6803F007038B420BD26E4A136899
:100A440023F007030B431360136803F007038B427F
:100A540040F0CB8070B5036813F0020F06D0674AEC
:100A6400536823F0F0038468234353600D4604461F
:100A7400036813F0010F7AD04368012B2FD0022BA7
:100A840042D0022292FAA2F25C4A1068022292FA3E
:100A9400A2F2B2FA82F202F01F02012101FA02F27A
:100AA400104200F0A48055494A6822F0030213431F
:100AB4004B60FFF7BDFB06466368012B39D0022B60
:100AC40046D04E4B5B6813F00C0F50D0FFF7B0FBD1
:100AD400801B41F288339842F3D9032084E04FF419
:100AE400003292FAA2F2454A10684FF4003292FAA8
:100AF400A2F2B2FA82F202F01F02012101FA02F21A
:100B04000242D0D101206FE04FF0007292FAA2F2BB
:100B14003A4A10684FF0007292FAA2F2B2FA82F2E4
:100B240002F01F02012101FA02F21042BBD101209E
:100B34005AE0324B5B6803F00C03042B17D0FFF729
:100B440077FB801B41F288339842F2D903204BE0B3
:100B54002A4B5B6803F00C03082B08D0FFF768FBF3
:100B6400801B41F288339842F2D903203CE0224BA7
:100B74001B6803F00703AB420AD91F4A136823F02A
:100B840007032B431360136803F00703AB4230D110
:100B9400236813F0040F06D0184A536823F4E06363
:100BA400E1680B435360236813F0080F07D0134A1E
:100BB400536823F46053216943EAC1035360FFF788
:100BC400FFFE0E4B5B6803F0F003F02292FAA2F2F0
:100BD400B2FA82F2D3400A4AD35CD840094B186077
:100BE4000020FFF7F5FA002070BD012070470120B6
:100BF400FAE70120F8E700BF00200240001002409D
:100C0400B810000800000020014B1868704700BFAE
:100C1400000000207047FEE7FEE7FEE7FEE77047AE
:100C24007047704708B5FFF7FBFAFFF786FB08BD6E
:100C340070B58AB0354B5A6942F400225A615A6938
:100C440002F400220092009A5A6942F480025A6126
:100C54005A6902F480020192019A5A6942F40032FC
:100C64005A615A6902F400320292029A5A6942F4B1
:100C740080225A615A6902F480220392039A5A69C3
:100C840042F480125A615B6903F480130493049B59
:100C9400002220214FF0904000F098F94FF6FF76A3
:100CA4000596032506950024079405A9184800F025
:100CB400B7F805950695079405A9164800F0B0F80D
:100CC4004FF6DF7305930695079405A94FF09040FE
:100CD40000F0A6F8202305930123069307940894B3
:100CE40005A94FF0904000F09BF8059606950794EF
:100CF40005A9094800F094F8042305930695079480
:100D040005A9064800F08CF80AB070BD0010024036
:100D1400000800480014004800040048000C004883
:100D24001549D1F8883043F47003C1F88830134B67
:100D34001A6842F001021A605868114A02405A6067
:100D44001A6822F0847222F480321A601A6822F43B
:100D540080221A605A6822F4FE025A60DA6A22F08B
:100D64000F02DA62186B074A02401A6300229A6083
:100D74004FF000638B60704700ED00E0001002400C
:100D84000CC07FF8CCFC00FFFEE7000000B591B07A
:100D9400022306930123099310230A9300230C933F
:100DA40006A8FFF70DFBF0B90F2301930021029170
:100DB40003910491059101A8FFF73AFEB8B9FFF732
:100DC40023FF0D4BA3FB00308009FFF78FFA0420AB
:100DD400FFF7A2FA002211464FF0FF30FFF752FA54
:100DE40011B05DF804FB86210448FFF7CDFF942180
:100DF4000248FFF7C9FF00BFD34D6210C8100008B6
:100E040008B5FFF7FBF9FFF7C1FFFFF711FF20213A
:100E14004FF0904000F0DFF86420FFF70FFAF6E798
:100E2400F0B482B0002336E0062400E00024B4408D
:100E34003C430235614E46F82540614C2568D44355
:100E440004EA05064F6817F4803F01D042EA05061C
:100E54005B4D2E606D6804EA05064F6817F4003F89
:100E640001D042EA0506564D6E60AD6804EA0506F7
:100E74004F6817F4801F01D042EA0506504DAE605A
:100E8400ED682C404E6816F4001F01D042EA0504B8
:100E94004B4AD46001330A6832FA03F400F08B80C1
:100EA40001249C402240F5D04D68022D01D0122D22
:100EB40010D1DE08083650F826C003F00705AF004D
:100EC4000F25BD402CEA050C0D69BD4045EA0C0513
:100ED40040F8265006685F000325BD40ED4305EA4F
:100EE400060C4E6806F00306BE4046EA0C06066091
:100EF4004E6806F1FF3CBCF1010F03D9112E01D05D
:100F0400122E10D1866805EA060CCE68BE4046EA69
:100F14000C068660466826EA04044E68C6F300168A
:100F24009E4026434660C46825408C68BC402C43E0
:100F3400C4604C6814F0805FACD0224CA56945F0C5
:100F44000105A561A46904F001040194019C9D08B4
:100F5400AE1C1A4C54F8267003F00304A6000F24A8
:100F6400B44027EA0407B0F1904F3FF45FAF164C4A
:100F7400A04216D004F58064A04214D004F5806425
:100F8400A04212D004F58064A04210D004F580641D
:100F9400A0420ED004F58064A0423FF445AF07247C
:100FA40045E7012443E7022441E703243FE70424FF
:100FB4003DE705243BE702B0F0BC70470000014068
:100FC4000004014000100240000400480AB181619D
:100FD400704781627047436959404161704700001E
:100FE400DFF834D0002103E00C4B5B58435004314C
:100FF4000B480C4B42189A42F6D30B4A02E00023EA
:1010040042F8043B094B9A42F9D3FFF789FE00F0FA
:1010140011F8FFF7F5FEFEE700000120DC100008E0
:101024000000002004000020040000202400002010
:10103400FEE7000070B50D4D0D4C641BA410002696
:10104400A64209D10B4D0C4C00F018F8641BA410F7
:101054000026A64205D170BD55F8043B98470136D9
:10106400EEE755F8043B98470136F2E7D410000840
:10107400D4100008D4100008D8100008F8B500BF38
:10108400F8BC08BC9E467047F8B500BFF8BC08BC65
:041094009E467047BD
:1010980002030405060708090A0B0C0D0E0F1010B1
:1010A8000102030405060708090A0B0C0D0E0F10B0
:1010B8000000000000000000010203040607080900
:0C10C8005372632F6D61696E2E6300008F
:0410D400B901000856
:0410D8009501000876
:0410DC0000127A0084
:0400000508000FE5FB
:00000001FF
