:020000040800F2
:1000000000A00020A5320008290D00082B0D0008D3
:100010002D0D00082F0D0008310D00080000000014
:10002000000000000000000000000000330D000888
:10003000350D000800000000370D0008390D0008DC
:10004000F5320008F5320008F5320008F5320008F4
:10005000F5320008F5320008F5320008F5320008E4
:10006000F5320008F5320008F5320008F5320008D4
:10007000F5320008F5320008F5320008F5320008C4
:10008000410D0008F5320008F5320008F53200088D
:10009000F5320008F5320008F5320008F5320008A4
:1000A000F5320008F5320008F5320008F532000894
:1000B000F5320008F5320008F5320008F532000884
:1000C000F5320008F5320008F5320008F532000874
:1000D000F5320008F5320008510D0008F53200082D
:1000E000F5320008F5320008F5320008F532000854
:1000F000F5320008F5320008F5320008F532000844
:10010000000000000000000000000000F5320008C0
:10011000F5320008F5320008F5320008F532000823
:10012000F5320008F5320008F5320008F532000813
:10013000F5320008F5320008000000000000000061
:10014000F5320008F5320008F53200080000000022
:10015000000000000000000000000000000000009F
:100160000000000000000000F5320008F532000831
:10017000F532000800000000000000000000000050
:0801800000000000F532000848
:1001900010B5054C237833B9044B13B10448AFF3C1
:1001A00000800123237010BD7400002000000000B7
:1001B000A03B000808B5034B1BB103490348AFF34C
:1001C000008008BD0000000078000020A03B00086F
:1001D000034613F8012B002AFBD1181A0138704787
:1001E00001F0FF01102A2BDB10F0070F08D010F8E8
:1001F000013B013A8B422DD010F0070F42B3F6D1EC
:10020000F0B441EA012141EA014122F007047FF004
:1002100000070023F0E80256083C85EA010586EA5B
:10022000010685FA47F5A3FA87F586FA47F6A5FA97
:1002300087F68EB9EED1F0BC01F0FF0102F00702A3
:1002400032B110F8013B013A83EA010313B1F8D14E
:100250000020704701387047002D06BF354603382F
:10026000073815F0010F07D1013015F4807F02BF68
:10027000013015F4C03F0130F0BC0138704700BFB9
:1002800008B5054B054A1068186092889A80184690
:1002900000F03CFD08BD00BFE8000020B83B0008AE
:1002A00070B59EB00024169417941A940F9410946D
:1002B0001194129413943C222146684603F040F8AE
:1002C000032314934FF480351595012318931023BD
:1002D000199302261B961C954FF4E0131D9314A846
:1002E00001F0E8FF0F230F93109611944FF48063F1
:1002F0001293139431460FA802F018FB4FF4D173F8
:10030000009303954FF4907309934FF410530A939D
:100310000794684602F00CFC1EB070BD08B501F0F1
:10032000A5FFFFF7BDFF00F06BF800F03DFB00F00C
:100330004DF900F08FF900F0C5F900F009FA00F06E
:100340004DFB00F0ADFB00F057FC00F0FDFB1F4B38
:10035000197801221E4801F0C5FA26E01D4C1E4AFC
:100360001E49204602F0F4FF204600F0CFFC1C4B53
:1003700000221A701DE01B4D2B780133DBB22B706D
:10038000194B1968194A11601A68124C184920460D
:1003900002F0DEFF204600F0B9FC2A78154920461D
:1003A00002F0D6FF204600F0B1FC0D4B1B78002B6D
:1003B000D4D101F079FF0C4B18601B680B4A12680E
:1003C0009B1A0D4A12689342EFD3D4E7E60000204F
:1003D000F8030020E8000020B4000020C03B000823
:1003E0009800002090000020940000209C00002035
:1003F000D03B0008E03B00080000002070470000F0
:100400002DE9F04F8DB000240794089409940A94C4
:100410000B94684B5A6942F400125A615A6902F40B
:1004200000120192019A5A6942F400225A615A69F3
:1004300002F400220292029A5A6942F480025A613E
:100440005A6902F480020392039A5A6942F4003214
:100450005A615A6902F400320492049A5A6942F4C9
:1004600080225A615A6902F480220592059A5A69DB
:1004700042F480125A615B6903F480130693069B71
:100480004D4F22460721384602F04CFD4B4E224686
:100490004FF4E161304602F045FD072307934FF02A
:1004A000010ACDF820A009940A9407A9384602F061
:1004B0006FFC782307930894099407A9384602F043
:1004C00067FC42F220030793032508950994DFF89F
:1004D000F09007A9484602F05BFC4FF4C263079313
:1004E00008950994DFF8DC8007A9404602F050FC2B
:1004F0004AF61C43079308950994DFF8CCB007A986
:10050000584602F045FC4FF4404307930895099480
:1005100007A9384602F03CFC44F2203307930894C4
:10052000099407A9584602F033FC4FF4E16307939E
:10053000CDF820A009940A9407A9304602F028FCBF
:100540004FF2030307930894099407A9304602F079
:100550001FFC4FF4707307930894099407A9484649
:1005600002F016FC4FF4014307930894099407A97D
:100570004FF0904002F00CFC4FF4F05307930895B5
:10058000099407A94FF0904002F002FC4023079322
:100590000894099407A9404602F0FAFBD423079374
:1005A0000895099407A9304602F0F2FB0DB0BDE8AA
:1005B000F08F00BF0010024000100048000C0048FF
:1005C00000080048001400480004004800B58BB043
:1005D00000230793089309930193029303930493D1
:1005E000059306931A484FF0A0420260436083606F
:1005F0000361C361436203630122C262C36002629A
:100600004363042242618361836300F005FCB0B957
:100610000023079307A90E4800F018FF90B90123A3
:10062000019302930023049303930593069301A976
:10063000074800F037FD40B90BB05DF804FBFFF749
:10064000DDFEE5E7FFF7DAFEE9E7FFF7D7FEF3E7C0
:10065000D401002000B587B00023009301930293DA
:100660000393049305931548154A02604360836021
:100670000361C361436203630122C262C360026219
:100680004363042242618361836300F0C5FB78B950
:100690000123009301930023039302930493059392
:1006A0006946064800F0FEFC28B907B05DF804FB77
:1006B000FFF7A4FEECE7FFF7A1FEF6E780010020BC
:1006C0000001005000B58BB00023079308930993F5
:1006D0000193029303930493059306931A481B4ACC
:1006E0000260436083600361C3614362036301226C
:1006F000C262C36002624363042242618361836316
:1007000000F08AFBB8B90023079307A90E4800F050
:100710009DFE98B9022301930123029300230493C1
:1007200003930593069301A9074800F0BBFC40B969
:100730000BB05DF804FBFFF761FEE4E7FFF75EFE38
:10074000E8E7FFF75BFEF3E7280200200004005013
:1007500000B587B0002300930193029303930493A1
:1007600005931648164A0260436083600361C361C3
:10077000436203630122C262C360026243630422D4
:1007800042618361836300F047FB80B911230093CA
:100790000123019300230393029304930593694675
:1007A000064800F07FFC28B907B05DF804FBFFF7AE
:1007B00025FEEBE7FFF722FEF6E700BF7C020020F4
:1007C0000005005030B591B000230B930C930D93AE
:1007D0000E930F930368B3F1A04F1AD0684A934267
:1007E00060D0684A934200F09480674A93424CD1AB
:1007F000664A136801331360012B46D1644B5A6972
:1008000042F000525A615B6903F000530A930A9B5D
:100810003BE0604A136801331360012B37D05C4B17
:100820005A6942F400225A615A6902F40022019284
:10083000019A5A6942F480025A615A6902F48002AC
:100840000292029A5A6942F400325A615B6903F4D7
:1008500000330393039B0C230B9303240C940BA9E9
:100860004D4802F095FA04230B930C9400250D9546
:100870000BA94A4802F08CFA07230B930C940D95B0
:100880000BA94FF0904002F083FA11B030BD404BFD
:100890005A6942F080525A615B6903F080530093B9
:1008A000009BBCE73B4A136801331360012B25D042
:1008B000374B5A6942F400225A615A6902F4002205
:1008C0000592059A5A6942F400325A615B6903F451
:1008D00000330693069B13230B9303240C940BA95C
:1008E0002D4802F055FAF0230B930C9400230D933E
:1008F0000BA94FF0904002F04BFAC6E7244B5A691F
:1009000042F080525A615B6903F080530493049B68
:10091000CEE71E4A136801331360012B24D01C4B11
:100920005A6942F480225A615A6902F4802208927C
:10093000089A5A6942F400125A615B6903F4001381
:100940000993099B03240B940C940BA9144802F0FF
:100950001FFA4FF47E530B930C9400230D930BA9B5
:10096000104802F015FA90E7094B5A6942F000521C
:100970005A615B6903F000530793079BCFE700BF01
:10098000000100500004005000050050A4000020A9
:1009900000100240A0000020000800480014004899
:1009A000000400480010004800B583B00A4B5A69A3
:1009B00042F001025A615B6903F001030193019B5C
:1009C00000221146102002F0E3FB102002F014FC7C
:1009D00003B05DF804FB00BF0010024008B51248E8
:1009E000124B0360124B4360002383600122C260FC
:1009F000036143618361C361036200F0D3FD50B9B9
:100A00000021094800F02CFE40B90021064800F002
:100A100058FE30B908BDFFF7F1FCF1E7FFF7EEFC37
:100A2000F3E7FFF7EBFCF5E7D002002000540040AD
:100A30007C1D100010B588B0002303930493059328
:100A4000069307930268134B9A4201D008B010BD79
:100A5000114C636943F480236361636903F4802369
:100A60000193019BC0230393122304930123059355
:100A7000032306930423079303A9084802F088F987
:100A8000E36943F40013E361E36903F400130293A1
:100A9000029BDBE7005400400010024000040048C5
:100AA00008B50848084B0360602343600023C36017
:100AB0000361436200F034FE00B908BDFFF79EFCFD
:100AC000FBE700BF1C0300204400014010B588B0C4
:100AD0000023039304930593069307930268174B2F
:100AE0009A4201D008B010BD03F5873303F5DE73D9
:100AF0005A6942F480225A615A6902F480220192B2
:100B0000019A5A6942F480125A615B6903F48013B6
:100B10000293029B4FF4805303930324049403A98C
:100B2000074802F035F94FF400630393049400235F
:100B3000059303A9034802F02BF9D3E744000140D1
:100B400000040048000C004808B50E480E4B036036
:100B50000023436083604FF4E062C260036143613D
:100B60004FF4007282610362436283620722C262B1
:100B70000363436300F042FE00B908BDFFF73EFC8B
:100B8000FBE700BF50030020003C004000B589B0E7
:100B90000023039304930593069307930268144B71
:100BA0009A4202D009B05DF804FB03F5EA33DA6932
:100BB00042F40042DA61DA6902F400420192019AD9
:100BC0005A6942F400225A615B6903F400230293DC
:100BD000029B4FF4E05303930223049303230693F1
:100BE0000623079303A9034802F0D2F8DAE700BF0F
:100BF000003C00400008004808B50D480D4B03605C
:100C00004FF4E133436000238360C36003610C222F
:100C100042618361C3610362202343624FF4005346
:100C2000C36301F096F900B908BDFFF7E7FBFBE7E6
:100C3000F803002000440040F0B589B0002303937E
:100C4000049305930693079302682C4B9A4201D0B4
:100C500009B0F0BD044603F5E633DA6942F4003228
:100C6000DA61DA6902F400320092009A5A6942F4B9
:100C700000325A615A6902F400320192019A5A69AB
:100C800042F480125A615B6903F480130293029B61
:100C90000823039302250495032706970726079642
:100CA00003A94FF0904002F073F8202303930495BA
:100CB000002505950697079603A9114802F068F8E4
:100CC0001048114B0360456085608023C360056157
:100CD00045618561C56102F067F958B9094B6366E2
:100CE0005C6200221146262002F052FA262002F011
:100CF00083FAADE7FFF782FBF0E700BF0044004056
:100D0000000C0048B40300206C00024010B50446FB
:100D1000FFF75EFA4FF47A7382B22146014801F080
:100D200079F810BDF80300207047FEE7FEE7FEE704
:100D3000FEE770477047704708B501F0A9FA08BD93
:100D400008B5024802F0B7F908BD00BFB40300209F
:100D500008B5034801F0B4F9024B01221A7008BD2E
:100D6000F80300209800002082B00A4B9A6942F0F4
:100D700001029A619A6902F001020092009ADA690E
:100D800042F08052DA61DB6903F080530193019BEA
:100D900002B070470010024038B50268936803F053
:100DA0000303012B01D0002038BD136813F0010F9D
:100DB0002FD0936803F00D03012B09D0436C43F04F
:100DC00010034364836C43F0010383640120EBE769
:100DD0000446936843F002039360036803221A6099
:100DE00001F062FA054623689B6813F0010F0ED0EC
:100DF00001F05AFA401B0228F5D9636C43F0100346
:100E00006364A36C43F00103A3640120CCE70020DA
:100E1000CAE70020C8E7000030B597B00023009370
:100E2000002800F02D810446436C13F0100F52D1BE
:100E3000436CABB1002023689A6812F0805F03D046
:100E40009B6813F0005F47D0636C23F0120343F0FC
:100E500010036364A36C43F00103A36401203BE02F
:100E600083640365C36480F84030FFF7ABFC2368FC
:100E70009B6813F0805F01D00020DCE72046FFF77D
:100E80008BFF636C13F0100FD5D10028D3D1636CA6
:100E900023F4885323F0020343F0020363642268BF
:100EA000936823F0405393602268936843F0805323
:100EB0009360744B1B68744AA2FB03239B0C03EBE7
:100EC00083035A00009202E0009B013B0093009BC9
:100ED000002BF9D1AFE70020636C13F0100F40F046
:100EE000C680002840F0C3802368996811F004018F
:100EF00040F0BD80626C22F4817242F002026264B2
:100F0000B3F1A04F14D0614A93420FD0604DB3F1BA
:100F1000A04F0FD05D4A934265D05E4A934266D09F
:100F20005D4A934267D00022019205E05B4DEEE7F7
:100F30005A4DECE7554A01929A6802F00302012AE1
:100F40005DD0019B23B19A6802F00302012A5BD0B5
:100F5000AB6823F4403362681343AB60E269530328
:100F6000A56B012D01D04FF480510B43E1680B4379
:100F7000A1680B43616A01294BD0E26A012A0AD0B9
:100F80002168444DA94257D005F58075A94253D038
:100F9000216B0A4313432268916811F00C0F0BD1A7
:100FA000D16821F4804121F00201D160A169626B16
:100FB000520042EA813213432168CD68384A2A4000
:100FC0001343CB602369012B48D02268136B23F0B5
:100FD0000F0313630023A364636C23F0030343F044
:100FE000010363644AE04FF0A0420192A4E702F5D6
:100FF00080720192A0E7A2F5807201929CE71B68C3
:1010000013F0010FAAD19CE71B6813F0010FA5D1C3
:101010009EE732B9A26A013A43EA424343F480337D
:10102000ABE7626C22F0220242F020026264A26C02
:1010300042F00102A264A0E7B2F5307F08D0B2F519
:10104000807F08D0B2F5E07FA2D14FF480729FE795
:101050004FF4E0729CE74FF4307299E721680B6B14
:1010600023F00F03226A013A13430B63B2E7636C68
:1010700023F0120343F010036364012017B030BD66
:101080000120FBE70C00002083DE1B430001005021
:1010900000070050000400500005005000030050FD
:1010A00007C0F0FF30B496B00022009290F84020C4
:1010B000012A00F0B8810346012280F84020006830
:1010C000826812F0040F40F0A3814A68042A31D8E4
:1010D000046B02EB420255001F22AA4024EA0202DE
:1010E0000C68AC40224302631868826812F00C0F4F
:1010F00068D10A68092A4ED9846902EB42021E3A75
:101100000725954024EA05048D6805FA02F222437A
:10111000826148691C68E268C2F3C102520000FAA9
:1011200002F208690138032800F29580DFE800F038
:1011300040727D88092A0ED8446B02EB42025500AA
:101140001E3D1F22AA4024EA02020C6804FA05F59B
:101150002A434263C8E70E2A0ED8846B02EB420290
:1011600055003C3D1F22AA4024EA02020C6804FA02
:1011700005F52A438263B7E7C46B02EB42025500D0
:101180005A3D1F22AA4024EA02020C6804FA05F51F
:101190002A43C263A8E7446902EB4202072595404F
:1011A00024EA05048D6805FA02F222434261B0E7A1
:1011B000206E9E4D0540086842EA8062154345F066
:1011C000004525661868826802F00302012A72D081
:1011D000CA68012A75D0D0F8B0200D680124AC404F
:1011E00022EA0402C0F8B0201A68B2F1A04F00F061
:1011F00093808F48824200F08D808E4C08681028C2
:1012000000F08C80112800F09D80122800F09F8053
:10121000002002E1606E854D0540086842EA806268
:10122000154345F000456566CCE7A06E7F4D05404F
:10123000086842EA8062154345F00045A566C1E7AB
:10124000E56E7A4828400D6842EA8562024342F022
:101250000042E266B6E7226E02F0F8420868B2EB9E
:10126000806F03D1226E22F0004222661A68506E0F
:1012700000F0F8400C68B0EB846F03D1506E20F0A2
:10128000004050661A68906E00F0F8400C68B0EBB1
:10129000846F03D1906E20F0004090661A68D06E83
:1012A00000F0F8400C68B0EB846F8BD1D06E20F06A
:1012B0000040D06686E7026812F0010F88D0002057
:1012C000ABE0D0F8B0200D680124AC402243C0F858
:1012D000B0200A68092A0ED91D68A86902EB4202EB
:1012E0001B3A0724944020EA04008C6804FA02F2B6
:1012F0000243AA6178E71D686869013202EB420285
:101300000724944020EA04008C6804FA02F20243A5
:101310006A6169E7484C71E7474C6FE7A56815F4C7
:10132000000F7FF46FAFB2F1A04F16D04048824259
:101330002CD0424882422DD0414882422DD00022FA
:1013400001920DE0A56815F0807FECD05DE7A06804
:1013500010F4800FE7D000205FE002F58072019268
:101360001868826802F00302012A19D0019A22B19A
:10137000956805F00305012D1CD00A68102A1ED0BF
:10138000112A36D0122A3DD0002046E04FF0A0426C
:101390000192E5E72A4A0192E2E7284A0192DFE753
:1013A000026812F0010FE1D05A6C42F020025A6438
:1013B000012032E0126812F0010FF5D1DDE7B0F143
:1013C000A04FDDD1A26842F40002A2601D4A12685B
:1013D0001D49A1FB0212920C02EB82025100009106
:1013E00002E0009A013A0092009A002AF9D1002006
:1013F00013E0B0F1A04FC5D1A26842F08072A260A4
:1014000000200AE0A26842F48002A260002004E00A
:101410005A6C42F020025A640120002283F84020D6
:1014200016B030BC70470220FAE700BF00F0FF831F
:10143000000100500007005000030050000400505D
:10144000000500500C00002083DE1B4370B497B0F1
:1014500003460268B2F1A04F0BD04D48824248D0FB
:101460004C48824249D04C4882424AD000200190E8
:1014700001E0474801900198002800F0848093F82B
:101480004040012C00F08180012483F840409468A2
:1014900014F0040F6CD1846814F0040F68D1B2F119
:1014A000A04F34D03A4CA2422FD03C4A0C68002CBA
:1014B0003BD0946824F460444D685E6B45EA463541
:1014C0002C4394601D68AC6804F00304012C20D008
:1014D000846804F00304012C21D0906820F471602A
:1014E00020F00F000C6889680C43204390600020B6
:1014F00043E04FF0A0400190BDE700F580700190FF
:10150000B9E7A0F580700190B5E7254ACEE7244AF7
:10151000CCE72C6814F0010FDAD000202DE0006831
:1015200010F0010FD9D0002027E0916821F460412C
:1015300091601C68A16801F0030101290CD0816849
:1015400001F0030101290DD0916821F4716121F0AE
:101550000F019160002010E0216811F0010FEED022
:1015600000200AE0016811F0010FEDD0002004E036
:101570005A6C42F020025A640120002283F8402075
:1015800017B070BC70470120FAE70220F8E700BFEF
:1015900000010050000400500005005000070050FA
:1015A00000030050002859D010B5044690F841308F
:1015B000002B43D0242384F841302268136823F0A1
:1015C000010313606368226823F07063136122686B
:1015D000936823F400439360E368012B33D0A3683E
:1015E000226843F404439360E368022B31D02268FD
:1015F000536843F0007343F4004353602268D36898
:1016000023F40043D360236962691343A16922680C
:1016100043EA0123D360E369216A22680B43136024
:101620002268136843F001031360002060642023E4
:1016300084F84130206384F8420010BD80F84030C7
:10164000FFF7F8F9B6E7A368226843F40043936014
:10165000CAE723684FF400625A60C8E70120704768
:1016600090F84130DBB2202B27D190F84030012B8D
:1016700025D010B4012380F84030242380F8413075
:101680000468226822F0010222600468226822F4C1
:1016900080522260026813680B431360026813686B
:1016A00043F001031360202380F84130002380F8C9
:1016B000403018465DF8044B704702207047022006
:1016C000704790F84130DBB2202B25D190F84030A4
:1016D000012B23D010B4012380F84030242380F85C
:1016E00041300468226822F0010222600268136817
:1016F00023F4706343EA012313600268136843F024
:1017000001031360202380F84130002380F840302B
:1017100018465DF8044B704702207047022070475E
:10172000002861D010B582B0044690F83230DBB2A8
:10173000052B5BD090F83230DBB2022B58D02D4B0A
:101740009A6942F001029A619B6903F001030193D7
:10175000019B90F832300BB980F831302046FFF70A
:10176000B5F96368402B1ED0602B1CD02168086837
:10177000214A0240A0680343E06803432069034311
:1017800060690343A0690343E0690343206A03439C
:10179000606A0343A06A43EAC043E06A43EA006325
:1017A00013430B6017E021680868134A0240E068A1
:1017B000034320690343A0690343E0690343206AAC
:1017C0000343606A0343A06A43EAC043E06A43EA12
:1017D000006313430B6094F8323013B9012384F88B
:1017E0003230002002B010BD012070470120F9E71F
:1017F0000120F7E700100240113800E0002858D01F
:1018000010B504460023836290F85D30002B45D06C
:10181000022384F85D302268136823F040031360CC
:10182000E368B3F5E06F3ED90022B3F5706F04D0E2
:10183000B3F5E06F01D00021A162216B21B9B3F5AE
:10184000E06F33D9022323636368A1680B432169E6
:101850000B4361690B43A16901F400710B43E1691A
:101860000B43216A0B43A06A216803430B60638B1F
:1018700003F00403616A0B43616B0B43E1680B43A4
:10188000216813434B602268D36923F40063D3615A
:1018900000202066012384F85D3010BD80F85C30A4
:1018A000FFF774F9B4E74FF48052BEE701232363D6
:1018B000CAE7012070470268136823F0C003136071
:1018C000202380F8693070470268136823F490730E
:1018D00013600268936823F001039360202380F86B
:1018E0006A30704738B590F86A50EDB2202D38D183
:1018F000002938D0002A38D090F86830012B36D033
:1019000013460446012280F868204165A0F858304B
:101910000025C566222280F86A20426E1549916230
:10192000426E1549D162426E14491163426E55638D
:101930000168426D2431406E01F05EFB84F868500E
:101940002268136843F4807313602268936843F03D
:10195000010393602268936843F040039360284634
:1019600000E0022038BD0120FCE70120FAE7022058
:10197000F8E700BF83190008C5190008D11900084D
:10198000704708B5436A0268126812F0200F14D13C
:101990000022A3F85A2019680A6822F480720A60AB
:1019A00019688A6822F001028A6019688A6822F040
:1019B00040028A60202283F86A201846FEF760FC05
:1019C00008BD704708B5406AFFF7FBFF08BD7047C8
:1019D00010B5446A94F86930DBB2212B0CD094F82E
:1019E0006A30DBB2222B13D0E36E43F01003E366C0
:1019F0002046FFF7ECFF10BD23689B6813F0800FB3
:101A0000EDD00023A4F852302046FFF754FFE6E75C
:101A100023689B6813F0400FE6D00023A4F85A30E7
:101A20002046FFF751FFDFE708B5406A0023A0F822
:101A30005A30A0F85230FFF7CAFF08BD38B5044647
:101A400083680269134342691343C2691A430168F8
:101A50000B6823F4164323F00C0313430B60026856
:101A6000536823F44053C1680B4353608369026A8F
:101A70001A4301688B6823F4306313438B60036857
:101A8000944A93420DD0944A93421DD0934A934274
:101A900043D0934A934258D0924A93426DD0102536
:101AA00027E002F55842126B02F00302032A09D81C
:101AB000DFE802F00204067B01251AE0042518E0A5
:101AC000082516E0102514E002F5E632126B02F448
:101AD0004032B2F5803F6AD007D9B2F5003F68D0F6
:101AE000B2F5403F17D1022503E00AB9002500E016
:101AF0001025E269B2F5004F69D0082D00F2E880A8
:101B0000DFE815F0AD00B800C400E600D000E60044
:101B1000E600E600DC001025EBE702F5E432126B8C
:101B200002F44022B2F5802F45D007D9B2F5002F3C
:101B300043D0B2F5402F06D10225DAE70AB90025D5
:101B4000D7E71025D5E71025D3E702F5E232126B6F
:101B500002F44012B2F5801F31D007D9B2F5001F50
:101B60002FD0B2F5401F06D10225C2E70AB90025E1
:101B7000BFE71025BDE71025BBE702F5E032126B89
:101B800002F44002B2F5800F1DD007D9B2F5000F64
:101B90001BD0B2F5400F06D10225AAE70AB90025ED
:101BA000A7E71025A5E71025A3E70225A1E704254F
:101BB0009FE708259DE704259BE7082599E704256D
:101BC00097E7082595E7042593E7082591E7082D71
:101BD00042D8DFE805F0051722412D414141380088
:101BE00000F07AFF6268530803EB4003B3FBF2F3A3
:101BF0009BB223F00F02C3F3420313432268D36066
:101C0000284638BD00F07EFF6268530803EB4003AE
:101C1000B3FBF2F39BB20025EBE76268530803F5D0
:101C2000740303F51053B3FBF2F39BB20025E0E716
:101C300000F044FE6268530803EB4003B3FBF2F389
:101C40009BB20025D5E76268530803F58033B3FBE8
:101C5000F2F39BB20025CCE701250023C9E700F091
:101C60003BFF636800EB5300B0FBF3F0236880B2E6
:101C7000D860C5E700F046FF636800EB5300B0FB97
:101C8000F3F0236880B2D8600025B9E761684A089C
:101C900002F5F40202F59052B2FBF1F292B2DA6070
:101CA0000025ADE700F00AFE636800EB5300B0FBCF
:101CB000F3F0236880B2D8600025A1E761684A0884
:101CC00002F50042B2FBF1F292B2DA60002597E72A
:101CD000012595E7003801400044004000480040DD
:101CE000004C004000500040436A13F0010F06D042
:101CF0000268536823F40033816A0B435360436ADC
:101D000013F0020F06D00268536823F48033C16ACF
:101D10000B435360436A13F0040F06D00268536804
:101D200023F48023016B0B435360436A13F0080FC5
:101D300006D00268536823F40043416B0B435360A1
:101D4000436A13F0100F06D00268936823F480539F
:101D5000816B0B439360436A13F0200F06D0026837
:101D6000936823F40053C16B0B439360436A13F0F1
:101D7000400F0AD00268536823F48013016C0B43B0
:101D80005360036CB3F5801F0BD0436A13F0800FD0
:101D900006D00268536823F40023816C0B43536020
:101DA00070470268536823F4C003416C0B435360CF
:101DB000EBE72DE9F04105460F4616469846069C8E
:101DC0002B68DB6937EA03030CBF01230023B3420E
:101DD0001DD1B4F1FF3FF3D02CB100F065FAA0EBB8
:101DE0000800A042ECD92A68136823F4D07313606A
:101DF0002A68936823F001039360202385F86930F3
:101E000085F86A30002385F86830032000E0002060
:101E1000BDE8F0812DE9F04182B01E4690F86930AE
:101E2000DBB2202B4ED104460D46904600294ED001
:101E3000002A4ED090F86830012B4CD0012380F856
:101E400068300023C366212380F8693000F02CFA43
:101E50000746A4F85080A4F8528003E0236815F8E0
:101E6000012B1A85B4F852309BB2DBB1B4F8523072
:101E7000013B9BB2A4F8523000963B4600228021E1
:101E80002046FFF796FF40BBA368B3F5805FE5D11E
:101E90002369002BE2D1226835F8023BC3F3080323
:101EA0001385DFE700963B46002240212046FFF7DE
:101EB00080FF034698B9202284F86920002284F824
:101EC000682000E00223184602B0BDE8F08101233B
:101ED000F9E70123F7E70223F5E70323F3E70323F9
:101EE000F1E730B583B004460023C36600F0DCF9A7
:101EF000054623681B6813F0080F0ED123681B6882
:101F000013F0040F17D1202384F8693084F86A3065
:101F1000002084F8680003B030BD6FF07E4300936A
:101F2000034600224FF400112046FFF742FF00282D
:101F3000E4D00320EFE76FF07E4300932B460022AE
:101F40004FF480012046FFF734FF0028DBD0032048
:101F5000E1E778B310B5044690F869300BB3242359
:101F600084F869302268136823F001031360204667
:101F7000FFF764FD012813D0636ABBB92268536878
:101F800023F4904353602268936823F02A039360FC
:101F90002268136843F0010313602046FFF7A1FF96
:101FA00010BD80F86830FEF747FED8E72046FFF7FF
:101FB0009BFEE3E70120704790F86930DBB2212BEC
:101FC0002ED1B0F852309BB25BB90268136823F08F
:101FD000800313600268136843F04003136000201D
:101FE00070478368B3F5805F0DD0C36C5A1CC26420
:101FF00002681B781385B0F85230013B9BB2A0F801
:102000005230002070470369002BEED1C36C026888
:102010001B88C3F308031385C36C0233C364EAE768
:102020000220704708B501680B6823F040030B607D
:10203000202380F86930FFF7A3FC002008BDB0F82A
:102040005C3090F86A20D2B2222A31D110B50268F1
:10205000928C92B28168B1F5805F0ED0DBB2416D97
:102060004C1C446513400B70B0F85A30013B9BB2D6
:10207000A0F85A305BB1002010BD01690029EDD1F4
:10208000416D13400B80436D02334365ECE70268FA
:10209000136823F4907313600268936823F00103BC
:1020A0009360202380F86A30FEF7EAF80020E3E727
:1020B0000268936943F008039361022070470000AF
:1020C00038B504460268D369116813F00F0505D1CD
:1020D00013F0200F02D011F0200F1BD190682DB10A
:1020E00010F0010519D111F4907F16D113F4801F5F
:1020F00002D010F4800F7BD113F0800F03D011F0C9
:10210000800F40F0818013F0400F02D011F0400F9B
:102110007ED138BDFFF793FFFBE713F0010F07D027
:1021200011F4807F04D001201062E26E0243E26667
:1021300013F0020F07D035B1226802201062E26E60
:1021400042F00402E26613F0040F07D035B12268B2
:1021500004201062E26E42F00202E26613F0080F01
:1021600009D011F0200F00D12DB122680820106293
:10217000E26E0243E266E26E002ACAD013F0200F3C
:1021800002D011F0200F21D1E36E13F0080F04D11B
:1021900023689B6813F0400F24D02046FFF794FB80
:1021A00023689A6812F0400F18D09A6822F0400213
:1021B0009A60636E73B1184A5A63606E00F056FFFE
:1021C0000028A6D0606E436B9847A2E72046FFF731
:1021D00036FFD9E72046FFF7FAFB9AE72046FFF7DC
:1021E000F6FB96E72046FFF7F2FB0023E36690E755
:1021F0004FF480131362202384F8693084F86A3026
:10220000204600F00BF884E72046FFF7D5FE80E774
:102210002046FFF707FF7CE7291A000870470000F7
:1022200010B504460E4B18784FF47A73B3FBF0F3F5
:102230000C4A1068B0FBF3F000F0EAFF68B90F2C0D
:1022400001D901200AE0002221464FF0FF3000F0C2
:102250009FFF054B1C60002000E0012010BD00BF67
:10226000040000200C0000200800002008B5074AE8
:10227000136843F010031360032000F077FF002081
:10228000FFF7CEFFFEF770FD002008BD00200240E2
:10229000034A1168034B1B780B441360704700BF5F
:1022A0006804002004000020014B1868704700BF3C
:1022B00068040020002800F0EB8270B582B004466C
:1022C000036813F0010F3BD0B54B5B6803F00C03C0
:1022D000042B1ED0B24B5B6803F00C03082B13D009
:1022E0006368B3F5803F68D0002B40F0928003F123
:1022F000804303F504331A6822F480321A601A68A6
:1023000022F480221A605DE0A54B5B6813F4803FE5
:10231000E6D04FF4003393FAA3F3A14B19684FF4BE
:10232000003393FAA3F3B3FA83F303F01F030122FC
:1023300002FA03F30B4203D06368002B00F0AA8279
:10234000236813F0020F00F0C580954B5B6813F013
:102350000C0F00F09C80924B5B6803F00C03082B81
:1023600000F08F802369002B00F0F280012292FAA6
:10237000A2F3B3FA83F303F1845303F584139B00B0
:102380001A60FFF791FF0546022393FAA3F3844BEB
:102390001968022393FAA3F3B3FA83F303F01F033C
:1023A000012202FA03F30B4240F0C380FFF77CFFE7
:1023B000401B0228E8D9032075E2794A136843F4E8
:1023C00080331360764AD36A23F00F03A1680B436E
:1023D000D3626368002B36D0FFF766FF05464FF4E3
:1023E000003393FAA3F36E4B19684FF4003393FA5A
:1023F000A3F3B3FA83F303F01F03012202FA03F3FA
:1024000019429DD1FFF750FF401B6428E7D90320F4
:1024100049E2B3F5A02F09D0614B1A6822F480324B
:102420001A601A6822F480221A60CBE703F1804315
:10243000A3F53C331A6842F480221A601A6842F409
:1024400080321A60BEE7FFF72FFF05464FF40033D6
:1024500093FAA3F3524B19684FF4003393FAA3F3A2
:10246000B3FA83F303F01F03012202FA03F31942C4
:102470003FF466AFFFF718FF401B6428E6D903203E
:1024800011E2474B5B6813F4803F7FF46BAF02238C
:1024900093FAA3F3424B1968022393FAA3F3B3FA16
:1024A00083F303F01F03012202FA03F3194203D05E
:1024B0002369934240F0F0813948036823F0F80320
:1024C0006169F82292FAA2F2B2FA82F201FA02F2F9
:1024D00013430360236813F0080F00F08D80A36995
:1024E000002B61D0012191FAA1F2B2FA82F22D4BB8
:1024F00013449B001960FFF7D7FE0546022393FAA9
:10250000A3F293FAA3F293FAA3F2254A516A93FA3B
:10251000A3F3B3FA83F303F01F03012202FA03F3D8
:102520000B4269D1FFF7C0FE401B0228E6D9032009
:10253000B9E11B48036823F0F8036169F82292FAB5
:10254000A2F2B2FA82F201FA02F213430360C1E787
:10255000012393FAA3F3B3FA83F303F1845303F54E
:1025600084139B0000221A60FFF79EFE054602239B
:1025700093FAA3F30A4B1968022393FAA3F3B3FA6D
:1025800083F303F01F03012202FA03F31942A1D0DF
:10259000FFF78AFE401B0228E9D9032083E100BF30
:1025A0000010024020819010012292FAA2F2B2FAA9
:1025B00082F2BF4B13449B0000221A60FFF774FEA7
:1025C0000546022393FAA3F293FAA3F293FAA3F235
:1025D000B84A516A93FAA3F3B3FA83F303F01F03E3
:1025E000012202FA03F30B4206D0FFF75DFE401B07
:1025F0000228E6D9032056E1236813F0040F00F007
:10260000A980AC4BDB6913F0805F20D1A94BDA695C
:1026100042F08052DA61DB6903F080530193019B41
:102620000125A54B1B6813F4807F12D0E368012BB2
:1026300023D073BB03F1804303F504331A6A22F0FD
:1026400001021A621A6A22F004021A621AE00025D4
:10265000E7E7994A136843F480731360FFF724FE99
:102660000646954B1B6813F4807FDFD1FFF71CFEF5
:10267000801B6428F5D9032015E18E4A136A43F0C4
:1026800001031362E368002B3CD0FFF70DFE064602
:102690002EE0052B09D0874B1A6A22F001021A623C
:1026A0001A6A22F004021A62ECE7824B1A6A42F0BC
:1026B00004021A621A6A42F001021A62E2E7022375
:1026C00093FAA3F37B4B596A022393FAA3F3B3FA69
:1026D00083F303F01F03012202FA03F3194238D1F6
:1026E000FFF7E2FD801B41F28833984200F2D6806A
:1026F000022393FAA3F293FAA3F3002BDFD06D4BDE
:10270000196AE1E7FFF7D0FD064618E0022393FAC5
:10271000A3F3684B596A022393FAA3F3B3FA83F342
:1027200003F01F03012202FA03F3194211D0FFF74D
:10273000BBFD801B41F28833984200F2B180022336
:1027400093FAA3F293FAA3F3002BDFD0594B196A43
:10275000E1E7B5BBE369002B00F0A480554A52685D
:1027600002F00C02082A00F0A080022B2FD04FF0BC
:10277000807393FAA3F3B3FA83F303F1845303F55D
:1027800084139B0000221A60FFF78EFD04464FF071
:10279000007393FAA3F3474B19684FF0007393FA51
:1027A000A3F3B3FA83F303F01F03012202FA03F346
:1027B00019426BD0FFF778FD001B0228E7D90320F0
:1027C00071E03C4AD36923F08053D361C2E74FF0F4
:1027D000807393FAA3F3B3FA83F303F1845303F5FD
:1027E00084139B0000221A60FFF75EFD05464FF040
:1027F000007393FAA3F32F4B19684FF0007393FA09
:10280000A3F3B3FA83F303F01F03012202FA03F3E5
:10281000194206D0FFF748FD401B0228E7D90320E4
:1028200041E024494B6823F47413626A206A02432E
:1028300013434B604FF0807393FAA3F3B3FA83F31F
:1028400003F1845303F584139B0001221A60FFF700
:102850002BFD04464FF0007393FAA3F3154B196850
:102860004FF0007393FAA3F3B3FA83F303F01F035B
:10287000012202FA03F3194206D1FFF715FD001BEE
:102880000228E7D903200EE000200CE000200AE037
:1028900001207047012006E0012004E0032002E04F
:1028A000032000E0002002B070BD0120FBE700BF64
:1028B000208190100010024000700040164B5B68B1
:1028C00003F00C02082A01D01448704703F4701179
:1028D0004FF4701292FAA2F2B2FA82F221FA02F2E4
:1028E0000F49885C0C4AD26A02F00F020F2191FA5C
:1028F000A1F1B1FA81F1CA400A498A5C13F4803F20
:1029000005D0064BB3FBF2F300FB03F07047064B18
:1029100003FB00F0704700BF0010024000127A0075
:10292000EC3B0008FC3B000800093D00002800F0DB
:10293000BD8070B50446614B1B6803F007038B42F2
:102940000BD25E4A136823F007030B43136013682E
:1029500003F007038B4240F0AB80236813F0020FB3
:1029600006D0574A536823F0F003A068034353602E
:102970000D46236813F0010F5AD06368012B2DD048
:10298000022B40D0022292FAA2F24D4A1068022293
:1029900092FAA2F2B2FA82F202F01F02012101FAC7
:1029A00002F2104200F0868045494A6822F0030294
:1029B00013434B60FFF778FC0646414B5B6803F01E
:1029C0000C036268B3EB820F32D0FFF76DFC801B03
:1029D00041F288339842F0D9032066E04FF4003288
:1029E00092FAA2F2364A10684FF4003292FAA2F23A
:1029F000B2FA82F202F01F02012101FA02F202424F
:102A0000D2D1012051E04FF0007292FAA2F22C4A8A
:102A100010684FF0007292FAA2F2B2FA82F202F05B
:102A20001F02012101FA02F21042BDD101203CE057
:102A3000224B1B6803F00703AB420AD91F4A1368F5
:102A400023F007032B431360136803F00703AB4223
:102A500032D1236813F0040F06D0194A536823F4C7
:102A6000E063E1680B435360236813F0080F07D05D
:102A7000134A536823F46053216943EAC103536046
:102A8000FFF71CFF0E4B5B6803F0F003F02292FA95
:102A9000A2F2B2FA82F2D3400A4AD35CD8400A4B7F
:102AA00018600020FFF7BCFB002070BD01207047BC
:102AB0000120FAE70120F8E70120F6E700200240B4
:102AC000001002400C3C00080C000020014B18686C
:102AD000704700BF0C00002008B5FFF7F7FF074B59
:102AE0005B6803F4E0634FF4E06292FAA2F2B2FA98
:102AF00082F2D340024AD35CD84008BD00100240A5
:102B00001C3C000808B5FFF7E1FF074B5B6803F4C6
:102B100060534FF4605292FAA2F2B2FA82F2D340BA
:102B2000024AD35CD84008BD001002401C3C00089B
:102B3000F0B583B00446036813F4803F48D0914B4E
:102B4000DB6913F0805F40F0D5808E4BDA6942F08C
:102B50008052DA61DB6903F080530193019B012508
:102B6000894B1B6813F4807F00F0C680854B1B6A7D
:102B700013F4407322D0626802F440729A421DD06E
:102B80008048016A21F440764FF4803393FAA3F22F
:102B9000B2FA82F27D4F3A4492004FF0010CC2F833
:102BA00000C093FAA3F3B3FA83F33B449B000022E3
:102BB0001A60066211F0010F40F0B380714A136A87
:102BC00023F4407361680B431362002D40F0D08002
:102BD000236813F0010F06D06A4A136B23F0030336
:102BE000A1680B431363236813F0020F06D0654AF4
:102BF000136B23F44033E1680B431363236813F032
:102C0000040F06D05F4A136B23F4402321690B4362
:102C10001363236813F0200F06D05A4A136B23F076
:102C20001003E1690B431363236813F4003F06D0DC
:102C3000544A536823F48003A16B0B435360236809
:102C400013F0400F06D04F4A136B23F02003216A84
:102C50000B431363236813F0080F06D0494A136B24
:102C600023F4401361690B431363236813F0100FBF
:102C700006D0444A136B23F44003A1690B4313634A
:102C8000236813F4007F06D03E4A536823F4000300
:102C9000E16A0B435360236813F0800F06D0394A72
:102CA000D36A23F4F873616A0B43D362236813F485
:102CB000807F06D0334AD36A23F47853A16A0B434A
:102CC000D362236813F4805F06D02E4A136B23F47B
:102CD0008073216B0B431363236813F4005F4ED0A2
:102CE000284A136B23F40073616B0B4313630020BA
:102CF00003B0F0BD002533E7234A136843F4807323
:102D00001360FFF7D1FA06461F4B1B6813F4807F50
:102D10007FF42CAFFFF7C8FA801B6428F4D9032096
:102D2000E6E7FFF7C1FA064615E0164B196A0223DB
:102D300093FAA3F3B3FA83F303F01F03012202FA19
:102D400003F30B427FF43AAFFFF7AEFA801B41F278
:102D50008833984211D8022393FAA3F293FAA3F38B
:102D6000002BE2D1022393FAA3F3064B596ADEE764
:102D7000D36923F08053D3612AE70320B8E700200A
:102D8000B6E700BF001002400070004000819010C4
:102D9000F0B482B0002336E0042400E00024B44004
:102DA0003C4302355B4E46F825405B4C2568D443D6
:102DB00004EA05064F6817F4803F01D042EA050691
:102DC000554D2E606D6804EA05064F6817F4003F04
:102DD00001D042EA0506504D6E60AD6804EA050672
:102DE0004F6817F4801F01D042EA05064A4DAE60D5
:102DF000ED682C404E6816F4001F01D042EA05042D
:102E0000454AD46001330A6832FA03F47ED00124C3
:102E10009C402240F6D04D68022D01D0122D10D1D9
:102E2000DE08083650F826C003F00705AF000F256E
:102E3000BD402CEA050C0D69BD4045EA0C0540F883
:102E4000265006685F000325BD40ED4305EA060CE9
:102E50004E6806F00306BE4046EA0C0606604E6861
:102E600006F1FF3CBCF1010F03D9112E01D0122E47
:102E700010D1866805EA060CCE68BE4046EA0C060C
:102E80008660466826EA04044E68C6F300169E4033
:102E900026434660C46825408C68BC402C43C4600F
:102EA0004C6814F0805FADD01C4CA56945F001055D
:102EB000A561A46904F001040194019C9D08AE1C65
:102EC000144C54F8267003F00304A6000F24B440F9
:102ED00027EA0407B0F1904F3FF460AF104CA042D6
:102EE0000ED004F58064A0420CD004F58064A042AA
:102EF0000AD004F58064A0423FF44EAF05244EE7AB
:102F000001244CE702244AE7032448E702B0F0BC5E
:102F1000704700BF00000140000401400010024063
:102F2000000400480AB1816170478162704770B443
:102F3000066CC56B0124B4406C6004686360436830
:102F4000102B05D0036899600368DA6070BC704785
:102F500003689A600368D960F8E7000002680C4BC8
:102F60009A420AD80B4B13440B4AA2FB03231B09BA
:102F70009B000364094BC3637047094B1344064A23
:102F8000A2FB03231B099B000364064BC36370472A
:102F900007040240F8FFFDBFCDCCCCCC00000240BE
:102FA000F8FBFDBF0004024020B310B50446022325
:102FB00080F8213001680A6822F47F5222F0300242
:102FC000436880680343E068034320690343606902
:102FD0000343A0690343E069034313430B602046A6
:102FE000FFF7BCFF0020A063012384F8213084F8A0
:102FF000200010BD0120704738B590F82040012C0A
:1030000032D0012480F8204090F82140012C04D0D7
:10301000002380F82030022038BD0446022084F8C6
:1030200021000020A0632568286820F001002860A6
:103030002046FFF77CFFE36A5BB12268136843F028
:103040000E0313602268136843F00103136000202D
:10305000E2E72268136843F00A03136022681368EA
:1030600023F004031360EDE70220D5E708B590F8DC
:103070002130022B03D004238363012008BD0268A2
:10308000136823F00E0313600268136823F0010332
:103090001360036CC16B012202FA03F34B6080F8EA
:1030A0002120002380F82030436B13B19847002083
:1030B000E4E70020E2E738B5C36B1A6804682568C6
:1030C000016C04238B40134213D015F0040F10D071
:1030D000236813F0200F03D1236823F00403236037
:1030E000016CC26B04238B405360C36A03B19847E1
:1030F00038BD02238B4013421AD015F0020F17D0AF
:10310000236813F0200F06D1236823F00A032360FD
:10311000012380F82130016CC26B02238B40536085
:10312000002380F82030836A002BE1D09847DFE746
:10313000082303FA01F11142DAD015F0080FD7D0B5
:10314000236823F00E032360026CC16B012303FA92
:1031500002F24A60836380F82130002380F8203037
:10316000036B002BC4D09847C2E70000074AD3681E
:1031700023F4E0631B041B0C000200F4E06018431E
:1031800040F0BF6040F40030D060704700ED00E0D8
:1031900030B4174BDB68C3F30223C3F10704042CDC
:1031A00028BF04241D1D062D01D9033B00E0002388
:1031B0004FF0FF3505FA04F421EA0401994005FABD
:1031C00003F322EA03031943002809DB0901C9B20A
:1031D00000F1604000F5614080F8001330BC70479A
:1031E00000F00F000901C9B2024B1954F6E700BF05
:1031F00000ED00E014ED00E000F01F0240090123A3
:103200009340024A42F82030704700BF00E100E0DE
:103210000138B0F1807F0AD2064B5860064AF0218F
:1032200082F823100020986007221A60704701205E
:10323000704700BF10E000E000ED00E01549D1F854
:10324000883043F47003C1F88830134B1A6842F099
:1032500001021A605868114A02405A601A6822F046
:10326000847222F480321A601A6822F480221A6072
:103270005A6822F4FE025A60DA6A22F00F02DA6219
:10328000186B074A02401A6300229A604FF00063ED
:103290008B60704700ED00E0001002400CC07FF82A
:1032A000CCFC00FFDFF834D0002103E00C4B5B586E
:1032B000435004310B480C4B42189A42F6D30B4A48
:1032C00002E0002342F8043B094B9A42F9D3FFF78E
:1032D000B5FF00F011F8FDF721F8FEE700A000208F
:1032E000603C0008000000207400002074000020F2
:1032F0007C040020FEE7000070B50D4D0D4C641BF2
:10330000A4100026A64209D10B4D0C4C00F048FC3D
:10331000641BA4100026A64205D170BD55F8043BDD
:1033200098470136EEE755F8043B98470136F2E737
:10333000583C0008583C0008583C00085C3C000819
:1033400002440346934200D1704703F8011BF9E79A
:103350000EB400B59CB01DAB029006906FF000411A
:10336000094807910491094953F8042B0591006815
:10337000019302A900F068F8029B00221A701CB0A9
:103380005DF804EB03B07047100000200802FFFF57
:103390002DE9F0478E689E4282460C46914698463B
:1033A00038D8B1F80CC01CF4906F31D06269256830
:1033B000096902EB42026F1A02EBD2720133551017
:1033C0003B449D4238BF1D461CF4806F30D02946D7
:1033D00000F032FB064650B90C23CAF80030A3892E
:1033E00043F04003A3814FF0FF30BDE8F0873A4639
:1033F000216900F0ABFAA38923F4906343F08003C2
:10340000A381266165613E44ED1B2660A5604646AA
:10341000464500D9464632464946206800F0A4FA9F
:10342000A3689B1BA36023681E4426600020DCE782
:103430002A4600F05BFB06460028E2D1216950468F
:1034400000F0ACFAC8E700002DE9F04F1E468B896A
:103450001B069DB007460D4614460ED50B6963B991
:10346000402100F0E9FA2860286120B90C233B6074
:103470004FF0FF30C9E040236B6100230993202304
:103480008DF82930DFF89C91039630238DF82A308F
:103490004FF0010A23461E4613F8012B0AB1252AD4
:1034A000F9D1B6EB040B0BD05B46224629463846D1
:1034B000FFF76EFF013000F0A380099B5B44099386
:1034C0003378002B00F09C8000234FF0FF32CDE9D1
:1034D00005230136049307938DF853301A9334462D
:1034E000052214F8011B4F48FCF77AFE049BC0B973
:1034F000D90644BF20228DF853201A0744BF2B223F
:103500008DF8532032782A2A13D0079A34460020A7
:103510000A26214611F8013B303B092B4BD970B9E3
:1035200014E0A0EB09000AFA00F0184304902646C4
:10353000D5E7039A111D12680391002A01DB079257
:1035400004E0524243F002030792049323782E2BA7
:103550000CD163782A2B33D1039B1A1D1B6803926D
:10356000002BB8BF4FF0FF33023405932E4E217865
:1035700003223046FCF734FE38B14023801B03FAA7
:1035800000F0049B03430134049314F8011B274803
:103590008DF828100622FCF723FE002838D0244B93
:1035A00013BB039B073323F0070308330393099BE3
:1035B000434409936EE706FB023201200C46A8E75C
:1035C00000230134059319460A26204610F8012BE2
:1035D000303A092A03D9002BC8D00591C6E706FB6B
:1035E000012101230446F0E703AB00932A46114B67
:1035F00004A93846AFF30080B0F1FF3F8046D6D132
:10360000AB895B063FF534AF09981DB0BDE8F08F7C
:1036100003AB00932A46074B04A9384600F082F812
:10362000EAE700BF243C00082A3C00082E3C0008C2
:1036300000000000913300082DE9F04791461F4635
:103640008A680B69DDF820809342B8BF1346C9F839
:10365000003091F8432006460C4612B10133C9F8F8
:1036600000302368990642BFD9F800300233C9F808
:103670000030256815F0060507D104F1190AE36842
:10368000D9F800209B1AAB4228DC94F8433022681A
:10369000003318BF012392062DD404F143023946AA
:1036A0003046C047013020D02368E568D9F80020B3
:1036B00003F00603042B08BFAD1AA36822690CBFF0
:1036C00025EAE57500259342C4BF9B1AED184FF01B
:1036D00000091A344D451AD1002008E00123524652
:1036E00039463046C047013003D14FF0FF30BDE8C6
:1036F000F0870135C3E7E1185A1C302081F84300F8
:10370000224494F8451082F843100233C5E70123A0
:10371000224639463046C0470130E6D009F101095A
:10372000D8E700002DE9F04306460C4601F14300BE
:10373000097E85B06E29984617460C9B00F0BA802A
:1037400024D8632939D00AD8002900F0C380582929
:1037500000F0918004F1420584F8421035E06429BC
:1037600001D06929F6D125681A6815F0800F02F199
:1037700004012CD012681960002A03DA2D2352426A
:1037800084F84330DFF8BCC10A233FE0732900F01E
:10379000A58008D86F2921D07029DBD1226842F09A
:1037A0002002226003E0752918D07829D2D178222E
:1037B00084F84520DFF890C161E01A68111D196096
:1037C000136884F8423004F14205012393E0126843
:1037D000196015F0400F18BF12B2CDE7D4F800C041
:1037E0001A681CF0800F02F104051D6001D01268F8
:1037F00003E01CF0400FFAD01288DFF848C16F29AF
:103800000CBF08230A23002184F843106568A560D3
:10381000002DA2BF216821F0040121600AB9002D0A
:1038200046D00546B2FBF3F103FB112E93421CF880
:103830000EE005F801ED39D9082B0BD12368DA0722
:1038400008D5236962689A42DEBF302305F8013C3F
:1038500005F1FF35401B2061CDF800803B4603AAEF
:1038600021463046FFF7E8FE013049D14FF0FF30E6
:1038700005B0BDE8F083DFF8CCC084F845101D68C2
:10388000216855F8042B1D600D060BD5CD0744BFEC
:1038900041F0200121601AB9236823F0200323603E
:1038A0001023B0E74B0648BF92B2EFE70A46B9E7EC
:1038B0000546C1E71A68D4F800C06169151D1D608E
:1038C0001CF0800F136801D0196003E01CF0400F5A
:1038D000FAD01980002323610546BDE71A68111D3F
:1038E00019601568626800212846FCF779FC08B168
:1038F000401B606063682361002384F84330ABE7BA
:1039000023692A4639463046C0470130AED0236885
:103910009B0713D4E068039B9842B8BF1846A7E7FB
:1039200001234A4639463046C04701309ED0013512
:10393000E368039A9B1AAB42F2DCEBE7002504F143
:103940001909F5E7353C0008463C00080A44914255
:1039500000F1FF3300D1704710B511F8014B03F8A7
:10396000014F9142F9D110BD884210B501EB02031D
:1039700002D983421C4607D8421E994208D011F84A
:10398000014B02F8014FF8E783189A1A9A4200D1C6
:1039900010BD14F8011D03F8011DF7E738B5054601
:1039A000002945D051F8043C0C1F002BB8BFE41887
:1039B00000F0D2F81F4A1368104633B963601460F0
:1039C0002846BDE8384000F0CDB8A3420CD92168A4
:1039D0006218934204BF1A685B68636004BF5218A0
:1039E00022600460ECE713465A680AB1A242FAD991
:1039F00019685818A0420BD1206801445818824217
:103A00001960DDD1106852685A6001441960D7E727
:103A100002D90C232B60D3E7206821188A4204BF07
:103A200011685268626004BF091821605C60C7E7D2
:103A300038BD00BFA8000020F8B5CD1C25F0030557
:103A400008350C2D38BF0C25002D064601DBA94298
:103A500003D90C2333600020F8BD00F07DF8214924
:103A60000A6814469CB9204F3B6823B9214630466A
:103A700000F062F838602946304600F05DF8431CDB
:103A800023D10C233360304600F06CF8E3E7236861
:103A90005B1B17D40B2B03D923601C44256004E067
:103AA0006368A2420CBF0B605360304600F05AF8C6
:103AB00004F10B00231D20F00700C21ACCD01B1A02
:103AC000A350C9E722466468CCE7C41C24F0030471
:103AD000A042E3D0211A304600F02EF80130DDD1AB
:103AE000CFE700BFA8000020AC000020F8B50746D3
:103AF00014460E4621B91146BDE8F840FFF79CBFB9
:103B000022B9FFF74BFF25462846F8BD00F030F8F4
:103B1000A0420FD221463846FFF78EFF0546002807
:103B2000F2D031462246FFF711FF31463846FFF703
:103B300035FFE9E73546E7E738B5064C002305468B
:103B40000846236000F01EF8431C02D1236803B12D
:103B50002B6038BD6C040020014800F011B800BF94
:103B600074040020014800F00CB800BF7404002069
:103B700051F8043C181F002BBCBF0B58C0187047ED
:103B800070477047044A05491368002B08BF0B466D
:103B90001844106018467047B000002080040020D0
:103BA000F8B500BFF8BC08BC9E467047F8B500BF2A
:083BB000F8BC08BC9E467047FA
:103BB80068657961210000006275666672783A204E
:103BC80025730D0A000000006D696C6C69733A205A
:103BD800256C640D0A000000636F756E743A202529
:103BE800640D0A0002030405060708090A0B0C0DF8
:103BF8000E0F10100102030405060708090A0B0C32
:103C08000D0E0F1000000000000000000102030468
:103C1800060708090000000001020304232D302BC9
:103C28002000686C4C0065666745464700303132B5
:103C3800333435363738394142434445460030310C
:103C4800323334353637383961626364656600006B
:043C5800B5010008AA
:043C5C0091010008CA
:103C6000D0070000010000001000000000127A00E0
:103C70001400002000000000000000000000000010
:103C80000000000000000000000000000000000034
:103C90000000000000000000000000000000000024
:103CA0000000000000000000000000000000000014
:103CB0000000000000000000000000000000000004
:103CC00000000000000000000000000000000000F4
:043CD00000000000F0
:04000005080032A518
:00000001FF
