:020000040800F2
:1000000000A00020C14D00089510000897100008BE
:10001000991000089B1000089D10000800000000C7
:100020000000000000000000000000009F10000819
:10003000A110000800000000A3100008A51000088F
:10004000114E0008114E0008114E0008114E000814
:10005000114E0008114E0008114E0008114E000804
:10006000114E0008114E0008114E0008114E0008F4
:10007000114E0008114E0008114E0008114E0008E4
:10008000114E0008114E0008114E0008114E0008D4
:10009000AD100008114E0008114E0008114E000866
:1000A000114E0008114E0008114E0008114E0008B4
:1000B000114E0008114E0008114E0008114E0008A4
:1000C000114E0008114E0008114E0008114E000894
:1000D000114E0008114E0008114E0008114E000884
:1000E000114E0008114E0008114E0008114E000874
:1000F000114E0008114E0008114E0008114E000864
:10010000000000000000000000000000114E000888
:10011000114E0008114E0008114E0008114E000843
:10012000114E0008114E0008114E0008114E000833
:10013000114E0008114E00080000000000000000F1
:10014000114E0008114E0008114E0008000000007A
:10015000000000000000000000000000000000009F
:100160000000000000000000114E0008114E0008C1
:10017000114E000800000000000000000000000018
:0801800000000000114E000810
:1001880010B5054C237833B9044B13B10448AFF3C9
:1001980000800123237010BDDC0000200000000057
:1001A8006C4E000808B5034B1BB103490348AFF375
:1001B800008008BD00000000E00000206C4E000830
:1001C800034613F8012B002AFBD1181A013870478F
:1001D800F0B59FB00024169417941A940F941094B5
:1001E8001194129413943C222146684604F032FE7E
:1001F800032314934FF48035159501261896102380
:10020800199302271B971C954FF480131D9314A86C
:1002180002F0ACFF0F230F93109711944FF48063F3
:100228001293139431460FA803F0DCFA0A4B00939B
:10023800029603954FF4802304934FF49073099327
:100248004FF410530A9307944FF480030E936846B3
:1002580003F0CAFB1FB0F0BDA701020008B502F009
:100268004DFFFFF7B5FF00F03FF800F019F900F077
:100278005BF900F091F900F0D5F900F0B5FB00F05A
:1002880023FC00F059FC00F0F9FA00F059FB00F0EB
:1002980037FC00F013FD104C4FF48071204603F03A
:1002A800A2FD4FF40071204603F09DFD4FF48061DC
:1002B800204603F098FD094C094B07CB206061608C
:1002C800A2601B88A381204600F0EAFC4FF4FA7074
:1002D80002F038FFDFE700BF000C004820060020CE
:1002E800844E0008704700002DE9F04F8DB00024BF
:1002F8000794089409940A940B94634B5A6942F43E
:1003080000125A615A6902F400120192019A5A695C
:1003180042F400225A615A6902F400220292029AB7
:100328005A6942F480025A615A6902F480020392BF
:10033800039A5A6942F400325A615A6902F4003247
:100348000492049A5A6942F480225A615A6902F462
:1003580080220592059A5A6942F480125A615B69B3
:1003680003F480130693069B484F2246072138461C
:1003780003F034FD464E22464FF4E061304603F068
:100388002DFD072307934FF0010ACDF820A009940B
:100398000A9407A9384603F057FC78230793089472
:1003A800099407A9384603F04FFC42F2200307934B
:1003B800032508950994DFF8DC9007A9484603F05F
:1003C80043FC4FF4C263079308950994DFF8C8808B
:1003D80007A9404603F038FC4AF21C030793089526
:1003E8000994DFF8B8B007A9584603F02DFC4FF47C
:1003F800404307930895099407A9384603F024FC5D
:1004080044F2203307930894099407A9584603F047
:100418001BFC4FF4E0630793CDF820A009940A94DD
:1004280007A9304603F010FC4FF203030793089422
:10043800099407A9304603F007FC4FF4707307933B
:100448000894099407A9484603F0FEFB4FF480730B
:1004580007930894099407A94FF0904003F0F4FB20
:10046800402307930894099407A9404603F0ECFB3E
:10047800DC2307930895099407A9304603F0E4FBA9
:100488000DB0BDE8F08F00BF00100240001000481A
:10049800000C004800080048001400480004004808
:1004A80000B58BB000230793089309930193029337
:1004B80003930493059306931A484FF0A0420260F1
:1004C800436083600361C361436203630122C262C4
:1004D800C36002624363042242618361836301F063
:1004E800D7FDB0B90023079307A90E4802F0EAF830
:1004F80090B9012301930293002304930393059376
:10050800069301A9074801F009FF40B90BB05DF84F
:1005180004FBFFF7E7FEE5E7FFF7E4FEE9E7FFF78F
:10052800E1FEF3E7D806002000B587B0002300936A
:10053800019302930393049305931548154A0260A7
:10054800436083600361C361436203630122C26243
:10055800C36002624363042242618361836301F0E2
:1005680097FD78B901230093019300230393029325
:10057800049305936946064801F0D0FE28B907B0F0
:100588005DF804FBFFF7AEFEECE7FFF7ABFEF6E71E
:10059800840600200001005000B58BB000230793AB
:1005A8000893099301930293039304930593069385
:1005B8001A481B4A0260436083600361C361436257
:1005C80003630122C262C360026243630422426180
:1005D8008361836301F05CFDB8B90023079307A921
:1005E8000E4802F06FF898B9022301930123029391
:1005F8000023049303930593069301A9074801F088
:100608008DFE40B90BB05DF804FBFFF76BFEE4E725
:10061800FFF768FEE8E7FFF765FEF3E72C07002021
:100628000004005000B587B00023009301930293A3
:100638000393049305931648164A02604360836047
:100648000361C361436203630122C262C360026241
:100658004363042242618361836301F019FD80B919
:10066800112300930123019300230393029304931E
:1006780005936946064801F051FE28B907B05DF8B0
:1006880004FBFFF72FFEEBE7FFF72CFEF6E700BFB2
:10069800800700200005005030B591B000230B936F
:1006A8000C930D930E930F930368B3F1A04F1AD0D8
:1006B800684A934260D0684A934200F09480674A3F
:1006C80093424CD1664A136801331360012B46D11B
:1006D800644B5A6942F000525A615B6903F0005357
:1006E8000A930A9B3BE0604A136801331360012BAD
:1006F80037D05C4B5A6942F400225A615A6902F4B5
:1007080000220192019A5A6942F480025A615A6998
:1007180002F480020292029A5A6942F400325A6143
:100728005B6903F400330393039B0C230B930324AB
:100738000C940BA94D4803F087FA04230B930C94EF
:1007480000250D950BA94A4803F07EFA07230B9361
:100758000C940D950BA94FF0904003F075FA11B069
:1007680030BD404B5A6942F080525A615B6903F0D0
:1007780080530093009BBCE73B4A13680133136026
:10078800012B25D0374B5A6942F400225A615A6925
:1007980002F400220592059A5A6942F400325A611D
:1007A8005B6903F400330693069B13230B9303241E
:1007B8000C940BA92D4803F047FAF0230B930C94E3
:1007C80000230D930BA94FF0904003F03DFAC6E7C4
:1007D800244B5A6942F080525A615B6903F0805396
:1007E8000493049BCEE71E4A136801331360012B60
:1007F80024D01C4B5A6942F480225A615A6902F487
:1008080080220892089A5A6942F400125A615B6978
:1008180003F400130993099B03240B940C940BA96C
:10082800144803F011FA4FF47E530B930C940023F1
:100838000D930BA9104803F007FA90E7094B5A6982
:1008480042F000525A615B6903F000530793079B1B
:10085800CFE700BF00010050000400500005005021
:10086800FC00002000100240F800002000080048AA
:1008780000140048000400480010004808B5124859
:10088800124B0360124B4360002383600122C26055
:10089800036143618361C361036201F0BFFF50B923
:1008A8000021094802F018F840B90021064802F072
:1008B80044F830B908BDFFF715FDF1E7FFF712FD61
:1008C800F3E7FFF70FFDF5E7D407002000540040D9
:1008D8000E09002010B588B00023039304930593F4
:1008E800069307930268134B9A4201D008B010BDD3
:1008F800114C636943F480236361636903F48023C3
:100908000193019BC02303931223049301230593AE
:10091800032306930423079303A9084803F094F9D3
:10092800E36943F40013E361E36903F400130293FA
:10093800029BDBE70054004000100240000400481E
:1009480008B50848084B0360602343600023C36070
:100958000361436202F020F800B908BDFFF7C2FC4A
:10096800FBE700BF200800204400014010B588B014
:100978000023039304930593069307930268174B88
:100988009A4201D008B010BD03F5873303F5DE7332
:100998005A6942F480225A615A6902F4802201920B
:1009A800019A5A6942F480125A615B6903F4801310
:1009B8000293029B4FF4805303930324049403A9E6
:1009C800074803F041F94FF40063039304940023AC
:1009D800059303A9034803F037F9D3E7440001401E
:1009E80000040048000C004808B51048104B03608C
:1009F8004FF482734360002383604FF4E062C26067
:100A0800036143614FF4802282611022C261036254
:100A1800436283620722C26203630823436302F0CE
:100A280029F800B908BDFFF75DFCFBE75408002072
:100A3800003C004070B588B00023039304930593ED
:100A48000693079302681E4B9A4201D008B070BD06
:100A580003F5EA33DA6942F40042DA61DA6902F44A
:100A680000420092009A5A6942F400325A615A6967
:100A780002F400320192019A5A6942F400225A6142
:100A88005B6903F400230293029B4FF40043039332
:100A980002260496032506950624079403A94FF019
:100AA800904003F0D1F84FF4E053039304960023E9
:100AB80005930695079403A9024803F0C5F8C5E70E
:100AC800003C00400008004808B50B480B4B036089
:100AD8004FF41643436000238360C36003610C2214
:100AE80042618361C3610362436202F0AEFA00B9F6
:100AF80008BDFFF7F7FBFBE7280900200038014095
:100B080008B50B480B4B03604FF4164343600023B2
:100B18008360C36003610C2242618361C361036225
:100B2800436202F092FA00B908BDFFF7DBFBFBE76E
:100B3800980900200044004008B50B480B4B03609F
:100B48004FF41643436000238360C36003610C22A3
:100B580042618361C3610362436202F076FA00B9BD
:100B680008BDFFF7BFFBFBE7B808002000480040BE
:100B780070B58CB000230793089309930A930B93DD
:100B88000368414A934207D0404A934226D0404ADC
:100B9800934258D00CB070BD3E4B9A6942F48042E3
:100BA8009A619A6902F480420092009A5A6942F462
:100BB80000325A615B6903F400330193019B4FF4DF
:100BC800C06307930223089303230A9307230B9315
:100BD80007A94FF0904003F037F8DBE72D4BDA69AF
:100BE80042F40032DA61DA6902F400320292029ABF
:100BF8005A6942F400325A615A6902F40032039287
:100C0800039A5A6942F480125A615B6903F48013AB
:100C18000493049B082307930226089603250A9544
:100C280007240B9407A94FF0904003F00DF82023F8
:100C380007930896002309930A950B9407A9164869
:100C480003F002F8A6E7134BDA6942F48022DA616E
:100C5800DA6902F480220592059A5A6942F48022E0
:100C68005A615B6903F480230693069B4FF4406343
:100C780007930223089303230A9307230B9307A9D7
:100C8800064802F0E1FF85E70038014000440040D3
:100C98000048004000100240000C004800040048D2
:100CA80010B50446FFF78CFA4FF47A7382B22146E6
:100CB800014802F02BF910BD9809002008B5002260
:100CC8000F49104803F030F970B90F490D4803F087
:100CD80042F960B90D490B4804F069F850B9094860
:100CE80003F040F948B908BDFFF7FCFAEDE7FFF754
:100CF800F9FAEFE7FFF7F6FAF1E7FFF7F3FAF2E7A9
:100D080000000020080A0020780000205000002081
:100D1800022807D8DFE800F0020604000020704728
:100D2800012070470220704710B588B00023039354
:100D380004930593069307930268174B9A4201D0D0
:100D480008B010BD154C636943F4003363616369EF
:100D580003F400330193019B4FF4C0530393022320
:100D68000493032306930E23079303A94FF090409F
:100D780002F06AFFE36943F40003E361E36903F403
:100D880000030293029B00221146142003F042F84C
:100D9800142003F073F8D3E7005C00400010024011
:100DA80008B500F55D71D0F8A40303F000F908BD9B
:100DB80008B5C1EBC10293000344D3F8DC21D0F895
:100DC800A40303F022F908BD08B5C1EBC1029300E2
:100DD80003449A6BD0F8A40303F04DF908BD08B595
:100DE800D0F8A40303F0D1F908BD10B50446836810
:100DF800022B09D10121D4F8A40303F0B4F9D4F8E3
:100E0800A40303F091F910BDFFF76CFAF2E70000B4
:100E180010B50446D0F8A40303F0A8F9A36923B1D8
:100E2800024A136943F00603136110BD00ED00E0A8
:100E380008B5D0F8A40303F0A2F908BD10B504461C
:100E48001248C0F8A443C4F82002114B03600823D9
:100E5800436002238360036100238361036200F01F
:100E680041F978B9182300221146D4F8200201F07C
:100E780082F8582300228021D4F8200201F07BF860
:100E8800002010BDFFF72EFAECE700BF2C0C002065
:100E9800005C004008B5D0F8200200F077F9FFF7B1
:100EA80037FF08BD08B5D0F8200200F075F9FFF744
:100EB8002FFF08BD10B51C4613462246D0F8200265
:100EC80000F096F9FFF724FF10BD08B5D0F820020E
:100ED80000F07CFFFFF71CFF08BD08B5D0F8200222
:100EE80000F0D4FFFFF714FF08BDD0F8203211F04E
:100EF800800F08D101F07F01C1EBC1018A001344C2
:100F080093F8CE01704701F07F01C1EBC1018A005F
:100F1800134493F82A00704708B5D0F8200200F06F
:100F280051F9FFF7F5FE08BD08B5D0F8200200F02A
:100F3800E4FBFFF7EDFE08BD08B5D0F8200200F08D
:100F48002AFBFFF7E5FE08BD0048704700010020B6
:100F58007047704712230B80004870471C00002020
:100F680004230B8000487047300000200023934280
:100F780016D230B40BE0373401F8134000015C009E
:100F8800013400250D550133DBB2934206D2040F1C
:100F9800092CF0D8303401F81340EFE730BC704723
:100FA8007047000038B50A4B186804331C680433CE
:100FB8001B68C01800D138BD064D0822A91CFFF7D0
:100FC800D5FF042205F112012046FFF7CFFFF2E713
:100FD800ACF7FF1F3400002008B51A230B80FFF779
:100FE800E1FF014808BD00BF3400002008B50A46EB
:100FF80028B90549054803F03EFB034808BD0249E6
:10100800024803F038FBF8E7D40F0020C44E00086C
:1010180010B5044C0A462146034803F02CFB204631
:1010280010BD00BFD40F0020B04E000808B50A4616
:1010380028B90549054803F01EFB034808BD0249C5
:10104800024803F018FBF8E7D40F0020944E00087C
:1010580008B50A4628B90549054803F00CFB0348BA
:1010680008BD0249024803F006FBF8E7D40F002048
:10107800A04E0008002070470020704700207047ED
:101088000020704700207047002070477047FEE737
:10109800FEE7FEE7FEE770477047704708B502F0C5
:1010A8003FF808BD08B5024800F004FE08BD00BFBF
:1010B8002C0C002082B00A4B9A6942F001029A6116
:1010C8009A6902F001020092009ADA6942F08052AD
:1010D800DA61DB6903F080530193019B02B070472A
:1010E8000010024000284FD010B5044690F8713324
:1010F800BBB1032384F8713300226068904215D98C
:10110800D100891A8B002344012183F8291083F820
:101118002820002183F82B1059639963D963013281
:10112800EBE780F87033FFF7FFFDE2E7002290421B
:1011380012D9D100891A8B002344002183F8CD11DC
:1011480083F8CC2183F8CF11C3F8D811C3F8DC1188
:10115800C3F8E0110132EAE722680123A2F840301F
:1011680022680020A2F840002268A2F84400226801
:10117800A2F8500022684FF43F41A2F8401084F8CA
:10118800240084F8713310BD0120704708B501218F
:10119800FFF7DFFE002008BD90F87033012B0FD059
:1011A80003680122A3F8402002680023A2F8443013
:1011B80002680321A2F8401080F87033184670477F
:1011C8000220704790F87033012B0FD0012380F86C
:1011D800703341B903688022A3F84C20002380F8BB
:1011E80070331846704780F82410F7E702207047DC
:1011F80070B44DB2002D1EDB01F07F06C6EBC606AB
:10120800B40004F5E4740444043401F07F0121704F
:10121800ED0F6570E260E37090F87033012B00F019
:10122800B881012380F87033E378032B18D8DFE8FE
:1012380003F00A7F647101F07F06C6EBC606B400AE
:1012480028340444E1E70268217832F821309BB25F
:1012580023F4EC4323F0700343F4007322F82130A5
:101268000168227831F8223023F0F0031B051B0DAA
:10127800134343F4004343F0800321F82230A37A58
:10128800002B40F0BA806378002B5FD0A2880368F7
:10129800B3F85010257801EBC50103EB410322F0A8
:1012A8000102A3F800240268217832F8213013F0F3
:1012B800400F0BD032F8213023F0F0031B051B0D33
:1012C80043F4004343F0C00322F821300268217838
:1012D80032F821309BB223F4E04323F0400383F03B
:1012E800200343F4004343F0800322F82130002315
:1012F80080F87033184670BC70470268217832F85D
:1013080021309BB223F4EC4323F070039BB222F804
:101318002130A5E70268217832F821309BB223F406
:10132800EC4323F0700343F4C06322F8213097E7BD
:101338000268217832F821309BB223F4EC4323F081
:10134800700343F4806322F8213089E7A18802689A
:10135800B2F85030257803EBC503043302EB43039E
:1013680021F00102A3F800240268B2F85030217875
:1013780003EBC103063302EB4303E2683E2A31D98B
:10138800C2F34F1112F01F0F01D1013989B26FEA70
:10139800C1616FEA5141A3F800140268217832F85C
:1013A800213013F4804F0BD032F8213023F0F003B2
:1013B8001B051B0D43F4404343F0800322F8213002
:1013C8000268217832F821309BB223F4804323F05D
:1013D800700383F4405343F4004343F0800322F83E
:1013E800213084E7C2F34F0112F0010F01D001311F
:1013F80089B28902A3F80014CFE70268217832F88D
:10140800213023F4F8731B051B0D43F4014343F00B
:10141800800322F82130E2880368B3F85010257859
:1014280001EBC50103EB410322F00102A3F80024FC
:1014380021890268B2F85030257803EBC5030433DC
:1014480002EB430321F00102A3F800246378002B88
:1014580050D10268217832F8213013F4804F0BD034
:1014680032F8213023F0F0031B051B0D43F44043F1
:1014780043F0800322F821300268217832F82130C5
:1014880013F0400F0BD032F8213023F0F0031B0586
:101498001B0D43F4004343F0C00322F821300268D7
:1014A800217832F8213023F0F0031B051B0D43F49B
:1014B800004343F0C00322F821300268217832F853
:1014C80021309BB223F4804323F0700383F440530C
:1014D80048F280052B4322F821300268217832F83F
:1014E80021309BB223F4E04323F040032B4322F83E
:1014F8002130FCE60268217832F8213013F4804F5D
:101508000BD032F8213023F0F0031B051B0D43F4F8
:10151800404343F0800322F821300268217832F8F2
:10152800213013F0400F0BD032F8213023F0F003B4
:101538001B051B0D43F4004343F0C00322F8213080
:101548000268217832F8213023F0F0031B051B0DC7
:1015580043F4404343F0800322F8213003682178A4
:1015680033F8212092B222F4E04222F0400248F2FD
:1015780080052A4323F821200268217832F8213097
:101588009BB223F4804323F070032B4322F82130CD
:10159800ADE60220AFE670B401F07F01CD006D1A10
:1015A800AC000444C4F8DC21C4F8E0310022C4F8DB
:1015B800E42184F8CD2184F8CC11D4F8D8219342C1
:1015C80044D9C1EBC105AC0004449B1AC4F8E0310E
:1015D800C1EBC104A300034493F8D631002B49D1D1
:1015E8000468B4F85030C1EBC106B500054495F85D
:1015F800CC5103EBC503063304EB43033E2A2ED933
:10160800C2F34F1412F01F0F01D1013CA4B26FEACC
:10161800C4646FEA5444A3F800440268C1EBC101F2
:101628008B00184490F8CC1132F821309BB223F487
:10163800804323F0700383F4405343F4004343F0A2
:10164800800322F82130002070BC7047C1EBC10430
:10165800A20002440024C2F8E0411A46B8E7C2F3E7
:101668004F0412F0010F01D00134A4B2A402A3F870
:101678000044D2E7C1EBC104A300034493F8CD3181
:1016880043BB0468B4F85030C1EBC106B50005444B
:1016980095F8CC5103EBC503063304EB43033E2A0C
:1016A8000DD9C2F34F1412F01F0F01D1013CA4B29F
:1016B8006FEAC4646FEA5444A3F80044ADE7C2F388
:1016C8004F0412F0010F01D00134A4B2A402A3F810
:1016D8000044A2E7012BA0D10468B4F85030C1EB54
:1016E800C106B500054495F8CC5103EBC503063394
:1016F80004EB4303A3F800248FE7F8B5054601F08F
:101708007F04E000001B810029448A63CB63002228
:101718000A64012281F8292081F828404F6BBB42D6
:101728004DD9DB1BCB63C4EBC4039A002A4492F85F
:101738003230002B4BD02868C4EBC40293002B44F2
:1017480093F8283030F8233013F0400F54D0C4EB0E
:10175800C40293002B441A8EE3001B1B9E002E44E8
:10176800BBB2B16B00F027FC96F82930002B49D1A9
:101778002A6896F8281032F8213023F0F0031B0568
:101788001B0D43F4004343F0C00322F821302A68BC
:10179800C4EBC404A3001D4495F8281032F8213086
:1017A8009BB223F4E04323F0400383F0300343F477
:1017B800004343F0800322F821300020F8BDC4EB39
:1017C800C4018A002A440021D1631F46ABE7BFB297
:1017D80016463B46928DB16B286800F0ECFB2A68F0
:1017E800B2F8503096F8281003EBC103023302EB2D
:1017F8004303A3F80074CAE7C4EBC40293002B4464
:10180800DA8DA9E7012BC2D12A68C4EBC4018B0089
:101818002B4493F8281032F8213023F0F0031B05ED
:101828001B0D43F4404343F0800322F82130AEE718
:1018380070B582B005460023ADF80430A4E10388F2
:101848009BB223F4E14323F070039BB203802A6820
:10185800B2F8503095F8281003EBC103023302EBBD
:101868004303B3F80034C3F309032B64AA6B13448E
:10187800AB6300212846FFF7A7FA95F82430002B20
:1018880000F08281EB6B002B40F07E8195F82430CC
:101898002A6843F08003A2F84C30002385F82430EE
:1018A80072E1B0F8503095F8CC2103EBC20306334F
:1018B80000EB4303B3F80034C3F30903C5F8E4317C
:1018C800B5F8D02105F55D7100F08BFB2A68138807
:1018D80023F070031B051B0D13802846FFF760FAE1
:1018E80052E1B5F8D021D5F8DC1100F07AFBD5F833
:1018F800E421D5F8DC311344C5F8DC3182E1C2F3C8
:101908004F0112F0010F01D0013189B28902A3F809
:10191800001493E130F824309BB2ADF80430BDF8E0
:10192800043013F4004F36D1BDF8043013F0800FA3
:1019380000F02A812A6832F824309BB223F4E1436C
:1019480023F070039BB222F82430C4EBC402930046
:101958001A462B4493F83230002B40F0C380286895
:10196800B0F850302A4492F8281003EBC103023330
:1019780000EB4303B3F80034C3F309031364002BEB
:1019880000F0E480E200121B910029448A8D896BE3
:1019980000F011FBDAE030F8243023F070031B0567
:1019A8001B0D20F82430C4EBC40293001A462B44C4
:1019B80093F8D631CBB92868B0F8503011462A448C
:1019C80092F8CC2103EBC203063300EB4303B3F8D0
:1019D8000064C6F309069EB329443346B1F8D02102
:1019E800D1F8DC1100F0FDFA2AE02868C4EBC40243
:1019F80093002B4493F8CC2130F8223013F4804F15
:101A08004DD0B0F8503003EBC203023300EB430370
:101A1800B3F80064C6F30906AEBB2A68C4EBC40178
:101A28008B002B4493F8CC1132F8213023F0F003CB
:101A38001B051B0D43F4004343F0C00322F821307B
:101A4800E200121B93002B44D3F8E4213244C3F87C
:101A5800E421D3F8DC213244C3F8DC21D3F8E031A7
:101A68003BB1C4EBC40081002944D1F8D8118E429F
:101A78002ED2C4EBC40293002B4493F8CC11284611
:101A8800FFF796F950E7E3001B1B990029443346FA
:101A9800B1F8D221D1F8DC1100F0A3FABDE7B0F813
:101AA800503003EBC203063300EB4303B3F8006482
:101AB800C6F30906002EB0D0E3001B1B9900294489
:101AC8003346B1F8D421D1F8DC1100F08AFAA4E742
:101AD800C4EBC4008100294491F8CC112846FFF7D3
:101AE8005AFD21E72868C4EBC40293002B4493F8FD
:101AF800282030F8223013F0400F00F0B480B0F8FE
:101B0800503003EBC203023300EB4303B3F8003455
:101B1800C3F30903C4EBC4018A0011462A441364C1
:101B2800002B40F09A802A68C4EBC4018B002B4438
:101B380093F8281032F8213023F0F0031B051B0D11
:101B480043F4404343F0800322F821302968B1F878
:101B58005020E000001B83002B4493F8280002EB80
:101B6800C002023201EB4202B2F80024C2F30902B9
:101B78001A64996B0A449A63DB6B002B40F08D80E2
:101B880001462846FFF720F92868B0F844309BB290
:101B9800ADF8063013F4004F00F08980BDF8064018
:101BA80014F00F047FF4B6AEBDF8063013F0100F32
:101BB8003FF445AE03889BB2ADF80430BDF804305D
:101BC80013F4006F7FF46DAEBDF8043013F4004FCA
:101BD800DAD0038823F070031B051B0D03802868E7
:101BE800B0F8503095F8CC2103EBC203063300EB74
:101BF8004303B3F80034C3F30903C5F8E431002BF9
:101C08007FF46FAE00212846FFF7D2F82B68B3F8AF
:101C18005020063203EB4203D5F8D8213E2A7FF63E
:101C28006EAEC2F34F1112F01F0F01D1013989B204
:101C38006FEAC1616FEA5141A3F800142A6813885A
:101C48009BB223F4804323F0700383F4405343F49E
:101C5800004343F08003138096E72944CA8D896BBB
:101C680000F0A9F95FE7B0F8503003EBC203063380
:101C780000EB4303B3F80034C3F30903C4EBC40116
:101C88008A0011462A441364002B3FF44CAF2944C0
:101C98000A8E896B00F08FF945E7C4EBC404A100F4
:101CA800294491F828102846FFF727FD6CE7002003
:101CB80002B070BD10B504460368B3F8443013F49D
:101CC800004F4ED12368B3F8442012F4806F4BD1F3
:101CD8002368B3F8442012F4804F03D04BF6FF7208
:101CE800A3F844202368B3F8442012F4005F03D01B
:101CF8004DF6FF72A3F844202368B3F8442012F489
:101D0800805F3DD12368B3F8442012F4006F17D0E8
:101D1800B3F8402042F00802A3F8402023684FF2AD
:101D2800FF72A3F844202268B2F8403043F004035D
:101D3800A2F840302368B3F8443013F4805F39D0F8
:101D48002368B3F8442012F4007F37D12368B3F82E
:101D5800442012F4807F03D04FF6FF62A3F844209A
:101D680010BDFFF765FDADE74FF6FF32A3F844203D
:101D78002046FFF73AF800212046FFF723FAA7E7A5
:101D8800B3F8402092B222F0040292B2A3F84020A5
:101D98002268B2F840309BB223F008039BB2A2F845
:101DA80040302046FFF744F823684EF6FF72A3F848
:101DB8004420A7E72046FFF72BF8C1E74FF6FF526C
:101DC800A3F844202046FFF70AF8BFE790F87033DD
:101DD800012B59D010B4012380F870334AB2002A7D
:101DE80027DBC1EBC104A30003F5E4730344043308
:101DF80001249C7001F07F011970D20F5A7001BB49
:101E0800026832F821309BB223F4804323F0400368
:101E180083F4805383F0100343F4004343F08003BA
:101E280022F82130002380F8703318465DF8044BFF
:101E3800704701F07F04C4EBC404A30028330344B3
:101E4800D6E782B1026832F821309BB223F4E0432E
:101E580023F0400383F0100343F4004343F080036E
:101E680022F82130DEE7026832F821309BB223F4F1
:101E7800804323F0700383F4805343F4004343F01A
:101E8800800322F82130CDE70220704710B44AB20F
:101E9800002A41DBC1EBC104A30003F5E47303444A
:101EA800043300249C7001F07F011970D20F5A701E
:101EB80090F87023012A5CD0012280F870235A78A8
:101EC80092B301681C7831F8242012F0400F0BD02F
:101ED80031F8242022F0F0021205120D42F40042DB
:101EE80042F0C00221F824200268197832F8213023
:101EF8009BB223F4E04323F0400383F0300343F420
:101F0800004343F0800322F82130002380F8703327
:101F180018465DF8044B704701F07F04C4EBC40415
:101F2800A30028330344BCE701681C7831F8242057
:101F380012F4804F0BD031F8242022F0F002120561
:101F4800120D42F4404242F0800221F82420026837
:101F5800197832F821309BB223F4804323F07003C0
:101F680083F4405343F4004343F0800322F82130C4
:101F7800CBE70220CDE710B411F0800F0DD001F0AF
:101F88007F01C1EBC1018C00283420446AB98272F8
:101F9800838000205DF8044B7047C1EBC1018C00C1
:101FA80004F5E47420440430F0E701228272C3800F
:101FB8001B0C0381EDE701335B0800EB420202F5DD
:101FC80080626BB110B40C78487844EA002422F897
:101FD800044B0231013B002BF5D15DF8044B7047EF
:101FE800704770B45E0800EB420202F580624EB1A1
:101FF80032F8044B0D4605F8024B240A4C70013E9A
:102008002946F4E713F0010F01D013880B7070BC58
:10201800704738B50268936803F00303012B01D0B9
:10202800002038BD136813F0010F2FD0936803F018
:102038000D03012B09D0436C43F010034364836CF8
:1020480043F0010383640120EBE70446936843F0FF
:1020580002039360036803221A6001F06DF80546D5
:1020680023689B6813F0010F0ED001F065F8401B40
:102078000228F5D9636C43F010036364A36C43F042
:102088000103A3640120CCE70020CAE70020C8E7C9
:1020980030B597B000230093002800F02D81044646
:1020A800436C13F0100F52D1436CABB1002023687E
:1020B8009A6812F0805F03D09B6813F0005F47D0E6
:1020C800636C23F0120343F010036364A36C43F0C2
:1020D8000103A36401203BE083640365C36480F8C3
:1020E8004030FEF7D9FA23689B6813F0805F01D06F
:1020F8000020DCE72046FFF78CFF636C13F0100F1D
:10210800D5D10028D3D1636C23F4885323F002037C
:1021180043F0020363642268936823F0405393609A
:102128002268936843F080539360744B1B68744A29
:10213800A2FB03239B0C03EB83035A00009202E0EB
:10214800009B013B0093009B002BF9D1AFE70020D7
:10215800636C13F0100F40F0C680002840F0C38075
:102168002368996811F0040140F0BD80626C22F484
:10217800817242F002026264B3F1A04F14D0614A46
:1021880093420FD0604DB3F1A04F0FD05D4A9342F8
:1021980065D05E4A934266D05D4A934267D000227A
:1021A800019205E05B4DEEE75A4DECE7554A019286
:1021B8009A6802F00302012A5DD0019B23B19A6854
:1021C80002F00302012A5BD0AB6823F44033626853
:1021D8001343AB60E2695303A56B012D01D04FF4A3
:1021E80080510B43E1680B43A1680B43616A0129E5
:1021F8004BD0E26A012A0AD02168444DA94257D03F
:1022080005F58075A94253D0216B0A431343226810
:10221800916811F00C0F0BD1D16821F4804121F0A5
:102228000201D160A169626B520042EA8132134314
:102238002168CD68384A2A401343CB602369012BB3
:1022480048D02268136B23F00F0313630023A364A1
:10225800636C23F0030343F0010363644AE04FF027
:10226800A0420192A4E702F580720192A0E7A2F5CC
:10227800807201929CE71B6813F0010FAAD19CE7BA
:102288001B6813F0010FA5D19EE732B9A26A013A83
:1022980043EA424343F48033ABE7626C22F0220204
:1022A80042F020026264A26C42F00102A264A0E73C
:1022B800B2F5307F08D0B2F5807F08D0B2F5E07F64
:1022C800A2D14FF480729FE74FF4E0729CE74FF47D
:1022D800307299E721680B6B23F00F03226A013AE9
:1022E80013430B63B2E7636C23F0120343F010034C
:1022F8006364012017B030BD0120FBE774000020A3
:1023080083DE1B430001005000070050000400500A
:10231800000500500003005007C0F0FF30B496B02D
:102328000022009290F84020012A00F0B88103466C
:10233800012280F840200068826812F0040F40F003
:10234800A3814A68042A31D8046B02EB4202550083
:102358001F22AA4024EA02020C68AC40224302630E
:102368001868826812F00C0F68D10A68092A4ED9D9
:10237800846902EB42021E3A0725954024EA0504C7
:102388008D6805FA02F22243826148691C68E26896
:10239800C2F3C102520000FA02F2086901380328A8
:1023A80000F29580DFE800F040727D88092A0ED897
:1023B800446B02EB420255001E3D1F22AA4024EA4C
:1023C80002020C6804FA05F52A434263C8E70E2A9C
:1023D8000ED8846B02EB420255003C3D1F22AA40F6
:1023E80024EA02020C6804FA05F52A438263B7E777
:1023F800C46B02EB420255005A3D1F22AA4024EA50
:1024080002020C6804FA05F52A43C263A8E7446986
:1024180002EB42020725954024EA05048D6805FA77
:1024280002F222434261B0E7206E9E4D05400868E3
:1024380042EA8062154345F00045256618688268BF
:1024480002F00302012A72D0CA68012A75D0D0F8B6
:10245800B0200D680124AC4022EA0402C0F8B02084
:102468001A68B2F1A04F00F093808F48824200F0C2
:102478008D808E4C0868102800F08C80112800F0A0
:102488009D80122800F09F80002002E1606E854D3B
:102498000540086842EA8062154345F000456566D4
:1024A800CCE7A06E7F4D0540086842EA806215437C
:1024B80045F00045A566C1E7E56E7A4828400D68F5
:1024C80042EA8562024342F00042E266B6E7226EC3
:1024D80002F0F8420868B2EB806F03D1226E22F056
:1024E800004222661A68506E00F0F8400C68B0EBA3
:1024F800846F03D1506E20F0004050661A68906EC9
:1025080000F0F8400C68B0EB846F03D1906E20F0B7
:10251800004090661A68D06E00F0F8400C68B0EB86
:10252800846F8BD1D06E20F00040D06686E70268B9
:1025380012F0010F88D00020ABE0D0F8B0200D6871
:102548000124AC402243C0F8B0200A68092A0ED9F9
:102558001D68A86902EB42021B3A0724944020EA4E
:1025680004008C6804FA02F20243AA6178E71D6845
:102578006869013202EB42020724944020EA040011
:102588008C6804FA02F202436A6169E7484C71E711
:10259800474C6FE7A56815F4000F7FF46FAFB2F1F1
:1025A800A04F16D0404882422CD0424882422DD0BB
:1025B800414882422DD0002201920DE0A56815F015
:1025C800807FECD05DE7A06810F4800FE7D0002092
:1025D8005FE002F5807201921868826802F00302D7
:1025E800012A19D0019A22B1956805F00305012D39
:1025F8001CD00A68102A1ED0112A36D0122A3DD0C3
:10260800002046E04FF0A0420192E5E72A4A0192F5
:10261800E2E7284A0192DFE7026812F0010FE1D0F1
:102628005A6C42F020025A64012032E0126812F01B
:10263800010FF5D1DDE7B0F1A04FDDD1A26842F47A
:102648000002A2601D4A12681D49A1FB0212920CE9
:1026580002EB82025100009102E0009A013A0092D6
:10266800009A002AF9D1002013E0B0F1A04FC5D19B
:10267800A26842F08072A26000200AE0A26842F4D8
:102688008002A260002004E05A6C42F020025A64E2
:102698000120002283F8402016B030BC7047022089
:1026A800FAE700BF00F0FF83000100500007005068
:1026B8000003005000040050000500507400002082
:1026C80083DE1B4370B497B003460268B2F1A04F93
:1026D8000BD04D48824248D04C48824249D04C48A1
:1026E80082424AD00020019001E0474801900198B9
:1026F800002800F0848093F84040012C00F081808D
:10270800012483F84040946814F0040F6CD1846865
:1027180014F0040F68D1B2F1A04F34D03A4CA24261
:102728002FD03C4A0C68002C3BD0946824F46044B9
:102738004D685E6B45EA46352C4394601D68AC686D
:1027480004F00304012C20D0846804F00304012C55
:1027580021D0906820F4716020F00F000C6889681F
:102768000C4320439060002043E04FF0A0400190CC
:10277800BDE700F580700190B9E7A0F58070019081
:10278800B5E7254ACEE7244ACCE72C6814F0010FB8
:10279800DAD000202DE0006810F0010FD9D0002019
:1027A80027E0916821F4604191601C68A16801F0FC
:1027B800030101290CD0816801F0030101290DD022
:1027C800916821F4716121F00F019160002010E0FF
:1027D800216811F0010FEED000200AE0016811F025
:1027E800010FEDD0002004E05A6C42F020025A6438
:1027F8000120002283F8402017B070BC70470120E8
:10280800FAE70220F8E700BF00010050000400507A
:10281800000500500007005000030050002859D060
:1028280010B5044690F84130002B43D0242384F897
:1028380041302268136823F001031360636822683B
:1028480023F0706313612268936823F40043936054
:10285800E368012B33D0A368226843F404439360F0
:10286800E368022B31D02268536843F0007343F4C5
:10287800004353602268D36823F40043D36023697C
:1028880062691343A169226843EA0123D360E369BB
:10289800216A22680B4313602268136843F001031E
:1028A800136000206064202384F84130206384F89A
:1028B800420010BD80F84030FEF70CF8B6E7A36878
:1028C800226843F400439360CAE723684FF4006228
:1028D8005A60C8E70120704790F84130DBB2202BDE
:1028E80027D190F84030012B25D010B4012380F86F
:1028F8004030242380F841300468226822F0010225
:1029080022600468226822F48052226002681368F8
:102918000B4313600268136843F00103136020231C
:1029280080F84130002380F8403018465DF8044BA9
:102938007047022070470220704790F84130DBB2A0
:10294800202B25D190F84030012B23D010B401233F
:1029580080F84030242380F841300468226822F04F
:10296800010222600268136823F4706343EA0123BA
:1029780013600268136843F001031360202380F892
:102988004130002380F8403018465DF8044B70470A
:102998000220704702207047002861D010B582B02D
:1029A800044690F83230DBB2052B5BD090F8323019
:1029B800DBB2022B58D02D4B9A6942F001029A6182
:1029C8009B6903F001030193019B90F832300BB926
:1029D80080F831302046FDF7C9FF6368402B1ED0D0
:1029E800602B1CD021680868214A0240A068034374
:1029F800E06803432069034360690343A069034314
:102A0800E0690343206A0343606A0343A06A43EA18
:102A1800C043E06A43EA006313430B6017E0216890
:102A28000868134A0240E068034320690343A06929
:102A38000343E0690343206A0343606A0343A06ACF
:102A480043EAC043E06A43EA006313430B6094F827
:102A5800323013B9012384F83230002002B010BD9F
:102A6800012070470120F9E70120F7E70010024034
:102A7800113800E0002858D010B5044600238362BE
:102A880090F85D30002B45D0022384F85D30226831
:102A9800136823F040031360E368B3F5E06F3ED991
:102AA8000022B3F5706F04D0B3F5E06F01D00021B8
:102AB800A162216B21B9B3F5E06F33D902232363F7
:102AC8006368A1680B4321690B4361690B43A169E2
:102AD80001F400710B43E1690B43216A0B43A06ABF
:102AE800216803430B60638B03F00403616A0B43A3
:102AF800616B0B43E1680B43216813434B60226809
:102B0800D36923F40063D36100202066012384F88D
:102B18005D3010BD80F85C30FDF78CFFB4E74FF4F2
:102B28008052BEE701232363CAE7012070470000F3
:102B380010B5044683680269134342691343C269A6
:102B48001A4301680B6823F4164323F00C0313435C
:102B58000B600268536823F44053C1680B43536009
:102B68008369026A1A4301688B6823F4306313434C
:102B78008B600268954B9A420DD0954B9A421DD0B6
:102B8800944B9A4243D0944B9A4258D0934B9A42D2
:102B98006DD0102327E003F558431B6B03F00303A4
:102BA800032B09D8DFE803F00204067B01231AE0AF
:102BB800042318E0082316E0102314E003F5E63395
:102BC8001B6B03F44033B3F5803F6AD007D9B3F5E4
:102BD800003F68D0B3F5403F17D1022303E00BB99B
:102BE800002300E01023E169B1F5004F69D0082BFC
:102BF80000F2E980DFE813F0AD00B900C500E70096
:102C0800D100E700E700E700DD001023EBE703F55C
:102C1800E4331B6B03F44023B3F5802F45D007D969
:102C2800B3F5002F43D0B3F5402F06D10223DAE7DE
:102C38000BB90023D7E71023D5E71023D3E703F513
:102C4800E2331B6B03F44013B3F5801F31D007D96F
:102C5800B3F5001F2FD0B3F5401F06D10223C2E7FA
:102C68000BB90023BFE71023BDE71023BBE703F52B
:102C7800E0331B6B03F44003B3F5800F1DD007D975
:102C8800B3F5000F1BD0B3F5400F06D10223AAE716
:102C98000BB90023A7E71023A5E71023A3E7022316
:102CA800A1E704239FE708239DE704239BE7082364
:102CB80099E7042397E7082395E7042393E7082374
:102CC80091E7082B42D8DFE803F0051722412D4190
:102CD8004141380000F05CFE6268530803EB400392
:102CE800B3FBF2F39BB2002023F00F02C3F34203BD
:102CF80013432268D36010BD00F060FE6268530879
:102D080003EB4003B3FBF2F39BB20020ECE76268ED
:102D1800530803F5740303F51053B3FBF2F39BB2A6
:102D28000020E1E700F026FD6268530803EB40034A
:102D3800B3FBF2F39BB20020D6E76268530803F5B1
:102D48008033B3FBF2F39BB20020CDE701200023D0
:102D5800CAE700F01DFE636800EB5300B0FBF3F018
:102D6800236880B2D8600020C5E700F027FE6368BA
:102D780000EB5300B0FBF3F0236880B2D86000206A
:102D8800B9E761684B0803F5F40303F59053B3FB07
:102D9800F1F39BB2D3600020ADE700F0EBFC636871
:102DA80000EB5300B0FBF3F0236880B2D86000203A
:102DB800A1E761684B0803F50043B3FBF1F39BB24D
:102DC800D360002097E7012095E700BF0038014055
:102DD8000044004000480040004C004000500040C3
:102DE800436A13F0010F06D00268536823F40033D6
:102DF800816A0B435360436A13F0020F06D00268DE
:102E0800536823F48033C16A0B435360436A13F059
:102E1800040F06D00268536823F48023016B0B4328
:102E28005360436A13F0080F06D00268536823F40E
:102E38000043416B0B435360436A13F0100F06D0F5
:102E48000268936823F48053816B0B439360436A51
:102E580013F0200F06D00268936823F40053C16B67
:102E68000B439360436A13F0400F0AD0026853681B
:102E780023F48013016C0B435360036CB3F5801F7C
:102E88000BD0436A13F0800F06D00268536823F40E
:102E98000023816C0B43536070470268536823F426
:102EA800C003416C0B435360EBE72DE9F041054645
:102EB8000F4616469846069C2B68DB6937EA0303DB
:102EC8000CBF01230023B3421DD1B4F1FF3FF3D05F
:102ED8002CB100F031F9A0EB0800A042ECD92A6827
:102EE800136823F4D07313602A68936823F00103EE
:102EF8009360202385F8693085F86A30002385F8C7
:102F08006830032000E00020BDE8F0812DE9F041A1
:102F180082B01E4690F86930DBB2202B4ED10446B1
:102F28000D46904600294ED0002A4ED090F86830C1
:102F3800012B4CD0012380F868300023C36621237D
:102F480080F8693000F0F8F80746A4F85080A4F833
:102F5800528003E0236815F8012B1A85B4F8523023
:102F68009BB2DBB1B4F85230013B9BB2A4F85230AB
:102F780000963B46002280212046FFF796FF40BB83
:102F8800A368B3F5805FE5D12369002BE2D12268FD
:102F980035F8023BC3F308031385DFE700963B4689
:102FA800002240212046FFF780FF034698B92022DF
:102FB80084F86920002284F8682000E0022318467B
:102FC80002B0BDE8F0810123F9E70123F7E7022306
:102FD800F5E70323F3E70323F1E730B583B00446AD
:102FE8000023C36600F0A8F8054623681B6813F0A1
:102FF800080F0ED123681B6813F0040F17D1202384
:1030080084F8693084F86A30002084F8680003B0D6
:1030180030BD6FF07E430093034600224FF4001149
:103028002046FFF742FF0028E4D00320EFE76FF0C7
:103038007E4300932B4600224FF480012046FFF781
:1030480034FF0028DBD00320E1E778B310B504464D
:1030580090F869300BB3242384F869302268136828
:1030680023F0010313602046FFF762FD012813D007
:10307800636ABBB92268536823F49043536022689B
:10308800936823F02A0393602268136843F00103CE
:1030980013602046FFF7A1FF10BD80F86830FDF7E8
:1030A80067FDD8E72046FFF79BFEE3E7012070475E
:1030B80010B504460E4B18784FF47A73B3FBF0F34F
:1030C8000C4A1068B0FBF3F000F0E4FE68B90F2C6E
:1030D80001D901200AE0002221464FF0FF3000F01C
:1030E80099FE054B1C60002000E0012010BD00BFC8
:1030F8006C000020740000207000002008B5074A0A
:10310800136843F010031360032000F071FE0020E1
:10311800FFF7CEFFFDF7CEFF002008BD00200240DC
:10312800034A1168034B1B780B441360704700BFB8
:10313800D41100206C000020014B1868704700BFB4
:10314800D411002038B50446FFF7F6FF0546B4F160
:10315800FF3F02D0044B1B781C44FFF7EDFF401BD8
:10316800A042FAD338BD00BF6C000020002800F050
:10317800EB8270B582B00446036813F0010F3BD0B0
:10318800B54B5B6803F00C03042B1ED0B24B5B6895
:1031980003F00C03082B13D06368B3F5803F68D0A5
:1031A800002B40F0928003F1804303F504331A6842
:1031B80022F480321A601A6822F480221A605DE0D4
:1031C800A54B5B6813F4803FE6D04FF4003393FAC5
:1031D800A3F3A14B19684FF4003393FAA3F3B3FA9E
:1031E80083F303F01F03012202FA03F30B4203D017
:1031F8006368002B00F0AA82236813F0020F00F026
:10320800C580954B5B6813F00C0F00F09C80924BC7
:103218005B6803F00C03082B00F08F802369002BF8
:1032280000F0F280012292FAA2F3B3FA83F303F1D9
:10323800845303F584139B001A60FFF77DFF05464E
:10324800022393FAA3F3844B1968022393FAA3F396
:10325800B3FA83F303F01F03012202FA03F30B42CC
:1032680040F0C380FFF768FF401B0228E8D903201D
:1032780075E2794A136843F480331360764AD36A57
:1032880023F00F03A1680B43D3626368002B36D089
:10329800FFF752FF05464FF4003393FAA3F36E4B42
:1032A80019684FF4003393FAA3F3B3FA83F303F0E6
:1032B8001F03012202FA03F319429DD1FFF73CFFD5
:1032C800401B6428E7D9032049E2B3F5A02F09D0B1
:1032D800614B1A6822F480321A601A6822F480223C
:1032E8001A60CBE703F18043A3F53C331A6842F434
:1032F80080221A601A6842F480321A60BEE7FFF72B
:103308001BFF05464FF4003393FAA3F3524B196899
:103318004FF4003393FAA3F3B3FA83F303F01F03D4
:10332800012202FA03F319423FF466AFFFF704FFE4
:10333800401B6428E6D9032011E2474B5B6813F46D
:10334800803F7FF46BAF022393FAA3F3424B1968D3
:10335800022393FAA3F3B3FA83F303F01F030122C2
:1033680002FA03F3194203D02369934240F0F08133
:103378003948036823F0F8036169F82292FAA2F247
:10338800B2FA82F201FA02F213430360236813F0DF
:10339800080F00F08D80A369002B61D0012191FAFC
:1033A800A1F2B2FA82F22D4B13449B001960FFF789
:1033B800C3FE0546022393FAA3F293FAA3F293FA03
:1033C800A3F2254A516A93FAA3F3B3FA83F303F0FD
:1033D8001F03012202FA03F30B4269D1FFF7ACFE87
:1033E800401B0228E6D90320B9E11B48036823F0F3
:1033F800F8036169F82292FAA2F2B2FA82F201FAAB
:1034080002F213430360C1E7012393FAA3F3B3FA6B
:1034180083F303F1845303F584139B0000221A609D
:10342800FFF78AFE0546022393FAA3F30A4B1968AD
:10343800022393FAA3F3B3FA83F303F01F030122E1
:1034480002FA03F31942A1D0FFF776FE401B0228C7
:10345800E9D9032083E100BF0010024020819010C9
:10346800012292FAA2F2B2FA82F2BF4B13449B00F5
:1034780000221A60FFF760FE0546022393FAA3F2C2
:1034880093FAA3F293FAA3F2B84A516A93FAA3F310
:10349800B3FA83F303F01F03012202FA03F30B428A
:1034A80006D0FFF749FE401B0228E6D9032056E163
:1034B800236813F0040F00F0A980AC4BDB6913F00C
:1034C800805F20D1A94BDA6942F08052DA61DB696A
:1034D80003F080530193019B0125A54B1B6813F44E
:1034E800807F12D0E368012B23D073BB03F18043A4
:1034F80003F504331A6A22F001021A621A6A22F0EA
:1035080004021A621AE00025E7E7994A136843F4AF
:1035180080731360FFF710FE0646954B1B6813F483
:10352800807FDFD1FFF708FE801B6428F5D90320D0
:1035380015E18E4A136A43F001031362E368002B16
:103548003CD0FFF7F9FD06462EE0052B09D0874B46
:103558001A6A22F001021A621A6A22F004021A6236
:10356800ECE7824B1A6A42F004021A621A6A42F0C5
:1035780001021A62E2E7022393FAA3F37B4B596A2A
:10358800022393FAA3F3B3FA83F303F01F03012290
:1035980002FA03F3194238D1FFF7CEFD801B41F23E
:1035A8008833984200F2D680022393FAA3F293FA62
:1035B800A3F3002BDFD06D4B196AE1E7FFF7BCFDE1
:1035C800064618E0022393FAA3F3684B596A0223CC
:1035D80093FAA3F3B3FA83F303F01F03012202FA69
:1035E80003F3194211D0FFF7A7FD801B41F288337E
:1035F800984200F2B180022393FAA3F293FAA3F35C
:10360800002BDFD0594B196AE1E7B5BBE369002B02
:1036180000F0A480554A526802F00C02082A00F013
:10362800A080022B2FD04FF0807393FAA3F3B3FA44
:1036380083F303F1845303F584139B0000221A607B
:10364800FFF77AFD04464FF0007393FAA3F3474B54
:1036580019684FF0007393FAA3F3B3FA83F303F0F6
:103668001F03012202FA03F319426BD0FFF764FD2E
:10367800001B0228E7D9032071E03C4AD36923F0F4
:103688008053D361C2E74FF0807393FAA3F3B3FA80
:1036980083F303F1845303F584139B0000221A601B
:1036A800FFF74AFD05464FF0007393FAA3F32F4B3B
:1036B80019684FF0007393FAA3F3B3FA83F303F096
:1036C8001F03012202FA03F3194206D0FFF734FD63
:1036D800401B0228E7D9032041E024494B6823F422
:1036E8007413626A206A024313434B604FF080737D
:1036F80093FAA3F3B3FA83F303F1845303F5841322
:103708009B0001221A60FFF717FD04464FF0007373
:1037180093FAA3F3154B19684FF0007393FAA3F3C8
:10372800B3FA83F303F01F03012202FA03F31942E9
:1037380006D1FFF701FD001B0228E7D903200EE0A0
:1037480000200CE000200AE001207047012006E07C
:10375800012004E0032002E0032000E0002002B082
:1037680070BD0120FBE700BF2081901000100240CF
:1037780000700040164B5B6803F00C02082A01D069
:103788001448704703F470114FF4701292FAA2F2C1
:10379800B2FA82F221FA02F20F49885C0C4AD26A24
:1037A80002F00F020F2191FAA1F1B1FA81F1CA409A
:1037B8000A498A5C13F4803F05D0064BB3FBF2F349
:1037C80000FB03F07047064B03FB00F0704700BF97
:1037D8000010024000127A00444F0008544F0008BD
:1037E80000093D00002800F0BD8070B50446614B1B
:1037F8001B6803F007038B420BD25E4A136823F061
:1038080007030B431360136803F007038B4240F070
:10381800AB80236813F0020F06D0574A536823F091
:10382800F003A068034353600D46236813F0010FAB
:103838005AD06368012B2DD0022B40D0022292FA75
:10384800A2F24D4A1068022292FAA2F2B2FA82F269
:1038580002F01F02012101FA02F2104200F08680F4
:1038680045494A6822F0030213434B60FFF764FCA2
:103878000646414B5B6803F00C036268B3EB820FAA
:1038880032D0FFF759FC801B41F288339842F0D9B7
:10389800032066E04FF4003292FAA2F2364A10682A
:1038A8004FF4003292FAA2F2B2FA82F202F01F0248
:1038B800012101FA02F20242D2D1012051E04FF077
:1038C800007292FAA2F22C4A10684FF0007292FA33
:1038D800A2F2B2FA82F202F01F02012101FA02F208
:1038E8001042BDD101203CE0224B1B6803F00703C6
:1038F800AB420AD91F4A136823F007032B4313600E
:10390800136803F00703AB4232D1236813F0040FA6
:1039180006D0194A536823F4E063E1680B43536007
:10392800236813F0080F07D0134A536823F4605331
:10393800216943EAC1035360FFF71CFF0E4B5B6824
:1039480003F0F003F02292FAA2F2B2FA82F2D34024
:103958000A4AD35CD8400A4B18600020FFF7A8FB3E
:10396800002070BD012070470120FAE70120F8E728
:103978000120F6E70020024000100240644F0008D2
:1039880074000020014B1868704700BF74000020C5
:1039980008B5FFF7F7FF074B5B6803F4E0634FF4E4
:1039A800E06292FAA2F2B2FA82F2D340024AD35CFF
:1039B800D84008BD00100240744F000808B5FFF752
:1039C800E1FF074B5B6803F460534FF4605292FACF
:1039D800A2F2B2FA82F2D340024AD35CD84008BDC0
:1039E80000100240744F0008F0B583B00446036825
:1039F80013F4803F48D0914BDB6913F0805F40F0AF
:103A0800D5808E4BDA6942F08052DA61DB6903F0C7
:103A180080530193019B0125894B1B6813F4807F18
:103A280000F0C680854B1B6A13F4407322D062688D
:103A380002F440729A421DD08048016A21F440760F
:103A48004FF4803393FAA3F2B2FA82F27D4F3A44EC
:103A580092004FF0010CC2F800C093FAA3F3B3FA36
:103A680083F33B449B0000221A60066211F0010FA9
:103A780040F0B380714A136A23F4407361680B43C2
:103A88001362002D40F0D080236813F0010F06D098
:103A98006A4A136B23F00303A1680B43136323687B
:103AA80013F0020F06D0654A136B23F44033E16824
:103AB8000B431363236813F0040F06D05F4A136B9C
:103AC80023F4402321690B431363236813F0200F69
:103AD80006D05A4A136B23F01003E1690B431363B2
:103AE800236813F4003F06D0544A536823F4800334
:103AF800A16B0B435360236813F0400F06D04F4A65
:103B0800136B23F02003216A0B431363236813F01C
:103B1800080F06D0494A136B23F4401361690B431D
:103B28001363236813F0100F06D0444A136B23F471
:103B38004003A1690B431363236813F4007F06D085
:103B48003E4A536823F40003E16A0B435360236839
:103B580013F0800F06D0394AD36A23F4F873616AE8
:103B68000B43D362236813F4807F06D0334AD36AA9
:103B780023F47853A16A0B43D362236813F4805F5C
:103B880006D02E4A136B23F48073216B0B43136307
:103B9800236813F4005F4ED0284A136B23F4007394
:103BA800616B0B431363002003B0F0BD002533E7BE
:103BB800234A136843F480731360FFF7BDFA06467F
:103BC8001F4B1B6813F4807F7FF42CAFFFF7B4FA08
:103BD800801B6428F4D90320E6E7FFF7ADFA064610
:103BE80015E0164B196A022393FAA3F3B3FA83F389
:103BF80003F01F03012202FA03F30B427FF43AAFEA
:103C0800FFF79AFA801B41F28833984211D80223B1
:103C180093FAA3F293FAA3F3002BE2D1022393FAC7
:103C2800A3F3064B596ADEE7D36923F08053D361C7
:103C38002AE70320B8E70020B6E700BF00100240DB
:103C48000070004000819010F0B482B0002336E08C
:103C5800042400E00024B4403C4302355B4E46F89F
:103C680025405B4C2568D44304EA05064F6817F4E1
:103C7800803F01D042EA0506554D2E606D6804EA82
:103C880005064F6817F4003F01D042EA0506504D7B
:103C98006E60AD6804EA05064F6817F4801F01D00E
:103CA80042EA05064A4DAE60ED682C404E6816F4AF
:103CB800001F01D042EA0504454AD46001330A686E
:103CC80032FA03F47ED001249C402240F6D04D689D
:103CD800022D01D0122D10D1DE08083650F826C06A
:103CE80003F00705AF000F25BD402CEA050C0D6950
:103CF800BD4045EA0C0540F8265006685F000325DC
:103D0800BD40ED4305EA060C4E6806F00306BE40CA
:103D180046EA0C0606604E6806F1FF3CBCF1010F4E
:103D280003D9112E01D0122E10D1866805EA060C8F
:103D3800CE68BE4046EA0C068660466826EA040459
:103D48004E68C6F300169E4026434660C468254068
:103D58008C68BC402C43C4604C6814F0805FADD0C4
:103D68001C4CA56945F00105A561A46904F001048E
:103D78000194019C9D08AE1C144C54F8267003F065
:103D88000304A6000F24B44027EA0407B0F1904FBB
:103D98003FF460AF104CA0420ED004F58064A042FE
:103DA8000CD004F58064A0420AD004F58064A042D7
:103DB8003FF44EAF05244EE701244CE702244AE7BE
:103DC800032448E702B0F0BC704700BF0000014080
:103DD8000004014000100240000400480AB181615B
:103DE80070478162704743695940416170470000DC
:103DF800074AD36823F4E0631B041B0C000200F499
:103E0800E060184340F0BF6040F40030D060704775
:103E180000ED00E030B4174BDB68C3F30223C3F1B5
:103E28000704042C28BF04241D1D062D01D9033BBB
:103E380000E000234FF0FF3505FA04F421EA0401FD
:103E4800994005FA03F322EA03031943002809DB22
:103E58000901C9B200F1604000F5614080F8001323
:103E680030BC704700F00F000901C9B2024B195469
:103E7800F6E700BF00ED00E014ED00E000F01F02DF
:103E8800400901239340024A42F82030704700BF9E
:103E980000E100E00138B0F1807F0AD2064B58609B
:103EA800064AF02182F823100020986007221A6041
:103EB80070470120704700BF10E000E000ED00E00F
:103EC8001549D1F8883043F47003C1F88830134B92
:103ED8001A6842F001021A605868114A02405A6092
:103EE8001A6822F0847222F480321A601A6822F466
:103EF80080221A605A6822F4FE025A60DA6A22F0B6
:103F08000F02DA62186B074A02401A6300229A60AD
:103F18004FF000638B60704700ED00E00010024036
:103F28000CC07FF8CCFC00FF98B108B50346D0F868
:103F3800140210B10020C3F8140209B1C3F810121A
:103F48001846012380F8FC310270FCF777FF002047
:103F580008BD0220704719B1C0F81412002070473C
:103F68000220704708B5FCF795FF002008BD10B582
:103F78000446D0F814325B68017998472046FCF76C
:103F880091FF002010BD08B5D0F8143233B11B687A
:103F9800984708B9002008BD0220FCE70220FAE78C
:103FA80008B5D0F814325B689847002008BD38B5CA
:103FB800044600F50275284600F00EF90123C4F8FE
:103FC800F431B4F80E32C4F8F83194F8081201F05C
:103FD8001F03012B0FD05AB23AB1022B10D001F0B7
:103FE80080012046FCF771FF03E02946204600F0D7
:103FF80070FA002038BD2946204600F08EFAF8E70E
:104008002946204600F0A4FAF3E710B5044629BB78
:104018001346D0F8F421032A01D0002010BDD0F8AF
:104028000C11D0F8102191420BD8D0F814321B692A
:104038001BB190F8FC21032A0ED0204600F063FB48
:10404800EBE7891AC0F80C118A4228BF0A4692B2D7
:10405800194600F050FBE0E79847EEE70A46D0F82B
:1040680014329B69002BD8D090F8FC110329D4D1C5
:1040780011469847D1E710B50446002947D11346A1
:10408800D0F8F421022A05D094F80032012B3AD056
:10409800002010BDC169026A914217D88169B1FB3D
:1040A800F2F302FB13132BB98A4203D8D0F8F83184
:1040B800994218D3D4F81432DB681BB194F8FC2168
:1040C800032A1DD0204600F029FBDDE78A1AC261C9
:1040D80092B2194600F0F8FA00231A46194620460B
:1040E800FCF72AFFD0E70022114600F0EDFA002184
:1040F800C4F8F8110B460A462046FCF71DFFC3E733
:1041080020469847DEE7002384F80032C0E70A46D5
:10411800D0F814325B69002BBAD090F8FC1103294F
:10412800B6D111469847B3E738B504464023002274
:104138001146FCF7BFFE4025C4F810512B4600225B
:1041480080212046FCF7B6FE2562012384F8FC3165
:10415800D4F818322BB1D4F814325B682179204690
:104168009847002038BD01740020704790F8FC3152
:1041780080F8FD31042380F8FC310020704790F866
:10418800FD3180F8FC310020704708B590F8FC310B
:10419800032B01D0002008BDD0F81432DB69002BB6
:1041A800F8D09847F6E7002302781AB10133DBB25A
:1041B8000130F9E7184670474B88012B00D070474B
:1041C80010B50446C0F80432D0F814329B689847FA
:1041D800204600F098FA10BD0B7803704B784370B6
:1041E8008B78CA7803EB022343800B794A7903EB77
:1041F800022383808B79CA7903EB0223C38070473B
:1042080010B504468021FCF760FE00212046FCF72B
:104218005CFE10BD30B583B004460D4649880B0AD4
:10422800013B062B00F28480DFE803F004132782A9
:1042380082667300D0F810321B680DF10601007C0D
:104248009847BDF8062012B1EB88002B74D103B053
:1042580030BD037C43B9D0F814329B6A0DF10600D7
:10426800984702234370ECE7D0F81432DB6A0DF16B
:104278000600984702234370E3E7C9B2052934D8FA
:10428800DFE801F0030B131B232BD0F810325B6817
:104298000DF10601007C9847D3E7D0F810329B68EF
:1042A8000DF10601007C9847CBE7D0F81032DB68A7
:1042B8000DF10601007C9847C3E7D0F810321B695E
:1042C8000DF10601007C9847BBE7D0F810325B6916
:1042D8000DF10601007C9847B3E7D0F810329B69CE
:1042E8000DF10601007C9847ABE7D0F814329B6BC0
:1042F8000DF106029847A4E7037C33B9D0F81432CD
:104308005B6B0DF1060098479BE72946FFF778FF9E
:104318009DE7037C43B9D0F814321B6B0DF10600FE
:104328009847072343708CE72946FFF769FF8EE714
:104338002946FFF765FF8AE79A4228BF1A46ADF873
:1043480006200146204600F0B2F980E738B5044659
:104358008B88E3B9CB88D3B98D7805F07F0590F8C1
:10436800FC31032B0CD080F8FE512946FCF7D4FD14
:10437800204600F0C8F935B1022384F8FC3109E081
:10438800FFF73EFF06E0012384F8FC3102E02046F7
:10439800FFF736FF38BD000038B504460D4689786A
:1043A800254B1970012909D890F8FC31022B09D046
:1043B800032B1CD02946FFF723FF02E02946FFF70D
:1043C8001FFF38BD81B14160032380F8FC31FFF73E
:1043D800DAFD022803D0204600F095F9F1E72946D6
:1043E8002046FFF70DFFECE700F08DF9E9E789B10A
:1043F800436899421DD0D9B2FFF7D2FD0E4B197808
:1044080061602046FFF7BFFD02280DD0204600F06E
:104418007AF9D6E7022380F8FC314160FFF7C0FD46
:10442800204600F070F9CCE729462046FFF7E8FE61
:10443800C7E700F068F9C4E71C05002008B5CB8879
:10444800012B08D190F8FC31022B07D0032B0DD09B
:10445800FFF7D6FE01E0FFF7D3FE08BD01460023B3
:1044680041F8083F012200F022F9F6E70122011D78
:1044780000F01DF9F1E708B590F8FC31023B012B7B
:104488000CD80123C360D0F804320BB10323C360F6
:10449800022200F10C0100F00AF908BDFFF7B0FE96
:1044A800FBE710B5044690F8FC31023B012B0DD810
:1044B8004B88012B0CD10023C0F80432D0F81432F9
:1044C8009B689847204600F01EF901E0FFF798FE28
:1044D80010BD08B54B78092B1CD8DFE803F012187B
:1044E8001B151B09051B0F0CFFF794FE002008BDC8
:1044F800FFF72CFFFAE7FFF74FFFF7E7FFF79EFFFD
:10450800F4E7FFF7B8FFF1E7FFF756FEEEE7FFF72E
:10451800C8FFEBE7FFF774FEE8E738B504460D4639
:1045280090F8FC31032B0FD10B79012B09D8D0F867
:1045380014329B689847EB8843B9204600F0E3F8AB
:1045480004E0FFF75DFE01E0FFF75AFE002038BDEA
:1045580038B505460C468A880B7803F06003202B93
:1045680013D0D1B26378012B30D058B2002851D083
:10457800032B0ED195F8FC31022B0CD0032B12D053
:1045880021462846FFF73CFE03E0D0F814329B682A
:104598009847002038BD0029FBD08029F9D028464B
:1045A800FCF793FCF5E7638813B909B1802909D1B1
:1045B800D5F814329B68214628469847284600F0CB
:1045C800A2F8E6E72846FCF780FCF1E790F8FC3112
:1045D800022B05D0032B0AD02146FFF711FED8E79E
:1045E8000029D6D08029D4D0FCF76FFCD1E76388A6
:1045F800002BCED111F07F0F03D1284600F083F8AD
:10460800C7E7FCF76AFCD5F814329B6821462846B0
:104618009847F2E795F8FC31022B06D0032B0BD014
:1046280021462846FFF7ECFDB3E711F07F0FB0D025
:104638002846FCF74AFCACE712F0800F11D101F0D4
:104648007F04103405EB041404342846FCF74DFCB1
:1046580070B10123236002222146284600F027F882
:1046680097E701F07F04013405EB04140434ECE708
:1046780000232360EFE7C8B170B50D46164604461F
:10468800FFF791FD0130400080B23080287003238D
:104698006B700223217841B101345A1CD2B2E9541B
:1046A8000233DBB20021A954F4E770BD704710B59E
:1046B80013460222C0F8F4218361C3610A4600212F
:1046C800FCF732FC002010BD08B513460A4600214D
:1046D800FCF72AFC002008BD10B513460322C0F8D9
:1046E800F421C0F80831C0F80C310A460021FCF763
:1046F80023FC002010BD08B513460A460021FCF72C
:104708001BFC002008BD08B50423C0F8F4310023C1
:104718001A461946FCF708FC002008BD08B5052311
:10472800C0F8F43100231A461946FCF705FC0020AE
:1047380008BD00001B23038000487047B400002018
:104748000020704700207047002070470020704705
:1047580000207047002070470A23038000487047F4
:10476800D0000020D0F8183293F800240A2A11D07B
:104778000A2183F800140E2283F80124002283F80A
:10478800022483F8032483F8042483F8051483F8A7
:1047980006247047022183F80014002283F80124BC
:1047A80083F8022483F8032483F8042483F8051487
:1047B80083F806247047D0F8183293F800148A1E3C
:1047C800D2B2012A05D9052903D0062901D0092921
:1047D80013D1022183F80014002283F8012483F8FE
:1047E800022483F8032483F8042483F8051483F847
:1047F8000624C3F80824C3F80C247047062909D8EE
:1048080010B5D0F81C32044C21461868FFF733FF66
:10481800204610BD0020704720050020D0F818322F
:10482800002283F80724194A127D12F0040F0CD0D5
:10483800062183F80014002283F8022483F8032455
:1048480083F8042483F80514704710B5044608213A
:1048580083F80014002283F8022483F8032483F8E1
:10486800042483F80514FFF782FBD4F81C329B68F4
:104878009847BFF34F8F0649CA6802F4E062054BB8
:104888001343CB60BFF34F8F00BFFDE7B400002098
:1048980000ED00E00400FA0530B583B0D0F8184206
:1048A80094F80034042B04D0072B6AD0002003B0FE
:1048B80030BDD4F80834002B50D123781BB9D4F874
:1048C8000C24012A39D0212B19D0412B28D1D4F816
:1048D8000C34052B24D16378A27803EB0223E27809
:1048E80003EB0243227903EB0263C4F81034D0F8D7
:1048F8001C22D26818469047F8B10220D7E7D4F8AE
:104908000C24052AE1D16378A27803EB0223E2782C
:1049180003EB0243227903EB0263C4F810340CE082
:104928000023C4F80C34C4F808348DF8003001238F
:10493800ADF806306946FFF763FC0020C4F80C04A4
:10494800C4F80804032384F8003484F8020484F8C3
:10495800030484F8040484F80534A8E7012BECD98F
:104968000A491944D4F81054D0F81C321B69D4F8F9
:104978000C2405EB8121204698470028DDD0022031
:1049880095E7FFF74BFF002091E700BFFEFF3F00D0
:1049980070B5D0F81842CB88002B60D0054694F843
:1049A8000034022B01D0092B51D14B88C4F80834AC
:1049B800CA88C4F80C24D3B9032A16D9022284F869
:1049C8000024002384F8023484F8033484F804347F
:1049D80084F805242370212363704123A3700322E4
:1049E80021462846FFF763FE45E00922E7E7012B49
:1049F8001DD9092084F80004002184F8021484F8E1
:104A0800031484F8041484F805041B481844D4F8E3
:104A18001064D5F81C325B69214606EB8020984764
:104A2800B4F80C2401462846FFF741FE23E00F2284
:104A380084F80024002384F8023484F8033484F8CA
:104A4800043484F805242846FFF7DAFB13E0002332
:104A5800C4F80C34C4F80834FFF7D2FB0BE0022288
:104A680084F80024002384F8023484F8033484F89A
:104A7800043484F8052470BDFEFF3F0038B50546B0
:104A8800D0F8184294F80034032B08D0062B3CD0F9
:104A9800062204F201412846FFF709FE38BDD4F882
:104AA8000C342BB3042284F80024002384F8023445
:104AB80084F8033484F8043484F80524D4F80834DA
:104AC80013B92378412B09D0D5F81C329B6904F21D
:104AD80001420121D4F810049847D9E7D0F81C32D4
:104AE8009B6904F201420021D4F810049847CFE7EB
:104AF800052284F80024002384F8023484F803345F
:104B080084F8043484F80524C2E794F80734012BA8
:104B180013D0002BBCD1104B1B7D13F0040FB7D062
:104B2800022284F80024002384F8023484F8033431
:104B380084F8043484F80524AAE7072384F80034A9
:104B4800012284F80224002284F8032484F804242F
:104B580084F805349CE700BFB400002008B5D0F8FD
:104B68001812012201F58061FFF7A1FD08BD08B503
:104B7800D0F81832CA88BAB193F80024022A01D0B2
:104B8800052A0ED14A88C3F80824CA88C3F80C2419
:104B9800032183F8001483F805141946FFF79CFDD8
:104BA80017E0FFF72DFB14E093F80024052A01D045
:104BB800022A0FD1012283F80724062183F8001462
:104BC800002283F8022483F8032483F8042483F85A
:104BD800051408BDFFF714FBFBE7000010B50446F9
:104BE800D0F8183293F80004821ED2B2012A05D9EF
:104BF800052803D0062801D0092813D1022083F8FC
:104C08000004002283F8012483F8022483F8032493
:104C180083F8042483F8050483F80624C3F80824D9
:104C2800C3F80C24074B5B7D13F0100F06D0204609
:104C3800FFF79DF92046FFF795F910BD4888FEF764
:104C480081FAFAE7B400002010B5D0F818420B78C2
:104C580013F060032AD0202B54D14B78062B21D88F
:104C6800DFE803F01C04080C10141800FFF77FFF9E
:104C7800002048E0FFF78CFE002044E0FFF7FEFE2E
:104C8800002040E0FFF76EFD00203CE0FFF766FFE4
:104C9800002038E0FFF78FFD002034E0FFF79EFF8B
:104CA800002030E0FFF7ACFA02202CE04B780A2B0A
:104CB80017D00B2B1CD0062B03D0FFF7A1FA02202C
:104CC80021E04B881B0A212B05D000221146FFF753
:104CD800EEFC002017E0CA88092A28BF09220A49E1
:104CE800F5E7012204F21441FFF7E1FC00200AE095
:104CF8008B781BB9C4F81434002004E0FFF780FA5D
:104D0800022000E0002010BDC6000020D0F81832B4
:104D18000022C3F80824C3F80C24022183F80014E5
:104D280083F8012483F80514D0F8183273B110B54C
:104D38000446D0F81C329B689847D4F81802FCF750
:104D480007F90023C4F81832002010BD002070476E
:104D580010B504464FF48360FCF7F6F8C4F818025F
:104D680008B30023C0F814344FF00062C0F81024D0
:104D7800C0F80834C0F80C3480F80734022280F8F0
:104D8800002480F8013480F8023480F8033480F875
:104D9800043480F8052480F80634D4F81C325B68A3
:104DA800984710B910BD0220FCE70220FAE709B1C4
:104DB800C0F81C1200207047DFF834D0002103E04F
:104DC8000C4B5B58435004310B480C4B42189A4229
:104DD800F6D30B4A02E0002342F8043B094B9A42FF
:104DE800F9D3FFF76DF800F011F8FBF737FAFEE793
:104DF80000A00020844F000800000020DC000020F4
:104E0800DC000020D8110020FEE7000070B50D4D31
:104E18000D4C641BA4100026A64209D10B4D0C4C66
:104E280000F020F8641BA4100026A64205D170BD2E
:104E380055F8043B98470136EEE755F8043B984788
:104E48000136F2E77C4F00087C4F00087C4F0008D1
:104E5800804F000802440346934200D1704703F88C
:104E6800011BF9E7F8B500BFF8BC08BC9E467047BF
:0C4E7800F8B500BFF8BC08BC9E467047AF
:104E840048656C6C6F20576F726C640D0A000000EB
:104E940044465520436F6E666967000044465520BA
:104EA400496E7465726661636500000053544D6910
:104EB40063726F656C656374726F6E69637300000F
:104EC40053544D333220446F776E4C6F61642046E7
:104ED40069726D7761726520557064617465000054
:104EE40040496E7465726E616C20466C6173682013
:104EF40020202F307830383030303030302F30337D
:104F04002A3031364B612C30312A3031364B672C04
:104F140030312A3036344B672C30372A3132384B13
:104F2400672C30342A3031364B672C30312A3036F6
:104F3400344B672C30372A3132384B67000000007D
:104F440002030405060708090A0B0C0D0E0F1010C6
:104F54000102030405060708090A0B0C0D0E0F10C5
:104F64000000000000000000010203040607080915
:084F740000000000010203042B
:044F7C00AD0100087B
:044F8000890100089B
:104F84005D0F0008690F000819100008F50F0008EC
:104F9400E10F000835100008591000081201000242
:104FA40000000040830411DF00020102030100003D
:104FB400040309041A0300000000000000000000BC
:104FC40000000000000000000000000000000000DD
:104FD400E44E00087D1000088110000885100008C8
:104FE400891000088D1000089110000801000000CD
:104FF4001000000000127A00594D0008154D0008F9
:10500400514C0008A14800084D47000849470008D2
:105014005D470008514700085547000859470008F4
:105024003D4700083D4700083D4700086147000828
:105034000548000809021B00010102C032090400EE
:105044000000FE01020609210BFF0000041A010002
:0C5054000A0600020000004001000000FD
:0400000508004DC1E1
:00000001FF
